{
  "contractName": "ERCXTEST",
  "abi": [
    {
      "inputs": [
        {
          "internalType": "string",
          "name": "name",
          "type": "string"
        },
        {
          "internalType": "string",
          "name": "symbol",
          "type": "string"
        }
      ],
      "payable": false,
      "stateMutability": "nonpayable",
      "type": "constructor"
    },
    {
      "anonymous": false,
      "inputs": [
        {
          "indexed": true,
          "internalType": "address",
          "name": "owner",
          "type": "address"
        },
        {
          "indexed": true,
          "internalType": "address",
          "name": "approved",
          "type": "address"
        },
        {
          "indexed": true,
          "internalType": "uint256",
          "name": "tokenId",
          "type": "uint256"
        }
      ],
      "name": "Approval",
      "type": "event"
    },
    {
      "anonymous": false,
      "inputs": [
        {
          "indexed": true,
          "internalType": "address",
          "name": "owner",
          "type": "address"
        },
        {
          "indexed": true,
          "internalType": "address",
          "name": "operator",
          "type": "address"
        },
        {
          "indexed": false,
          "internalType": "bool",
          "name": "approved",
          "type": "bool"
        }
      ],
      "name": "ApprovalForAll",
      "type": "event"
    },
    {
      "anonymous": false,
      "inputs": [
        {
          "indexed": true,
          "internalType": "address",
          "name": "owner",
          "type": "address"
        },
        {
          "indexed": true,
          "internalType": "address",
          "name": "approved",
          "type": "address"
        },
        {
          "indexed": false,
          "internalType": "uint256",
          "name": "itemId",
          "type": "uint256"
        }
      ],
      "name": "ApprovalForOwner",
      "type": "event"
    },
    {
      "anonymous": false,
      "inputs": [
        {
          "indexed": true,
          "internalType": "address",
          "name": "user",
          "type": "address"
        },
        {
          "indexed": true,
          "internalType": "address",
          "name": "approved",
          "type": "address"
        },
        {
          "indexed": false,
          "internalType": "uint256",
          "name": "itemId",
          "type": "uint256"
        }
      ],
      "name": "ApprovalForUser",
      "type": "event"
    },
    {
      "anonymous": false,
      "inputs": [
        {
          "indexed": true,
          "internalType": "address",
          "name": "to",
          "type": "address"
        },
        {
          "indexed": true,
          "internalType": "uint256",
          "name": "itemId",
          "type": "uint256"
        }
      ],
      "name": "LienApproval",
      "type": "event"
    },
    {
      "anonymous": false,
      "inputs": [
        {
          "indexed": true,
          "internalType": "address",
          "name": "to",
          "type": "address"
        },
        {
          "indexed": true,
          "internalType": "uint256",
          "name": "itemId",
          "type": "uint256"
        },
        {
          "indexed": false,
          "internalType": "bool",
          "name": "status",
          "type": "bool"
        }
      ],
      "name": "LienSet",
      "type": "event"
    },
    {
      "anonymous": false,
      "inputs": [
        {
          "indexed": true,
          "internalType": "address",
          "name": "account",
          "type": "address"
        }
      ],
      "name": "MinterAdded",
      "type": "event"
    },
    {
      "anonymous": false,
      "inputs": [
        {
          "indexed": true,
          "internalType": "address",
          "name": "account",
          "type": "address"
        }
      ],
      "name": "MinterRemoved",
      "type": "event"
    },
    {
      "anonymous": false,
      "inputs": [],
      "name": "MintingFinished",
      "type": "event"
    },
    {
      "anonymous": false,
      "inputs": [
        {
          "indexed": true,
          "internalType": "address",
          "name": "to",
          "type": "address"
        },
        {
          "indexed": true,
          "internalType": "uint256",
          "name": "itemId",
          "type": "uint256"
        }
      ],
      "name": "TenantRightApproval",
      "type": "event"
    },
    {
      "anonymous": false,
      "inputs": [
        {
          "indexed": true,
          "internalType": "address",
          "name": "to",
          "type": "address"
        },
        {
          "indexed": true,
          "internalType": "uint256",
          "name": "itemId",
          "type": "uint256"
        },
        {
          "indexed": false,
          "internalType": "bool",
          "name": "status",
          "type": "bool"
        }
      ],
      "name": "TenantRightSet",
      "type": "event"
    },
    {
      "anonymous": false,
      "inputs": [
        {
          "indexed": true,
          "internalType": "address",
          "name": "from",
          "type": "address"
        },
        {
          "indexed": true,
          "internalType": "address",
          "name": "to",
          "type": "address"
        },
        {
          "indexed": true,
          "internalType": "uint256",
          "name": "tokenId",
          "type": "uint256"
        }
      ],
      "name": "Transfer",
      "type": "event"
    },
    {
      "anonymous": false,
      "inputs": [
        {
          "indexed": true,
          "internalType": "address",
          "name": "from",
          "type": "address"
        },
        {
          "indexed": true,
          "internalType": "address",
          "name": "to",
          "type": "address"
        },
        {
          "indexed": true,
          "internalType": "uint256",
          "name": "itemId",
          "type": "uint256"
        },
        {
          "indexed": false,
          "internalType": "address",
          "name": "operator",
          "type": "address"
        }
      ],
      "name": "TransferOwner",
      "type": "event"
    },
    {
      "anonymous": false,
      "inputs": [
        {
          "indexed": true,
          "internalType": "address",
          "name": "from",
          "type": "address"
        },
        {
          "indexed": true,
          "internalType": "address",
          "name": "to",
          "type": "address"
        },
        {
          "indexed": true,
          "internalType": "uint256",
          "name": "itemId",
          "type": "uint256"
        },
        {
          "indexed": false,
          "internalType": "address",
          "name": "operator",
          "type": "address"
        }
      ],
      "name": "TransferUser",
      "type": "event"
    },
    {
      "constant": false,
      "inputs": [
        {
          "internalType": "address",
          "name": "account",
          "type": "address"
        }
      ],
      "name": "addMinter",
      "outputs": [],
      "payable": false,
      "stateMutability": "nonpayable",
      "type": "function"
    },
    {
      "constant": false,
      "inputs": [
        {
          "internalType": "address",
          "name": "to",
          "type": "address"
        },
        {
          "internalType": "uint256",
          "name": "itemId",
          "type": "uint256"
        }
      ],
      "name": "approve",
      "outputs": [],
      "payable": false,
      "stateMutability": "nonpayable",
      "type": "function"
    },
    {
      "constant": false,
      "inputs": [
        {
          "internalType": "address",
          "name": "to",
          "type": "address"
        },
        {
          "internalType": "uint256",
          "name": "itemId",
          "type": "uint256"
        }
      ],
      "name": "approveForOwner",
      "outputs": [],
      "payable": false,
      "stateMutability": "nonpayable",
      "type": "function"
    },
    {
      "constant": false,
      "inputs": [
        {
          "internalType": "address",
          "name": "to",
          "type": "address"
        },
        {
          "internalType": "uint256",
          "name": "itemId",
          "type": "uint256"
        }
      ],
      "name": "approveForUser",
      "outputs": [],
      "payable": false,
      "stateMutability": "nonpayable",
      "type": "function"
    },
    {
      "constant": false,
      "inputs": [
        {
          "internalType": "address",
          "name": "to",
          "type": "address"
        },
        {
          "internalType": "uint256",
          "name": "itemId",
          "type": "uint256"
        }
      ],
      "name": "approveLien",
      "outputs": [],
      "payable": false,
      "stateMutability": "nonpayable",
      "type": "function"
    },
    {
      "constant": false,
      "inputs": [
        {
          "internalType": "address",
          "name": "to",
          "type": "address"
        },
        {
          "internalType": "uint256",
          "name": "itemId",
          "type": "uint256"
        }
      ],
      "name": "approveTenantRight",
      "outputs": [],
      "payable": false,
      "stateMutability": "nonpayable",
      "type": "function"
    },
    {
      "constant": true,
      "inputs": [
        {
          "internalType": "address",
          "name": "owner",
          "type": "address"
        }
      ],
      "name": "balanceOf",
      "outputs": [
        {
          "internalType": "uint256",
          "name": "",
          "type": "uint256"
        }
      ],
      "payable": false,
      "stateMutability": "view",
      "type": "function"
    },
    {
      "constant": true,
      "inputs": [
        {
          "internalType": "address",
          "name": "owner",
          "type": "address"
        }
      ],
      "name": "balanceOfOwner",
      "outputs": [
        {
          "internalType": "uint256",
          "name": "",
          "type": "uint256"
        }
      ],
      "payable": false,
      "stateMutability": "view",
      "type": "function"
    },
    {
      "constant": true,
      "inputs": [
        {
          "internalType": "address",
          "name": "user",
          "type": "address"
        }
      ],
      "name": "balanceOfUser",
      "outputs": [
        {
          "internalType": "uint256",
          "name": "",
          "type": "uint256"
        }
      ],
      "payable": false,
      "stateMutability": "view",
      "type": "function"
    },
    {
      "constant": true,
      "inputs": [],
      "name": "baseURI",
      "outputs": [
        {
          "internalType": "string",
          "name": "",
          "type": "string"
        }
      ],
      "payable": false,
      "stateMutability": "view",
      "type": "function"
    },
    {
      "constant": false,
      "inputs": [
        {
          "internalType": "uint256",
          "name": "itemId",
          "type": "uint256"
        }
      ],
      "name": "burn",
      "outputs": [],
      "payable": false,
      "stateMutability": "nonpayable",
      "type": "function"
    },
    {
      "constant": false,
      "inputs": [],
      "name": "finishMinting",
      "outputs": [
        {
          "internalType": "bool",
          "name": "",
          "type": "bool"
        }
      ],
      "payable": false,
      "stateMutability": "nonpayable",
      "type": "function"
    },
    {
      "constant": true,
      "inputs": [
        {
          "internalType": "uint256",
          "name": "itemId",
          "type": "uint256"
        }
      ],
      "name": "getApproved",
      "outputs": [
        {
          "internalType": "address",
          "name": "",
          "type": "address"
        }
      ],
      "payable": false,
      "stateMutability": "view",
      "type": "function"
    },
    {
      "constant": true,
      "inputs": [
        {
          "internalType": "uint256",
          "name": "itemId",
          "type": "uint256"
        }
      ],
      "name": "getApprovedForOwner",
      "outputs": [
        {
          "internalType": "address",
          "name": "",
          "type": "address"
        }
      ],
      "payable": false,
      "stateMutability": "view",
      "type": "function"
    },
    {
      "constant": true,
      "inputs": [
        {
          "internalType": "uint256",
          "name": "itemId",
          "type": "uint256"
        }
      ],
      "name": "getApprovedForUser",
      "outputs": [
        {
          "internalType": "address",
          "name": "",
          "type": "address"
        }
      ],
      "payable": false,
      "stateMutability": "view",
      "type": "function"
    },
    {
      "constant": true,
      "inputs": [
        {
          "internalType": "uint256",
          "name": "itemId",
          "type": "uint256"
        }
      ],
      "name": "getApprovedLien",
      "outputs": [
        {
          "internalType": "address",
          "name": "",
          "type": "address"
        }
      ],
      "payable": false,
      "stateMutability": "view",
      "type": "function"
    },
    {
      "constant": true,
      "inputs": [
        {
          "internalType": "uint256",
          "name": "itemId",
          "type": "uint256"
        }
      ],
      "name": "getApprovedTenantRight",
      "outputs": [
        {
          "internalType": "address",
          "name": "",
          "type": "address"
        }
      ],
      "payable": false,
      "stateMutability": "view",
      "type": "function"
    },
    {
      "constant": true,
      "inputs": [
        {
          "internalType": "uint256",
          "name": "itemId",
          "type": "uint256"
        }
      ],
      "name": "getCurrentLien",
      "outputs": [
        {
          "internalType": "address",
          "name": "",
          "type": "address"
        }
      ],
      "payable": false,
      "stateMutability": "view",
      "type": "function"
    },
    {
      "constant": true,
      "inputs": [
        {
          "internalType": "uint256",
          "name": "itemId",
          "type": "uint256"
        }
      ],
      "name": "getCurrentTenantRight",
      "outputs": [
        {
          "internalType": "address",
          "name": "",
          "type": "address"
        }
      ],
      "payable": false,
      "stateMutability": "view",
      "type": "function"
    },
    {
      "constant": true,
      "inputs": [
        {
          "internalType": "address",
          "name": "owner",
          "type": "address"
        },
        {
          "internalType": "address",
          "name": "operator",
          "type": "address"
        }
      ],
      "name": "isApprovedForAll",
      "outputs": [
        {
          "internalType": "bool",
          "name": "",
          "type": "bool"
        }
      ],
      "payable": false,
      "stateMutability": "view",
      "type": "function"
    },
    {
      "constant": true,
      "inputs": [
        {
          "internalType": "address",
          "name": "account",
          "type": "address"
        }
      ],
      "name": "isMinter",
      "outputs": [
        {
          "internalType": "bool",
          "name": "",
          "type": "bool"
        }
      ],
      "payable": false,
      "stateMutability": "view",
      "type": "function"
    },
    {
      "constant": true,
      "inputs": [
        {
          "internalType": "uint256",
          "name": "index",
          "type": "uint256"
        }
      ],
      "name": "itemByIndex",
      "outputs": [
        {
          "internalType": "uint256",
          "name": "",
          "type": "uint256"
        }
      ],
      "payable": false,
      "stateMutability": "view",
      "type": "function"
    },
    {
      "constant": true,
      "inputs": [
        {
          "internalType": "address",
          "name": "owner",
          "type": "address"
        },
        {
          "internalType": "uint256",
          "name": "index",
          "type": "uint256"
        }
      ],
      "name": "itemOfOwnerByIndex",
      "outputs": [
        {
          "internalType": "uint256",
          "name": "",
          "type": "uint256"
        }
      ],
      "payable": false,
      "stateMutability": "view",
      "type": "function"
    },
    {
      "constant": true,
      "inputs": [
        {
          "internalType": "address",
          "name": "user",
          "type": "address"
        },
        {
          "internalType": "uint256",
          "name": "index",
          "type": "uint256"
        }
      ],
      "name": "itemOfUserByIndex",
      "outputs": [
        {
          "internalType": "uint256",
          "name": "",
          "type": "uint256"
        }
      ],
      "payable": false,
      "stateMutability": "view",
      "type": "function"
    },
    {
      "constant": true,
      "inputs": [
        {
          "internalType": "uint256",
          "name": "itemId",
          "type": "uint256"
        }
      ],
      "name": "itemURI",
      "outputs": [
        {
          "internalType": "string",
          "name": "",
          "type": "string"
        }
      ],
      "payable": false,
      "stateMutability": "view",
      "type": "function"
    },
    {
      "constant": false,
      "inputs": [
        {
          "internalType": "address",
          "name": "to",
          "type": "address"
        },
        {
          "internalType": "uint256",
          "name": "itemId",
          "type": "uint256"
        }
      ],
      "name": "mint",
      "outputs": [
        {
          "internalType": "bool",
          "name": "",
          "type": "bool"
        }
      ],
      "payable": false,
      "stateMutability": "nonpayable",
      "type": "function"
    },
    {
      "constant": false,
      "inputs": [
        {
          "internalType": "address",
          "name": "to",
          "type": "address"
        },
        {
          "internalType": "uint256",
          "name": "itemId",
          "type": "uint256"
        },
        {
          "internalType": "string",
          "name": "itemURI",
          "type": "string"
        }
      ],
      "name": "mintWithItemURI",
      "outputs": [
        {
          "internalType": "bool",
          "name": "",
          "type": "bool"
        }
      ],
      "payable": false,
      "stateMutability": "nonpayable",
      "type": "function"
    },
    {
      "constant": true,
      "inputs": [],
      "name": "mintingFinished",
      "outputs": [
        {
          "internalType": "bool",
          "name": "",
          "type": "bool"
        }
      ],
      "payable": false,
      "stateMutability": "view",
      "type": "function"
    },
    {
      "constant": true,
      "inputs": [],
      "name": "name",
      "outputs": [
        {
          "internalType": "string",
          "name": "",
          "type": "string"
        }
      ],
      "payable": false,
      "stateMutability": "view",
      "type": "function"
    },
    {
      "constant": true,
      "inputs": [
        {
          "internalType": "uint256",
          "name": "itemId",
          "type": "uint256"
        }
      ],
      "name": "ownerOf",
      "outputs": [
        {
          "internalType": "address",
          "name": "",
          "type": "address"
        }
      ],
      "payable": false,
      "stateMutability": "view",
      "type": "function"
    },
    {
      "constant": false,
      "inputs": [],
      "name": "renounceMinter",
      "outputs": [],
      "payable": false,
      "stateMutability": "nonpayable",
      "type": "function"
    },
    {
      "constant": false,
      "inputs": [
        {
          "internalType": "uint256",
          "name": "itemId",
          "type": "uint256"
        }
      ],
      "name": "revokeLien",
      "outputs": [],
      "payable": false,
      "stateMutability": "nonpayable",
      "type": "function"
    },
    {
      "constant": false,
      "inputs": [
        {
          "internalType": "uint256",
          "name": "itemId",
          "type": "uint256"
        }
      ],
      "name": "revokeTenantRight",
      "outputs": [],
      "payable": false,
      "stateMutability": "nonpayable",
      "type": "function"
    },
    {
      "constant": false,
      "inputs": [
        {
          "internalType": "address",
          "name": "from",
          "type": "address"
        },
        {
          "internalType": "address",
          "name": "to",
          "type": "address"
        },
        {
          "internalType": "uint256",
          "name": "itemId",
          "type": "uint256"
        }
      ],
      "name": "safeTransferFrom",
      "outputs": [],
      "payable": false,
      "stateMutability": "nonpayable",
      "type": "function"
    },
    {
      "constant": false,
      "inputs": [
        {
          "internalType": "address",
          "name": "from",
          "type": "address"
        },
        {
          "internalType": "address",
          "name": "to",
          "type": "address"
        },
        {
          "internalType": "uint256",
          "name": "itemId",
          "type": "uint256"
        },
        {
          "internalType": "bytes",
          "name": "data",
          "type": "bytes"
        }
      ],
      "name": "safeTransferFrom",
      "outputs": [],
      "payable": false,
      "stateMutability": "nonpayable",
      "type": "function"
    },
    {
      "constant": false,
      "inputs": [
        {
          "internalType": "address",
          "name": "from",
          "type": "address"
        },
        {
          "internalType": "address",
          "name": "to",
          "type": "address"
        },
        {
          "internalType": "uint256",
          "name": "itemId",
          "type": "uint256"
        },
        {
          "internalType": "bytes",
          "name": "data",
          "type": "bytes"
        }
      ],
      "name": "safeTransferOwner",
      "outputs": [],
      "payable": false,
      "stateMutability": "nonpayable",
      "type": "function"
    },
    {
      "constant": false,
      "inputs": [
        {
          "internalType": "address",
          "name": "from",
          "type": "address"
        },
        {
          "internalType": "address",
          "name": "to",
          "type": "address"
        },
        {
          "internalType": "uint256",
          "name": "itemId",
          "type": "uint256"
        }
      ],
      "name": "safeTransferOwner",
      "outputs": [],
      "payable": false,
      "stateMutability": "nonpayable",
      "type": "function"
    },
    {
      "constant": false,
      "inputs": [
        {
          "internalType": "address",
          "name": "from",
          "type": "address"
        },
        {
          "internalType": "address",
          "name": "to",
          "type": "address"
        },
        {
          "internalType": "uint256",
          "name": "itemId",
          "type": "uint256"
        },
        {
          "internalType": "bytes",
          "name": "data",
          "type": "bytes"
        }
      ],
      "name": "safeTransferUser",
      "outputs": [],
      "payable": false,
      "stateMutability": "nonpayable",
      "type": "function"
    },
    {
      "constant": false,
      "inputs": [
        {
          "internalType": "address",
          "name": "from",
          "type": "address"
        },
        {
          "internalType": "address",
          "name": "to",
          "type": "address"
        },
        {
          "internalType": "uint256",
          "name": "itemId",
          "type": "uint256"
        }
      ],
      "name": "safeTransferUser",
      "outputs": [],
      "payable": false,
      "stateMutability": "nonpayable",
      "type": "function"
    },
    {
      "constant": false,
      "inputs": [
        {
          "internalType": "address",
          "name": "to",
          "type": "address"
        },
        {
          "internalType": "bool",
          "name": "approved",
          "type": "bool"
        }
      ],
      "name": "setApprovalForAll",
      "outputs": [],
      "payable": false,
      "stateMutability": "nonpayable",
      "type": "function"
    },
    {
      "constant": false,
      "inputs": [
        {
          "internalType": "uint256",
          "name": "itemId",
          "type": "uint256"
        }
      ],
      "name": "setLien",
      "outputs": [],
      "payable": false,
      "stateMutability": "nonpayable",
      "type": "function"
    },
    {
      "constant": false,
      "inputs": [
        {
          "internalType": "uint256",
          "name": "itemId",
          "type": "uint256"
        }
      ],
      "name": "setTenantRight",
      "outputs": [],
      "payable": false,
      "stateMutability": "nonpayable",
      "type": "function"
    },
    {
      "constant": true,
      "inputs": [
        {
          "internalType": "bytes4",
          "name": "interfaceId",
          "type": "bytes4"
        }
      ],
      "name": "supportsInterface",
      "outputs": [
        {
          "internalType": "bool",
          "name": "",
          "type": "bool"
        }
      ],
      "payable": false,
      "stateMutability": "view",
      "type": "function"
    },
    {
      "constant": true,
      "inputs": [],
      "name": "symbol",
      "outputs": [
        {
          "internalType": "string",
          "name": "",
          "type": "string"
        }
      ],
      "payable": false,
      "stateMutability": "view",
      "type": "function"
    },
    {
      "constant": true,
      "inputs": [],
      "name": "totalNumberOfItems",
      "outputs": [
        {
          "internalType": "uint256",
          "name": "",
          "type": "uint256"
        }
      ],
      "payable": false,
      "stateMutability": "view",
      "type": "function"
    },
    {
      "constant": false,
      "inputs": [
        {
          "internalType": "address",
          "name": "from",
          "type": "address"
        },
        {
          "internalType": "address",
          "name": "to",
          "type": "address"
        },
        {
          "internalType": "uint256",
          "name": "itemId",
          "type": "uint256"
        }
      ],
      "name": "transferFrom",
      "outputs": [],
      "payable": false,
      "stateMutability": "nonpayable",
      "type": "function"
    },
    {
      "constant": true,
      "inputs": [
        {
          "internalType": "uint256",
          "name": "itemId",
          "type": "uint256"
        }
      ],
      "name": "userOf",
      "outputs": [
        {
          "internalType": "address",
          "name": "",
          "type": "address"
        }
      ],
      "payable": false,
      "stateMutability": "view",
      "type": "function"
    },
    {
      "constant": true,
      "inputs": [
        {
          "internalType": "uint256",
          "name": "itemId",
          "type": "uint256"
        }
      ],
      "name": "exists",
      "outputs": [
        {
          "internalType": "bool",
          "name": "",
          "type": "bool"
        }
      ],
      "payable": false,
      "stateMutability": "view",
      "type": "function"
    },
    {
      "constant": false,
      "inputs": [
        {
          "internalType": "uint256",
          "name": "itemId",
          "type": "uint256"
        },
        {
          "internalType": "string",
          "name": "uri",
          "type": "string"
        }
      ],
      "name": "setItemURI",
      "outputs": [],
      "payable": false,
      "stateMutability": "nonpayable",
      "type": "function"
    },
    {
      "constant": false,
      "inputs": [
        {
          "internalType": "string",
          "name": "uri",
          "type": "string"
        }
      ],
      "name": "setBaseURI",
      "outputs": [],
      "payable": false,
      "stateMutability": "nonpayable",
      "type": "function"
    }
  ],
  "bytecode": "0x60806040526000601260006101000a81548160ff0219169083151502179055503480156200002c57600080fd5b506040516200619a3803806200619a833981810160405260408110156200005257600080fd5b81019080805160405193929190846401000000008211156200007357600080fd5b838201915060208201858111156200008a57600080fd5b8251866001820283011164010000000082111715620000a857600080fd5b8083526020830192505050908051906020019080838360005b83811015620000de578082015181840152602081019050620000c1565b50505050905090810190601f1680156200010c5780820380516001836020036101000a031916815260200191505b50604052602001805160405193929190846401000000008211156200013057600080fd5b838201915060208201858111156200014757600080fd5b82518660018202830111640100000000821117156200016557600080fd5b8083526020830192505050908051906020019080838360005b838110156200019b5780820151818401526020810190506200017e565b50505050905090810190601f168015620001c95780820380516001836020036101000a031916815260200191505b50604052505050818181818181620001ee6301ffc9a760e01b6200081660201b60201c565b6200066160405180807f7265766f6b6554656e616e7452696768742875696e7432353629000000000000815250601a019050604051809103902060405180807f67657443757272656e7454656e616e7452696768742875696e74323536290000815250601e019050604051809103902060405180807f73657454656e616e7452696768742875696e74323536290000000000000000008152506017019050604051809103902060405180807f676574417070726f76656454656e616e7452696768742875696e743235362900815250601f019050604051809103902060405180806200602a602491396024019050604051809103902060405180807f7265766f6b654c69656e2875696e7432353629000000000000000000000000008152506013019050604051809103902060405180807f67657443757272656e744c69656e2875696e74323536290000000000000000008152506017019050604051809103902060405180807f7365744c69656e2875696e7432353629000000000000000000000000000000008152506010019050604051809103902060405180807f676574417070726f7665644c69656e2875696e743235362900000000000000008152506018019050604051809103902060405180807f617070726f76654c69656e28616464726573732c2075696e7432353629000000815250601d01905060405180910390206040518080620060a1602291396022019050604051809103902060405180807f736574417070726f76616c466f72416c6c28616464726573732c20626f6f6c298152506020019050604051809103902060405180807f676574417070726f766564466f72557365722875696e74323536290000000000815250601b019050604051809103902060405180807f617070726f7665466f725573657228616464726573732c2075696e74323536298152506020019050604051809103902060405180807f676574417070726f766564466f724f776e65722875696e743235362900000000815250601c019050604051809103902060405180806200604e602191396021019050604051809103902060405180806200606f603291396032019050604051809103902060405180806200616f602b9139602b019050604051809103902060405180806200611160339139603301905060405180910390206040518080620060c3602c9139602c019050604051809103902060405180807f757365724f662875696e74323536290000000000000000000000000000000000815250600f019050604051809103902060405180807f6f776e65724f662875696e7432353629000000000000000000000000000000008152506010019050604051809103902060405180807f62616c616e63654f6655736572286164647265737329000000000000000000008152506016019050604051809103902060405180807f62616c616e63654f664f776e65722861646472657373290000000000000000008152506017019050604051809103902018181818181818181818181818181818181818181818186200081660201b60201c565b620006f960405180807f6974656d4279496e6465782875696e743235362900000000000000000000000081525060140190506040518091039020604051808062006144602b9139602b019050604051809103902060405180807f746f74616c4e756d6265724f664974656d7328290000000000000000000000008152506014019050604051809103902018186200081660201b60201c565b81600d90805190602001906200071192919062000b44565b5080600e90805190602001906200072a92919062000b44565b50620007df60405180807f6974656d5552492875696e7432353629000000000000000000000000000000008152506010019050604051809103902060405180807f73796d626f6c28290000000000000000000000000000000000000000000000008152506008019050604051809103902060405180807f6e616d65282900000000000000000000000000000000000000000000000000008152506006019050604051809103902018186200081660201b60201c565b5050620007f96380ac58cd60e01b6200081660201b60201c565b50506200080c336200091f60201b60201c565b5050505062000bf3565b63ffffffff60e01b817bffffffffffffffffffffffffffffffffffffffffffffffffffffffff19161415620008b3576040517f08c379a000000000000000000000000000000000000000000000000000000000815260040180806020018281038252601c8152602001807f4552433136353a20696e76616c696420696e746572666163652069640000000081525060200191505060405180910390fd5b6001600080837bffffffffffffffffffffffffffffffffffffffffffffffffffffffff19167bffffffffffffffffffffffffffffffffffffffffffffffffffffffff1916815260200190815260200160002060006101000a81548160ff02191690831515021790555050565b6200093a8160116200098060201b62004b991790919060201c565b8073ffffffffffffffffffffffffffffffffffffffff167f6ae172837ea30b801fbfcdd4108aa1d5bf8ff775444fd70256b44e6bf3dfc3f660405160405180910390a250565b62000992828262000a6460201b60201c565b1562000a06576040517f08c379a000000000000000000000000000000000000000000000000000000000815260040180806020018281038252601f8152602001807f526f6c65733a206163636f756e7420616c72656164792068617320726f6c650081525060200191505060405180910390fd5b60018260000160008373ffffffffffffffffffffffffffffffffffffffff1673ffffffffffffffffffffffffffffffffffffffff16815260200190815260200160002060006101000a81548160ff0219169083151502179055505050565b60008073ffffffffffffffffffffffffffffffffffffffff168273ffffffffffffffffffffffffffffffffffffffff16141562000aed576040517f08c379a0000000000000000000000000000000000000000000000000000000008152600401808060200182810382526022815260200180620060ef6022913960400191505060405180910390fd5b8260000160008373ffffffffffffffffffffffffffffffffffffffff1673ffffffffffffffffffffffffffffffffffffffff16815260200190815260200160002060009054906101000a900460ff16905092915050565b828054600181600116156101000203166002900490600052602060002090601f016020900481019282601f1062000b8757805160ff191683800117855562000bb8565b8280016001018555821562000bb8579182015b8281111562000bb757825182559160200191906001019062000b9a565b5b50905062000bc7919062000bcb565b5090565b62000bf091905b8082111562000bec57600081600090555060010162000bd2565b5090565b90565b6154278062000c036000396000f3fe608060405234801561001057600080fd5b50600436106102d65760003560e01c806362b2167911610182578063a9c75186116100e9578063c043f83c116100a2578063d872095a1161007c578063d872095a146115ca578063e985e9c514611638578063ea4eb8f2146116b4578063ed7f723c14611722576102d6565b8063c043f83c14611496578063c2f1f14a14611504578063c66130d714611572576102d6565b8063a9c75186146110f9578063aa271e1a14611127578063acb35dc714611183578063b21e4ebd1461122a578063b6f0a8341461128c578063b88d4fde14611391576102d6565b80637d64bcb41161013b5780637d64bcb414610f685780637e8ca07914610f8a57806395d89b4114610fd8578063983b2d561461105b578063986502751461109f578063a22cb465146110a9576102d6565b806362b2167914610d455780636352211e14610db35780636494aa6214610e215780636c0360eb14610e6f57806370324f2b14610ef257806370a0823114610f10576102d6565b806323b872dd1161024157806342966c68116101fa5780634cfd83be116101d45780634cfd83be14610b115780634f558e7914610c1657806355f804b314610c5c578063578a930b14610d17576102d6565b806342966c68146109b85780634532e07e146109e65780634716472414610ae3576102d6565b806323b872dd1461076c5780632afbf019146107da5780633593d11b146108285780633b58452e1461089657806340c10f19146108e457806342842e0e1461094a576102d6565b80630b20055e116102935780630b20055e146105665780630dca1c891461059457806312cae7af1461060257806313b01a811461065a578063173cc522146106bc5780631f11d46b146106fe576102d6565b806301ffc9a7146102db57806303cb92fc1461034057806305d2035b1461040557806306fdde0314610427578063081812fc146104aa578063095ea7b314610518575b600080fd5b610326600480360360208110156102f157600080fd5b8101908080357bffffffffffffffffffffffffffffffffffffffffffffffffffffffff19169060200190929190505050611790565b604051808215151515815260200191505060405180910390f35b6104036004803603604081101561035657600080fd5b81019080803590602001909291908035906020019064010000000081111561037d57600080fd5b82018360208201111561038f57600080fd5b803590602001918460018302840111640100000000831117156103b157600080fd5b91908080601f016020809104026020016040519081016040528093929190818152602001838380828437600081840152601f19601f8201169050808301925050505050505091929192905050506117f7565b005b61040d611863565b604051808215151515815260200191505060405180910390f35b61042f61187a565b6040518080602001828103825283818151815260200191508051906020019080838360005b8381101561046f578082015181840152602081019050610454565b50505050905090810190601f16801561049c5780820380516001836020036101000a031916815260200191505b509250505060405180910390f35b6104d6600480360360208110156104c057600080fd5b810190808035906020019092919050505061191c565b604051808273ffffffffffffffffffffffffffffffffffffffff1673ffffffffffffffffffffffffffffffffffffffff16815260200191505060405180910390f35b6105646004803603604081101561052e57600080fd5b81019080803573ffffffffffffffffffffffffffffffffffffffff1690602001909291908035906020019092919050505061192e565b005b6105926004803603602081101561057c57600080fd5b81019080803590602001909291905050506119a5565b005b6105c0600480360360208110156105aa57600080fd5b8101908080359060200190929190505050611aa2565b604051808273ffffffffffffffffffffffffffffffffffffffff1673ffffffffffffffffffffffffffffffffffffffff16815260200191505060405180910390f35b6106446004803603602081101561061857600080fd5b81019080803573ffffffffffffffffffffffffffffffffffffffff169060200190929190505050611af3565b6040518082815260200191505060405180910390f35b6106a66004803603604081101561067057600080fd5b81019080803573ffffffffffffffffffffffffffffffffffffffff16906020019092919080359060200190929190505050611b94565b6040518082815260200191505060405180910390f35b6106e8600480360360208110156106d257600080fd5b8101908080359060200190929190505050611c19565b6040518082815260200191505060405180910390f35b61072a6004803603602081101561071457600080fd5b8101908080359060200190929190505050611c4d565b604051808273ffffffffffffffffffffffffffffffffffffffff1673ffffffffffffffffffffffffffffffffffffffff16815260200191505060405180910390f35b6107d86004803603606081101561078257600080fd5b81019080803573ffffffffffffffffffffffffffffffffffffffff169060200190929190803573ffffffffffffffffffffffffffffffffffffffff16906020019092919080359060200190929190505050611c9e565b005b610826600480360360408110156107f057600080fd5b81019080803573ffffffffffffffffffffffffffffffffffffffff16906020019092919080359060200190929190505050611d7d565b005b6108546004803603602081101561083e57600080fd5b8101908080359060200190929190505050611ea7565b604051808273ffffffffffffffffffffffffffffffffffffffff1673ffffffffffffffffffffffffffffffffffffffff16815260200191505060405180910390f35b6108e2600480360360408110156108ac57600080fd5b81019080803573ffffffffffffffffffffffffffffffffffffffff16906020019092919080359060200190929190505050611ef8565b005b610930600480360360408110156108fa57600080fd5b81019080803573ffffffffffffffffffffffffffffffffffffffff16906020019092919080359060200190929190505050612169565b604051808215151515815260200191505060405180910390f35b6109b66004803603606081101561096057600080fd5b81019080803573ffffffffffffffffffffffffffffffffffffffff169060200190929190803573ffffffffffffffffffffffffffffffffffffffff169060200190929190803590602001909291905050506121f7565b005b6109e4600480360360208110156109ce57600080fd5b8101908080359060200190929190505050612217565b005b610ac9600480360360608110156109fc57600080fd5b81019080803573ffffffffffffffffffffffffffffffffffffffff1690602001909291908035906020019092919080359060200190640100000000811115610a4357600080fd5b820183602082011115610a5557600080fd5b80359060200191846001830284011164010000000083111715610a7757600080fd5b91908080601f016020809104026020016040519081016040528093929190818152602001838380828437600081840152601f19601f820116905080830192505050505050509192919290505050612223565b604051808215151515815260200191505060405180910390f35b610b0f60048036036020811015610af957600080fd5b81019080803590602001909291905050506122bd565b005b610c1460048036036080811015610b2757600080fd5b81019080803573ffffffffffffffffffffffffffffffffffffffff169060200190929190803573ffffffffffffffffffffffffffffffffffffffff1690602001909291908035906020019092919080359060200190640100000000811115610b8e57600080fd5b820183602082011115610ba057600080fd5b80359060200191846001830284011164010000000083111715610bc257600080fd5b91908080601f016020809104026020016040519081016040528093929190818152602001838380828437600081840152601f19601f8201169050808301925050505050505091929192905050506123af565b005b610c4260048036036020811015610c2c57600080fd5b81019080803590602001909291905050506123d8565b604051808215151515815260200191505060405180910390f35b610d1560048036036020811015610c7257600080fd5b8101908080359060200190640100000000811115610c8f57600080fd5b820183602082011115610ca157600080fd5b80359060200191846001830284011164010000000083111715610cc357600080fd5b91908080601f016020809104026020016040519081016040528093929190818152602001838380828437600081840152601f19601f8201169050808301925050505050505091929192905050506123ec565b005b610d4360048036036020811015610d2d57600080fd5b8101908080359060200190929190505050612456565b005b610d7160048036036020811015610d5b57600080fd5b8101908080359060200190929190505050612541565b604051808273ffffffffffffffffffffffffffffffffffffffff1673ffffffffffffffffffffffffffffffffffffffff16815260200191505060405180910390f35b610ddf60048036036020811015610dc957600080fd5b81019080803590602001909291905050506125a4565b604051808273ffffffffffffffffffffffffffffffffffffffff1673ffffffffffffffffffffffffffffffffffffffff16815260200191505060405180910390f35b610e6d60048036036040811015610e3757600080fd5b81019080803573ffffffffffffffffffffffffffffffffffffffff169060200190929190803590602001909291905050506125b6565b005b610e77612713565b6040518080602001828103825283818151815260200191508051906020019080838360005b83811015610eb7578082015181840152602081019050610e9c565b50505050905090810190601f168015610ee45780820380516001836020036101000a031916815260200191505b509250505060405180910390f35b610efa6127b5565b6040518082815260200191505060405180910390f35b610f5260048036036020811015610f2657600080fd5b81019080803573ffffffffffffffffffffffffffffffffffffffff1690602001909291905050506127c2565b6040518082815260200191505060405180910390f35b610f706127d4565b604051808215151515815260200191505060405180910390f35b610fd660048036036040811015610fa057600080fd5b81019080803573ffffffffffffffffffffffffffffffffffffffff1690602001909291908035906020019092919050505061289c565b005b610fe06129c6565b6040518080602001828103825283818151815260200191508051906020019080838360005b83811015611020578082015181840152602081019050611005565b50505050905090810190601f16801561104d5780820380516001836020036101000a031916815260200191505b509250505060405180910390f35b61109d6004803603602081101561107157600080fd5b81019080803573ffffffffffffffffffffffffffffffffffffffff169060200190929190505050612a68565b005b6110a7612ad2565b005b6110f7600480360360408110156110bf57600080fd5b81019080803573ffffffffffffffffffffffffffffffffffffffff169060200190929190803515159060200190929190505050612add565b005b6111256004803603602081101561110f57600080fd5b8101908080359060200190929190505050612c17565b005b6111696004803603602081101561113d57600080fd5b81019080803573ffffffffffffffffffffffffffffffffffffffff169060200190929190505050612d02565b604051808215151515815260200191505060405180910390f35b6111af6004803603602081101561119957600080fd5b8101908080359060200190929190505050612d1f565b6040518080602001828103825283818151815260200191508051906020019080838360005b838110156111ef5780820151818401526020810190506111d4565b50505050905090810190601f16801561121c5780820380516001836020036101000a031916815260200191505b509250505060405180910390f35b6112766004803603604081101561124057600080fd5b81019080803573ffffffffffffffffffffffffffffffffffffffff16906020019092919080359060200190929190505050612f40565b6040518082815260200191505060405180910390f35b61138f600480360360808110156112a257600080fd5b81019080803573ffffffffffffffffffffffffffffffffffffffff169060200190929190803573ffffffffffffffffffffffffffffffffffffffff169060200190929190803590602001909291908035906020019064010000000081111561130957600080fd5b82018360208201111561131b57600080fd5b8035906020019184600183028401116401000000008311171561133d57600080fd5b91908080601f016020809104026020016040519081016040528093929190818152602001838380828437600081840152601f19601f820116905080830192505050505050509192919290505050612fc5565b005b611494600480360360808110156113a757600080fd5b81019080803573ffffffffffffffffffffffffffffffffffffffff169060200190929190803573ffffffffffffffffffffffffffffffffffffffff169060200190929190803590602001909291908035906020019064010000000081111561140e57600080fd5b82018360208201111561142057600080fd5b8035906020019184600183028401116401000000008311171561144257600080fd5b91908080601f016020809104026020016040519081016040528093929190818152602001838380828437600081840152601f19601f820116905080830192505050505050509192919290505050612fee565b005b6114c2600480360360208110156114ac57600080fd5b8101908080359060200190929190505050613060565b604051808273ffffffffffffffffffffffffffffffffffffffff1673ffffffffffffffffffffffffffffffffffffffff16815260200191505060405180910390f35b6115306004803603602081101561151a57600080fd5b81019080803590602001909291905050506130b1565b604051808273ffffffffffffffffffffffffffffffffffffffff1673ffffffffffffffffffffffffffffffffffffffff16815260200191505060405180910390f35b6115b46004803603602081101561158857600080fd5b81019080803573ffffffffffffffffffffffffffffffffffffffff16906020019092919050505061313f565b6040518082815260200191505060405180910390f35b611636600480360360608110156115e057600080fd5b81019080803573ffffffffffffffffffffffffffffffffffffffff169060200190929190803573ffffffffffffffffffffffffffffffffffffffff169060200190929190803590602001909291905050506131e0565b005b61169a6004803603604081101561164e57600080fd5b81019080803573ffffffffffffffffffffffffffffffffffffffff169060200190929190803573ffffffffffffffffffffffffffffffffffffffff169060200190929190505050613200565b604051808215151515815260200191505060405180910390f35b6116e0600480360360208110156116ca57600080fd5b8101908080359060200190929190505050613294565b604051808273ffffffffffffffffffffffffffffffffffffffff1673ffffffffffffffffffffffffffffffffffffffff16815260200191505060405180910390f35b61178e6004803603606081101561173857600080fd5b81019080803573ffffffffffffffffffffffffffffffffffffffff169060200190929190803573ffffffffffffffffffffffffffffffffffffffff16906020019092919080359060200190929190505050613360565b005b6000806000837bffffffffffffffffffffffffffffffffffffffffffffffffffffffff19167bffffffffffffffffffffffffffffffffffffffffffffffffffffffff1916815260200190815260200160002060009054906101000a900460ff169050919050565b61180033612d02565b611855576040517f08c379a00000000000000000000000000000000000000000000000000000000081526004018080602001828103825260308152602001806153526030913960400191505060405180910390fd5b61185f8282613380565b5050565b6000601260009054906101000a900460ff16905090565b6060600d8054600181600116156101000203166002900480601f0160208091040260200160405190810160405280929190818152602001828054600181600116156101000203166002900480156119125780601f106118e757610100808354040283529160200191611912565b820191906000526020600020905b8154815290600101906020018083116118f557829003601f168201915b5050505050905090565b600061192782613294565b9050919050565b61193882826125b6565b6000611943826125a4565b9050818373ffffffffffffffffffffffffffffffffffffffff168273ffffffffffffffffffffffffffffffffffffffff167f8c5be1e5ebec7d5bd14f71427d1e84f3dd0314c0f7b2291e5b200ac8c7c3b92560405160405180910390a4505050565b6119ae81613060565b73ffffffffffffffffffffffffffffffffffffffff163373ffffffffffffffffffffffffffffffffffffffff16146119e557600080fd5b336008600083815260200190815260200160002060006101000a81548173ffffffffffffffffffffffffffffffffffffffff021916908373ffffffffffffffffffffffffffffffffffffffff160217905550611a40816133c0565b611a4b81600161347e565b803373ffffffffffffffffffffffffffffffffffffffff167f61f383bb3b27cd35ab1b0353eff732709f4d8c7ba28da80d9f11f58d6ab2c4776001604051808215151515815260200191505060405180910390a350565b6000611aaf82600261355f565b611ab857600080fd5b6008600083815260200190815260200160002060009054906101000a900473ffffffffffffffffffffffffffffffffffffffff169050919050565b60008073ffffffffffffffffffffffffffffffffffffffff168273ffffffffffffffffffffffffffffffffffffffff161415611b2e57600080fd5b6000611b89600360008573ffffffffffffffffffffffffffffffffffffffff1673ffffffffffffffffffffffffffffffffffffffff1681526020019081526020016000206000600181526020019081526020016000206135e3565b905080915050919050565b6000611b9f83611af3565b8210611baa57600080fd5b600960006001815260200190815260200160002060008473ffffffffffffffffffffffffffffffffffffffff1673ffffffffffffffffffffffffffffffffffffffff1681526020019081526020016000208281548110611c0657fe5b9060005260206000200154905092915050565b6000611c236127b5565b8210611c2e57600080fd5b600b8281548110611c3b57fe5b90600052602060002001549050919050565b6000611c5a82600261355f565b611c6357600080fd5b6005600083815260200190815260200160002060009054906101000a900473ffffffffffffffffffffffffffffffffffffffff169050919050565b611caa338260026135f1565b611cb357600080fd5b600073ffffffffffffffffffffffffffffffffffffffff16611cd482611aa2565b73ffffffffffffffffffffffffffffffffffffffff161415611d0f57611cfd83838360016138b4565b611d0a83838360026138b4565b611d1d565b611d1c83838360026138b4565b5b808273ffffffffffffffffffffffffffffffffffffffff168473ffffffffffffffffffffffffffffffffffffffff167fddf252ad1be2c89b69c2b068fc378daa952ba7f163c4a11628f55a4df523b3ef60405160405180910390a4505050565b6000611d88826125a4565b90508073ffffffffffffffffffffffffffffffffffffffff168373ffffffffffffffffffffffffffffffffffffffff161415611dc357600080fd5b8073ffffffffffffffffffffffffffffffffffffffff163373ffffffffffffffffffffffffffffffffffffffff161480611e035750611e028133613200565b5b611e0c57600080fd5b826007600084815260200190815260200160002060006101000a81548173ffffffffffffffffffffffffffffffffffffffff021916908373ffffffffffffffffffffffffffffffffffffffff160217905550818373ffffffffffffffffffffffffffffffffffffffff167f0c884ec16d4df04dda9d6b34c3952b016f96ebc493dfa60c89ad5edd81d4fb0b60405160405180910390a3505050565b6000611eb482600261355f565b611ebd57600080fd5b6006600083815260200190815260200160002060009054906101000a900473ffffffffffffffffffffffffffffffffffffffff169050919050565b6000611f03826130b1565b90506000611f10836125a4565b90508073ffffffffffffffffffffffffffffffffffffffff168473ffffffffffffffffffffffffffffffffffffffff1614158015611f7a57508173ffffffffffffffffffffffffffffffffffffffff168473ffffffffffffffffffffffffffffffffffffffff1614155b611f8357600080fd5b8173ffffffffffffffffffffffffffffffffffffffff163373ffffffffffffffffffffffffffffffffffffffff161480611fe857508073ffffffffffffffffffffffffffffffffffffffff163373ffffffffffffffffffffffffffffffffffffffff16145b80611ff95750611ff88233613200565b5b8061200a57506120098133613200565b5b61201357600080fd5b8073ffffffffffffffffffffffffffffffffffffffff163373ffffffffffffffffffffffffffffffffffffffff16148061205357506120528133613200565b5b1561209a57600073ffffffffffffffffffffffffffffffffffffffff1661207984611aa2565b73ffffffffffffffffffffffffffffffffffffffff161461209957600080fd5b5b836002600085815260200190815260200160002060006001815260200190815260200160002060006101000a81548173ffffffffffffffffffffffffffffffffffffffff021916908373ffffffffffffffffffffffffffffffffffffffff1602179055508373ffffffffffffffffffffffffffffffffffffffff168273ffffffffffffffffffffffffffffffffffffffff167fa09bf3dd3238f9ce83e7feb7735fc7c137f90979b5aae4f7f01ae73b24181570856040518082815260200191505060405180910390a350505050565b600061217433612d02565b6121c9576040517f08c379a00000000000000000000000000000000000000000000000000000000081526004018080602001828103825260308152602001806153526030913960400191505060405180910390fd5b601260009054906101000a900460ff16156121e357600080fd5b6121ed83836138dc565b6001905092915050565b61221283838360405180602001604052806000815250612fee565b505050565b6122208161390b565b50565b600061222e33612d02565b612283576040517f08c379a00000000000000000000000000000000000000000000000000000000081526004018080602001828103825260308152602001806153526030913960400191505060405180910390fd5b601260009054906101000a900460ff161561229d57600080fd5b6122a78484612169565b506122b28383613380565b600190509392505050565b6122c681611c4d565b73ffffffffffffffffffffffffffffffffffffffff163373ffffffffffffffffffffffffffffffffffffffff16146122fd57600080fd5b336006600083815260200190815260200160002060006101000a81548173ffffffffffffffffffffffffffffffffffffffff021916908373ffffffffffffffffffffffffffffffffffffffff16021790555061235881613966565b803373ffffffffffffffffffffffffffffffffffffffff167f697a63882786c4e4b3b3cc495872d3d6e9e7953336ac7d30cf6207086274bdd36001604051808215151515815260200191505060405180910390a350565b6123bb338360016135f1565b6123c457600080fd5b6123d2848484600185613a24565b50505050565b60006123e582600161355f565b9050919050565b6123f533612d02565b61244a576040517f08c379a00000000000000000000000000000000000000000000000000000000081526004018080602001828103825260308152602001806153526030913960400191505060405180910390fd5b61245381613a99565b50565b61245f81611ea7565b73ffffffffffffffffffffffffffffffffffffffff163373ffffffffffffffffffffffffffffffffffffffff161461249657600080fd5b60006006600083815260200190815260200160002060006101000a81548173ffffffffffffffffffffffffffffffffffffffff021916908373ffffffffffffffffffffffffffffffffffffffff16021790555080600073ffffffffffffffffffffffffffffffffffffffff167f697a63882786c4e4b3b3cc495872d3d6e9e7953336ac7d30cf6207086274bdd36000604051808215151515815260200191505060405180910390a350565b600061254e82600161355f565b61255757600080fd5b6002600083815260200190815260200160002060006001815260200190815260200160002060009054906101000a900473ffffffffffffffffffffffffffffffffffffffff169050919050565b60006125af82613ab3565b9050919050565b60006125c1826125a4565b90508073ffffffffffffffffffffffffffffffffffffffff168373ffffffffffffffffffffffffffffffffffffffff1614156125fc57600080fd5b8073ffffffffffffffffffffffffffffffffffffffff163373ffffffffffffffffffffffffffffffffffffffff16148061263c575061263b8133613200565b5b61264557600080fd5b826002600084815260200190815260200160002060006002815260200190815260200160002060006101000a81548173ffffffffffffffffffffffffffffffffffffffff021916908373ffffffffffffffffffffffffffffffffffffffff1602179055508273ffffffffffffffffffffffffffffffffffffffff168173ffffffffffffffffffffffffffffffffffffffff167f14ecf0643b070217924915201071c2f1842b5a0448d350f34dbbfe23616e07f3846040518082815260200191505060405180910390a3505050565b6060600f8054600181600116156101000203166002900480601f0160208091040260200160405190810160405280929190818152602001828054600181600116156101000203166002900480156127ab5780601f10612780576101008083540402835291602001916127ab565b820191906000526020600020905b81548152906001019060200180831161278e57829003601f168201915b5050505050905090565b6000600b80549050905090565b60006127cd8261313f565b9050919050565b60006127df33612d02565b612834576040517f08c379a00000000000000000000000000000000000000000000000000000000081526004018080602001828103825260308152602001806153526030913960400191505060405180910390fd5b601260009054906101000a900460ff161561284e57600080fd5b6001601260006101000a81548160ff0219169083151502179055507fb828d9b5c78095deeeeff2eca2e5d4fe046ce3feb4c99702624a3fd384ad2dbc60405160405180910390a16001905090565b60006128a7826125a4565b90508073ffffffffffffffffffffffffffffffffffffffff168373ffffffffffffffffffffffffffffffffffffffff1614156128e257600080fd5b8073ffffffffffffffffffffffffffffffffffffffff163373ffffffffffffffffffffffffffffffffffffffff16148061292257506129218133613200565b5b61292b57600080fd5b826005600084815260200190815260200160002060006101000a81548173ffffffffffffffffffffffffffffffffffffffff021916908373ffffffffffffffffffffffffffffffffffffffff160217905550818373ffffffffffffffffffffffffffffffffffffffff167f1ce7b0eca78337592451ad94da2c4fab6d3ef935144d93c358e1b2dd1b07871460405160405180910390a3505050565b6060600e8054600181600116156101000203166002900480601f016020809104026020016040519081016040528092919081815260200182805460018160011615610100020316600290048015612a5e5780601f10612a3357610100808354040283529160200191612a5e565b820191906000526020600020905b815481529060010190602001808311612a4157829003601f168201915b5050505050905090565b612a7133612d02565b612ac6576040517f08c379a00000000000000000000000000000000000000000000000000000000081526004018080602001828103825260308152602001806153526030913960400191505060405180910390fd5b612acf81613b41565b50565b612adb33613b9b565b565b3373ffffffffffffffffffffffffffffffffffffffff168273ffffffffffffffffffffffffffffffffffffffff161415612b1657600080fd5b80600460003373ffffffffffffffffffffffffffffffffffffffff1673ffffffffffffffffffffffffffffffffffffffff16815260200190815260200160002060008473ffffffffffffffffffffffffffffffffffffffff1673ffffffffffffffffffffffffffffffffffffffff16815260200190815260200160002060006101000a81548160ff0219169083151502179055508173ffffffffffffffffffffffffffffffffffffffff163373ffffffffffffffffffffffffffffffffffffffff167f17307eab39ab6107e8899845ad3d59bd9653f200f220920489ca2b5937696c3183604051808215151515815260200191505060405180910390a35050565b612c2081611aa2565b73ffffffffffffffffffffffffffffffffffffffff163373ffffffffffffffffffffffffffffffffffffffff1614612c5757600080fd5b60006008600083815260200190815260200160002060006101000a81548173ffffffffffffffffffffffffffffffffffffffff021916908373ffffffffffffffffffffffffffffffffffffffff16021790555080600073ffffffffffffffffffffffffffffffffffffffff167f61f383bb3b27cd35ab1b0353eff732709f4d8c7ba28da80d9f11f58d6ab2c4776000604051808215151515815260200191505060405180910390a350565b6000612d18826011613bf590919063ffffffff16565b9050919050565b6060612d2c82600161355f565b612d9e576040517f08c379a000000000000000000000000000000000000000000000000000000000815260040180806020018281038252601e8152602001807f55524920717565727920666f72206e6f6e6578697374656e74206974656d000081525060200191505060405180910390fd5b6060601060008481526020019081526020016000208054600181600116156101000203166002900480601f016020809104026020016040519081016040528092919081815260200182805460018160011615610100020316600290048015612e475780601f10612e1c57610100808354040283529160200191612e47565b820191906000526020600020905b815481529060010190602001808311612e2a57829003601f168201915b50505050509050600081511415612e705760405180602001604052806000815250915050612f3b565b600f816040516020018083805460018160011615610100020316600290048015612ed15780601f10612eaf576101008083540402835291820191612ed1565b820191906000526020600020905b815481529060010190602001808311612ebd575b505082805190602001908083835b60208310612f025780518252602082019150602081019050602083039250612edf565b6001836020036101000a038019825116818451168082178552505050505050905001925050506040516020818303038152906040529150505b919050565b6000612f4b8361313f565b8210612f5657600080fd5b600960006002815260200190815260200160002060008473ffffffffffffffffffffffffffffffffffffffff1673ffffffffffffffffffffffffffffffffffffffff1681526020019081526020016000208281548110612fb257fe5b9060005260206000200154905092915050565b612fd1338360026135f1565b612fda57600080fd5b612fe8848484600285613a24565b50505050565b612ff9848484611c9e565b61300584848484613cd3565b61305a576040517f08c379a00000000000000000000000000000000000000000000000000000000081526004018080602001828103825260328152602001806153206032913960400191505060405180910390fd5b50505050565b600061306d82600261355f565b61307657600080fd5b6007600083815260200190815260200160002060009054906101000a900473ffffffffffffffffffffffffffffffffffffffff169050919050565b6000806001600084815260200190815260200160002060006001815260200190815260200160002060009054906101000a900473ffffffffffffffffffffffffffffffffffffffff169050600073ffffffffffffffffffffffffffffffffffffffff168173ffffffffffffffffffffffffffffffffffffffff16141561313657600080fd5b80915050919050565b60008073ffffffffffffffffffffffffffffffffffffffff168273ffffffffffffffffffffffffffffffffffffffff16141561317a57600080fd5b60006131d5600360008573ffffffffffffffffffffffffffffffffffffffff1673ffffffffffffffffffffffffffffffffffffffff1681526020019081526020016000206000600281526020019081526020016000206135e3565b905080915050919050565b6131fb838383604051806020016040528060008152506123af565b505050565b6000600460008473ffffffffffffffffffffffffffffffffffffffff1673ffffffffffffffffffffffffffffffffffffffff16815260200190815260200160002060008373ffffffffffffffffffffffffffffffffffffffff1673ffffffffffffffffffffffffffffffffffffffff16815260200190815260200160002060009054906101000a900460ff16905092915050565b60006132a182600261355f565b613313576040517f08c379a00000000000000000000000000000000000000000000000000000000081526004018080602001828103825260158152602001807f6e6f206f776e657220617070726f76616c20736574000000000000000000000081525060200191505060405180910390fd5b6002600083815260200190815260200160002060006002815260200190815260200160002060009054906101000a900473ffffffffffffffffffffffffffffffffffffffff169050919050565b61337b83838360405180602001604052806000815250612fc5565b505050565b61338b82600161355f565b61339457600080fd5b806010600084815260200190815260200160002090805190602001906133bb929190615206565b505050565b600073ffffffffffffffffffffffffffffffffffffffff166007600083815260200190815260200160002060009054906101000a900473ffffffffffffffffffffffffffffffffffffffff1673ffffffffffffffffffffffffffffffffffffffff161461347b5760006007600083815260200190815260200160002060006101000a81548173ffffffffffffffffffffffffffffffffffffffff021916908373ffffffffffffffffffffffffffffffffffffffff1602179055505b50565b600073ffffffffffffffffffffffffffffffffffffffff1660026000848152602001908152602001600020600083815260200190815260200160002060009054906101000a900473ffffffffffffffffffffffffffffffffffffffff1673ffffffffffffffffffffffffffffffffffffffff161461355b57600060026000848152602001908152602001600020600083815260200190815260200160002060006101000a81548173ffffffffffffffffffffffffffffffffffffffff021916908373ffffffffffffffffffffffffffffffffffffffff1602179055505b5050565b60008060016000858152602001908152602001600020600084815260200190815260200160002060009054906101000a900473ffffffffffffffffffffffffffffffffffffffff169050600073ffffffffffffffffffffffffffffffffffffffff168173ffffffffffffffffffffffffffffffffffffffff16141591505092915050565b600081600001549050919050565b60006135fd838361355f565b61360657600080fd5b60018214156137c757600061361a846130b1565b90506000613627856125a4565b90508173ffffffffffffffffffffffffffffffffffffffff168673ffffffffffffffffffffffffffffffffffffffff16148061368e57508073ffffffffffffffffffffffffffffffffffffffff168673ffffffffffffffffffffffffffffffffffffffff16145b8061369f575061369e8287613200565b5b806136b057506136af8187613200565b5b806136ee57506136bf85612541565b73ffffffffffffffffffffffffffffffffffffffff168673ffffffffffffffffffffffffffffffffffffffff16145b8061372c57506136fd85611ea7565b73ffffffffffffffffffffffffffffffffffffffff168673ffffffffffffffffffffffffffffffffffffffff16145b61373557600080fd5b8073ffffffffffffffffffffffffffffffffffffffff168673ffffffffffffffffffffffffffffffffffffffff16148061377557506137748187613200565b5b156137bc57600073ffffffffffffffffffffffffffffffffffffffff1661379b86611aa2565b73ffffffffffffffffffffffffffffffffffffffff16146137bb57600080fd5b5b6001925050506138ad565b60028214156138ac5760006137db846125a4565b90508073ffffffffffffffffffffffffffffffffffffffff168573ffffffffffffffffffffffffffffffffffffffff16148061381d575061381c8186613200565b5b8061385b575061382c84613294565b73ffffffffffffffffffffffffffffffffffffffff168573ffffffffffffffffffffffffffffffffffffffff16145b80613899575061386a84611ea7565b73ffffffffffffffffffffffffffffffffffffffff168573ffffffffffffffffffffffffffffffffffffffff16145b6138a257600080fd5b60019150506138ad565b5b9392505050565b6138c084848484613ebc565b6138cb8483836141f7565b6138d68383836143fc565b50505050565b6138e682826144f7565b6138f2828260016143fc565b6138fe828260026143fc565b613907816148bc565b5050565b61391481614908565b60006010600083815260200190815260200160002080546001816001161561010002031660029004905014613963576010600082815260200190815260200160002060006139629190615286565b5b50565b600073ffffffffffffffffffffffffffffffffffffffff166005600083815260200190815260200160002060009054906101000a900473ffffffffffffffffffffffffffffffffffffffff1673ffffffffffffffffffffffffffffffffffffffff1614613a215760006005600083815260200190815260200160002060006101000a81548173ffffffffffffffffffffffffffffffffffffffff021916908373ffffffffffffffffffffffffffffffffffffffff1602179055505b50565b613a30858585856138b4565b613a3d85858585856149a7565b613a92576040517f08c379a000000000000000000000000000000000000000000000000000000000815260040180806020018281038252602e8152602001806153c5602e913960400191505060405180910390fd5b5050505050565b80600f9080519060200190613aaf929190615206565b5050565b6000806001600084815260200190815260200160002060006002815260200190815260200160002060009054906101000a900473ffffffffffffffffffffffffffffffffffffffff169050600073ffffffffffffffffffffffffffffffffffffffff168173ffffffffffffffffffffffffffffffffffffffff161415613b3857600080fd5b80915050919050565b613b55816011614b9990919063ffffffff16565b8073ffffffffffffffffffffffffffffffffffffffff167f6ae172837ea30b801fbfcdd4108aa1d5bf8ff775444fd70256b44e6bf3dfc3f660405160405180910390a250565b613baf816011614c7490919063ffffffff16565b8073ffffffffffffffffffffffffffffffffffffffff167fe94479a9f7e1952cc78f2d6baab678adc1b772d936c6583def489e524cb6669260405160405180910390a250565b60008073ffffffffffffffffffffffffffffffffffffffff168273ffffffffffffffffffffffffffffffffffffffff161415613c7c576040517f08c379a00000000000000000000000000000000000000000000000000000000081526004018080602001828103825260228152602001806153a36022913960400191505060405180910390fd5b8260000160008373ffffffffffffffffffffffffffffffffffffffff1673ffffffffffffffffffffffffffffffffffffffff16815260200190815260200160002060009054906101000a900460ff16905092915050565b6000613cf48473ffffffffffffffffffffffffffffffffffffffff16614d31565b613d015760019050613eb4565b60008473ffffffffffffffffffffffffffffffffffffffff1663150b7a02338887876040518563ffffffff1660e01b8152600401808573ffffffffffffffffffffffffffffffffffffffff1673ffffffffffffffffffffffffffffffffffffffff1681526020018473ffffffffffffffffffffffffffffffffffffffff1673ffffffffffffffffffffffffffffffffffffffff16815260200183815260200180602001828103825283818151815260200191508051906020019080838360005b83811015613ddc578082015181840152602081019050613dc1565b50505050905090810190601f168015613e095780820380516001836020036101000a031916815260200191505b5095505050505050602060405180830381600087803b158015613e2b57600080fd5b505af1158015613e3f573d6000803e3d6000fd5b505050506040513d6020811015613e5557600080fd5b8101908080519060200190929190505050905063150b7a0260e01b7bffffffffffffffffffffffffffffffffffffffffffffffffffffffff1916817bffffffffffffffffffffffffffffffffffffffffffffffffffffffff1916149150505b949350505050565b6001811415613f0a578373ffffffffffffffffffffffffffffffffffffffff16613ee5836130b1565b73ffffffffffffffffffffffffffffffffffffffff1614613f0557600080fd5b613f4b565b8373ffffffffffffffffffffffffffffffffffffffff16613f2a836125a4565b73ffffffffffffffffffffffffffffffffffffffff1614613f4a57600080fd5b5b600073ffffffffffffffffffffffffffffffffffffffff168373ffffffffffffffffffffffffffffffffffffffff161415613f8557600080fd5b613f8f828261347e565b6002811415613fab57613fa182613966565b613faa826133c0565b5b614003600360008673ffffffffffffffffffffffffffffffffffffffff1673ffffffffffffffffffffffffffffffffffffffff1681526020019081526020016000206000838152602001908152602001600020614d44565b61405b600360008573ffffffffffffffffffffffffffffffffffffffff1673ffffffffffffffffffffffffffffffffffffffff1681526020019081526020016000206000838152602001908152602001600020614d67565b8260016000848152602001908152602001600020600083815260200190815260200160002060006101000a81548173ffffffffffffffffffffffffffffffffffffffff021916908373ffffffffffffffffffffffffffffffffffffffff160217905550600181141561415e57818373ffffffffffffffffffffffffffffffffffffffff168573ffffffffffffffffffffffffffffffffffffffff167f65f4ec73ce02035b6afc3f2f2125216c5138cd9067bce6ebbdc3b84816fd13ed33604051808273ffffffffffffffffffffffffffffffffffffffff1673ffffffffffffffffffffffffffffffffffffffff16815260200191505060405180910390a46141f1565b818373ffffffffffffffffffffffffffffffffffffffff168573ffffffffffffffffffffffffffffffffffffffff167fcb841bc9006096b45791cffe31afee827510e6dc0a8381bdbc047d6ab332960133604051808273ffffffffffffffffffffffffffffffffffffffff1673ffffffffffffffffffffffffffffffffffffffff16815260200191505060405180910390a45b50505050565b600061426060016009600085815260200190815260200160002060008773ffffffffffffffffffffffffffffffffffffffff1673ffffffffffffffffffffffffffffffffffffffff16815260200190815260200160002080549050614d7d90919063ffffffff16565b90506000600a600084815260200190815260200160002060008581526020019081526020016000205490508181146143915760006009600085815260200190815260200160002060008773ffffffffffffffffffffffffffffffffffffffff1673ffffffffffffffffffffffffffffffffffffffff16815260200190815260200160002083815481106142ef57fe5b90600052602060002001549050806009600086815260200190815260200160002060008873ffffffffffffffffffffffffffffffffffffffff1673ffffffffffffffffffffffffffffffffffffffff168152602001908152602001600020838154811061435857fe5b906000526020600020018190555081600a6000868152602001908152602001600020600083815260200190815260200160002081905550505b6009600084815260200190815260200160002060008673ffffffffffffffffffffffffffffffffffffffff1673ffffffffffffffffffffffffffffffffffffffff1681526020019081526020016000208054809190600190036143f491906152ce565b505050505050565b6009600082815260200190815260200160002060008473ffffffffffffffffffffffffffffffffffffffff1673ffffffffffffffffffffffffffffffffffffffff16815260200190815260200160002080549050600a60008381526020019081526020016000206000848152602001908152602001600020819055506009600082815260200190815260200160002060008473ffffffffffffffffffffffffffffffffffffffff1673ffffffffffffffffffffffffffffffffffffffff168152602001908152602001600020829080600181540180825580915050906001820390600052602060002001600090919290919091505550505050565b600073ffffffffffffffffffffffffffffffffffffffff168273ffffffffffffffffffffffffffffffffffffffff16141561459a576040517f08c379a000000000000000000000000000000000000000000000000000000000815260040180806020018281038252601e8152602001807f455243583a206d696e7420746f20746865207a65726f2061646472657373000081525060200191505060405180910390fd5b6145a581600161355f565b15614618576040517f08c379a00000000000000000000000000000000000000000000000000000000081526004018080602001828103825260198152602001807f455243583a206974656d20616c7265616479206d696e7465640000000000000081525060200191505060405180910390fd5b816001600083815260200190815260200160002060006001815260200190815260200160002060006101000a81548173ffffffffffffffffffffffffffffffffffffffff021916908373ffffffffffffffffffffffffffffffffffffffff160217905550816001600083815260200190815260200160002060006002815260200190815260200160002060006101000a81548173ffffffffffffffffffffffffffffffffffffffff021916908373ffffffffffffffffffffffffffffffffffffffff160217905550614739600360008473ffffffffffffffffffffffffffffffffffffffff1673ffffffffffffffffffffffffffffffffffffffff168152602001908152602001600020600060018152602001908152602001600020614d67565b614792600360008473ffffffffffffffffffffffffffffffffffffffff1673ffffffffffffffffffffffffffffffffffffffff168152602001908152602001600020600060028152602001908152602001600020614d67565b808273ffffffffffffffffffffffffffffffffffffffff16600073ffffffffffffffffffffffffffffffffffffffff167f65f4ec73ce02035b6afc3f2f2125216c5138cd9067bce6ebbdc3b84816fd13ed33604051808273ffffffffffffffffffffffffffffffffffffffff1673ffffffffffffffffffffffffffffffffffffffff16815260200191505060405180910390a4808273ffffffffffffffffffffffffffffffffffffffff16600073ffffffffffffffffffffffffffffffffffffffff167fcb841bc9006096b45791cffe31afee827510e6dc0a8381bdbc047d6ab332960133604051808273ffffffffffffffffffffffffffffffffffffffff1673ffffffffffffffffffffffffffffffffffffffff16815260200191505060405180910390a45050565b600b80549050600c600083815260200190815260200160002081905550600b81908060018154018082558091505090600182039060005260206000200160009091929091909150555050565b6000614913826130b1565b90506000614920836125a4565b905061492b83614e06565b614937828460016141f7565b614943818460026141f7565b6000600a6000600181526020019081526020016000206000858152602001908152602001600020819055506000600a6000600281526020019081526020016000206000858152602001908152602001600020819055506149a28361514c565b505050565b60006149c88573ffffffffffffffffffffffffffffffffffffffff16614d31565b6149d55760019050614b90565b60008573ffffffffffffffffffffffffffffffffffffffff16631c14516233898888886040518663ffffffff1660e01b8152600401808673ffffffffffffffffffffffffffffffffffffffff1673ffffffffffffffffffffffffffffffffffffffff1681526020018573ffffffffffffffffffffffffffffffffffffffff1673ffffffffffffffffffffffffffffffffffffffff16815260200184815260200183815260200180602001828103825283818151815260200191508051906020019080838360005b83811015614ab7578082015181840152602081019050614a9c565b50505050905090810190601f168015614ae45780820380516001836020036101000a031916815260200191505b509650505050505050602060405180830381600087803b158015614b0757600080fd5b505af1158015614b1b573d6000803e3d6000fd5b505050506040513d6020811015614b3157600080fd5b81019080805190602001909291905050509050631111111160e01b7bffffffffffffffffffffffffffffffffffffffffffffffffffffffff1916817bffffffffffffffffffffffffffffffffffffffffffffffffffffffff1916149150505b95945050505050565b614ba38282613bf5565b15614c16576040517f08c379a000000000000000000000000000000000000000000000000000000000815260040180806020018281038252601f8152602001807f526f6c65733a206163636f756e7420616c72656164792068617320726f6c650081525060200191505060405180910390fd5b60018260000160008373ffffffffffffffffffffffffffffffffffffffff1673ffffffffffffffffffffffffffffffffffffffff16815260200190815260200160002060006101000a81548160ff0219169083151502179055505050565b614c7e8282613bf5565b614cd3576040517f08c379a00000000000000000000000000000000000000000000000000000000081526004018080602001828103825260218152602001806153826021913960400191505060405180910390fd5b60008260000160008373ffffffffffffffffffffffffffffffffffffffff1673ffffffffffffffffffffffffffffffffffffffff16815260200190815260200160002060006101000a81548160ff0219169083151502179055505050565b600080823b905060008111915050919050565b614d5c60018260000154614d7d90919063ffffffff16565b816000018190555050565b6001816000016000828254019250508190555050565b600082821115614df5576040517f08c379a000000000000000000000000000000000000000000000000000000000815260040180806020018281038252601e8152602001807f536166654d6174683a207375627472616374696f6e206f766572666c6f77000081525060200191505060405180910390fd5b600082840390508091505092915050565b6000614e11826130b1565b90506000614e1e836125a4565b90503373ffffffffffffffffffffffffffffffffffffffff168273ffffffffffffffffffffffffffffffffffffffff16148015614e8657503373ffffffffffffffffffffffffffffffffffffffff168173ffffffffffffffffffffffffffffffffffffffff16145b614e8f57600080fd5b614e9a83600161347e565b614ea583600261347e565b614efe600360008473ffffffffffffffffffffffffffffffffffffffff1673ffffffffffffffffffffffffffffffffffffffff168152602001908152602001600020600060018152602001908152602001600020614d44565b614f57600360008373ffffffffffffffffffffffffffffffffffffffff1673ffffffffffffffffffffffffffffffffffffffff168152602001908152602001600020600060028152602001908152602001600020614d44565b60006001600085815260200190815260200160002060006001815260200190815260200160002060006101000a81548173ffffffffffffffffffffffffffffffffffffffff021916908373ffffffffffffffffffffffffffffffffffffffff16021790555060006001600085815260200190815260200160002060006002815260200190815260200160002060006101000a81548173ffffffffffffffffffffffffffffffffffffffff021916908373ffffffffffffffffffffffffffffffffffffffff16021790555082600073ffffffffffffffffffffffffffffffffffffffff168373ffffffffffffffffffffffffffffffffffffffff167f65f4ec73ce02035b6afc3f2f2125216c5138cd9067bce6ebbdc3b84816fd13ed33604051808273ffffffffffffffffffffffffffffffffffffffff1673ffffffffffffffffffffffffffffffffffffffff16815260200191505060405180910390a482600073ffffffffffffffffffffffffffffffffffffffff168273ffffffffffffffffffffffffffffffffffffffff167fcb841bc9006096b45791cffe31afee827510e6dc0a8381bdbc047d6ab332960133604051808273ffffffffffffffffffffffffffffffffffffffff1673ffffffffffffffffffffffffffffffffffffffff16815260200191505060405180910390a4505050565b60006151676001600b80549050614d7d90919063ffffffff16565b90506000600c60008481526020019081526020016000205490506000600b838154811061519057fe5b9060005260206000200154905080600b83815481106151ab57fe5b906000526020600020018190555081600c600083815260200190815260200160002081905550600b8054809190600190036151e691906152ce565b506000600c60008681526020019081526020016000208190555050505050565b828054600181600116156101000203166002900490600052602060002090601f016020900481019282601f1061524757805160ff1916838001178555615275565b82800160010185558215615275579182015b82811115615274578251825591602001919060010190615259565b5b50905061528291906152fa565b5090565b50805460018160011615610100020316600290046000825580601f106152ac57506152cb565b601f0160209004906000526020600020908101906152ca91906152fa565b5b50565b8154818355818111156152f5578183600052602060002091820191016152f491906152fa565b5b505050565b61531c91905b80821115615318576000816000905550600101615300565b5090565b9056fe4552433732313a207472616e7366657220746f206e6f6e20455243373231526563656976657220696d706c656d656e7465724d696e746572526f6c653a2063616c6c657220646f6573206e6f74206861766520746865204d696e74657220726f6c65526f6c65733a206163636f756e7420646f6573206e6f74206861766520726f6c65526f6c65733a206163636f756e7420697320746865207a65726f2061646472657373455243583a207472616e7366657220746f206e6f6e2045524358526563656976657220696d706c656d656e746572a265627a7a72315820d6f9c74b71d15f0655c97842e60fa5652e6d9dc4faddb863aab798588645f87f64736f6c63430005100032617070726f766554656e616e74526967687428616464726573732c2075696e7432353629617070726f7665466f724f776e657228616464726573732c2075696e7432353629736166655472616e736665725573657228616464726573732c20616464726573732c2075696e743235362c206279746573296973417070726f766564466f72416c6c28616464726573732c206164647265737329736166655472616e736665724f776e657228616464726573732c20616464726573732c2075696e7432353629526f6c65733a206163636f756e7420697320746865207a65726f2061646472657373736166655472616e736665724f776e657228616464726573732c20616464726573732c2075696e743235362c206279746573296974656d4f664f776e65724279496e64657828616464726573732c75696e743235362c75696e7432353629736166655472616e736665725573657228616464726573732c20616464726573732c2075696e7432353629",
  "source": "pragma solidity ^0.5.0;\n\nimport \"../Contract/ERCXMintable.sol\";\nimport \"../Contract/ERCXBurnable.sol\";\n\n/**\n * @title ERCXFullmock\n * This mock just provides a public safeMint, mint, and burn functions for testing purposes\n */\ncontract ERCXTEST is ERCXMintable, ERCXBurnable {\n    constructor(string memory name, string memory symbol)\n        public\n        ERCXMintable(name, symbol)\n    {}\n\n    function exists(uint256 itemId) public view returns (bool) {\n        return _exists(itemId, 1);\n    }\n\n    function setItemURI(uint256 itemId, string memory uri) public onlyMinter {\n        _setItemURI(itemId, uri);\n    }\n\n    function setBaseURI(string memory uri) public onlyMinter {\n        _setBaseURI(uri);\n    }\n\n}\n",
  "sourcePath": "/home/bitnami/BLK_Micro/dApp-nodeJS-webpack/app/contracts/ERCX/Mock/ERCXTEST.sol",
  "compiler": {
    "name": "solc",
    "version": "0.5.16+commit.9c3226ce.Emscripten.clang"
  },
  "schemaVersion": "3.4.4",
  "updatedAt": "2022-01-15T03:42:33.697Z",
  "devdoc": {
    "methods": {
      "approveForOwner(address,uint256)": {
        "details": "Approves another address to transfer the owner of the given item ID The zero address indicates there is no approved address. There can only be one approved address per item at a given time. Can only be called by the item owner or an approved operator.",
        "params": {
          "itemId": "uint256 ID of the item to be approved",
          "to": "address to be approved for the given item ID"
        }
      },
      "approveForUser(address,uint256)": {
        "details": "Approves another address to transfer the user of the given item ID The zero address indicates there is no approved address. There can only be one approved address per item at a given time. Can only be called by the item owner or an approved operator.",
        "params": {
          "to": "address to be approved for the given item ID"
        }
      },
      "approveLien(address,uint256)": {
        "details": "Approves another address to set lien contract for the given item ID The zero address indicates there is no approved address. There can only be one approved address per item at a given time. Can only be called by the item owner or an approved operator.",
        "params": {
          "itemId": "uint256 ID of the item to be approved",
          "to": "address to be approved for the given item ID"
        }
      },
      "approveTenantRight(address,uint256)": {
        "details": "Approves another address to set tenant right agreement for the given item ID The zero address indicates there is no approved address. There can only be one approved address per item at a given time. Can only be called by the item owner or an approved operator.",
        "params": {
          "itemId": "uint256 ID of the item to be approved",
          "to": "address to be approved for the given item ID"
        }
      },
      "balanceOfOwner(address)": {
        "details": "Gets the balance of the specified address",
        "params": {
          "owner": "address to query the balance of"
        },
        "return": "uint256 representing the amount of items owned by the passed address in the specified layer"
      },
      "balanceOfUser(address)": {
        "details": "Gets the balance of the specified address",
        "params": {
          "user": "address to query the balance of"
        },
        "return": "uint256 representing the amount of items owned by the passed address"
      },
      "baseURI()": {
        "details": "Returns the base URI set via {_setBaseURI}. This will be automatically added as a preffix in {itemURI} to each item's URI, when they are non-empty."
      },
      "burn(uint256)": {
        "details": "Burns a specific ERCX item.",
        "params": {
          "itemId": "uint256 id of the ERCXFull item to be burned."
        }
      },
      "finishMinting()": {
        "details": "Function to stop minting new items.",
        "return": "True if the operation was successful."
      },
      "getApprovedForOwner(uint256)": {
        "details": "Gets the approved address for the of the item ID, or zero if no address set Reverts if the item ID does not exist.",
        "params": {
          "itemId": "uint256 ID of the item to query the approval o"
        },
        "return": "address currently approved for the given item ID"
      },
      "getApprovedForUser(uint256)": {
        "details": "Gets the approved address for the user of the item ID, or zero if no address set Reverts if the item ID does not exist.",
        "params": {
          "itemId": "uint256 ID of the item to query the approval of"
        },
        "return": "address currently approved for the given item ID"
      },
      "getApprovedLien(uint256)": {
        "details": "Gets the approved address for setting lien for a item ID, or zero if no address set Reverts if the item ID does not exist.",
        "params": {
          "itemId": "uint256 ID of the item to query the approval of"
        },
        "return": "address currently approved for the given item ID"
      },
      "getApprovedTenantRight(uint256)": {
        "details": "Gets the approved address for setting tenant right for a item ID, or zero if no address set Reverts if the item ID does not exist.",
        "params": {
          "itemId": "uint256 ID of the item to query the approval of"
        },
        "return": "address currently approved for the given item ID"
      },
      "getCurrentLien(uint256)": {
        "details": "Gets the current lien agreement address, or zero if no address set Reverts if the item ID does not exist.",
        "params": {
          "itemId": "uint256 ID of the item to query the lien address"
        },
        "return": "address of the lien agreement address for the given item ID"
      },
      "getCurrentTenantRight(uint256)": {
        "details": "Gets the current tenant right agreement address, or zero if no address set Reverts if the item ID does not exist.",
        "params": {
          "itemId": "uint256 ID of the item to query the tenant right address"
        },
        "return": "address of the tenant right agreement address for the given item ID"
      },
      "isApprovedForAll(address,address)": {
        "details": "Tells whether an operator is approved by a given owner",
        "params": {
          "operator": "operator address which you want to query the approval of",
          "owner": "owner address which you want to query the approval of"
        },
        "return": "bool whether the given operator is approved by the given owner"
      },
      "itemByIndex(uint256)": {
        "details": "Gets the item ID at a given index of all the items in this contract Reverts if the index is greater or equal to the total number of items",
        "params": {
          "index": "uint256 representing the index to be accessed of the items list"
        },
        "return": "uint256 item ID at the given index of the items list"
      },
      "itemOfOwnerByIndex(address,uint256)": {
        "details": "Gets the item ID at a given index of the items list of the requested owner",
        "params": {
          "index": "uint256 representing the index to be accessed of the requested items list",
          "owner": "address owning the items list to be accessed"
        },
        "return": "uint256 item ID at the given index of the items list owned by the requested address"
      },
      "itemOfUserByIndex(address,uint256)": {
        "details": "Gets the item ID at a given index of the items list of the requested user",
        "params": {
          "index": "uint256 representing the index to be accessed of the requested items list",
          "user": "address owning the items list to be accessed"
        },
        "return": "uint256 item ID at the given index of the items list owned by the requested address"
      },
      "itemURI(uint256)": {
        "details": "Returns an URI for a given item ID Throws if the item ID does not exist. May return an empty string.",
        "params": {
          "itemId": "uint256 ID of the item to query"
        }
      },
      "mint(address,uint256)": {
        "details": "Function to mint items",
        "params": {
          "itemId": "The item id to mint.",
          "to": "The address that will receive the minted items."
        },
        "return": "A boolean that indicates if the operation was successful."
      },
      "mintingFinished()": {
        "return": "true if the minting is finished."
      },
      "name()": {
        "details": "Gets the item name",
        "return": "string representing the item name"
      },
      "revokeLien(uint256)": {
        "details": "Revoke the lien agreements. Only the lien address can revoke.",
        "params": {
          "itemId": "uint256 ID of the item"
        }
      },
      "revokeTenantRight(uint256)": {
        "details": "Revoke the tenant right agreement. Only the lien address can revoke.",
        "params": {
          "itemId": "uint256 ID of the item"
        }
      },
      "safeTransferOwner(address,address,uint256)": {
        "details": "Safely transfers the ownership of a given item ID to another address If the target address is a contract, it must implement `onERCXReceived`, which is called upon a safe transfer, and return the magic value `bytes4(keccak256(\"onERCXReceived(address,address,uint256,bytes)\"))`; otherwise, the transfer is reverted.   * Requires the msg sender to be the owner, approved, or operator",
        "params": {
          "from": "current owner of the item",
          "itemId": "uint256 ID of the item to be transferred",
          "to": "address to receive the ownership of the given item ID"
        }
      },
      "safeTransferOwner(address,address,uint256,bytes)": {
        "details": "Safely transfers the ownership of a given item ID to another address If the target address is a contract, it must implement `onERCXReceived`, which is called upon a safe transfer, and return the magic value `bytes4(keccak256(\"onERCXReceived(address,address,uint256,bytes)\"))`; otherwise, the transfer is reverted. Requires the msg sender to be the owner, approved, or operator",
        "params": {
          "data": "bytes data to send along with a safe transfer check",
          "from": "current owner of the item",
          "itemId": "uint256 ID of the item to be transferred",
          "to": "address to receive the ownership of the given item ID"
        }
      },
      "safeTransferUser(address,address,uint256)": {
        "details": "Safely transfers the user of a given item ID to another address If the target address is a contract, it must implement `onERCXReceived`, which is called upon a safe transfer, and return the magic value `bytes4(keccak256(\"onERCXReceived(address,address,uint256,bytes)\"))`; otherwise, the transfer is reverted.   * Requires the msg sender to be the owner, approved, or operator",
        "params": {
          "from": "current owner of the item",
          "itemId": "uint256 ID of the item to be transferred",
          "to": "address to receive the ownership of the given item ID"
        }
      },
      "safeTransferUser(address,address,uint256,bytes)": {
        "details": "Safely transfers the user of a given item ID to another address If the target address is a contract, it must implement `onERCXReceived`, which is called upon a safe transfer, and return the magic value `bytes4(keccak256(\"onERCXReceived(address,address,uint256,bytes)\"))`; otherwise, the transfer is reverted. Requires the msg sender to be the owner, approved, or operator",
        "params": {
          "data": "bytes data to send along with a safe transfer check",
          "from": "current owner of the item",
          "itemId": "uint256 ID of the item to be transferred",
          "to": "address to receive the ownership of the given item ID"
        }
      },
      "setApprovalForAll(address,bool)": {
        "details": "Sets or unsets the approval of a given operator An operator is allowed to transfer all items of the sender on their behalf",
        "params": {
          "approved": "representing the status of the approval to be set",
          "to": "operator address to set the approval"
        }
      },
      "setLien(uint256)": {
        "details": "Sets lien agreements to already approved address The lien address is allowed to transfer all items of the sender on their behalf",
        "params": {
          "itemId": "uint256 ID of the item"
        }
      },
      "setTenantRight(uint256)": {
        "details": "Sets the tenant right agreement to already approved address The lien address is allowed to transfer all items of the sender on their behalf",
        "params": {
          "itemId": "uint256 ID of the item"
        }
      },
      "supportsInterface(bytes4)": {
        "details": "See `IERC165.supportsInterface`.     * Time complexity O(1), guaranteed to always use less than 30 000 gas."
      },
      "symbol()": {
        "details": "Gets the item symbol",
        "return": "string representing the item symbol"
      },
      "totalNumberOfItems()": {
        "details": "Gets the total amount of items stored by the contract",
        "return": "uint256 representing the total amount of items"
      },
      "userOf(uint256)": {
        "details": "Gets the user of the specified item ID",
        "params": {
          "itemId": "uint256 ID of the item to query the user of"
        },
        "return": "owner address currently marked as the owner of the given item ID"
      }
    },
    "title": "ERCXFullmock This mock just provides a public safeMint, mint, and burn functions for testing purposes"
  },
  "userdoc": {
    "methods": {}
  }
}