{
  "contractName": "ERCXFull",
  "abi": [
    {
      "inputs": [
        {
          "internalType": "string",
          "name": "name",
          "type": "string"
        },
        {
          "internalType": "string",
          "name": "symbol",
          "type": "string"
        }
      ],
      "payable": false,
      "stateMutability": "nonpayable",
      "type": "constructor"
    },
    {
      "anonymous": false,
      "inputs": [
        {
          "indexed": true,
          "internalType": "address",
          "name": "owner",
          "type": "address"
        },
        {
          "indexed": true,
          "internalType": "address",
          "name": "approved",
          "type": "address"
        },
        {
          "indexed": true,
          "internalType": "uint256",
          "name": "tokenId",
          "type": "uint256"
        }
      ],
      "name": "Approval",
      "type": "event"
    },
    {
      "anonymous": false,
      "inputs": [
        {
          "indexed": true,
          "internalType": "address",
          "name": "owner",
          "type": "address"
        },
        {
          "indexed": true,
          "internalType": "address",
          "name": "operator",
          "type": "address"
        },
        {
          "indexed": false,
          "internalType": "bool",
          "name": "approved",
          "type": "bool"
        }
      ],
      "name": "ApprovalForAll",
      "type": "event"
    },
    {
      "anonymous": false,
      "inputs": [
        {
          "indexed": true,
          "internalType": "address",
          "name": "owner",
          "type": "address"
        },
        {
          "indexed": true,
          "internalType": "address",
          "name": "approved",
          "type": "address"
        },
        {
          "indexed": false,
          "internalType": "uint256",
          "name": "itemId",
          "type": "uint256"
        }
      ],
      "name": "ApprovalForOwner",
      "type": "event"
    },
    {
      "anonymous": false,
      "inputs": [
        {
          "indexed": true,
          "internalType": "address",
          "name": "user",
          "type": "address"
        },
        {
          "indexed": true,
          "internalType": "address",
          "name": "approved",
          "type": "address"
        },
        {
          "indexed": false,
          "internalType": "uint256",
          "name": "itemId",
          "type": "uint256"
        }
      ],
      "name": "ApprovalForUser",
      "type": "event"
    },
    {
      "anonymous": false,
      "inputs": [
        {
          "indexed": true,
          "internalType": "address",
          "name": "to",
          "type": "address"
        },
        {
          "indexed": true,
          "internalType": "uint256",
          "name": "itemId",
          "type": "uint256"
        }
      ],
      "name": "LienApproval",
      "type": "event"
    },
    {
      "anonymous": false,
      "inputs": [
        {
          "indexed": true,
          "internalType": "address",
          "name": "to",
          "type": "address"
        },
        {
          "indexed": true,
          "internalType": "uint256",
          "name": "itemId",
          "type": "uint256"
        },
        {
          "indexed": false,
          "internalType": "bool",
          "name": "status",
          "type": "bool"
        }
      ],
      "name": "LienSet",
      "type": "event"
    },
    {
      "anonymous": false,
      "inputs": [
        {
          "indexed": true,
          "internalType": "address",
          "name": "to",
          "type": "address"
        },
        {
          "indexed": true,
          "internalType": "uint256",
          "name": "itemId",
          "type": "uint256"
        }
      ],
      "name": "TenantRightApproval",
      "type": "event"
    },
    {
      "anonymous": false,
      "inputs": [
        {
          "indexed": true,
          "internalType": "address",
          "name": "to",
          "type": "address"
        },
        {
          "indexed": true,
          "internalType": "uint256",
          "name": "itemId",
          "type": "uint256"
        },
        {
          "indexed": false,
          "internalType": "bool",
          "name": "status",
          "type": "bool"
        }
      ],
      "name": "TenantRightSet",
      "type": "event"
    },
    {
      "anonymous": false,
      "inputs": [
        {
          "indexed": true,
          "internalType": "address",
          "name": "from",
          "type": "address"
        },
        {
          "indexed": true,
          "internalType": "address",
          "name": "to",
          "type": "address"
        },
        {
          "indexed": true,
          "internalType": "uint256",
          "name": "tokenId",
          "type": "uint256"
        }
      ],
      "name": "Transfer",
      "type": "event"
    },
    {
      "anonymous": false,
      "inputs": [
        {
          "indexed": true,
          "internalType": "address",
          "name": "from",
          "type": "address"
        },
        {
          "indexed": true,
          "internalType": "address",
          "name": "to",
          "type": "address"
        },
        {
          "indexed": true,
          "internalType": "uint256",
          "name": "itemId",
          "type": "uint256"
        },
        {
          "indexed": false,
          "internalType": "address",
          "name": "operator",
          "type": "address"
        }
      ],
      "name": "TransferOwner",
      "type": "event"
    },
    {
      "anonymous": false,
      "inputs": [
        {
          "indexed": true,
          "internalType": "address",
          "name": "from",
          "type": "address"
        },
        {
          "indexed": true,
          "internalType": "address",
          "name": "to",
          "type": "address"
        },
        {
          "indexed": true,
          "internalType": "uint256",
          "name": "itemId",
          "type": "uint256"
        },
        {
          "indexed": false,
          "internalType": "address",
          "name": "operator",
          "type": "address"
        }
      ],
      "name": "TransferUser",
      "type": "event"
    },
    {
      "constant": false,
      "inputs": [
        {
          "internalType": "address",
          "name": "to",
          "type": "address"
        },
        {
          "internalType": "uint256",
          "name": "itemId",
          "type": "uint256"
        }
      ],
      "name": "approve",
      "outputs": [],
      "payable": false,
      "stateMutability": "nonpayable",
      "type": "function"
    },
    {
      "constant": false,
      "inputs": [
        {
          "internalType": "address",
          "name": "to",
          "type": "address"
        },
        {
          "internalType": "uint256",
          "name": "itemId",
          "type": "uint256"
        }
      ],
      "name": "approveForOwner",
      "outputs": [],
      "payable": false,
      "stateMutability": "nonpayable",
      "type": "function"
    },
    {
      "constant": false,
      "inputs": [
        {
          "internalType": "address",
          "name": "to",
          "type": "address"
        },
        {
          "internalType": "uint256",
          "name": "itemId",
          "type": "uint256"
        }
      ],
      "name": "approveForUser",
      "outputs": [],
      "payable": false,
      "stateMutability": "nonpayable",
      "type": "function"
    },
    {
      "constant": false,
      "inputs": [
        {
          "internalType": "address",
          "name": "to",
          "type": "address"
        },
        {
          "internalType": "uint256",
          "name": "itemId",
          "type": "uint256"
        }
      ],
      "name": "approveLien",
      "outputs": [],
      "payable": false,
      "stateMutability": "nonpayable",
      "type": "function"
    },
    {
      "constant": false,
      "inputs": [
        {
          "internalType": "address",
          "name": "to",
          "type": "address"
        },
        {
          "internalType": "uint256",
          "name": "itemId",
          "type": "uint256"
        }
      ],
      "name": "approveTenantRight",
      "outputs": [],
      "payable": false,
      "stateMutability": "nonpayable",
      "type": "function"
    },
    {
      "constant": true,
      "inputs": [
        {
          "internalType": "address",
          "name": "owner",
          "type": "address"
        }
      ],
      "name": "balanceOf",
      "outputs": [
        {
          "internalType": "uint256",
          "name": "",
          "type": "uint256"
        }
      ],
      "payable": false,
      "stateMutability": "view",
      "type": "function"
    },
    {
      "constant": true,
      "inputs": [
        {
          "internalType": "address",
          "name": "owner",
          "type": "address"
        }
      ],
      "name": "balanceOfOwner",
      "outputs": [
        {
          "internalType": "uint256",
          "name": "",
          "type": "uint256"
        }
      ],
      "payable": false,
      "stateMutability": "view",
      "type": "function"
    },
    {
      "constant": true,
      "inputs": [
        {
          "internalType": "address",
          "name": "user",
          "type": "address"
        }
      ],
      "name": "balanceOfUser",
      "outputs": [
        {
          "internalType": "uint256",
          "name": "",
          "type": "uint256"
        }
      ],
      "payable": false,
      "stateMutability": "view",
      "type": "function"
    },
    {
      "constant": true,
      "inputs": [],
      "name": "baseURI",
      "outputs": [
        {
          "internalType": "string",
          "name": "",
          "type": "string"
        }
      ],
      "payable": false,
      "stateMutability": "view",
      "type": "function"
    },
    {
      "constant": true,
      "inputs": [
        {
          "internalType": "uint256",
          "name": "itemId",
          "type": "uint256"
        }
      ],
      "name": "getApproved",
      "outputs": [
        {
          "internalType": "address",
          "name": "",
          "type": "address"
        }
      ],
      "payable": false,
      "stateMutability": "view",
      "type": "function"
    },
    {
      "constant": true,
      "inputs": [
        {
          "internalType": "uint256",
          "name": "itemId",
          "type": "uint256"
        }
      ],
      "name": "getApprovedForOwner",
      "outputs": [
        {
          "internalType": "address",
          "name": "",
          "type": "address"
        }
      ],
      "payable": false,
      "stateMutability": "view",
      "type": "function"
    },
    {
      "constant": true,
      "inputs": [
        {
          "internalType": "uint256",
          "name": "itemId",
          "type": "uint256"
        }
      ],
      "name": "getApprovedForUser",
      "outputs": [
        {
          "internalType": "address",
          "name": "",
          "type": "address"
        }
      ],
      "payable": false,
      "stateMutability": "view",
      "type": "function"
    },
    {
      "constant": true,
      "inputs": [
        {
          "internalType": "uint256",
          "name": "itemId",
          "type": "uint256"
        }
      ],
      "name": "getApprovedLien",
      "outputs": [
        {
          "internalType": "address",
          "name": "",
          "type": "address"
        }
      ],
      "payable": false,
      "stateMutability": "view",
      "type": "function"
    },
    {
      "constant": true,
      "inputs": [
        {
          "internalType": "uint256",
          "name": "itemId",
          "type": "uint256"
        }
      ],
      "name": "getApprovedTenantRight",
      "outputs": [
        {
          "internalType": "address",
          "name": "",
          "type": "address"
        }
      ],
      "payable": false,
      "stateMutability": "view",
      "type": "function"
    },
    {
      "constant": true,
      "inputs": [
        {
          "internalType": "uint256",
          "name": "itemId",
          "type": "uint256"
        }
      ],
      "name": "getCurrentLien",
      "outputs": [
        {
          "internalType": "address",
          "name": "",
          "type": "address"
        }
      ],
      "payable": false,
      "stateMutability": "view",
      "type": "function"
    },
    {
      "constant": true,
      "inputs": [
        {
          "internalType": "uint256",
          "name": "itemId",
          "type": "uint256"
        }
      ],
      "name": "getCurrentTenantRight",
      "outputs": [
        {
          "internalType": "address",
          "name": "",
          "type": "address"
        }
      ],
      "payable": false,
      "stateMutability": "view",
      "type": "function"
    },
    {
      "constant": true,
      "inputs": [
        {
          "internalType": "address",
          "name": "owner",
          "type": "address"
        },
        {
          "internalType": "address",
          "name": "operator",
          "type": "address"
        }
      ],
      "name": "isApprovedForAll",
      "outputs": [
        {
          "internalType": "bool",
          "name": "",
          "type": "bool"
        }
      ],
      "payable": false,
      "stateMutability": "view",
      "type": "function"
    },
    {
      "constant": true,
      "inputs": [
        {
          "internalType": "uint256",
          "name": "index",
          "type": "uint256"
        }
      ],
      "name": "itemByIndex",
      "outputs": [
        {
          "internalType": "uint256",
          "name": "",
          "type": "uint256"
        }
      ],
      "payable": false,
      "stateMutability": "view",
      "type": "function"
    },
    {
      "constant": true,
      "inputs": [
        {
          "internalType": "address",
          "name": "owner",
          "type": "address"
        },
        {
          "internalType": "uint256",
          "name": "index",
          "type": "uint256"
        }
      ],
      "name": "itemOfOwnerByIndex",
      "outputs": [
        {
          "internalType": "uint256",
          "name": "",
          "type": "uint256"
        }
      ],
      "payable": false,
      "stateMutability": "view",
      "type": "function"
    },
    {
      "constant": true,
      "inputs": [
        {
          "internalType": "address",
          "name": "user",
          "type": "address"
        },
        {
          "internalType": "uint256",
          "name": "index",
          "type": "uint256"
        }
      ],
      "name": "itemOfUserByIndex",
      "outputs": [
        {
          "internalType": "uint256",
          "name": "",
          "type": "uint256"
        }
      ],
      "payable": false,
      "stateMutability": "view",
      "type": "function"
    },
    {
      "constant": true,
      "inputs": [
        {
          "internalType": "uint256",
          "name": "itemId",
          "type": "uint256"
        }
      ],
      "name": "itemURI",
      "outputs": [
        {
          "internalType": "string",
          "name": "",
          "type": "string"
        }
      ],
      "payable": false,
      "stateMutability": "view",
      "type": "function"
    },
    {
      "constant": true,
      "inputs": [],
      "name": "name",
      "outputs": [
        {
          "internalType": "string",
          "name": "",
          "type": "string"
        }
      ],
      "payable": false,
      "stateMutability": "view",
      "type": "function"
    },
    {
      "constant": true,
      "inputs": [
        {
          "internalType": "uint256",
          "name": "itemId",
          "type": "uint256"
        }
      ],
      "name": "ownerOf",
      "outputs": [
        {
          "internalType": "address",
          "name": "",
          "type": "address"
        }
      ],
      "payable": false,
      "stateMutability": "view",
      "type": "function"
    },
    {
      "constant": false,
      "inputs": [
        {
          "internalType": "uint256",
          "name": "itemId",
          "type": "uint256"
        }
      ],
      "name": "revokeLien",
      "outputs": [],
      "payable": false,
      "stateMutability": "nonpayable",
      "type": "function"
    },
    {
      "constant": false,
      "inputs": [
        {
          "internalType": "uint256",
          "name": "itemId",
          "type": "uint256"
        }
      ],
      "name": "revokeTenantRight",
      "outputs": [],
      "payable": false,
      "stateMutability": "nonpayable",
      "type": "function"
    },
    {
      "constant": false,
      "inputs": [
        {
          "internalType": "address",
          "name": "from",
          "type": "address"
        },
        {
          "internalType": "address",
          "name": "to",
          "type": "address"
        },
        {
          "internalType": "uint256",
          "name": "itemId",
          "type": "uint256"
        }
      ],
      "name": "safeTransferFrom",
      "outputs": [],
      "payable": false,
      "stateMutability": "nonpayable",
      "type": "function"
    },
    {
      "constant": false,
      "inputs": [
        {
          "internalType": "address",
          "name": "from",
          "type": "address"
        },
        {
          "internalType": "address",
          "name": "to",
          "type": "address"
        },
        {
          "internalType": "uint256",
          "name": "itemId",
          "type": "uint256"
        },
        {
          "internalType": "bytes",
          "name": "data",
          "type": "bytes"
        }
      ],
      "name": "safeTransferFrom",
      "outputs": [],
      "payable": false,
      "stateMutability": "nonpayable",
      "type": "function"
    },
    {
      "constant": false,
      "inputs": [
        {
          "internalType": "address",
          "name": "from",
          "type": "address"
        },
        {
          "internalType": "address",
          "name": "to",
          "type": "address"
        },
        {
          "internalType": "uint256",
          "name": "itemId",
          "type": "uint256"
        },
        {
          "internalType": "bytes",
          "name": "data",
          "type": "bytes"
        }
      ],
      "name": "safeTransferOwner",
      "outputs": [],
      "payable": false,
      "stateMutability": "nonpayable",
      "type": "function"
    },
    {
      "constant": false,
      "inputs": [
        {
          "internalType": "address",
          "name": "from",
          "type": "address"
        },
        {
          "internalType": "address",
          "name": "to",
          "type": "address"
        },
        {
          "internalType": "uint256",
          "name": "itemId",
          "type": "uint256"
        }
      ],
      "name": "safeTransferOwner",
      "outputs": [],
      "payable": false,
      "stateMutability": "nonpayable",
      "type": "function"
    },
    {
      "constant": false,
      "inputs": [
        {
          "internalType": "address",
          "name": "from",
          "type": "address"
        },
        {
          "internalType": "address",
          "name": "to",
          "type": "address"
        },
        {
          "internalType": "uint256",
          "name": "itemId",
          "type": "uint256"
        },
        {
          "internalType": "bytes",
          "name": "data",
          "type": "bytes"
        }
      ],
      "name": "safeTransferUser",
      "outputs": [],
      "payable": false,
      "stateMutability": "nonpayable",
      "type": "function"
    },
    {
      "constant": false,
      "inputs": [
        {
          "internalType": "address",
          "name": "from",
          "type": "address"
        },
        {
          "internalType": "address",
          "name": "to",
          "type": "address"
        },
        {
          "internalType": "uint256",
          "name": "itemId",
          "type": "uint256"
        }
      ],
      "name": "safeTransferUser",
      "outputs": [],
      "payable": false,
      "stateMutability": "nonpayable",
      "type": "function"
    },
    {
      "constant": false,
      "inputs": [
        {
          "internalType": "address",
          "name": "to",
          "type": "address"
        },
        {
          "internalType": "bool",
          "name": "approved",
          "type": "bool"
        }
      ],
      "name": "setApprovalForAll",
      "outputs": [],
      "payable": false,
      "stateMutability": "nonpayable",
      "type": "function"
    },
    {
      "constant": false,
      "inputs": [
        {
          "internalType": "uint256",
          "name": "itemId",
          "type": "uint256"
        }
      ],
      "name": "setLien",
      "outputs": [],
      "payable": false,
      "stateMutability": "nonpayable",
      "type": "function"
    },
    {
      "constant": false,
      "inputs": [
        {
          "internalType": "uint256",
          "name": "itemId",
          "type": "uint256"
        }
      ],
      "name": "setTenantRight",
      "outputs": [],
      "payable": false,
      "stateMutability": "nonpayable",
      "type": "function"
    },
    {
      "constant": true,
      "inputs": [
        {
          "internalType": "bytes4",
          "name": "interfaceId",
          "type": "bytes4"
        }
      ],
      "name": "supportsInterface",
      "outputs": [
        {
          "internalType": "bool",
          "name": "",
          "type": "bool"
        }
      ],
      "payable": false,
      "stateMutability": "view",
      "type": "function"
    },
    {
      "constant": true,
      "inputs": [],
      "name": "symbol",
      "outputs": [
        {
          "internalType": "string",
          "name": "",
          "type": "string"
        }
      ],
      "payable": false,
      "stateMutability": "view",
      "type": "function"
    },
    {
      "constant": true,
      "inputs": [],
      "name": "totalNumberOfItems",
      "outputs": [
        {
          "internalType": "uint256",
          "name": "",
          "type": "uint256"
        }
      ],
      "payable": false,
      "stateMutability": "view",
      "type": "function"
    },
    {
      "constant": false,
      "inputs": [
        {
          "internalType": "address",
          "name": "from",
          "type": "address"
        },
        {
          "internalType": "address",
          "name": "to",
          "type": "address"
        },
        {
          "internalType": "uint256",
          "name": "itemId",
          "type": "uint256"
        }
      ],
      "name": "transferFrom",
      "outputs": [],
      "payable": false,
      "stateMutability": "nonpayable",
      "type": "function"
    },
    {
      "constant": true,
      "inputs": [
        {
          "internalType": "uint256",
          "name": "itemId",
          "type": "uint256"
        }
      ],
      "name": "userOf",
      "outputs": [
        {
          "internalType": "address",
          "name": "",
          "type": "address"
        }
      ],
      "payable": false,
      "stateMutability": "view",
      "type": "function"
    }
  ],
  "bytecode": "0x60806040523480156200001157600080fd5b50604051620048b9380380620048b9833981810160405260408110156200003757600080fd5b81019080805160405193929190846401000000008211156200005857600080fd5b838201915060208201858111156200006f57600080fd5b82518660018202830111640100000000821117156200008d57600080fd5b8083526020830192505050908051906020019080838360005b83811015620000c3578082015181840152602081019050620000a6565b50505050905090810190601f168015620000f15780820380516001836020036101000a031916815260200191505b50604052602001805160405193929190846401000000008211156200011557600080fd5b838201915060208201858111156200012c57600080fd5b82518660018202830111640100000000821117156200014a57600080fd5b8083526020830192505050908051906020019080838360005b838110156200018057808201518184015260208101905062000163565b50505050905090810190601f168015620001ae5780820380516001836020036101000a031916815260200191505b506040525050508181620001cf6301ffc9a760e01b620007e260201b60201c565b6200064260405180807f7265766f6b6554656e616e7452696768742875696e7432353629000000000000815250601a019050604051809103902060405180807f67657443757272656e7454656e616e7452696768742875696e74323536290000815250601e019050604051809103902060405180807f73657454656e616e7452696768742875696e74323536290000000000000000008152506017019050604051809103902060405180807f676574417070726f76656454656e616e7452696768742875696e743235362900815250601f019050604051809103902060405180806200476b602491396024019050604051809103902060405180807f7265766f6b654c69656e2875696e7432353629000000000000000000000000008152506013019050604051809103902060405180807f67657443757272656e744c69656e2875696e74323536290000000000000000008152506017019050604051809103902060405180807f7365744c69656e2875696e7432353629000000000000000000000000000000008152506010019050604051809103902060405180807f676574417070726f7665644c69656e2875696e743235362900000000000000008152506018019050604051809103902060405180807f617070726f76654c69656e28616464726573732c2075696e7432353629000000815250601d01905060405180910390206040518080620047e2602291396022019050604051809103902060405180807f736574417070726f76616c466f72416c6c28616464726573732c20626f6f6c298152506020019050604051809103902060405180807f676574417070726f766564466f72557365722875696e74323536290000000000815250601b019050604051809103902060405180807f617070726f7665466f725573657228616464726573732c2075696e74323536298152506020019050604051809103902060405180807f676574417070726f766564466f724f776e65722875696e743235362900000000815250601c019050604051809103902060405180806200478f60219139602101905060405180910390206040518080620047b0603291396032019050604051809103902060405180806200488e602b9139602b01905060405180910390206040518080620048306033913960330190506040518091039020604051808062004804602c9139602c019050604051809103902060405180807f757365724f662875696e74323536290000000000000000000000000000000000815250600f019050604051809103902060405180807f6f776e65724f662875696e7432353629000000000000000000000000000000008152506010019050604051809103902060405180807f62616c616e63654f6655736572286164647265737329000000000000000000008152506016019050604051809103902060405180807f62616c616e63654f664f776e6572286164647265737329000000000000000000815250601701905060405180910390201818181818181818181818181818181818181818181818620007e260201b60201c565b620006da60405180807f6974656d4279496e6465782875696e743235362900000000000000000000000081525060140190506040518091039020604051808062004863602b9139602b019050604051809103902060405180807f746f74616c4e756d6265724f664974656d732829000000000000000000000000815250601401905060405180910390201818620007e260201b60201c565b81600d9080519060200190620006f2929190620008eb565b5080600e90805190602001906200070b929190620008eb565b50620007c060405180807f6974656d5552492875696e7432353629000000000000000000000000000000008152506010019050604051809103902060405180807f73796d626f6c28290000000000000000000000000000000000000000000000008152506008019050604051809103902060405180807f6e616d6528290000000000000000000000000000000000000000000000000000815250600601905060405180910390201818620007e260201b60201c565b5050620007da6380ac58cd60e01b620007e260201b60201c565b50506200099a565b63ffffffff60e01b817bffffffffffffffffffffffffffffffffffffffffffffffffffffffff191614156200087f576040517f08c379a000000000000000000000000000000000000000000000000000000000815260040180806020018281038252601c8152602001807f4552433136353a20696e76616c696420696e746572666163652069640000000081525060200191505060405180910390fd5b6001600080837bffffffffffffffffffffffffffffffffffffffffffffffffffffffff19167bffffffffffffffffffffffffffffffffffffffffffffffffffffffff1916815260200190815260200160002060006101000a81548160ff02191690831515021790555050565b828054600181600116156101000203166002900490600052602060002090601f016020900481019282601f106200092e57805160ff19168380011785556200095f565b828001600101855582156200095f579182015b828111156200095e57825182559160200191906001019062000941565b5b5090506200096e919062000972565b5090565b6200099791905b808211156200099357600081600090555060010162000979565b5090565b90565b613dc180620009aa6000396000f3fe608060405234801561001057600080fd5b506004361061023d5760003560e01c80636352211e1161013b578063b21e4ebd116100b8578063c66130d71161007c578063c66130d714611094578063d872095a146110ec578063e985e9c51461115a578063ea4eb8f2146111d6578063ed7f723c146112445761023d565b8063b21e4ebd14610d4c578063b6f0a83414610dae578063b88d4fde14610eb3578063c043f83c14610fb8578063c2f1f14a146110265761023d565b80637e8ca079116100ff5780637e8ca07914610b5657806395d89b4114610ba4578063a22cb46514610c27578063a9c7518614610c77578063acb35dc714610ca55761023d565b80636352211e146109a15780636494aa6214610a0f5780636c0360eb14610a5d57806370324f2b14610ae057806370a0823114610afe5761023d565b80631f11d46b116101c957806342842e0e1161018d57806342842e0e1461076457806347164724146107d25780634cfd83be14610800578063578a930b1461090557806362b21679146109335761023d565b80631f11d46b1461057e57806323b872dd146105ec5780632afbf0191461065a5780633593d11b146106a85780633b58452e146107165761023d565b80630b20055e116102105780630b20055e146103e65780630dca1c891461041457806312cae7af1461048257806313b01a81146104da578063173cc5221461053c5761023d565b806301ffc9a71461024257806306fdde03146102a7578063081812fc1461032a578063095ea7b314610398575b600080fd5b61028d6004803603602081101561025857600080fd5b8101908080357bffffffffffffffffffffffffffffffffffffffffffffffffffffffff191690602001909291905050506112b2565b604051808215151515815260200191505060405180910390f35b6102af611319565b6040518080602001828103825283818151815260200191508051906020019080838360005b838110156102ef5780820151818401526020810190506102d4565b50505050905090810190601f16801561031c5780820380516001836020036101000a031916815260200191505b509250505060405180910390f35b6103566004803603602081101561034057600080fd5b81019080803590602001909291905050506113bb565b604051808273ffffffffffffffffffffffffffffffffffffffff1673ffffffffffffffffffffffffffffffffffffffff16815260200191505060405180910390f35b6103e4600480360360408110156103ae57600080fd5b81019080803573ffffffffffffffffffffffffffffffffffffffff169060200190929190803590602001909291905050506113cd565b005b610412600480360360208110156103fc57600080fd5b8101908080359060200190929190505050611444565b005b6104406004803603602081101561042a57600080fd5b8101908080359060200190929190505050611541565b604051808273ffffffffffffffffffffffffffffffffffffffff1673ffffffffffffffffffffffffffffffffffffffff16815260200191505060405180910390f35b6104c46004803603602081101561049857600080fd5b81019080803573ffffffffffffffffffffffffffffffffffffffff169060200190929190505050611592565b6040518082815260200191505060405180910390f35b610526600480360360408110156104f057600080fd5b81019080803573ffffffffffffffffffffffffffffffffffffffff16906020019092919080359060200190929190505050611633565b6040518082815260200191505060405180910390f35b6105686004803603602081101561055257600080fd5b81019080803590602001909291905050506116b8565b6040518082815260200191505060405180910390f35b6105aa6004803603602081101561059457600080fd5b81019080803590602001909291905050506116ec565b604051808273ffffffffffffffffffffffffffffffffffffffff1673ffffffffffffffffffffffffffffffffffffffff16815260200191505060405180910390f35b6106586004803603606081101561060257600080fd5b81019080803573ffffffffffffffffffffffffffffffffffffffff169060200190929190803573ffffffffffffffffffffffffffffffffffffffff1690602001909291908035906020019092919050505061173d565b005b6106a66004803603604081101561067057600080fd5b81019080803573ffffffffffffffffffffffffffffffffffffffff1690602001909291908035906020019092919050505061181c565b005b6106d4600480360360208110156106be57600080fd5b8101908080359060200190929190505050611946565b604051808273ffffffffffffffffffffffffffffffffffffffff1673ffffffffffffffffffffffffffffffffffffffff16815260200191505060405180910390f35b6107626004803603604081101561072c57600080fd5b81019080803573ffffffffffffffffffffffffffffffffffffffff16906020019092919080359060200190929190505050611997565b005b6107d06004803603606081101561077a57600080fd5b81019080803573ffffffffffffffffffffffffffffffffffffffff169060200190929190803573ffffffffffffffffffffffffffffffffffffffff16906020019092919080359060200190929190505050611c08565b005b6107fe600480360360208110156107e857600080fd5b8101908080359060200190929190505050611c28565b005b6109036004803603608081101561081657600080fd5b81019080803573ffffffffffffffffffffffffffffffffffffffff169060200190929190803573ffffffffffffffffffffffffffffffffffffffff169060200190929190803590602001909291908035906020019064010000000081111561087d57600080fd5b82018360208201111561088f57600080fd5b803590602001918460018302840111640100000000831117156108b157600080fd5b91908080601f016020809104026020016040519081016040528093929190818152602001838380828437600081840152601f19601f820116905080830192505050505050509192919290505050611d1a565b005b6109316004803603602081101561091b57600080fd5b8101908080359060200190929190505050611d43565b005b61095f6004803603602081101561094957600080fd5b8101908080359060200190929190505050611e2e565b604051808273ffffffffffffffffffffffffffffffffffffffff1673ffffffffffffffffffffffffffffffffffffffff16815260200191505060405180910390f35b6109cd600480360360208110156109b757600080fd5b8101908080359060200190929190505050611e91565b604051808273ffffffffffffffffffffffffffffffffffffffff1673ffffffffffffffffffffffffffffffffffffffff16815260200191505060405180910390f35b610a5b60048036036040811015610a2557600080fd5b81019080803573ffffffffffffffffffffffffffffffffffffffff16906020019092919080359060200190929190505050611ea3565b005b610a65612000565b6040518080602001828103825283818151815260200191508051906020019080838360005b83811015610aa5578082015181840152602081019050610a8a565b50505050905090810190601f168015610ad25780820380516001836020036101000a031916815260200191505b509250505060405180910390f35b610ae86120a2565b6040518082815260200191505060405180910390f35b610b4060048036036020811015610b1457600080fd5b81019080803573ffffffffffffffffffffffffffffffffffffffff1690602001909291905050506120af565b6040518082815260200191505060405180910390f35b610ba260048036036040811015610b6c57600080fd5b81019080803573ffffffffffffffffffffffffffffffffffffffff169060200190929190803590602001909291905050506120c1565b005b610bac6121eb565b6040518080602001828103825283818151815260200191508051906020019080838360005b83811015610bec578082015181840152602081019050610bd1565b50505050905090810190601f168015610c195780820380516001836020036101000a031916815260200191505b509250505060405180910390f35b610c7560048036036040811015610c3d57600080fd5b81019080803573ffffffffffffffffffffffffffffffffffffffff16906020019092919080351515906020019092919050505061228d565b005b610ca360048036036020811015610c8d57600080fd5b81019080803590602001909291905050506123c7565b005b610cd160048036036020811015610cbb57600080fd5b81019080803590602001909291905050506124b2565b6040518080602001828103825283818151815260200191508051906020019080838360005b83811015610d11578082015181840152602081019050610cf6565b50505050905090810190601f168015610d3e5780820380516001836020036101000a031916815260200191505b509250505060405180910390f35b610d9860048036036040811015610d6257600080fd5b81019080803573ffffffffffffffffffffffffffffffffffffffff169060200190929190803590602001909291905050506126d3565b6040518082815260200191505060405180910390f35b610eb160048036036080811015610dc457600080fd5b81019080803573ffffffffffffffffffffffffffffffffffffffff169060200190929190803573ffffffffffffffffffffffffffffffffffffffff1690602001909291908035906020019092919080359060200190640100000000811115610e2b57600080fd5b820183602082011115610e3d57600080fd5b80359060200191846001830284011164010000000083111715610e5f57600080fd5b91908080601f016020809104026020016040519081016040528093929190818152602001838380828437600081840152601f19601f820116905080830192505050505050509192919290505050612758565b005b610fb660048036036080811015610ec957600080fd5b81019080803573ffffffffffffffffffffffffffffffffffffffff169060200190929190803573ffffffffffffffffffffffffffffffffffffffff1690602001909291908035906020019092919080359060200190640100000000811115610f3057600080fd5b820183602082011115610f4257600080fd5b80359060200191846001830284011164010000000083111715610f6457600080fd5b91908080601f016020809104026020016040519081016040528093929190818152602001838380828437600081840152601f19601f820116905080830192505050505050509192919290505050612781565b005b610fe460048036036020811015610fce57600080fd5b81019080803590602001909291905050506127f3565b604051808273ffffffffffffffffffffffffffffffffffffffff1673ffffffffffffffffffffffffffffffffffffffff16815260200191505060405180910390f35b6110526004803603602081101561103c57600080fd5b8101908080359060200190929190505050612844565b604051808273ffffffffffffffffffffffffffffffffffffffff1673ffffffffffffffffffffffffffffffffffffffff16815260200191505060405180910390f35b6110d6600480360360208110156110aa57600080fd5b81019080803573ffffffffffffffffffffffffffffffffffffffff1690602001909291905050506128d2565b6040518082815260200191505060405180910390f35b6111586004803603606081101561110257600080fd5b81019080803573ffffffffffffffffffffffffffffffffffffffff169060200190929190803573ffffffffffffffffffffffffffffffffffffffff16906020019092919080359060200190929190505050612973565b005b6111bc6004803603604081101561117057600080fd5b81019080803573ffffffffffffffffffffffffffffffffffffffff169060200190929190803573ffffffffffffffffffffffffffffffffffffffff169060200190929190505050612993565b604051808215151515815260200191505060405180910390f35b611202600480360360208110156111ec57600080fd5b8101908080359060200190929190505050612a27565b604051808273ffffffffffffffffffffffffffffffffffffffff1673ffffffffffffffffffffffffffffffffffffffff16815260200191505060405180910390f35b6112b06004803603606081101561125a57600080fd5b81019080803573ffffffffffffffffffffffffffffffffffffffff169060200190929190803573ffffffffffffffffffffffffffffffffffffffff16906020019092919080359060200190929190505050612af3565b005b6000806000837bffffffffffffffffffffffffffffffffffffffffffffffffffffffff19167bffffffffffffffffffffffffffffffffffffffffffffffffffffffff1916815260200190815260200160002060009054906101000a900460ff169050919050565b6060600d8054600181600116156101000203166002900480601f0160208091040260200160405190810160405280929190818152602001828054600181600116156101000203166002900480156113b15780601f10611386576101008083540402835291602001916113b1565b820191906000526020600020905b81548152906001019060200180831161139457829003601f168201915b5050505050905090565b60006113c682612a27565b9050919050565b6113d78282611ea3565b60006113e282611e91565b9050818373ffffffffffffffffffffffffffffffffffffffff168273ffffffffffffffffffffffffffffffffffffffff167f8c5be1e5ebec7d5bd14f71427d1e84f3dd0314c0f7b2291e5b200ac8c7c3b92560405160405180910390a4505050565b61144d816127f3565b73ffffffffffffffffffffffffffffffffffffffff163373ffffffffffffffffffffffffffffffffffffffff161461148457600080fd5b336008600083815260200190815260200160002060006101000a81548173ffffffffffffffffffffffffffffffffffffffff021916908373ffffffffffffffffffffffffffffffffffffffff1602179055506114df81612b13565b6114ea816001612bd1565b803373ffffffffffffffffffffffffffffffffffffffff167f61f383bb3b27cd35ab1b0353eff732709f4d8c7ba28da80d9f11f58d6ab2c4776001604051808215151515815260200191505060405180910390a350565b600061154e826002612cb2565b61155757600080fd5b6008600083815260200190815260200160002060009054906101000a900473ffffffffffffffffffffffffffffffffffffffff169050919050565b60008073ffffffffffffffffffffffffffffffffffffffff168273ffffffffffffffffffffffffffffffffffffffff1614156115cd57600080fd5b6000611628600360008573ffffffffffffffffffffffffffffffffffffffff1673ffffffffffffffffffffffffffffffffffffffff168152602001908152602001600020600060018152602001908152602001600020612d36565b905080915050919050565b600061163e83611592565b821061164957600080fd5b600960006001815260200190815260200160002060008473ffffffffffffffffffffffffffffffffffffffff1673ffffffffffffffffffffffffffffffffffffffff16815260200190815260200160002082815481106116a557fe5b9060005260206000200154905092915050565b60006116c26120a2565b82106116cd57600080fd5b600b82815481106116da57fe5b90600052602060002001549050919050565b60006116f9826002612cb2565b61170257600080fd5b6005600083815260200190815260200160002060009054906101000a900473ffffffffffffffffffffffffffffffffffffffff169050919050565b61174933826002612d44565b61175257600080fd5b600073ffffffffffffffffffffffffffffffffffffffff1661177382611541565b73ffffffffffffffffffffffffffffffffffffffff1614156117ae5761179c8383836001613007565b6117a98383836002613007565b6117bc565b6117bb8383836002613007565b5b808273ffffffffffffffffffffffffffffffffffffffff168473ffffffffffffffffffffffffffffffffffffffff167fddf252ad1be2c89b69c2b068fc378daa952ba7f163c4a11628f55a4df523b3ef60405160405180910390a4505050565b600061182782611e91565b90508073ffffffffffffffffffffffffffffffffffffffff168373ffffffffffffffffffffffffffffffffffffffff16141561186257600080fd5b8073ffffffffffffffffffffffffffffffffffffffff163373ffffffffffffffffffffffffffffffffffffffff1614806118a257506118a18133612993565b5b6118ab57600080fd5b826007600084815260200190815260200160002060006101000a81548173ffffffffffffffffffffffffffffffffffffffff021916908373ffffffffffffffffffffffffffffffffffffffff160217905550818373ffffffffffffffffffffffffffffffffffffffff167f0c884ec16d4df04dda9d6b34c3952b016f96ebc493dfa60c89ad5edd81d4fb0b60405160405180910390a3505050565b6000611953826002612cb2565b61195c57600080fd5b6006600083815260200190815260200160002060009054906101000a900473ffffffffffffffffffffffffffffffffffffffff169050919050565b60006119a282612844565b905060006119af83611e91565b90508073ffffffffffffffffffffffffffffffffffffffff168473ffffffffffffffffffffffffffffffffffffffff1614158015611a1957508173ffffffffffffffffffffffffffffffffffffffff168473ffffffffffffffffffffffffffffffffffffffff1614155b611a2257600080fd5b8173ffffffffffffffffffffffffffffffffffffffff163373ffffffffffffffffffffffffffffffffffffffff161480611a8757508073ffffffffffffffffffffffffffffffffffffffff163373ffffffffffffffffffffffffffffffffffffffff16145b80611a985750611a978233612993565b5b80611aa95750611aa88133612993565b5b611ab257600080fd5b8073ffffffffffffffffffffffffffffffffffffffff163373ffffffffffffffffffffffffffffffffffffffff161480611af25750611af18133612993565b5b15611b3957600073ffffffffffffffffffffffffffffffffffffffff16611b1884611541565b73ffffffffffffffffffffffffffffffffffffffff1614611b3857600080fd5b5b836002600085815260200190815260200160002060006001815260200190815260200160002060006101000a81548173ffffffffffffffffffffffffffffffffffffffff021916908373ffffffffffffffffffffffffffffffffffffffff1602179055508373ffffffffffffffffffffffffffffffffffffffff168273ffffffffffffffffffffffffffffffffffffffff167fa09bf3dd3238f9ce83e7feb7735fc7c137f90979b5aae4f7f01ae73b24181570856040518082815260200191505060405180910390a350505050565b611c2383838360405180602001604052806000815250612781565b505050565b611c31816116ec565b73ffffffffffffffffffffffffffffffffffffffff163373ffffffffffffffffffffffffffffffffffffffff1614611c6857600080fd5b336006600083815260200190815260200160002060006101000a81548173ffffffffffffffffffffffffffffffffffffffff021916908373ffffffffffffffffffffffffffffffffffffffff160217905550611cc38161302f565b803373ffffffffffffffffffffffffffffffffffffffff167f697a63882786c4e4b3b3cc495872d3d6e9e7953336ac7d30cf6207086274bdd36001604051808215151515815260200191505060405180910390a350565b611d2633836001612d44565b611d2f57600080fd5b611d3d8484846001856130ed565b50505050565b611d4c81611946565b73ffffffffffffffffffffffffffffffffffffffff163373ffffffffffffffffffffffffffffffffffffffff1614611d8357600080fd5b60006006600083815260200190815260200160002060006101000a81548173ffffffffffffffffffffffffffffffffffffffff021916908373ffffffffffffffffffffffffffffffffffffffff16021790555080600073ffffffffffffffffffffffffffffffffffffffff167f697a63882786c4e4b3b3cc495872d3d6e9e7953336ac7d30cf6207086274bdd36000604051808215151515815260200191505060405180910390a350565b6000611e3b826001612cb2565b611e4457600080fd5b6002600083815260200190815260200160002060006001815260200190815260200160002060009054906101000a900473ffffffffffffffffffffffffffffffffffffffff169050919050565b6000611e9c82613162565b9050919050565b6000611eae82611e91565b90508073ffffffffffffffffffffffffffffffffffffffff168373ffffffffffffffffffffffffffffffffffffffff161415611ee957600080fd5b8073ffffffffffffffffffffffffffffffffffffffff163373ffffffffffffffffffffffffffffffffffffffff161480611f295750611f288133612993565b5b611f3257600080fd5b826002600084815260200190815260200160002060006002815260200190815260200160002060006101000a81548173ffffffffffffffffffffffffffffffffffffffff021916908373ffffffffffffffffffffffffffffffffffffffff1602179055508273ffffffffffffffffffffffffffffffffffffffff168173ffffffffffffffffffffffffffffffffffffffff167f14ecf0643b070217924915201071c2f1842b5a0448d350f34dbbfe23616e07f3846040518082815260200191505060405180910390a3505050565b6060600f8054600181600116156101000203166002900480601f0160208091040260200160405190810160405280929190818152602001828054600181600116156101000203166002900480156120985780601f1061206d57610100808354040283529160200191612098565b820191906000526020600020905b81548152906001019060200180831161207b57829003601f168201915b5050505050905090565b6000600b80549050905090565b60006120ba826128d2565b9050919050565b60006120cc82611e91565b90508073ffffffffffffffffffffffffffffffffffffffff168373ffffffffffffffffffffffffffffffffffffffff16141561210757600080fd5b8073ffffffffffffffffffffffffffffffffffffffff163373ffffffffffffffffffffffffffffffffffffffff16148061214757506121468133612993565b5b61215057600080fd5b826005600084815260200190815260200160002060006101000a81548173ffffffffffffffffffffffffffffffffffffffff021916908373ffffffffffffffffffffffffffffffffffffffff160217905550818373ffffffffffffffffffffffffffffffffffffffff167f1ce7b0eca78337592451ad94da2c4fab6d3ef935144d93c358e1b2dd1b07871460405160405180910390a3505050565b6060600e8054600181600116156101000203166002900480601f0160208091040260200160405190810160405280929190818152602001828054600181600116156101000203166002900480156122835780601f1061225857610100808354040283529160200191612283565b820191906000526020600020905b81548152906001019060200180831161226657829003601f168201915b5050505050905090565b3373ffffffffffffffffffffffffffffffffffffffff168273ffffffffffffffffffffffffffffffffffffffff1614156122c657600080fd5b80600460003373ffffffffffffffffffffffffffffffffffffffff1673ffffffffffffffffffffffffffffffffffffffff16815260200190815260200160002060008473ffffffffffffffffffffffffffffffffffffffff1673ffffffffffffffffffffffffffffffffffffffff16815260200190815260200160002060006101000a81548160ff0219169083151502179055508173ffffffffffffffffffffffffffffffffffffffff163373ffffffffffffffffffffffffffffffffffffffff167f17307eab39ab6107e8899845ad3d59bd9653f200f220920489ca2b5937696c3183604051808215151515815260200191505060405180910390a35050565b6123d081611541565b73ffffffffffffffffffffffffffffffffffffffff163373ffffffffffffffffffffffffffffffffffffffff161461240757600080fd5b60006008600083815260200190815260200160002060006101000a81548173ffffffffffffffffffffffffffffffffffffffff021916908373ffffffffffffffffffffffffffffffffffffffff16021790555080600073ffffffffffffffffffffffffffffffffffffffff167f61f383bb3b27cd35ab1b0353eff732709f4d8c7ba28da80d9f11f58d6ab2c4776000604051808215151515815260200191505060405180910390a350565b60606124bf826001612cb2565b612531576040517f08c379a000000000000000000000000000000000000000000000000000000000815260040180806020018281038252601e8152602001807f55524920717565727920666f72206e6f6e6578697374656e74206974656d000081525060200191505060405180910390fd5b6060601060008481526020019081526020016000208054600181600116156101000203166002900480601f0160208091040260200160405190810160405280929190818152602001828054600181600116156101000203166002900480156125da5780601f106125af576101008083540402835291602001916125da565b820191906000526020600020905b8154815290600101906020018083116125bd57829003601f168201915b5050505050905060008151141561260357604051806020016040528060008152509150506126ce565b600f8160405160200180838054600181600116156101000203166002900480156126645780601f10612642576101008083540402835291820191612664565b820191906000526020600020905b815481529060010190602001808311612650575b505082805190602001908083835b602083106126955780518252602082019150602081019050602083039250612672565b6001836020036101000a038019825116818451168082178552505050505050905001925050506040516020818303038152906040529150505b919050565b60006126de836128d2565b82106126e957600080fd5b600960006002815260200190815260200160002060008473ffffffffffffffffffffffffffffffffffffffff1673ffffffffffffffffffffffffffffffffffffffff168152602001908152602001600020828154811061274557fe5b9060005260206000200154905092915050565b61276433836002612d44565b61276d57600080fd5b61277b8484846002856130ed565b50505050565b61278c84848461173d565b612798848484846131f0565b6127ed576040517f08c379a0000000000000000000000000000000000000000000000000000000008152600401808060200182810382526032815260200180613d2d6032913960400191505060405180910390fd5b50505050565b6000612800826002612cb2565b61280957600080fd5b6007600083815260200190815260200160002060009054906101000a900473ffffffffffffffffffffffffffffffffffffffff169050919050565b6000806001600084815260200190815260200160002060006001815260200190815260200160002060009054906101000a900473ffffffffffffffffffffffffffffffffffffffff169050600073ffffffffffffffffffffffffffffffffffffffff168173ffffffffffffffffffffffffffffffffffffffff1614156128c957600080fd5b80915050919050565b60008073ffffffffffffffffffffffffffffffffffffffff168273ffffffffffffffffffffffffffffffffffffffff16141561290d57600080fd5b6000612968600360008573ffffffffffffffffffffffffffffffffffffffff1673ffffffffffffffffffffffffffffffffffffffff168152602001908152602001600020600060028152602001908152602001600020612d36565b905080915050919050565b61298e83838360405180602001604052806000815250611d1a565b505050565b6000600460008473ffffffffffffffffffffffffffffffffffffffff1673ffffffffffffffffffffffffffffffffffffffff16815260200190815260200160002060008373ffffffffffffffffffffffffffffffffffffffff1673ffffffffffffffffffffffffffffffffffffffff16815260200190815260200160002060009054906101000a900460ff16905092915050565b6000612a34826002612cb2565b612aa6576040517f08c379a00000000000000000000000000000000000000000000000000000000081526004018080602001828103825260158152602001807f6e6f206f776e657220617070726f76616c20736574000000000000000000000081525060200191505060405180910390fd5b6002600083815260200190815260200160002060006002815260200190815260200160002060009054906101000a900473ffffffffffffffffffffffffffffffffffffffff169050919050565b612b0e83838360405180602001604052806000815250612758565b505050565b600073ffffffffffffffffffffffffffffffffffffffff166007600083815260200190815260200160002060009054906101000a900473ffffffffffffffffffffffffffffffffffffffff1673ffffffffffffffffffffffffffffffffffffffff1614612bce5760006007600083815260200190815260200160002060006101000a81548173ffffffffffffffffffffffffffffffffffffffff021916908373ffffffffffffffffffffffffffffffffffffffff1602179055505b50565b600073ffffffffffffffffffffffffffffffffffffffff1660026000848152602001908152602001600020600083815260200190815260200160002060009054906101000a900473ffffffffffffffffffffffffffffffffffffffff1673ffffffffffffffffffffffffffffffffffffffff1614612cae57600060026000848152602001908152602001600020600083815260200190815260200160002060006101000a81548173ffffffffffffffffffffffffffffffffffffffff021916908373ffffffffffffffffffffffffffffffffffffffff1602179055505b5050565b60008060016000858152602001908152602001600020600084815260200190815260200160002060009054906101000a900473ffffffffffffffffffffffffffffffffffffffff169050600073ffffffffffffffffffffffffffffffffffffffff168173ffffffffffffffffffffffffffffffffffffffff16141591505092915050565b600081600001549050919050565b6000612d508383612cb2565b612d5957600080fd5b6001821415612f1a576000612d6d84612844565b90506000612d7a85611e91565b90508173ffffffffffffffffffffffffffffffffffffffff168673ffffffffffffffffffffffffffffffffffffffff161480612de157508073ffffffffffffffffffffffffffffffffffffffff168673ffffffffffffffffffffffffffffffffffffffff16145b80612df25750612df18287612993565b5b80612e035750612e028187612993565b5b80612e415750612e1285611e2e565b73ffffffffffffffffffffffffffffffffffffffff168673ffffffffffffffffffffffffffffffffffffffff16145b80612e7f5750612e5085611946565b73ffffffffffffffffffffffffffffffffffffffff168673ffffffffffffffffffffffffffffffffffffffff16145b612e8857600080fd5b8073ffffffffffffffffffffffffffffffffffffffff168673ffffffffffffffffffffffffffffffffffffffff161480612ec85750612ec78187612993565b5b15612f0f57600073ffffffffffffffffffffffffffffffffffffffff16612eee86611541565b73ffffffffffffffffffffffffffffffffffffffff1614612f0e57600080fd5b5b600192505050613000565b6002821415612fff576000612f2e84611e91565b90508073ffffffffffffffffffffffffffffffffffffffff168573ffffffffffffffffffffffffffffffffffffffff161480612f705750612f6f8186612993565b5b80612fae5750612f7f84612a27565b73ffffffffffffffffffffffffffffffffffffffff168573ffffffffffffffffffffffffffffffffffffffff16145b80612fec5750612fbd84611946565b73ffffffffffffffffffffffffffffffffffffffff168573ffffffffffffffffffffffffffffffffffffffff16145b612ff557600080fd5b6001915050613000565b5b9392505050565b613013848484846133d9565b61301e848383613714565b613029838383613919565b50505050565b600073ffffffffffffffffffffffffffffffffffffffff166005600083815260200190815260200160002060009054906101000a900473ffffffffffffffffffffffffffffffffffffffff1673ffffffffffffffffffffffffffffffffffffffff16146130ea5760006005600083815260200190815260200160002060006101000a81548173ffffffffffffffffffffffffffffffffffffffff021916908373ffffffffffffffffffffffffffffffffffffffff1602179055505b50565b6130f985858585613007565b6131068585858585613a14565b61315b576040517f08c379a000000000000000000000000000000000000000000000000000000000815260040180806020018281038252602e815260200180613d5f602e913960400191505060405180910390fd5b5050505050565b6000806001600084815260200190815260200160002060006002815260200190815260200160002060009054906101000a900473ffffffffffffffffffffffffffffffffffffffff169050600073ffffffffffffffffffffffffffffffffffffffff168173ffffffffffffffffffffffffffffffffffffffff1614156131e757600080fd5b80915050919050565b60006132118473ffffffffffffffffffffffffffffffffffffffff16613c06565b61321e57600190506133d1565b60008473ffffffffffffffffffffffffffffffffffffffff1663150b7a02338887876040518563ffffffff1660e01b8152600401808573ffffffffffffffffffffffffffffffffffffffff1673ffffffffffffffffffffffffffffffffffffffff1681526020018473ffffffffffffffffffffffffffffffffffffffff1673ffffffffffffffffffffffffffffffffffffffff16815260200183815260200180602001828103825283818151815260200191508051906020019080838360005b838110156132f95780820151818401526020810190506132de565b50505050905090810190601f1680156133265780820380516001836020036101000a031916815260200191505b5095505050505050602060405180830381600087803b15801561334857600080fd5b505af115801561335c573d6000803e3d6000fd5b505050506040513d602081101561337257600080fd5b8101908080519060200190929190505050905063150b7a0260e01b7bffffffffffffffffffffffffffffffffffffffffffffffffffffffff1916817bffffffffffffffffffffffffffffffffffffffffffffffffffffffff1916149150505b949350505050565b6001811415613427578373ffffffffffffffffffffffffffffffffffffffff1661340283612844565b73ffffffffffffffffffffffffffffffffffffffff161461342257600080fd5b613468565b8373ffffffffffffffffffffffffffffffffffffffff1661344783611e91565b73ffffffffffffffffffffffffffffffffffffffff161461346757600080fd5b5b600073ffffffffffffffffffffffffffffffffffffffff168373ffffffffffffffffffffffffffffffffffffffff1614156134a257600080fd5b6134ac8282612bd1565b60028114156134c8576134be8261302f565b6134c782612b13565b5b613520600360008673ffffffffffffffffffffffffffffffffffffffff1673ffffffffffffffffffffffffffffffffffffffff1681526020019081526020016000206000838152602001908152602001600020613c19565b613578600360008573ffffffffffffffffffffffffffffffffffffffff1673ffffffffffffffffffffffffffffffffffffffff1681526020019081526020016000206000838152602001908152602001600020613c3c565b8260016000848152602001908152602001600020600083815260200190815260200160002060006101000a81548173ffffffffffffffffffffffffffffffffffffffff021916908373ffffffffffffffffffffffffffffffffffffffff160217905550600181141561367b57818373ffffffffffffffffffffffffffffffffffffffff168573ffffffffffffffffffffffffffffffffffffffff167f65f4ec73ce02035b6afc3f2f2125216c5138cd9067bce6ebbdc3b84816fd13ed33604051808273ffffffffffffffffffffffffffffffffffffffff1673ffffffffffffffffffffffffffffffffffffffff16815260200191505060405180910390a461370e565b818373ffffffffffffffffffffffffffffffffffffffff168573ffffffffffffffffffffffffffffffffffffffff167fcb841bc9006096b45791cffe31afee827510e6dc0a8381bdbc047d6ab332960133604051808273ffffffffffffffffffffffffffffffffffffffff1673ffffffffffffffffffffffffffffffffffffffff16815260200191505060405180910390a45b50505050565b600061377d60016009600085815260200190815260200160002060008773ffffffffffffffffffffffffffffffffffffffff1673ffffffffffffffffffffffffffffffffffffffff16815260200190815260200160002080549050613c5290919063ffffffff16565b90506000600a600084815260200190815260200160002060008581526020019081526020016000205490508181146138ae5760006009600085815260200190815260200160002060008773ffffffffffffffffffffffffffffffffffffffff1673ffffffffffffffffffffffffffffffffffffffff168152602001908152602001600020838154811061380c57fe5b90600052602060002001549050806009600086815260200190815260200160002060008873ffffffffffffffffffffffffffffffffffffffff1673ffffffffffffffffffffffffffffffffffffffff168152602001908152602001600020838154811061387557fe5b906000526020600020018190555081600a6000868152602001908152602001600020600083815260200190815260200160002081905550505b6009600084815260200190815260200160002060008673ffffffffffffffffffffffffffffffffffffffff1673ffffffffffffffffffffffffffffffffffffffff1681526020019081526020016000208054809190600190036139119190613cdb565b505050505050565b6009600082815260200190815260200160002060008473ffffffffffffffffffffffffffffffffffffffff1673ffffffffffffffffffffffffffffffffffffffff16815260200190815260200160002080549050600a60008381526020019081526020016000206000848152602001908152602001600020819055506009600082815260200190815260200160002060008473ffffffffffffffffffffffffffffffffffffffff1673ffffffffffffffffffffffffffffffffffffffff168152602001908152602001600020829080600181540180825580915050906001820390600052602060002001600090919290919091505550505050565b6000613a358573ffffffffffffffffffffffffffffffffffffffff16613c06565b613a425760019050613bfd565b60008573ffffffffffffffffffffffffffffffffffffffff16631c14516233898888886040518663ffffffff1660e01b8152600401808673ffffffffffffffffffffffffffffffffffffffff1673ffffffffffffffffffffffffffffffffffffffff1681526020018573ffffffffffffffffffffffffffffffffffffffff1673ffffffffffffffffffffffffffffffffffffffff16815260200184815260200183815260200180602001828103825283818151815260200191508051906020019080838360005b83811015613b24578082015181840152602081019050613b09565b50505050905090810190601f168015613b515780820380516001836020036101000a031916815260200191505b509650505050505050602060405180830381600087803b158015613b7457600080fd5b505af1158015613b88573d6000803e3d6000fd5b505050506040513d6020811015613b9e57600080fd5b81019080805190602001909291905050509050631111111160e01b7bffffffffffffffffffffffffffffffffffffffffffffffffffffffff1916817bffffffffffffffffffffffffffffffffffffffffffffffffffffffff1916149150505b95945050505050565b600080823b905060008111915050919050565b613c3160018260000154613c5290919063ffffffff16565b816000018190555050565b6001816000016000828254019250508190555050565b600082821115613cca576040517f08c379a000000000000000000000000000000000000000000000000000000000815260040180806020018281038252601e8152602001807f536166654d6174683a207375627472616374696f6e206f766572666c6f77000081525060200191505060405180910390fd5b600082840390508091505092915050565b815481835581811115613d0257818360005260206000209182019101613d019190613d07565b5b505050565b613d2991905b80821115613d25576000816000905550600101613d0d565b5090565b9056fe4552433732313a207472616e7366657220746f206e6f6e20455243373231526563656976657220696d706c656d656e746572455243583a207472616e7366657220746f206e6f6e2045524358526563656976657220696d706c656d656e746572a265627a7a72315820b4bf35dfd317515afb144ca6f8c17d581adc22f8b1742f030b20cb5d55446cc964736f6c63430005100032617070726f766554656e616e74526967687428616464726573732c2075696e7432353629617070726f7665466f724f776e657228616464726573732c2075696e7432353629736166655472616e736665725573657228616464726573732c20616464726573732c2075696e743235362c206279746573296973417070726f766564466f72416c6c28616464726573732c206164647265737329736166655472616e736665724f776e657228616464726573732c20616464726573732c2075696e7432353629736166655472616e736665724f776e657228616464726573732c20616464726573732c2075696e743235362c206279746573296974656d4f664f776e65724279496e64657828616464726573732c75696e743235362c75696e7432353629736166655472616e736665725573657228616464726573732c20616464726573732c2075696e7432353629",
  "source": "\npragma solidity ^0.5.0;\n\nimport './ERCX.sol';\nimport './ERCXEnumerable.sol';\nimport './ERCXMetadata.sol';\nimport './ERCX721fier.sol';\n\n\ncontract ERCXFull is ERCX, ERCXEnumerable, ERCXMetadata, ERCX721fier {\n  constructor(string memory name, string memory symbol) ERCXMetadata(name, symbol)\n    public\n  {\n  }\n}\n\n",
  "sourcePath": "/home/bitnami/BLK_Micro/dApp-nodeJS-webpack/app/contracts/ERCX/Contract/ERCXFull.sol",
  "compiler": {
    "name": "solc",
    "version": "0.5.16+commit.9c3226ce.Emscripten.clang"
  },
  "schemaVersion": "3.4.4",
  "updatedAt": "2022-01-15T03:42:33.621Z",
  "devdoc": {
    "methods": {
      "approveForOwner(address,uint256)": {
        "details": "Approves another address to transfer the owner of the given item ID The zero address indicates there is no approved address. There can only be one approved address per item at a given time. Can only be called by the item owner or an approved operator.",
        "params": {
          "itemId": "uint256 ID of the item to be approved",
          "to": "address to be approved for the given item ID"
        }
      },
      "approveForUser(address,uint256)": {
        "details": "Approves another address to transfer the user of the given item ID The zero address indicates there is no approved address. There can only be one approved address per item at a given time. Can only be called by the item owner or an approved operator.",
        "params": {
          "to": "address to be approved for the given item ID"
        }
      },
      "approveLien(address,uint256)": {
        "details": "Approves another address to set lien contract for the given item ID The zero address indicates there is no approved address. There can only be one approved address per item at a given time. Can only be called by the item owner or an approved operator.",
        "params": {
          "itemId": "uint256 ID of the item to be approved",
          "to": "address to be approved for the given item ID"
        }
      },
      "approveTenantRight(address,uint256)": {
        "details": "Approves another address to set tenant right agreement for the given item ID The zero address indicates there is no approved address. There can only be one approved address per item at a given time. Can only be called by the item owner or an approved operator.",
        "params": {
          "itemId": "uint256 ID of the item to be approved",
          "to": "address to be approved for the given item ID"
        }
      },
      "balanceOfOwner(address)": {
        "details": "Gets the balance of the specified address",
        "params": {
          "owner": "address to query the balance of"
        },
        "return": "uint256 representing the amount of items owned by the passed address in the specified layer"
      },
      "balanceOfUser(address)": {
        "details": "Gets the balance of the specified address",
        "params": {
          "user": "address to query the balance of"
        },
        "return": "uint256 representing the amount of items owned by the passed address"
      },
      "baseURI()": {
        "details": "Returns the base URI set via {_setBaseURI}. This will be automatically added as a preffix in {itemURI} to each item's URI, when they are non-empty."
      },
      "getApprovedForOwner(uint256)": {
        "details": "Gets the approved address for the of the item ID, or zero if no address set Reverts if the item ID does not exist.",
        "params": {
          "itemId": "uint256 ID of the item to query the approval o"
        },
        "return": "address currently approved for the given item ID"
      },
      "getApprovedForUser(uint256)": {
        "details": "Gets the approved address for the user of the item ID, or zero if no address set Reverts if the item ID does not exist.",
        "params": {
          "itemId": "uint256 ID of the item to query the approval of"
        },
        "return": "address currently approved for the given item ID"
      },
      "getApprovedLien(uint256)": {
        "details": "Gets the approved address for setting lien for a item ID, or zero if no address set Reverts if the item ID does not exist.",
        "params": {
          "itemId": "uint256 ID of the item to query the approval of"
        },
        "return": "address currently approved for the given item ID"
      },
      "getApprovedTenantRight(uint256)": {
        "details": "Gets the approved address for setting tenant right for a item ID, or zero if no address set Reverts if the item ID does not exist.",
        "params": {
          "itemId": "uint256 ID of the item to query the approval of"
        },
        "return": "address currently approved for the given item ID"
      },
      "getCurrentLien(uint256)": {
        "details": "Gets the current lien agreement address, or zero if no address set Reverts if the item ID does not exist.",
        "params": {
          "itemId": "uint256 ID of the item to query the lien address"
        },
        "return": "address of the lien agreement address for the given item ID"
      },
      "getCurrentTenantRight(uint256)": {
        "details": "Gets the current tenant right agreement address, or zero if no address set Reverts if the item ID does not exist.",
        "params": {
          "itemId": "uint256 ID of the item to query the tenant right address"
        },
        "return": "address of the tenant right agreement address for the given item ID"
      },
      "isApprovedForAll(address,address)": {
        "details": "Tells whether an operator is approved by a given owner",
        "params": {
          "operator": "operator address which you want to query the approval of",
          "owner": "owner address which you want to query the approval of"
        },
        "return": "bool whether the given operator is approved by the given owner"
      },
      "itemByIndex(uint256)": {
        "details": "Gets the item ID at a given index of all the items in this contract Reverts if the index is greater or equal to the total number of items",
        "params": {
          "index": "uint256 representing the index to be accessed of the items list"
        },
        "return": "uint256 item ID at the given index of the items list"
      },
      "itemOfOwnerByIndex(address,uint256)": {
        "details": "Gets the item ID at a given index of the items list of the requested owner",
        "params": {
          "index": "uint256 representing the index to be accessed of the requested items list",
          "owner": "address owning the items list to be accessed"
        },
        "return": "uint256 item ID at the given index of the items list owned by the requested address"
      },
      "itemOfUserByIndex(address,uint256)": {
        "details": "Gets the item ID at a given index of the items list of the requested user",
        "params": {
          "index": "uint256 representing the index to be accessed of the requested items list",
          "user": "address owning the items list to be accessed"
        },
        "return": "uint256 item ID at the given index of the items list owned by the requested address"
      },
      "itemURI(uint256)": {
        "details": "Returns an URI for a given item ID Throws if the item ID does not exist. May return an empty string.",
        "params": {
          "itemId": "uint256 ID of the item to query"
        }
      },
      "name()": {
        "details": "Gets the item name",
        "return": "string representing the item name"
      },
      "revokeLien(uint256)": {
        "details": "Revoke the lien agreements. Only the lien address can revoke.",
        "params": {
          "itemId": "uint256 ID of the item"
        }
      },
      "revokeTenantRight(uint256)": {
        "details": "Revoke the tenant right agreement. Only the lien address can revoke.",
        "params": {
          "itemId": "uint256 ID of the item"
        }
      },
      "safeTransferOwner(address,address,uint256)": {
        "details": "Safely transfers the ownership of a given item ID to another address If the target address is a contract, it must implement `onERCXReceived`, which is called upon a safe transfer, and return the magic value `bytes4(keccak256(\"onERCXReceived(address,address,uint256,bytes)\"))`; otherwise, the transfer is reverted.   * Requires the msg sender to be the owner, approved, or operator",
        "params": {
          "from": "current owner of the item",
          "itemId": "uint256 ID of the item to be transferred",
          "to": "address to receive the ownership of the given item ID"
        }
      },
      "safeTransferOwner(address,address,uint256,bytes)": {
        "details": "Safely transfers the ownership of a given item ID to another address If the target address is a contract, it must implement `onERCXReceived`, which is called upon a safe transfer, and return the magic value `bytes4(keccak256(\"onERCXReceived(address,address,uint256,bytes)\"))`; otherwise, the transfer is reverted. Requires the msg sender to be the owner, approved, or operator",
        "params": {
          "data": "bytes data to send along with a safe transfer check",
          "from": "current owner of the item",
          "itemId": "uint256 ID of the item to be transferred",
          "to": "address to receive the ownership of the given item ID"
        }
      },
      "safeTransferUser(address,address,uint256)": {
        "details": "Safely transfers the user of a given item ID to another address If the target address is a contract, it must implement `onERCXReceived`, which is called upon a safe transfer, and return the magic value `bytes4(keccak256(\"onERCXReceived(address,address,uint256,bytes)\"))`; otherwise, the transfer is reverted.   * Requires the msg sender to be the owner, approved, or operator",
        "params": {
          "from": "current owner of the item",
          "itemId": "uint256 ID of the item to be transferred",
          "to": "address to receive the ownership of the given item ID"
        }
      },
      "safeTransferUser(address,address,uint256,bytes)": {
        "details": "Safely transfers the user of a given item ID to another address If the target address is a contract, it must implement `onERCXReceived`, which is called upon a safe transfer, and return the magic value `bytes4(keccak256(\"onERCXReceived(address,address,uint256,bytes)\"))`; otherwise, the transfer is reverted. Requires the msg sender to be the owner, approved, or operator",
        "params": {
          "data": "bytes data to send along with a safe transfer check",
          "from": "current owner of the item",
          "itemId": "uint256 ID of the item to be transferred",
          "to": "address to receive the ownership of the given item ID"
        }
      },
      "setApprovalForAll(address,bool)": {
        "details": "Sets or unsets the approval of a given operator An operator is allowed to transfer all items of the sender on their behalf",
        "params": {
          "approved": "representing the status of the approval to be set",
          "to": "operator address to set the approval"
        }
      },
      "setLien(uint256)": {
        "details": "Sets lien agreements to already approved address The lien address is allowed to transfer all items of the sender on their behalf",
        "params": {
          "itemId": "uint256 ID of the item"
        }
      },
      "setTenantRight(uint256)": {
        "details": "Sets the tenant right agreement to already approved address The lien address is allowed to transfer all items of the sender on their behalf",
        "params": {
          "itemId": "uint256 ID of the item"
        }
      },
      "supportsInterface(bytes4)": {
        "details": "See `IERC165.supportsInterface`.     * Time complexity O(1), guaranteed to always use less than 30 000 gas."
      },
      "symbol()": {
        "details": "Gets the item symbol",
        "return": "string representing the item symbol"
      },
      "totalNumberOfItems()": {
        "details": "Gets the total amount of items stored by the contract",
        "return": "uint256 representing the total amount of items"
      },
      "userOf(uint256)": {
        "details": "Gets the user of the specified item ID",
        "params": {
          "itemId": "uint256 ID of the item to query the user of"
        },
        "return": "owner address currently marked as the owner of the given item ID"
      }
    }
  },
  "userdoc": {
    "methods": {}
  }
}