{
  "contractName": "ERCXEnumerable",
  "abi": [
    {
      "inputs": [],
      "payable": false,
      "stateMutability": "nonpayable",
      "type": "constructor"
    },
    {
      "anonymous": false,
      "inputs": [
        {
          "indexed": true,
          "internalType": "address",
          "name": "owner",
          "type": "address"
        },
        {
          "indexed": true,
          "internalType": "address",
          "name": "operator",
          "type": "address"
        },
        {
          "indexed": false,
          "internalType": "bool",
          "name": "approved",
          "type": "bool"
        }
      ],
      "name": "ApprovalForAll",
      "type": "event"
    },
    {
      "anonymous": false,
      "inputs": [
        {
          "indexed": true,
          "internalType": "address",
          "name": "owner",
          "type": "address"
        },
        {
          "indexed": true,
          "internalType": "address",
          "name": "approved",
          "type": "address"
        },
        {
          "indexed": false,
          "internalType": "uint256",
          "name": "itemId",
          "type": "uint256"
        }
      ],
      "name": "ApprovalForOwner",
      "type": "event"
    },
    {
      "anonymous": false,
      "inputs": [
        {
          "indexed": true,
          "internalType": "address",
          "name": "user",
          "type": "address"
        },
        {
          "indexed": true,
          "internalType": "address",
          "name": "approved",
          "type": "address"
        },
        {
          "indexed": false,
          "internalType": "uint256",
          "name": "itemId",
          "type": "uint256"
        }
      ],
      "name": "ApprovalForUser",
      "type": "event"
    },
    {
      "anonymous": false,
      "inputs": [
        {
          "indexed": true,
          "internalType": "address",
          "name": "to",
          "type": "address"
        },
        {
          "indexed": true,
          "internalType": "uint256",
          "name": "itemId",
          "type": "uint256"
        }
      ],
      "name": "LienApproval",
      "type": "event"
    },
    {
      "anonymous": false,
      "inputs": [
        {
          "indexed": true,
          "internalType": "address",
          "name": "to",
          "type": "address"
        },
        {
          "indexed": true,
          "internalType": "uint256",
          "name": "itemId",
          "type": "uint256"
        },
        {
          "indexed": false,
          "internalType": "bool",
          "name": "status",
          "type": "bool"
        }
      ],
      "name": "LienSet",
      "type": "event"
    },
    {
      "anonymous": false,
      "inputs": [
        {
          "indexed": true,
          "internalType": "address",
          "name": "to",
          "type": "address"
        },
        {
          "indexed": true,
          "internalType": "uint256",
          "name": "itemId",
          "type": "uint256"
        }
      ],
      "name": "TenantRightApproval",
      "type": "event"
    },
    {
      "anonymous": false,
      "inputs": [
        {
          "indexed": true,
          "internalType": "address",
          "name": "to",
          "type": "address"
        },
        {
          "indexed": true,
          "internalType": "uint256",
          "name": "itemId",
          "type": "uint256"
        },
        {
          "indexed": false,
          "internalType": "bool",
          "name": "status",
          "type": "bool"
        }
      ],
      "name": "TenantRightSet",
      "type": "event"
    },
    {
      "anonymous": false,
      "inputs": [
        {
          "indexed": true,
          "internalType": "address",
          "name": "from",
          "type": "address"
        },
        {
          "indexed": true,
          "internalType": "address",
          "name": "to",
          "type": "address"
        },
        {
          "indexed": true,
          "internalType": "uint256",
          "name": "itemId",
          "type": "uint256"
        },
        {
          "indexed": false,
          "internalType": "address",
          "name": "operator",
          "type": "address"
        }
      ],
      "name": "TransferOwner",
      "type": "event"
    },
    {
      "anonymous": false,
      "inputs": [
        {
          "indexed": true,
          "internalType": "address",
          "name": "from",
          "type": "address"
        },
        {
          "indexed": true,
          "internalType": "address",
          "name": "to",
          "type": "address"
        },
        {
          "indexed": true,
          "internalType": "uint256",
          "name": "itemId",
          "type": "uint256"
        },
        {
          "indexed": false,
          "internalType": "address",
          "name": "operator",
          "type": "address"
        }
      ],
      "name": "TransferUser",
      "type": "event"
    },
    {
      "constant": false,
      "inputs": [
        {
          "internalType": "address",
          "name": "to",
          "type": "address"
        },
        {
          "internalType": "uint256",
          "name": "itemId",
          "type": "uint256"
        }
      ],
      "name": "approveForOwner",
      "outputs": [],
      "payable": false,
      "stateMutability": "nonpayable",
      "type": "function"
    },
    {
      "constant": false,
      "inputs": [
        {
          "internalType": "address",
          "name": "to",
          "type": "address"
        },
        {
          "internalType": "uint256",
          "name": "itemId",
          "type": "uint256"
        }
      ],
      "name": "approveForUser",
      "outputs": [],
      "payable": false,
      "stateMutability": "nonpayable",
      "type": "function"
    },
    {
      "constant": false,
      "inputs": [
        {
          "internalType": "address",
          "name": "to",
          "type": "address"
        },
        {
          "internalType": "uint256",
          "name": "itemId",
          "type": "uint256"
        }
      ],
      "name": "approveLien",
      "outputs": [],
      "payable": false,
      "stateMutability": "nonpayable",
      "type": "function"
    },
    {
      "constant": false,
      "inputs": [
        {
          "internalType": "address",
          "name": "to",
          "type": "address"
        },
        {
          "internalType": "uint256",
          "name": "itemId",
          "type": "uint256"
        }
      ],
      "name": "approveTenantRight",
      "outputs": [],
      "payable": false,
      "stateMutability": "nonpayable",
      "type": "function"
    },
    {
      "constant": true,
      "inputs": [
        {
          "internalType": "address",
          "name": "owner",
          "type": "address"
        }
      ],
      "name": "balanceOfOwner",
      "outputs": [
        {
          "internalType": "uint256",
          "name": "",
          "type": "uint256"
        }
      ],
      "payable": false,
      "stateMutability": "view",
      "type": "function"
    },
    {
      "constant": true,
      "inputs": [
        {
          "internalType": "address",
          "name": "user",
          "type": "address"
        }
      ],
      "name": "balanceOfUser",
      "outputs": [
        {
          "internalType": "uint256",
          "name": "",
          "type": "uint256"
        }
      ],
      "payable": false,
      "stateMutability": "view",
      "type": "function"
    },
    {
      "constant": true,
      "inputs": [
        {
          "internalType": "uint256",
          "name": "itemId",
          "type": "uint256"
        }
      ],
      "name": "getApprovedForOwner",
      "outputs": [
        {
          "internalType": "address",
          "name": "",
          "type": "address"
        }
      ],
      "payable": false,
      "stateMutability": "view",
      "type": "function"
    },
    {
      "constant": true,
      "inputs": [
        {
          "internalType": "uint256",
          "name": "itemId",
          "type": "uint256"
        }
      ],
      "name": "getApprovedForUser",
      "outputs": [
        {
          "internalType": "address",
          "name": "",
          "type": "address"
        }
      ],
      "payable": false,
      "stateMutability": "view",
      "type": "function"
    },
    {
      "constant": true,
      "inputs": [
        {
          "internalType": "uint256",
          "name": "itemId",
          "type": "uint256"
        }
      ],
      "name": "getApprovedLien",
      "outputs": [
        {
          "internalType": "address",
          "name": "",
          "type": "address"
        }
      ],
      "payable": false,
      "stateMutability": "view",
      "type": "function"
    },
    {
      "constant": true,
      "inputs": [
        {
          "internalType": "uint256",
          "name": "itemId",
          "type": "uint256"
        }
      ],
      "name": "getApprovedTenantRight",
      "outputs": [
        {
          "internalType": "address",
          "name": "",
          "type": "address"
        }
      ],
      "payable": false,
      "stateMutability": "view",
      "type": "function"
    },
    {
      "constant": true,
      "inputs": [
        {
          "internalType": "uint256",
          "name": "itemId",
          "type": "uint256"
        }
      ],
      "name": "getCurrentLien",
      "outputs": [
        {
          "internalType": "address",
          "name": "",
          "type": "address"
        }
      ],
      "payable": false,
      "stateMutability": "view",
      "type": "function"
    },
    {
      "constant": true,
      "inputs": [
        {
          "internalType": "uint256",
          "name": "itemId",
          "type": "uint256"
        }
      ],
      "name": "getCurrentTenantRight",
      "outputs": [
        {
          "internalType": "address",
          "name": "",
          "type": "address"
        }
      ],
      "payable": false,
      "stateMutability": "view",
      "type": "function"
    },
    {
      "constant": true,
      "inputs": [
        {
          "internalType": "address",
          "name": "owner",
          "type": "address"
        },
        {
          "internalType": "address",
          "name": "operator",
          "type": "address"
        }
      ],
      "name": "isApprovedForAll",
      "outputs": [
        {
          "internalType": "bool",
          "name": "",
          "type": "bool"
        }
      ],
      "payable": false,
      "stateMutability": "view",
      "type": "function"
    },
    {
      "constant": true,
      "inputs": [
        {
          "internalType": "uint256",
          "name": "itemId",
          "type": "uint256"
        }
      ],
      "name": "ownerOf",
      "outputs": [
        {
          "internalType": "address",
          "name": "",
          "type": "address"
        }
      ],
      "payable": false,
      "stateMutability": "view",
      "type": "function"
    },
    {
      "constant": false,
      "inputs": [
        {
          "internalType": "uint256",
          "name": "itemId",
          "type": "uint256"
        }
      ],
      "name": "revokeLien",
      "outputs": [],
      "payable": false,
      "stateMutability": "nonpayable",
      "type": "function"
    },
    {
      "constant": false,
      "inputs": [
        {
          "internalType": "uint256",
          "name": "itemId",
          "type": "uint256"
        }
      ],
      "name": "revokeTenantRight",
      "outputs": [],
      "payable": false,
      "stateMutability": "nonpayable",
      "type": "function"
    },
    {
      "constant": false,
      "inputs": [
        {
          "internalType": "address",
          "name": "from",
          "type": "address"
        },
        {
          "internalType": "address",
          "name": "to",
          "type": "address"
        },
        {
          "internalType": "uint256",
          "name": "itemId",
          "type": "uint256"
        },
        {
          "internalType": "bytes",
          "name": "data",
          "type": "bytes"
        }
      ],
      "name": "safeTransferOwner",
      "outputs": [],
      "payable": false,
      "stateMutability": "nonpayable",
      "type": "function"
    },
    {
      "constant": false,
      "inputs": [
        {
          "internalType": "address",
          "name": "from",
          "type": "address"
        },
        {
          "internalType": "address",
          "name": "to",
          "type": "address"
        },
        {
          "internalType": "uint256",
          "name": "itemId",
          "type": "uint256"
        }
      ],
      "name": "safeTransferOwner",
      "outputs": [],
      "payable": false,
      "stateMutability": "nonpayable",
      "type": "function"
    },
    {
      "constant": false,
      "inputs": [
        {
          "internalType": "address",
          "name": "from",
          "type": "address"
        },
        {
          "internalType": "address",
          "name": "to",
          "type": "address"
        },
        {
          "internalType": "uint256",
          "name": "itemId",
          "type": "uint256"
        },
        {
          "internalType": "bytes",
          "name": "data",
          "type": "bytes"
        }
      ],
      "name": "safeTransferUser",
      "outputs": [],
      "payable": false,
      "stateMutability": "nonpayable",
      "type": "function"
    },
    {
      "constant": false,
      "inputs": [
        {
          "internalType": "address",
          "name": "from",
          "type": "address"
        },
        {
          "internalType": "address",
          "name": "to",
          "type": "address"
        },
        {
          "internalType": "uint256",
          "name": "itemId",
          "type": "uint256"
        }
      ],
      "name": "safeTransferUser",
      "outputs": [],
      "payable": false,
      "stateMutability": "nonpayable",
      "type": "function"
    },
    {
      "constant": false,
      "inputs": [
        {
          "internalType": "address",
          "name": "to",
          "type": "address"
        },
        {
          "internalType": "bool",
          "name": "approved",
          "type": "bool"
        }
      ],
      "name": "setApprovalForAll",
      "outputs": [],
      "payable": false,
      "stateMutability": "nonpayable",
      "type": "function"
    },
    {
      "constant": false,
      "inputs": [
        {
          "internalType": "uint256",
          "name": "itemId",
          "type": "uint256"
        }
      ],
      "name": "setLien",
      "outputs": [],
      "payable": false,
      "stateMutability": "nonpayable",
      "type": "function"
    },
    {
      "constant": false,
      "inputs": [
        {
          "internalType": "uint256",
          "name": "itemId",
          "type": "uint256"
        }
      ],
      "name": "setTenantRight",
      "outputs": [],
      "payable": false,
      "stateMutability": "nonpayable",
      "type": "function"
    },
    {
      "constant": true,
      "inputs": [
        {
          "internalType": "bytes4",
          "name": "interfaceId",
          "type": "bytes4"
        }
      ],
      "name": "supportsInterface",
      "outputs": [
        {
          "internalType": "bool",
          "name": "",
          "type": "bool"
        }
      ],
      "payable": false,
      "stateMutability": "view",
      "type": "function"
    },
    {
      "constant": true,
      "inputs": [
        {
          "internalType": "uint256",
          "name": "itemId",
          "type": "uint256"
        }
      ],
      "name": "userOf",
      "outputs": [
        {
          "internalType": "address",
          "name": "",
          "type": "address"
        }
      ],
      "payable": false,
      "stateMutability": "view",
      "type": "function"
    },
    {
      "constant": true,
      "inputs": [
        {
          "internalType": "address",
          "name": "user",
          "type": "address"
        },
        {
          "internalType": "uint256",
          "name": "index",
          "type": "uint256"
        }
      ],
      "name": "itemOfUserByIndex",
      "outputs": [
        {
          "internalType": "uint256",
          "name": "",
          "type": "uint256"
        }
      ],
      "payable": false,
      "stateMutability": "view",
      "type": "function"
    },
    {
      "constant": true,
      "inputs": [
        {
          "internalType": "address",
          "name": "owner",
          "type": "address"
        },
        {
          "internalType": "uint256",
          "name": "index",
          "type": "uint256"
        }
      ],
      "name": "itemOfOwnerByIndex",
      "outputs": [
        {
          "internalType": "uint256",
          "name": "",
          "type": "uint256"
        }
      ],
      "payable": false,
      "stateMutability": "view",
      "type": "function"
    },
    {
      "constant": true,
      "inputs": [],
      "name": "totalNumberOfItems",
      "outputs": [
        {
          "internalType": "uint256",
          "name": "",
          "type": "uint256"
        }
      ],
      "payable": false,
      "stateMutability": "view",
      "type": "function"
    },
    {
      "constant": true,
      "inputs": [
        {
          "internalType": "uint256",
          "name": "index",
          "type": "uint256"
        }
      ],
      "name": "itemByIndex",
      "outputs": [
        {
          "internalType": "uint256",
          "name": "",
          "type": "uint256"
        }
      ],
      "payable": false,
      "stateMutability": "view",
      "type": "function"
    }
  ],
  "bytecode": "0x60806040523480156200001157600080fd5b506200002a6301ffc9a760e01b6200053b60201b60201c565b6200049d60405180807f7265766f6b6554656e616e7452696768742875696e7432353629000000000000815250601a019050604051809103902060405180807f67657443757272656e7454656e616e7452696768742875696e74323536290000815250601e019050604051809103902060405180807f73657454656e616e7452696768742875696e74323536290000000000000000008152506017019050604051809103902060405180807f676574417070726f76656454656e616e7452696768742875696e743235362900815250601f0190506040518091039020604051808062003642602491396024019050604051809103902060405180807f7265766f6b654c69656e2875696e7432353629000000000000000000000000008152506013019050604051809103902060405180807f67657443757272656e744c69656e2875696e74323536290000000000000000008152506017019050604051809103902060405180807f7365744c69656e2875696e7432353629000000000000000000000000000000008152506010019050604051809103902060405180807f676574417070726f7665644c69656e2875696e743235362900000000000000008152506018019050604051809103902060405180807f617070726f76654c69656e28616464726573732c2075696e7432353629000000815250601d01905060405180910390206040518080620036b9602291396022019050604051809103902060405180807f736574417070726f76616c466f72416c6c28616464726573732c20626f6f6c298152506020019050604051809103902060405180807f676574417070726f766564466f72557365722875696e74323536290000000000815250601b019050604051809103902060405180807f617070726f7665466f725573657228616464726573732c2075696e74323536298152506020019050604051809103902060405180807f676574417070726f766564466f724f776e65722875696e743235362900000000815250601c019050604051809103902060405180806200366660219139602101905060405180910390206040518080620036876032913960320190506040518091039020604051808062003765602b9139602b019050604051809103902060405180806200370760339139603301905060405180910390206040518080620036db602c9139602c019050604051809103902060405180807f757365724f662875696e74323536290000000000000000000000000000000000815250600f019050604051809103902060405180807f6f776e65724f662875696e7432353629000000000000000000000000000000008152506010019050604051809103902060405180807f62616c616e63654f6655736572286164647265737329000000000000000000008152506016019050604051809103902060405180807f62616c616e63654f664f776e65722861646472657373290000000000000000008152506017019050604051809103902018181818181818181818181818181818181818181818186200053b60201b60201c565b6200053560405180807f6974656d4279496e6465782875696e74323536290000000000000000000000008152506014019050604051809103902060405180806200373a602b9139602b019050604051809103902060405180807f746f74616c4e756d6265724f664974656d7328290000000000000000000000008152506014019050604051809103902018186200053b60201b60201c565b62000644565b63ffffffff60e01b817bffffffffffffffffffffffffffffffffffffffffffffffffffffffff19161415620005d8576040517f08c379a000000000000000000000000000000000000000000000000000000000815260040180806020018281038252601c8152602001807f4552433136353a20696e76616c696420696e746572666163652069640000000081525060200191505060405180910390fd5b6001600080837bffffffffffffffffffffffffffffffffffffffffffffffffffffffff19167bffffffffffffffffffffffffffffffffffffffffffffffffffffffff1916815260200190815260200160002060006101000a81548160ff02191690831515021790555050565b612fee80620006546000396000f3fe608060405234801561001057600080fd5b50600436106101cf5760003560e01c80636352211e11610104578063b6f0a834116100a2578063d872095a11610071578063d872095a14610b59578063e985e9c514610bc7578063ea4eb8f214610c43578063ed7f723c14610cb1576101cf565b8063b6f0a83414610920578063c043f83c14610a25578063c2f1f14a14610a93578063c66130d714610b01576101cf565b80637e8ca079116100de5780637e8ca079146107f2578063a22cb46514610840578063a9c7518614610890578063b21e4ebd146108be576101cf565b80636352211e146107185780636494aa621461078657806370324f2b146107d4576101cf565b80632afbf01911610171578063471647241161014b57806347164724146105495780634cfd83be14610577578063578a930b1461067c57806362b21679146106aa576101cf565b80632afbf0191461043f5780633593d11b1461048d5780633b58452e146104fb576101cf565b806312cae7af116101ad57806312cae7af146102d557806313b01a811461032d578063173cc5221461038f5780631f11d46b146103d1576101cf565b806301ffc9a7146101d45780630b20055e146102395780630dca1c8914610267575b600080fd5b61021f600480360360208110156101ea57600080fd5b8101908080357bffffffffffffffffffffffffffffffffffffffffffffffffffffffff19169060200190929190505050610d1f565b604051808215151515815260200191505060405180910390f35b6102656004803603602081101561024f57600080fd5b8101908080359060200190929190505050610d86565b005b6102936004803603602081101561027d57600080fd5b8101908080359060200190929190505050610e83565b604051808273ffffffffffffffffffffffffffffffffffffffff1673ffffffffffffffffffffffffffffffffffffffff16815260200191505060405180910390f35b610317600480360360208110156102eb57600080fd5b81019080803573ffffffffffffffffffffffffffffffffffffffff169060200190929190505050610ed4565b6040518082815260200191505060405180910390f35b6103796004803603604081101561034357600080fd5b81019080803573ffffffffffffffffffffffffffffffffffffffff16906020019092919080359060200190929190505050610f75565b6040518082815260200191505060405180910390f35b6103bb600480360360208110156103a557600080fd5b8101908080359060200190929190505050610ffa565b6040518082815260200191505060405180910390f35b6103fd600480360360208110156103e757600080fd5b810190808035906020019092919050505061102e565b604051808273ffffffffffffffffffffffffffffffffffffffff1673ffffffffffffffffffffffffffffffffffffffff16815260200191505060405180910390f35b61048b6004803603604081101561045557600080fd5b81019080803573ffffffffffffffffffffffffffffffffffffffff1690602001909291908035906020019092919050505061107f565b005b6104b9600480360360208110156104a357600080fd5b81019080803590602001909291905050506111a9565b604051808273ffffffffffffffffffffffffffffffffffffffff1673ffffffffffffffffffffffffffffffffffffffff16815260200191505060405180910390f35b6105476004803603604081101561051157600080fd5b81019080803573ffffffffffffffffffffffffffffffffffffffff169060200190929190803590602001909291905050506111fa565b005b6105756004803603602081101561055f57600080fd5b810190808035906020019092919050505061146b565b005b61067a6004803603608081101561058d57600080fd5b81019080803573ffffffffffffffffffffffffffffffffffffffff169060200190929190803573ffffffffffffffffffffffffffffffffffffffff16906020019092919080359060200190929190803590602001906401000000008111156105f457600080fd5b82018360208201111561060657600080fd5b8035906020019184600183028401116401000000008311171561062857600080fd5b91908080601f016020809104026020016040519081016040528093929190818152602001838380828437600081840152601f19601f82011690508083019250505050505050919291929050505061155d565b005b6106a86004803603602081101561069257600080fd5b8101908080359060200190929190505050611586565b005b6106d6600480360360208110156106c057600080fd5b8101908080359060200190929190505050611671565b604051808273ffffffffffffffffffffffffffffffffffffffff1673ffffffffffffffffffffffffffffffffffffffff16815260200191505060405180910390f35b6107446004803603602081101561072e57600080fd5b81019080803590602001909291905050506116d4565b604051808273ffffffffffffffffffffffffffffffffffffffff1673ffffffffffffffffffffffffffffffffffffffff16815260200191505060405180910390f35b6107d26004803603604081101561079c57600080fd5b81019080803573ffffffffffffffffffffffffffffffffffffffff16906020019092919080359060200190929190505050611762565b005b6107dc6118bf565b6040518082815260200191505060405180910390f35b61083e6004803603604081101561080857600080fd5b81019080803573ffffffffffffffffffffffffffffffffffffffff169060200190929190803590602001909291905050506118cc565b005b61088e6004803603604081101561085657600080fd5b81019080803573ffffffffffffffffffffffffffffffffffffffff1690602001909291908035151590602001909291905050506119f6565b005b6108bc600480360360208110156108a657600080fd5b8101908080359060200190929190505050611b30565b005b61090a600480360360408110156108d457600080fd5b81019080803573ffffffffffffffffffffffffffffffffffffffff16906020019092919080359060200190929190505050611c1b565b6040518082815260200191505060405180910390f35b610a236004803603608081101561093657600080fd5b81019080803573ffffffffffffffffffffffffffffffffffffffff169060200190929190803573ffffffffffffffffffffffffffffffffffffffff169060200190929190803590602001909291908035906020019064010000000081111561099d57600080fd5b8201836020820111156109af57600080fd5b803590602001918460018302840111640100000000831117156109d157600080fd5b91908080601f016020809104026020016040519081016040528093929190818152602001838380828437600081840152601f19601f820116905080830192505050505050509192919290505050611ca0565b005b610a5160048036036020811015610a3b57600080fd5b8101908080359060200190929190505050611cc9565b604051808273ffffffffffffffffffffffffffffffffffffffff1673ffffffffffffffffffffffffffffffffffffffff16815260200191505060405180910390f35b610abf60048036036020811015610aa957600080fd5b8101908080359060200190929190505050611d1a565b604051808273ffffffffffffffffffffffffffffffffffffffff1673ffffffffffffffffffffffffffffffffffffffff16815260200191505060405180910390f35b610b4360048036036020811015610b1757600080fd5b81019080803573ffffffffffffffffffffffffffffffffffffffff169060200190929190505050611da8565b6040518082815260200191505060405180910390f35b610bc560048036036060811015610b6f57600080fd5b81019080803573ffffffffffffffffffffffffffffffffffffffff169060200190929190803573ffffffffffffffffffffffffffffffffffffffff16906020019092919080359060200190929190505050611e49565b005b610c2960048036036040811015610bdd57600080fd5b81019080803573ffffffffffffffffffffffffffffffffffffffff169060200190929190803573ffffffffffffffffffffffffffffffffffffffff169060200190929190505050611e69565b604051808215151515815260200191505060405180910390f35b610c6f60048036036020811015610c5957600080fd5b8101908080359060200190929190505050611efd565b604051808273ffffffffffffffffffffffffffffffffffffffff1673ffffffffffffffffffffffffffffffffffffffff16815260200191505060405180910390f35b610d1d60048036036060811015610cc757600080fd5b81019080803573ffffffffffffffffffffffffffffffffffffffff169060200190929190803573ffffffffffffffffffffffffffffffffffffffff16906020019092919080359060200190929190505050611fc9565b005b6000806000837bffffffffffffffffffffffffffffffffffffffffffffffffffffffff19167bffffffffffffffffffffffffffffffffffffffffffffffffffffffff1916815260200190815260200160002060009054906101000a900460ff169050919050565b610d8f81611cc9565b73ffffffffffffffffffffffffffffffffffffffff163373ffffffffffffffffffffffffffffffffffffffff1614610dc657600080fd5b336008600083815260200190815260200160002060006101000a81548173ffffffffffffffffffffffffffffffffffffffff021916908373ffffffffffffffffffffffffffffffffffffffff160217905550610e2181611fe9565b610e2c8160016120a7565b803373ffffffffffffffffffffffffffffffffffffffff167f61f383bb3b27cd35ab1b0353eff732709f4d8c7ba28da80d9f11f58d6ab2c4776001604051808215151515815260200191505060405180910390a350565b6000610e90826002612188565b610e9957600080fd5b6008600083815260200190815260200160002060009054906101000a900473ffffffffffffffffffffffffffffffffffffffff169050919050565b60008073ffffffffffffffffffffffffffffffffffffffff168273ffffffffffffffffffffffffffffffffffffffff161415610f0f57600080fd5b6000610f6a600360008573ffffffffffffffffffffffffffffffffffffffff1673ffffffffffffffffffffffffffffffffffffffff16815260200190815260200160002060006001815260200190815260200160002061220c565b905080915050919050565b6000610f8083610ed4565b8210610f8b57600080fd5b600960006001815260200190815260200160002060008473ffffffffffffffffffffffffffffffffffffffff1673ffffffffffffffffffffffffffffffffffffffff1681526020019081526020016000208281548110610fe757fe5b9060005260206000200154905092915050565b60006110046118bf565b821061100f57600080fd5b600b828154811061101c57fe5b90600052602060002001549050919050565b600061103b826002612188565b61104457600080fd5b6005600083815260200190815260200160002060009054906101000a900473ffffffffffffffffffffffffffffffffffffffff169050919050565b600061108a826116d4565b90508073ffffffffffffffffffffffffffffffffffffffff168373ffffffffffffffffffffffffffffffffffffffff1614156110c557600080fd5b8073ffffffffffffffffffffffffffffffffffffffff163373ffffffffffffffffffffffffffffffffffffffff16148061110557506111048133611e69565b5b61110e57600080fd5b826007600084815260200190815260200160002060006101000a81548173ffffffffffffffffffffffffffffffffffffffff021916908373ffffffffffffffffffffffffffffffffffffffff160217905550818373ffffffffffffffffffffffffffffffffffffffff167f0c884ec16d4df04dda9d6b34c3952b016f96ebc493dfa60c89ad5edd81d4fb0b60405160405180910390a3505050565b60006111b6826002612188565b6111bf57600080fd5b6006600083815260200190815260200160002060009054906101000a900473ffffffffffffffffffffffffffffffffffffffff169050919050565b600061120582611d1a565b90506000611212836116d4565b90508073ffffffffffffffffffffffffffffffffffffffff168473ffffffffffffffffffffffffffffffffffffffff161415801561127c57508173ffffffffffffffffffffffffffffffffffffffff168473ffffffffffffffffffffffffffffffffffffffff1614155b61128557600080fd5b8173ffffffffffffffffffffffffffffffffffffffff163373ffffffffffffffffffffffffffffffffffffffff1614806112ea57508073ffffffffffffffffffffffffffffffffffffffff163373ffffffffffffffffffffffffffffffffffffffff16145b806112fb57506112fa8233611e69565b5b8061130c575061130b8133611e69565b5b61131557600080fd5b8073ffffffffffffffffffffffffffffffffffffffff163373ffffffffffffffffffffffffffffffffffffffff16148061135557506113548133611e69565b5b1561139c57600073ffffffffffffffffffffffffffffffffffffffff1661137b84610e83565b73ffffffffffffffffffffffffffffffffffffffff161461139b57600080fd5b5b836002600085815260200190815260200160002060006001815260200190815260200160002060006101000a81548173ffffffffffffffffffffffffffffffffffffffff021916908373ffffffffffffffffffffffffffffffffffffffff1602179055508373ffffffffffffffffffffffffffffffffffffffff168273ffffffffffffffffffffffffffffffffffffffff167fa09bf3dd3238f9ce83e7feb7735fc7c137f90979b5aae4f7f01ae73b24181570856040518082815260200191505060405180910390a350505050565b6114748161102e565b73ffffffffffffffffffffffffffffffffffffffff163373ffffffffffffffffffffffffffffffffffffffff16146114ab57600080fd5b336006600083815260200190815260200160002060006101000a81548173ffffffffffffffffffffffffffffffffffffffff021916908373ffffffffffffffffffffffffffffffffffffffff1602179055506115068161221a565b803373ffffffffffffffffffffffffffffffffffffffff167f697a63882786c4e4b3b3cc495872d3d6e9e7953336ac7d30cf6207086274bdd36001604051808215151515815260200191505060405180910390a350565b611569338360016122d8565b61157257600080fd5b61158084848460018561259b565b50505050565b61158f816111a9565b73ffffffffffffffffffffffffffffffffffffffff163373ffffffffffffffffffffffffffffffffffffffff16146115c657600080fd5b60006006600083815260200190815260200160002060006101000a81548173ffffffffffffffffffffffffffffffffffffffff021916908373ffffffffffffffffffffffffffffffffffffffff16021790555080600073ffffffffffffffffffffffffffffffffffffffff167f697a63882786c4e4b3b3cc495872d3d6e9e7953336ac7d30cf6207086274bdd36000604051808215151515815260200191505060405180910390a350565b600061167e826001612188565b61168757600080fd5b6002600083815260200190815260200160002060006001815260200190815260200160002060009054906101000a900473ffffffffffffffffffffffffffffffffffffffff169050919050565b6000806001600084815260200190815260200160002060006002815260200190815260200160002060009054906101000a900473ffffffffffffffffffffffffffffffffffffffff169050600073ffffffffffffffffffffffffffffffffffffffff168173ffffffffffffffffffffffffffffffffffffffff16141561175957600080fd5b80915050919050565b600061176d826116d4565b90508073ffffffffffffffffffffffffffffffffffffffff168373ffffffffffffffffffffffffffffffffffffffff1614156117a857600080fd5b8073ffffffffffffffffffffffffffffffffffffffff163373ffffffffffffffffffffffffffffffffffffffff1614806117e857506117e78133611e69565b5b6117f157600080fd5b826002600084815260200190815260200160002060006002815260200190815260200160002060006101000a81548173ffffffffffffffffffffffffffffffffffffffff021916908373ffffffffffffffffffffffffffffffffffffffff1602179055508273ffffffffffffffffffffffffffffffffffffffff168173ffffffffffffffffffffffffffffffffffffffff167f14ecf0643b070217924915201071c2f1842b5a0448d350f34dbbfe23616e07f3846040518082815260200191505060405180910390a3505050565b6000600b80549050905090565b60006118d7826116d4565b90508073ffffffffffffffffffffffffffffffffffffffff168373ffffffffffffffffffffffffffffffffffffffff16141561191257600080fd5b8073ffffffffffffffffffffffffffffffffffffffff163373ffffffffffffffffffffffffffffffffffffffff16148061195257506119518133611e69565b5b61195b57600080fd5b826005600084815260200190815260200160002060006101000a81548173ffffffffffffffffffffffffffffffffffffffff021916908373ffffffffffffffffffffffffffffffffffffffff160217905550818373ffffffffffffffffffffffffffffffffffffffff167f1ce7b0eca78337592451ad94da2c4fab6d3ef935144d93c358e1b2dd1b07871460405160405180910390a3505050565b3373ffffffffffffffffffffffffffffffffffffffff168273ffffffffffffffffffffffffffffffffffffffff161415611a2f57600080fd5b80600460003373ffffffffffffffffffffffffffffffffffffffff1673ffffffffffffffffffffffffffffffffffffffff16815260200190815260200160002060008473ffffffffffffffffffffffffffffffffffffffff1673ffffffffffffffffffffffffffffffffffffffff16815260200190815260200160002060006101000a81548160ff0219169083151502179055508173ffffffffffffffffffffffffffffffffffffffff163373ffffffffffffffffffffffffffffffffffffffff167f17307eab39ab6107e8899845ad3d59bd9653f200f220920489ca2b5937696c3183604051808215151515815260200191505060405180910390a35050565b611b3981610e83565b73ffffffffffffffffffffffffffffffffffffffff163373ffffffffffffffffffffffffffffffffffffffff1614611b7057600080fd5b60006008600083815260200190815260200160002060006101000a81548173ffffffffffffffffffffffffffffffffffffffff021916908373ffffffffffffffffffffffffffffffffffffffff16021790555080600073ffffffffffffffffffffffffffffffffffffffff167f61f383bb3b27cd35ab1b0353eff732709f4d8c7ba28da80d9f11f58d6ab2c4776000604051808215151515815260200191505060405180910390a350565b6000611c2683611da8565b8210611c3157600080fd5b600960006002815260200190815260200160002060008473ffffffffffffffffffffffffffffffffffffffff1673ffffffffffffffffffffffffffffffffffffffff1681526020019081526020016000208281548110611c8d57fe5b9060005260206000200154905092915050565b611cac338360026122d8565b611cb557600080fd5b611cc384848460028561259b565b50505050565b6000611cd6826002612188565b611cdf57600080fd5b6007600083815260200190815260200160002060009054906101000a900473ffffffffffffffffffffffffffffffffffffffff169050919050565b6000806001600084815260200190815260200160002060006001815260200190815260200160002060009054906101000a900473ffffffffffffffffffffffffffffffffffffffff169050600073ffffffffffffffffffffffffffffffffffffffff168173ffffffffffffffffffffffffffffffffffffffff161415611d9f57600080fd5b80915050919050565b60008073ffffffffffffffffffffffffffffffffffffffff168273ffffffffffffffffffffffffffffffffffffffff161415611de357600080fd5b6000611e3e600360008573ffffffffffffffffffffffffffffffffffffffff1673ffffffffffffffffffffffffffffffffffffffff16815260200190815260200160002060006002815260200190815260200160002061220c565b905080915050919050565b611e648383836040518060200160405280600081525061155d565b505050565b6000600460008473ffffffffffffffffffffffffffffffffffffffff1673ffffffffffffffffffffffffffffffffffffffff16815260200190815260200160002060008373ffffffffffffffffffffffffffffffffffffffff1673ffffffffffffffffffffffffffffffffffffffff16815260200190815260200160002060009054906101000a900460ff16905092915050565b6000611f0a826002612188565b611f7c576040517f08c379a00000000000000000000000000000000000000000000000000000000081526004018080602001828103825260158152602001807f6e6f206f776e657220617070726f76616c20736574000000000000000000000081525060200191505060405180910390fd5b6002600083815260200190815260200160002060006002815260200190815260200160002060009054906101000a900473ffffffffffffffffffffffffffffffffffffffff169050919050565b611fe483838360405180602001604052806000815250611ca0565b505050565b600073ffffffffffffffffffffffffffffffffffffffff166007600083815260200190815260200160002060009054906101000a900473ffffffffffffffffffffffffffffffffffffffff1673ffffffffffffffffffffffffffffffffffffffff16146120a45760006007600083815260200190815260200160002060006101000a81548173ffffffffffffffffffffffffffffffffffffffff021916908373ffffffffffffffffffffffffffffffffffffffff1602179055505b50565b600073ffffffffffffffffffffffffffffffffffffffff1660026000848152602001908152602001600020600083815260200190815260200160002060009054906101000a900473ffffffffffffffffffffffffffffffffffffffff1673ffffffffffffffffffffffffffffffffffffffff161461218457600060026000848152602001908152602001600020600083815260200190815260200160002060006101000a81548173ffffffffffffffffffffffffffffffffffffffff021916908373ffffffffffffffffffffffffffffffffffffffff1602179055505b5050565b60008060016000858152602001908152602001600020600084815260200190815260200160002060009054906101000a900473ffffffffffffffffffffffffffffffffffffffff169050600073ffffffffffffffffffffffffffffffffffffffff168173ffffffffffffffffffffffffffffffffffffffff16141591505092915050565b600081600001549050919050565b600073ffffffffffffffffffffffffffffffffffffffff166005600083815260200190815260200160002060009054906101000a900473ffffffffffffffffffffffffffffffffffffffff1673ffffffffffffffffffffffffffffffffffffffff16146122d55760006005600083815260200190815260200160002060006101000a81548173ffffffffffffffffffffffffffffffffffffffff021916908373ffffffffffffffffffffffffffffffffffffffff1602179055505b50565b60006122e48383612188565b6122ed57600080fd5b60018214156124ae57600061230184611d1a565b9050600061230e856116d4565b90508173ffffffffffffffffffffffffffffffffffffffff168673ffffffffffffffffffffffffffffffffffffffff16148061237557508073ffffffffffffffffffffffffffffffffffffffff168673ffffffffffffffffffffffffffffffffffffffff16145b8061238657506123858287611e69565b5b8061239757506123968187611e69565b5b806123d557506123a685611671565b73ffffffffffffffffffffffffffffffffffffffff168673ffffffffffffffffffffffffffffffffffffffff16145b8061241357506123e4856111a9565b73ffffffffffffffffffffffffffffffffffffffff168673ffffffffffffffffffffffffffffffffffffffff16145b61241c57600080fd5b8073ffffffffffffffffffffffffffffffffffffffff168673ffffffffffffffffffffffffffffffffffffffff16148061245c575061245b8187611e69565b5b156124a357600073ffffffffffffffffffffffffffffffffffffffff1661248286610e83565b73ffffffffffffffffffffffffffffffffffffffff16146124a257600080fd5b5b600192505050612594565b60028214156125935760006124c2846116d4565b90508073ffffffffffffffffffffffffffffffffffffffff168573ffffffffffffffffffffffffffffffffffffffff16148061250457506125038186611e69565b5b80612542575061251384611efd565b73ffffffffffffffffffffffffffffffffffffffff168573ffffffffffffffffffffffffffffffffffffffff16145b806125805750612551846111a9565b73ffffffffffffffffffffffffffffffffffffffff168573ffffffffffffffffffffffffffffffffffffffff16145b61258957600080fd5b6001915050612594565b5b9392505050565b6125a785858585612610565b6125b48585858585612638565b612609576040517f08c379a000000000000000000000000000000000000000000000000000000000815260040180806020018281038252602e815260200180612f8c602e913960400191505060405180910390fd5b5050505050565b61261c8484848461282a565b612627848383612b65565b612632838383612d6a565b50505050565b60006126598573ffffffffffffffffffffffffffffffffffffffff16612e65565b6126665760019050612821565b60008573ffffffffffffffffffffffffffffffffffffffff16631c14516233898888886040518663ffffffff1660e01b8152600401808673ffffffffffffffffffffffffffffffffffffffff1673ffffffffffffffffffffffffffffffffffffffff1681526020018573ffffffffffffffffffffffffffffffffffffffff1673ffffffffffffffffffffffffffffffffffffffff16815260200184815260200183815260200180602001828103825283818151815260200191508051906020019080838360005b8381101561274857808201518184015260208101905061272d565b50505050905090810190601f1680156127755780820380516001836020036101000a031916815260200191505b509650505050505050602060405180830381600087803b15801561279857600080fd5b505af11580156127ac573d6000803e3d6000fd5b505050506040513d60208110156127c257600080fd5b81019080805190602001909291905050509050631111111160e01b7bffffffffffffffffffffffffffffffffffffffffffffffffffffffff1916817bffffffffffffffffffffffffffffffffffffffffffffffffffffffff1916149150505b95945050505050565b6001811415612878578373ffffffffffffffffffffffffffffffffffffffff1661285383611d1a565b73ffffffffffffffffffffffffffffffffffffffff161461287357600080fd5b6128b9565b8373ffffffffffffffffffffffffffffffffffffffff16612898836116d4565b73ffffffffffffffffffffffffffffffffffffffff16146128b857600080fd5b5b600073ffffffffffffffffffffffffffffffffffffffff168373ffffffffffffffffffffffffffffffffffffffff1614156128f357600080fd5b6128fd82826120a7565b60028114156129195761290f8261221a565b61291882611fe9565b5b612971600360008673ffffffffffffffffffffffffffffffffffffffff1673ffffffffffffffffffffffffffffffffffffffff1681526020019081526020016000206000838152602001908152602001600020612e78565b6129c9600360008573ffffffffffffffffffffffffffffffffffffffff1673ffffffffffffffffffffffffffffffffffffffff1681526020019081526020016000206000838152602001908152602001600020612e9b565b8260016000848152602001908152602001600020600083815260200190815260200160002060006101000a81548173ffffffffffffffffffffffffffffffffffffffff021916908373ffffffffffffffffffffffffffffffffffffffff1602179055506001811415612acc57818373ffffffffffffffffffffffffffffffffffffffff168573ffffffffffffffffffffffffffffffffffffffff167f65f4ec73ce02035b6afc3f2f2125216c5138cd9067bce6ebbdc3b84816fd13ed33604051808273ffffffffffffffffffffffffffffffffffffffff1673ffffffffffffffffffffffffffffffffffffffff16815260200191505060405180910390a4612b5f565b818373ffffffffffffffffffffffffffffffffffffffff168573ffffffffffffffffffffffffffffffffffffffff167fcb841bc9006096b45791cffe31afee827510e6dc0a8381bdbc047d6ab332960133604051808273ffffffffffffffffffffffffffffffffffffffff1673ffffffffffffffffffffffffffffffffffffffff16815260200191505060405180910390a45b50505050565b6000612bce60016009600085815260200190815260200160002060008773ffffffffffffffffffffffffffffffffffffffff1673ffffffffffffffffffffffffffffffffffffffff16815260200190815260200160002080549050612eb190919063ffffffff16565b90506000600a60008481526020019081526020016000206000858152602001908152602001600020549050818114612cff5760006009600085815260200190815260200160002060008773ffffffffffffffffffffffffffffffffffffffff1673ffffffffffffffffffffffffffffffffffffffff1681526020019081526020016000208381548110612c5d57fe5b90600052602060002001549050806009600086815260200190815260200160002060008873ffffffffffffffffffffffffffffffffffffffff1673ffffffffffffffffffffffffffffffffffffffff1681526020019081526020016000208381548110612cc657fe5b906000526020600020018190555081600a6000868152602001908152602001600020600083815260200190815260200160002081905550505b6009600084815260200190815260200160002060008673ffffffffffffffffffffffffffffffffffffffff1673ffffffffffffffffffffffffffffffffffffffff168152602001908152602001600020805480919060019003612d629190612f3a565b505050505050565b6009600082815260200190815260200160002060008473ffffffffffffffffffffffffffffffffffffffff1673ffffffffffffffffffffffffffffffffffffffff16815260200190815260200160002080549050600a60008381526020019081526020016000206000848152602001908152602001600020819055506009600082815260200190815260200160002060008473ffffffffffffffffffffffffffffffffffffffff1673ffffffffffffffffffffffffffffffffffffffff168152602001908152602001600020829080600181540180825580915050906001820390600052602060002001600090919290919091505550505050565b600080823b905060008111915050919050565b612e9060018260000154612eb190919063ffffffff16565b816000018190555050565b6001816000016000828254019250508190555050565b600082821115612f29576040517f08c379a000000000000000000000000000000000000000000000000000000000815260040180806020018281038252601e8152602001807f536166654d6174683a207375627472616374696f6e206f766572666c6f77000081525060200191505060405180910390fd5b600082840390508091505092915050565b815481835581811115612f6157818360005260206000209182019101612f609190612f66565b5b505050565b612f8891905b80821115612f84576000816000905550600101612f6c565b5090565b9056fe455243583a207472616e7366657220746f206e6f6e2045524358526563656976657220696d706c656d656e746572a265627a7a72315820d301fb69fe4ae20ca66e759cf8be08dd7e4369ffe31c6da2da9af006fd07b1e964736f6c63430005100032617070726f766554656e616e74526967687428616464726573732c2075696e7432353629617070726f7665466f724f776e657228616464726573732c2075696e7432353629736166655472616e736665725573657228616464726573732c20616464726573732c2075696e743235362c206279746573296973417070726f766564466f72416c6c28616464726573732c206164647265737329736166655472616e736665724f776e657228616464726573732c20616464726573732c2075696e7432353629736166655472616e736665724f776e657228616464726573732c20616464726573732c2075696e743235362c206279746573296974656d4f664f776e65724279496e64657828616464726573732c75696e743235362c75696e7432353629736166655472616e736665725573657228616464726573732c20616464726573732c2075696e7432353629",
  "source": "pragma solidity ^0.5.0;\n\nimport \"./ERCX.sol\";\nimport \"../Interface/IERCXEnumerable.sol\";\n\ncontract ERCXEnumerable is ERC165, ERCX, IERCXEnumerable {\n    // Mapping from layer to owner to list of owned item IDs\n    mapping(uint256 => mapping(address => uint256[])) private _ownedItems;\n\n    // Mapping from layer to item ID to index of the owner items list\n    mapping(uint256 => mapping(uint256 => uint256)) private _ownedItemsIndex;\n\n    // Array with all item ids, used for enumeration\n    uint256[] private _allItems;\n\n    // Mapping from item id to position in the allItems array\n    mapping(uint256 => uint256) private _allItemsIndex;\n\n    bytes4 private constant _InterfaceId_ERCXEnumerable = bytes4(\n        keccak256(\"totalNumberOfItems()\")\n    ) ^\n        bytes4(keccak256(\"itemOfOwnerByIndex(address,uint256,uint256)\")) ^\n        bytes4(keccak256(\"itemByIndex(uint256)\"));\n\n    /**\n   * @dev Constructor function\n   */\n    constructor() public {\n        // register the supported interface to conform to ERCX via ERC165\n        _registerInterface(_InterfaceId_ERCXEnumerable);\n    }\n\n    /**\n   * @dev Gets the item ID at a given index of the items list of the requested user\n   * @param user address owning the items list to be accessed\n   * @param index uint256 representing the index to be accessed of the requested items list\n   * @return uint256 item ID at the given index of the items list owned by the requested address\n   */\n\n    function itemOfUserByIndex(address user, uint256 index)\n        public\n        view\n        returns (uint256)\n    {\n        require(index < balanceOfUser(user));\n        return _ownedItems[1][user][index];\n    }\n\n    /**\n   * @dev Gets the item ID at a given index of the items list of the requested owner\n   * @param owner address owning the items list to be accessed\n   * @param index uint256 representing the index to be accessed of the requested items list\n   * @return uint256 item ID at the given index of the items list owned by the requested address\n   */\n\n    function itemOfOwnerByIndex(address owner, uint256 index)\n        public\n        view\n        returns (uint256)\n    {\n        require(index < balanceOfOwner(owner));\n        return _ownedItems[2][owner][index];\n    }\n\n    /**\n   * @dev Gets the total amount of items stored by the contract\n   * @return uint256 representing the total amount of items\n   */\n    function totalNumberOfItems() public view returns (uint256) {\n        return _allItems.length;\n    }\n\n    /**\n   * @dev Gets the item ID at a given index of all the items in this contract\n   * Reverts if the index is greater or equal to the total number of items\n   * @param index uint256 representing the index to be accessed of the items list\n   * @return uint256 item ID at the given index of the items list\n   */\n    function itemByIndex(uint256 index) public view returns (uint256) {\n        require(index < totalNumberOfItems());\n        return _allItems[index];\n    }\n\n    /**\n    * @dev Internal function to transfer ownership of a given item ID to another address.\n    * As opposed to transfer, this imposes no restrictions on msg.sender.\n    * @param from current owner of the item\n    * @param to address to receive the ownership of the given item ID\n    * @param itemId uint256 ID of the item to be transferred\n    * @param layer uint256 number to specify the layer\n    */\n    function _transfer(address from, address to, uint256 itemId, uint256 layer)\n        internal\n    {\n        super._transfer(from, to, itemId, layer);\n        _removeItemFromOwnerEnumeration(from, itemId, layer);\n        _addItemToOwnerEnumeration(to, itemId, layer);\n    }\n\n    /**\n    * @dev Internal function to mint a new item.\n    * Reverts if the given item ID already exists.\n    * @param to address the beneficiary that will own the minted item\n    * @param itemId uint256 ID of the item to be minted\n    */\n    function _mint(address to, uint256 itemId) internal {\n        super._mint(to, itemId);\n\n        _addItemToOwnerEnumeration(to, itemId, 1);\n        _addItemToOwnerEnumeration(to, itemId, 2);\n\n        _addItemToAllItemsEnumeration(itemId);\n    }\n\n    /**\n    * @dev Internal function to burn a specific item.\n    * Reverts if the item does not exist.\n    * Deprecated, use {ERCX-_burn} instead.\n    * @param itemId uint256 ID of the item being burned\n    */\n    function _burn(uint256 itemId) internal {\n        address user = userOf(itemId);\n        address owner = ownerOf(itemId);\n\n        super._burn(itemId);\n\n        _removeItemFromOwnerEnumeration(user, itemId, 1);\n        _removeItemFromOwnerEnumeration(owner, itemId, 2);\n\n        // Since itemId will be deleted, we can clear its slot in _ownedItemsIndex to trigger a gas refund\n        _ownedItemsIndex[1][itemId] = 0;\n        _ownedItemsIndex[2][itemId] = 0;\n\n        _removeItemFromAllItemsEnumeration(itemId);\n\n    }\n\n    /**\n    * @dev Private function to add a item to this extension's ownership-tracking data structures.\n    * @param to address representing the new owner of the given item ID\n    * @param itemId uint256 ID of the item to be added to the items list of the given address\n    */\n    function _addItemToOwnerEnumeration(\n        address to,\n        uint256 itemId,\n        uint256 layer\n    ) private {\n        _ownedItemsIndex[layer][itemId] = _ownedItems[layer][to].length;\n        _ownedItems[layer][to].push(itemId);\n    }\n\n    /**\n    * @dev Private function to add a item to this extension's item tracking data structures.\n    * @param itemId uint256 ID of the item to be added to the items list\n    */\n    function _addItemToAllItemsEnumeration(uint256 itemId) private {\n        _allItemsIndex[itemId] = _allItems.length;\n        _allItems.push(itemId);\n    }\n\n    /**\n    * @dev Private function to remove a item from this extension's ownership-tracking data structures. Note that\n    * while the item is not assigned a new owner, the `_ownedItemsIndex` mapping is _not_ updated: this allows for\n    * gas optimizations e.g. when performing a transfer operation (avoiding double writes).\n    * This has O(1) time complexity, but alters the order of the _ownedItems array.\n    * @param from address representing the previous owner of the given item ID\n    * @param itemId uint256 ID of the item to be removed from the items list of the given address\n    */\n    function _removeItemFromOwnerEnumeration(\n        address from,\n        uint256 itemId,\n        uint256 layer\n    ) private {\n        // To prevent a gap in from's items array, we store the last item in the index of the item to delete, and\n        // then delete the last slot (swap and pop).\n\n        uint256 lastItemIndex = _ownedItems[layer][from].length.sub(1);\n        uint256 itemIndex = _ownedItemsIndex[layer][itemId];\n\n        // When the item to delete is the last item, the swap operation is unnecessary\n        if (itemIndex != lastItemIndex) {\n            uint256 lastItemId = _ownedItems[layer][from][lastItemIndex];\n\n            _ownedItems[layer][from][itemIndex] = lastItemId; // Move the last item to the slot of the to-delete item\n            _ownedItemsIndex[layer][lastItemId] = itemIndex; // Update the moved item's index\n        }\n\n        // This also deletes the contents at the last position of the array\n        _ownedItems[layer][from].length--;\n\n        // Note that _ownedItemsIndex[itemId] hasn't been cleared: it still points to the old slot (now occupied by\n        // lastItemId, or just over the end of the array if the item was the last one).\n\n    }\n\n    /**\n    * @dev Private function to remove a item from this extension's item tracking data structures.\n    * This has O(1) time complexity, but alters the order of the _allItems array.\n    * @param itemId uint256 ID of the item to be removed from the items list\n    */\n    function _removeItemFromAllItemsEnumeration(uint256 itemId) private {\n        // To prevent a gap in the items array, we store the last item in the index of the item to delete, and\n        // then delete the last slot (swap and pop).\n\n        uint256 lastItemIndex = _allItems.length.sub(1);\n        uint256 itemIndex = _allItemsIndex[itemId];\n\n        // When the item to delete is the last item, the swap operation is unnecessary. However, since this occurs so\n        // rarely (when the last minted item is burnt) that we still do the swap here to avoid the gas cost of adding\n        // an 'if' statement (like in _removeItemFromOwnerEnumeration)\n        uint256 lastItemId = _allItems[lastItemIndex];\n\n        _allItems[itemIndex] = lastItemId; // Move the last item to the slot of the to-delete item\n        _allItemsIndex[lastItemId] = itemIndex; // Update the moved item's index\n\n        // This also deletes the contents at the last position of the array\n        _allItems.length--;\n        _allItemsIndex[itemId] = 0;\n    }\n}\n",
  "sourcePath": "/home/bitnami/BLK_Micro/dApp-nodeJS-webpack/app/contracts/ERCX/Contract/ERCXEnumerable.sol",
  "compiler": {
    "name": "solc",
    "version": "0.5.16+commit.9c3226ce.Emscripten.clang"
  },
  "schemaVersion": "3.4.4",
  "updatedAt": "2022-01-15T03:42:33.596Z",
  "devdoc": {
    "methods": {
      "approveForOwner(address,uint256)": {
        "details": "Approves another address to transfer the owner of the given item ID The zero address indicates there is no approved address. There can only be one approved address per item at a given time. Can only be called by the item owner or an approved operator.",
        "params": {
          "itemId": "uint256 ID of the item to be approved",
          "to": "address to be approved for the given item ID"
        }
      },
      "approveForUser(address,uint256)": {
        "details": "Approves another address to transfer the user of the given item ID The zero address indicates there is no approved address. There can only be one approved address per item at a given time. Can only be called by the item owner or an approved operator.",
        "params": {
          "to": "address to be approved for the given item ID"
        }
      },
      "approveLien(address,uint256)": {
        "details": "Approves another address to set lien contract for the given item ID The zero address indicates there is no approved address. There can only be one approved address per item at a given time. Can only be called by the item owner or an approved operator.",
        "params": {
          "itemId": "uint256 ID of the item to be approved",
          "to": "address to be approved for the given item ID"
        }
      },
      "approveTenantRight(address,uint256)": {
        "details": "Approves another address to set tenant right agreement for the given item ID The zero address indicates there is no approved address. There can only be one approved address per item at a given time. Can only be called by the item owner or an approved operator.",
        "params": {
          "itemId": "uint256 ID of the item to be approved",
          "to": "address to be approved for the given item ID"
        }
      },
      "balanceOfOwner(address)": {
        "details": "Gets the balance of the specified address",
        "params": {
          "owner": "address to query the balance of"
        },
        "return": "uint256 representing the amount of items owned by the passed address in the specified layer"
      },
      "balanceOfUser(address)": {
        "details": "Gets the balance of the specified address",
        "params": {
          "user": "address to query the balance of"
        },
        "return": "uint256 representing the amount of items owned by the passed address"
      },
      "constructor": {
        "details": "Constructor function"
      },
      "getApprovedForOwner(uint256)": {
        "details": "Gets the approved address for the of the item ID, or zero if no address set Reverts if the item ID does not exist.",
        "params": {
          "itemId": "uint256 ID of the item to query the approval o"
        },
        "return": "address currently approved for the given item ID"
      },
      "getApprovedForUser(uint256)": {
        "details": "Gets the approved address for the user of the item ID, or zero if no address set Reverts if the item ID does not exist.",
        "params": {
          "itemId": "uint256 ID of the item to query the approval of"
        },
        "return": "address currently approved for the given item ID"
      },
      "getApprovedLien(uint256)": {
        "details": "Gets the approved address for setting lien for a item ID, or zero if no address set Reverts if the item ID does not exist.",
        "params": {
          "itemId": "uint256 ID of the item to query the approval of"
        },
        "return": "address currently approved for the given item ID"
      },
      "getApprovedTenantRight(uint256)": {
        "details": "Gets the approved address for setting tenant right for a item ID, or zero if no address set Reverts if the item ID does not exist.",
        "params": {
          "itemId": "uint256 ID of the item to query the approval of"
        },
        "return": "address currently approved for the given item ID"
      },
      "getCurrentLien(uint256)": {
        "details": "Gets the current lien agreement address, or zero if no address set Reverts if the item ID does not exist.",
        "params": {
          "itemId": "uint256 ID of the item to query the lien address"
        },
        "return": "address of the lien agreement address for the given item ID"
      },
      "getCurrentTenantRight(uint256)": {
        "details": "Gets the current tenant right agreement address, or zero if no address set Reverts if the item ID does not exist.",
        "params": {
          "itemId": "uint256 ID of the item to query the tenant right address"
        },
        "return": "address of the tenant right agreement address for the given item ID"
      },
      "isApprovedForAll(address,address)": {
        "details": "Tells whether an operator is approved by a given owner",
        "params": {
          "operator": "operator address which you want to query the approval of",
          "owner": "owner address which you want to query the approval of"
        },
        "return": "bool whether the given operator is approved by the given owner"
      },
      "itemByIndex(uint256)": {
        "details": "Gets the item ID at a given index of all the items in this contract Reverts if the index is greater or equal to the total number of items",
        "params": {
          "index": "uint256 representing the index to be accessed of the items list"
        },
        "return": "uint256 item ID at the given index of the items list"
      },
      "itemOfOwnerByIndex(address,uint256)": {
        "details": "Gets the item ID at a given index of the items list of the requested owner",
        "params": {
          "index": "uint256 representing the index to be accessed of the requested items list",
          "owner": "address owning the items list to be accessed"
        },
        "return": "uint256 item ID at the given index of the items list owned by the requested address"
      },
      "itemOfUserByIndex(address,uint256)": {
        "details": "Gets the item ID at a given index of the items list of the requested user",
        "params": {
          "index": "uint256 representing the index to be accessed of the requested items list",
          "user": "address owning the items list to be accessed"
        },
        "return": "uint256 item ID at the given index of the items list owned by the requested address"
      },
      "ownerOf(uint256)": {
        "details": "Gets the owner of the specified item ID",
        "params": {
          "itemId": "uint256 ID of the item to query the owner of"
        },
        "return": "owner address currently marked as the owner of the given item ID"
      },
      "revokeLien(uint256)": {
        "details": "Revoke the lien agreements. Only the lien address can revoke.",
        "params": {
          "itemId": "uint256 ID of the item"
        }
      },
      "revokeTenantRight(uint256)": {
        "details": "Revoke the tenant right agreement. Only the lien address can revoke.",
        "params": {
          "itemId": "uint256 ID of the item"
        }
      },
      "safeTransferOwner(address,address,uint256)": {
        "details": "Safely transfers the ownership of a given item ID to another address If the target address is a contract, it must implement `onERCXReceived`, which is called upon a safe transfer, and return the magic value `bytes4(keccak256(\"onERCXReceived(address,address,uint256,bytes)\"))`; otherwise, the transfer is reverted.   * Requires the msg sender to be the owner, approved, or operator",
        "params": {
          "from": "current owner of the item",
          "itemId": "uint256 ID of the item to be transferred",
          "to": "address to receive the ownership of the given item ID"
        }
      },
      "safeTransferOwner(address,address,uint256,bytes)": {
        "details": "Safely transfers the ownership of a given item ID to another address If the target address is a contract, it must implement `onERCXReceived`, which is called upon a safe transfer, and return the magic value `bytes4(keccak256(\"onERCXReceived(address,address,uint256,bytes)\"))`; otherwise, the transfer is reverted. Requires the msg sender to be the owner, approved, or operator",
        "params": {
          "data": "bytes data to send along with a safe transfer check",
          "from": "current owner of the item",
          "itemId": "uint256 ID of the item to be transferred",
          "to": "address to receive the ownership of the given item ID"
        }
      },
      "safeTransferUser(address,address,uint256)": {
        "details": "Safely transfers the user of a given item ID to another address If the target address is a contract, it must implement `onERCXReceived`, which is called upon a safe transfer, and return the magic value `bytes4(keccak256(\"onERCXReceived(address,address,uint256,bytes)\"))`; otherwise, the transfer is reverted.   * Requires the msg sender to be the owner, approved, or operator",
        "params": {
          "from": "current owner of the item",
          "itemId": "uint256 ID of the item to be transferred",
          "to": "address to receive the ownership of the given item ID"
        }
      },
      "safeTransferUser(address,address,uint256,bytes)": {
        "details": "Safely transfers the user of a given item ID to another address If the target address is a contract, it must implement `onERCXReceived`, which is called upon a safe transfer, and return the magic value `bytes4(keccak256(\"onERCXReceived(address,address,uint256,bytes)\"))`; otherwise, the transfer is reverted. Requires the msg sender to be the owner, approved, or operator",
        "params": {
          "data": "bytes data to send along with a safe transfer check",
          "from": "current owner of the item",
          "itemId": "uint256 ID of the item to be transferred",
          "to": "address to receive the ownership of the given item ID"
        }
      },
      "setApprovalForAll(address,bool)": {
        "details": "Sets or unsets the approval of a given operator An operator is allowed to transfer all items of the sender on their behalf",
        "params": {
          "approved": "representing the status of the approval to be set",
          "to": "operator address to set the approval"
        }
      },
      "setLien(uint256)": {
        "details": "Sets lien agreements to already approved address The lien address is allowed to transfer all items of the sender on their behalf",
        "params": {
          "itemId": "uint256 ID of the item"
        }
      },
      "setTenantRight(uint256)": {
        "details": "Sets the tenant right agreement to already approved address The lien address is allowed to transfer all items of the sender on their behalf",
        "params": {
          "itemId": "uint256 ID of the item"
        }
      },
      "supportsInterface(bytes4)": {
        "details": "See `IERC165.supportsInterface`.     * Time complexity O(1), guaranteed to always use less than 30 000 gas."
      },
      "totalNumberOfItems()": {
        "details": "Gets the total amount of items stored by the contract",
        "return": "uint256 representing the total amount of items"
      },
      "userOf(uint256)": {
        "details": "Gets the user of the specified item ID",
        "params": {
          "itemId": "uint256 ID of the item to query the user of"
        },
        "return": "owner address currently marked as the owner of the given item ID"
      }
    }
  },
  "userdoc": {
    "methods": {}
  }
}