{
  "contractName": "ERCXMintable",
  "abi": [
    {
      "inputs": [
        {
          "internalType": "string",
          "name": "name",
          "type": "string"
        },
        {
          "internalType": "string",
          "name": "symbol",
          "type": "string"
        }
      ],
      "payable": false,
      "stateMutability": "nonpayable",
      "type": "constructor"
    },
    {
      "anonymous": false,
      "inputs": [
        {
          "indexed": true,
          "internalType": "address",
          "name": "owner",
          "type": "address"
        },
        {
          "indexed": true,
          "internalType": "address",
          "name": "approved",
          "type": "address"
        },
        {
          "indexed": true,
          "internalType": "uint256",
          "name": "tokenId",
          "type": "uint256"
        }
      ],
      "name": "Approval",
      "type": "event"
    },
    {
      "anonymous": false,
      "inputs": [
        {
          "indexed": true,
          "internalType": "address",
          "name": "owner",
          "type": "address"
        },
        {
          "indexed": true,
          "internalType": "address",
          "name": "operator",
          "type": "address"
        },
        {
          "indexed": false,
          "internalType": "bool",
          "name": "approved",
          "type": "bool"
        }
      ],
      "name": "ApprovalForAll",
      "type": "event"
    },
    {
      "anonymous": false,
      "inputs": [
        {
          "indexed": true,
          "internalType": "address",
          "name": "owner",
          "type": "address"
        },
        {
          "indexed": true,
          "internalType": "address",
          "name": "approved",
          "type": "address"
        },
        {
          "indexed": false,
          "internalType": "uint256",
          "name": "itemId",
          "type": "uint256"
        }
      ],
      "name": "ApprovalForOwner",
      "type": "event"
    },
    {
      "anonymous": false,
      "inputs": [
        {
          "indexed": true,
          "internalType": "address",
          "name": "user",
          "type": "address"
        },
        {
          "indexed": true,
          "internalType": "address",
          "name": "approved",
          "type": "address"
        },
        {
          "indexed": false,
          "internalType": "uint256",
          "name": "itemId",
          "type": "uint256"
        }
      ],
      "name": "ApprovalForUser",
      "type": "event"
    },
    {
      "anonymous": false,
      "inputs": [
        {
          "indexed": true,
          "internalType": "address",
          "name": "to",
          "type": "address"
        },
        {
          "indexed": true,
          "internalType": "uint256",
          "name": "itemId",
          "type": "uint256"
        }
      ],
      "name": "LienApproval",
      "type": "event"
    },
    {
      "anonymous": false,
      "inputs": [
        {
          "indexed": true,
          "internalType": "address",
          "name": "to",
          "type": "address"
        },
        {
          "indexed": true,
          "internalType": "uint256",
          "name": "itemId",
          "type": "uint256"
        },
        {
          "indexed": false,
          "internalType": "bool",
          "name": "status",
          "type": "bool"
        }
      ],
      "name": "LienSet",
      "type": "event"
    },
    {
      "anonymous": false,
      "inputs": [
        {
          "indexed": true,
          "internalType": "address",
          "name": "account",
          "type": "address"
        }
      ],
      "name": "MinterAdded",
      "type": "event"
    },
    {
      "anonymous": false,
      "inputs": [
        {
          "indexed": true,
          "internalType": "address",
          "name": "account",
          "type": "address"
        }
      ],
      "name": "MinterRemoved",
      "type": "event"
    },
    {
      "anonymous": false,
      "inputs": [],
      "name": "MintingFinished",
      "type": "event"
    },
    {
      "anonymous": false,
      "inputs": [
        {
          "indexed": true,
          "internalType": "address",
          "name": "to",
          "type": "address"
        },
        {
          "indexed": true,
          "internalType": "uint256",
          "name": "itemId",
          "type": "uint256"
        }
      ],
      "name": "TenantRightApproval",
      "type": "event"
    },
    {
      "anonymous": false,
      "inputs": [
        {
          "indexed": true,
          "internalType": "address",
          "name": "to",
          "type": "address"
        },
        {
          "indexed": true,
          "internalType": "uint256",
          "name": "itemId",
          "type": "uint256"
        },
        {
          "indexed": false,
          "internalType": "bool",
          "name": "status",
          "type": "bool"
        }
      ],
      "name": "TenantRightSet",
      "type": "event"
    },
    {
      "anonymous": false,
      "inputs": [
        {
          "indexed": true,
          "internalType": "address",
          "name": "from",
          "type": "address"
        },
        {
          "indexed": true,
          "internalType": "address",
          "name": "to",
          "type": "address"
        },
        {
          "indexed": true,
          "internalType": "uint256",
          "name": "tokenId",
          "type": "uint256"
        }
      ],
      "name": "Transfer",
      "type": "event"
    },
    {
      "anonymous": false,
      "inputs": [
        {
          "indexed": true,
          "internalType": "address",
          "name": "from",
          "type": "address"
        },
        {
          "indexed": true,
          "internalType": "address",
          "name": "to",
          "type": "address"
        },
        {
          "indexed": true,
          "internalType": "uint256",
          "name": "itemId",
          "type": "uint256"
        },
        {
          "indexed": false,
          "internalType": "address",
          "name": "operator",
          "type": "address"
        }
      ],
      "name": "TransferOwner",
      "type": "event"
    },
    {
      "anonymous": false,
      "inputs": [
        {
          "indexed": true,
          "internalType": "address",
          "name": "from",
          "type": "address"
        },
        {
          "indexed": true,
          "internalType": "address",
          "name": "to",
          "type": "address"
        },
        {
          "indexed": true,
          "internalType": "uint256",
          "name": "itemId",
          "type": "uint256"
        },
        {
          "indexed": false,
          "internalType": "address",
          "name": "operator",
          "type": "address"
        }
      ],
      "name": "TransferUser",
      "type": "event"
    },
    {
      "constant": false,
      "inputs": [
        {
          "internalType": "address",
          "name": "account",
          "type": "address"
        }
      ],
      "name": "addMinter",
      "outputs": [],
      "payable": false,
      "stateMutability": "nonpayable",
      "type": "function"
    },
    {
      "constant": false,
      "inputs": [
        {
          "internalType": "address",
          "name": "to",
          "type": "address"
        },
        {
          "internalType": "uint256",
          "name": "itemId",
          "type": "uint256"
        }
      ],
      "name": "approve",
      "outputs": [],
      "payable": false,
      "stateMutability": "nonpayable",
      "type": "function"
    },
    {
      "constant": false,
      "inputs": [
        {
          "internalType": "address",
          "name": "to",
          "type": "address"
        },
        {
          "internalType": "uint256",
          "name": "itemId",
          "type": "uint256"
        }
      ],
      "name": "approveForOwner",
      "outputs": [],
      "payable": false,
      "stateMutability": "nonpayable",
      "type": "function"
    },
    {
      "constant": false,
      "inputs": [
        {
          "internalType": "address",
          "name": "to",
          "type": "address"
        },
        {
          "internalType": "uint256",
          "name": "itemId",
          "type": "uint256"
        }
      ],
      "name": "approveForUser",
      "outputs": [],
      "payable": false,
      "stateMutability": "nonpayable",
      "type": "function"
    },
    {
      "constant": false,
      "inputs": [
        {
          "internalType": "address",
          "name": "to",
          "type": "address"
        },
        {
          "internalType": "uint256",
          "name": "itemId",
          "type": "uint256"
        }
      ],
      "name": "approveLien",
      "outputs": [],
      "payable": false,
      "stateMutability": "nonpayable",
      "type": "function"
    },
    {
      "constant": false,
      "inputs": [
        {
          "internalType": "address",
          "name": "to",
          "type": "address"
        },
        {
          "internalType": "uint256",
          "name": "itemId",
          "type": "uint256"
        }
      ],
      "name": "approveTenantRight",
      "outputs": [],
      "payable": false,
      "stateMutability": "nonpayable",
      "type": "function"
    },
    {
      "constant": true,
      "inputs": [
        {
          "internalType": "address",
          "name": "owner",
          "type": "address"
        }
      ],
      "name": "balanceOf",
      "outputs": [
        {
          "internalType": "uint256",
          "name": "",
          "type": "uint256"
        }
      ],
      "payable": false,
      "stateMutability": "view",
      "type": "function"
    },
    {
      "constant": true,
      "inputs": [
        {
          "internalType": "address",
          "name": "owner",
          "type": "address"
        }
      ],
      "name": "balanceOfOwner",
      "outputs": [
        {
          "internalType": "uint256",
          "name": "",
          "type": "uint256"
        }
      ],
      "payable": false,
      "stateMutability": "view",
      "type": "function"
    },
    {
      "constant": true,
      "inputs": [
        {
          "internalType": "address",
          "name": "user",
          "type": "address"
        }
      ],
      "name": "balanceOfUser",
      "outputs": [
        {
          "internalType": "uint256",
          "name": "",
          "type": "uint256"
        }
      ],
      "payable": false,
      "stateMutability": "view",
      "type": "function"
    },
    {
      "constant": true,
      "inputs": [],
      "name": "baseURI",
      "outputs": [
        {
          "internalType": "string",
          "name": "",
          "type": "string"
        }
      ],
      "payable": false,
      "stateMutability": "view",
      "type": "function"
    },
    {
      "constant": true,
      "inputs": [
        {
          "internalType": "uint256",
          "name": "itemId",
          "type": "uint256"
        }
      ],
      "name": "getApproved",
      "outputs": [
        {
          "internalType": "address",
          "name": "",
          "type": "address"
        }
      ],
      "payable": false,
      "stateMutability": "view",
      "type": "function"
    },
    {
      "constant": true,
      "inputs": [
        {
          "internalType": "uint256",
          "name": "itemId",
          "type": "uint256"
        }
      ],
      "name": "getApprovedForOwner",
      "outputs": [
        {
          "internalType": "address",
          "name": "",
          "type": "address"
        }
      ],
      "payable": false,
      "stateMutability": "view",
      "type": "function"
    },
    {
      "constant": true,
      "inputs": [
        {
          "internalType": "uint256",
          "name": "itemId",
          "type": "uint256"
        }
      ],
      "name": "getApprovedForUser",
      "outputs": [
        {
          "internalType": "address",
          "name": "",
          "type": "address"
        }
      ],
      "payable": false,
      "stateMutability": "view",
      "type": "function"
    },
    {
      "constant": true,
      "inputs": [
        {
          "internalType": "uint256",
          "name": "itemId",
          "type": "uint256"
        }
      ],
      "name": "getApprovedLien",
      "outputs": [
        {
          "internalType": "address",
          "name": "",
          "type": "address"
        }
      ],
      "payable": false,
      "stateMutability": "view",
      "type": "function"
    },
    {
      "constant": true,
      "inputs": [
        {
          "internalType": "uint256",
          "name": "itemId",
          "type": "uint256"
        }
      ],
      "name": "getApprovedTenantRight",
      "outputs": [
        {
          "internalType": "address",
          "name": "",
          "type": "address"
        }
      ],
      "payable": false,
      "stateMutability": "view",
      "type": "function"
    },
    {
      "constant": true,
      "inputs": [
        {
          "internalType": "uint256",
          "name": "itemId",
          "type": "uint256"
        }
      ],
      "name": "getCurrentLien",
      "outputs": [
        {
          "internalType": "address",
          "name": "",
          "type": "address"
        }
      ],
      "payable": false,
      "stateMutability": "view",
      "type": "function"
    },
    {
      "constant": true,
      "inputs": [
        {
          "internalType": "uint256",
          "name": "itemId",
          "type": "uint256"
        }
      ],
      "name": "getCurrentTenantRight",
      "outputs": [
        {
          "internalType": "address",
          "name": "",
          "type": "address"
        }
      ],
      "payable": false,
      "stateMutability": "view",
      "type": "function"
    },
    {
      "constant": true,
      "inputs": [
        {
          "internalType": "address",
          "name": "owner",
          "type": "address"
        },
        {
          "internalType": "address",
          "name": "operator",
          "type": "address"
        }
      ],
      "name": "isApprovedForAll",
      "outputs": [
        {
          "internalType": "bool",
          "name": "",
          "type": "bool"
        }
      ],
      "payable": false,
      "stateMutability": "view",
      "type": "function"
    },
    {
      "constant": true,
      "inputs": [
        {
          "internalType": "address",
          "name": "account",
          "type": "address"
        }
      ],
      "name": "isMinter",
      "outputs": [
        {
          "internalType": "bool",
          "name": "",
          "type": "bool"
        }
      ],
      "payable": false,
      "stateMutability": "view",
      "type": "function"
    },
    {
      "constant": true,
      "inputs": [
        {
          "internalType": "uint256",
          "name": "index",
          "type": "uint256"
        }
      ],
      "name": "itemByIndex",
      "outputs": [
        {
          "internalType": "uint256",
          "name": "",
          "type": "uint256"
        }
      ],
      "payable": false,
      "stateMutability": "view",
      "type": "function"
    },
    {
      "constant": true,
      "inputs": [
        {
          "internalType": "address",
          "name": "owner",
          "type": "address"
        },
        {
          "internalType": "uint256",
          "name": "index",
          "type": "uint256"
        }
      ],
      "name": "itemOfOwnerByIndex",
      "outputs": [
        {
          "internalType": "uint256",
          "name": "",
          "type": "uint256"
        }
      ],
      "payable": false,
      "stateMutability": "view",
      "type": "function"
    },
    {
      "constant": true,
      "inputs": [
        {
          "internalType": "address",
          "name": "user",
          "type": "address"
        },
        {
          "internalType": "uint256",
          "name": "index",
          "type": "uint256"
        }
      ],
      "name": "itemOfUserByIndex",
      "outputs": [
        {
          "internalType": "uint256",
          "name": "",
          "type": "uint256"
        }
      ],
      "payable": false,
      "stateMutability": "view",
      "type": "function"
    },
    {
      "constant": true,
      "inputs": [
        {
          "internalType": "uint256",
          "name": "itemId",
          "type": "uint256"
        }
      ],
      "name": "itemURI",
      "outputs": [
        {
          "internalType": "string",
          "name": "",
          "type": "string"
        }
      ],
      "payable": false,
      "stateMutability": "view",
      "type": "function"
    },
    {
      "constant": true,
      "inputs": [],
      "name": "name",
      "outputs": [
        {
          "internalType": "string",
          "name": "",
          "type": "string"
        }
      ],
      "payable": false,
      "stateMutability": "view",
      "type": "function"
    },
    {
      "constant": true,
      "inputs": [
        {
          "internalType": "uint256",
          "name": "itemId",
          "type": "uint256"
        }
      ],
      "name": "ownerOf",
      "outputs": [
        {
          "internalType": "address",
          "name": "",
          "type": "address"
        }
      ],
      "payable": false,
      "stateMutability": "view",
      "type": "function"
    },
    {
      "constant": false,
      "inputs": [],
      "name": "renounceMinter",
      "outputs": [],
      "payable": false,
      "stateMutability": "nonpayable",
      "type": "function"
    },
    {
      "constant": false,
      "inputs": [
        {
          "internalType": "uint256",
          "name": "itemId",
          "type": "uint256"
        }
      ],
      "name": "revokeLien",
      "outputs": [],
      "payable": false,
      "stateMutability": "nonpayable",
      "type": "function"
    },
    {
      "constant": false,
      "inputs": [
        {
          "internalType": "uint256",
          "name": "itemId",
          "type": "uint256"
        }
      ],
      "name": "revokeTenantRight",
      "outputs": [],
      "payable": false,
      "stateMutability": "nonpayable",
      "type": "function"
    },
    {
      "constant": false,
      "inputs": [
        {
          "internalType": "address",
          "name": "from",
          "type": "address"
        },
        {
          "internalType": "address",
          "name": "to",
          "type": "address"
        },
        {
          "internalType": "uint256",
          "name": "itemId",
          "type": "uint256"
        }
      ],
      "name": "safeTransferFrom",
      "outputs": [],
      "payable": false,
      "stateMutability": "nonpayable",
      "type": "function"
    },
    {
      "constant": false,
      "inputs": [
        {
          "internalType": "address",
          "name": "from",
          "type": "address"
        },
        {
          "internalType": "address",
          "name": "to",
          "type": "address"
        },
        {
          "internalType": "uint256",
          "name": "itemId",
          "type": "uint256"
        },
        {
          "internalType": "bytes",
          "name": "data",
          "type": "bytes"
        }
      ],
      "name": "safeTransferFrom",
      "outputs": [],
      "payable": false,
      "stateMutability": "nonpayable",
      "type": "function"
    },
    {
      "constant": false,
      "inputs": [
        {
          "internalType": "address",
          "name": "from",
          "type": "address"
        },
        {
          "internalType": "address",
          "name": "to",
          "type": "address"
        },
        {
          "internalType": "uint256",
          "name": "itemId",
          "type": "uint256"
        },
        {
          "internalType": "bytes",
          "name": "data",
          "type": "bytes"
        }
      ],
      "name": "safeTransferOwner",
      "outputs": [],
      "payable": false,
      "stateMutability": "nonpayable",
      "type": "function"
    },
    {
      "constant": false,
      "inputs": [
        {
          "internalType": "address",
          "name": "from",
          "type": "address"
        },
        {
          "internalType": "address",
          "name": "to",
          "type": "address"
        },
        {
          "internalType": "uint256",
          "name": "itemId",
          "type": "uint256"
        }
      ],
      "name": "safeTransferOwner",
      "outputs": [],
      "payable": false,
      "stateMutability": "nonpayable",
      "type": "function"
    },
    {
      "constant": false,
      "inputs": [
        {
          "internalType": "address",
          "name": "from",
          "type": "address"
        },
        {
          "internalType": "address",
          "name": "to",
          "type": "address"
        },
        {
          "internalType": "uint256",
          "name": "itemId",
          "type": "uint256"
        },
        {
          "internalType": "bytes",
          "name": "data",
          "type": "bytes"
        }
      ],
      "name": "safeTransferUser",
      "outputs": [],
      "payable": false,
      "stateMutability": "nonpayable",
      "type": "function"
    },
    {
      "constant": false,
      "inputs": [
        {
          "internalType": "address",
          "name": "from",
          "type": "address"
        },
        {
          "internalType": "address",
          "name": "to",
          "type": "address"
        },
        {
          "internalType": "uint256",
          "name": "itemId",
          "type": "uint256"
        }
      ],
      "name": "safeTransferUser",
      "outputs": [],
      "payable": false,
      "stateMutability": "nonpayable",
      "type": "function"
    },
    {
      "constant": false,
      "inputs": [
        {
          "internalType": "address",
          "name": "to",
          "type": "address"
        },
        {
          "internalType": "bool",
          "name": "approved",
          "type": "bool"
        }
      ],
      "name": "setApprovalForAll",
      "outputs": [],
      "payable": false,
      "stateMutability": "nonpayable",
      "type": "function"
    },
    {
      "constant": false,
      "inputs": [
        {
          "internalType": "uint256",
          "name": "itemId",
          "type": "uint256"
        }
      ],
      "name": "setLien",
      "outputs": [],
      "payable": false,
      "stateMutability": "nonpayable",
      "type": "function"
    },
    {
      "constant": false,
      "inputs": [
        {
          "internalType": "uint256",
          "name": "itemId",
          "type": "uint256"
        }
      ],
      "name": "setTenantRight",
      "outputs": [],
      "payable": false,
      "stateMutability": "nonpayable",
      "type": "function"
    },
    {
      "constant": true,
      "inputs": [
        {
          "internalType": "bytes4",
          "name": "interfaceId",
          "type": "bytes4"
        }
      ],
      "name": "supportsInterface",
      "outputs": [
        {
          "internalType": "bool",
          "name": "",
          "type": "bool"
        }
      ],
      "payable": false,
      "stateMutability": "view",
      "type": "function"
    },
    {
      "constant": true,
      "inputs": [],
      "name": "symbol",
      "outputs": [
        {
          "internalType": "string",
          "name": "",
          "type": "string"
        }
      ],
      "payable": false,
      "stateMutability": "view",
      "type": "function"
    },
    {
      "constant": true,
      "inputs": [],
      "name": "totalNumberOfItems",
      "outputs": [
        {
          "internalType": "uint256",
          "name": "",
          "type": "uint256"
        }
      ],
      "payable": false,
      "stateMutability": "view",
      "type": "function"
    },
    {
      "constant": false,
      "inputs": [
        {
          "internalType": "address",
          "name": "from",
          "type": "address"
        },
        {
          "internalType": "address",
          "name": "to",
          "type": "address"
        },
        {
          "internalType": "uint256",
          "name": "itemId",
          "type": "uint256"
        }
      ],
      "name": "transferFrom",
      "outputs": [],
      "payable": false,
      "stateMutability": "nonpayable",
      "type": "function"
    },
    {
      "constant": true,
      "inputs": [
        {
          "internalType": "uint256",
          "name": "itemId",
          "type": "uint256"
        }
      ],
      "name": "userOf",
      "outputs": [
        {
          "internalType": "address",
          "name": "",
          "type": "address"
        }
      ],
      "payable": false,
      "stateMutability": "view",
      "type": "function"
    },
    {
      "constant": true,
      "inputs": [],
      "name": "mintingFinished",
      "outputs": [
        {
          "internalType": "bool",
          "name": "",
          "type": "bool"
        }
      ],
      "payable": false,
      "stateMutability": "view",
      "type": "function"
    },
    {
      "constant": false,
      "inputs": [
        {
          "internalType": "address",
          "name": "to",
          "type": "address"
        },
        {
          "internalType": "uint256",
          "name": "itemId",
          "type": "uint256"
        }
      ],
      "name": "mint",
      "outputs": [
        {
          "internalType": "bool",
          "name": "",
          "type": "bool"
        }
      ],
      "payable": false,
      "stateMutability": "nonpayable",
      "type": "function"
    },
    {
      "constant": false,
      "inputs": [
        {
          "internalType": "address",
          "name": "to",
          "type": "address"
        },
        {
          "internalType": "uint256",
          "name": "itemId",
          "type": "uint256"
        },
        {
          "internalType": "string",
          "name": "itemURI",
          "type": "string"
        }
      ],
      "name": "mintWithItemURI",
      "outputs": [
        {
          "internalType": "bool",
          "name": "",
          "type": "bool"
        }
      ],
      "payable": false,
      "stateMutability": "nonpayable",
      "type": "function"
    },
    {
      "constant": false,
      "inputs": [],
      "name": "finishMinting",
      "outputs": [
        {
          "internalType": "bool",
          "name": "",
          "type": "bool"
        }
      ],
      "payable": false,
      "stateMutability": "nonpayable",
      "type": "function"
    }
  ],
  "bytecode": "0x60806040526000601260006101000a81548160ff0219169083151502179055503480156200002c57600080fd5b506040516200590438038062005904833981810160405260408110156200005257600080fd5b81019080805160405193929190846401000000008211156200007357600080fd5b838201915060208201858111156200008a57600080fd5b8251866001820283011164010000000082111715620000a857600080fd5b8083526020830192505050908051906020019080838360005b83811015620000de578082015181840152602081019050620000c1565b50505050905090810190601f1680156200010c5780820380516001836020036101000a031916815260200191505b50604052602001805160405193929190846401000000008211156200013057600080fd5b838201915060208201858111156200014757600080fd5b82518660018202830111640100000000821117156200016557600080fd5b8083526020830192505050908051906020019080838360005b838110156200019b5780820151818401526020810190506200017e565b50505050905090810190601f168015620001c95780820380516001836020036101000a031916815260200191505b5060405250505081818181620001ec6301ffc9a760e01b6200081260201b60201c565b6200065f60405180807f7265766f6b6554656e616e7452696768742875696e7432353629000000000000815250601a019050604051809103902060405180807f67657443757272656e7454656e616e7452696768742875696e74323536290000815250601e019050604051809103902060405180807f73657454656e616e7452696768742875696e74323536290000000000000000008152506017019050604051809103902060405180807f676574417070726f76656454656e616e7452696768742875696e743235362900815250601f0190506040518091039020604051808062005794602491396024019050604051809103902060405180807f7265766f6b654c69656e2875696e7432353629000000000000000000000000008152506013019050604051809103902060405180807f67657443757272656e744c69656e2875696e74323536290000000000000000008152506017019050604051809103902060405180807f7365744c69656e2875696e7432353629000000000000000000000000000000008152506010019050604051809103902060405180807f676574417070726f7665644c69656e2875696e743235362900000000000000008152506018019050604051809103902060405180807f617070726f76654c69656e28616464726573732c2075696e7432353629000000815250601d019050604051809103902060405180806200580b602291396022019050604051809103902060405180807f736574417070726f76616c466f72416c6c28616464726573732c20626f6f6c298152506020019050604051809103902060405180807f676574417070726f766564466f72557365722875696e74323536290000000000815250601b019050604051809103902060405180807f617070726f7665466f725573657228616464726573732c2075696e74323536298152506020019050604051809103902060405180807f676574417070726f766564466f724f776e65722875696e743235362900000000815250601c01905060405180910390206040518080620057b860219139602101905060405180910390206040518080620057d960329139603201905060405180910390206040518080620058d9602b9139602b019050604051809103902060405180806200587b603391396033019050604051809103902060405180806200582d602c9139602c019050604051809103902060405180807f757365724f662875696e74323536290000000000000000000000000000000000815250600f019050604051809103902060405180807f6f776e65724f662875696e7432353629000000000000000000000000000000008152506010019050604051809103902060405180807f62616c616e63654f6655736572286164647265737329000000000000000000008152506016019050604051809103902060405180807f62616c616e63654f664f776e65722861646472657373290000000000000000008152506017019050604051809103902018181818181818181818181818181818181818181818186200081260201b60201c565b620006f760405180807f6974656d4279496e6465782875696e7432353629000000000000000000000000815250601401905060405180910390206040518080620058ae602b9139602b019050604051809103902060405180807f746f74616c4e756d6265724f664974656d7328290000000000000000000000008152506014019050604051809103902018186200081260201b60201c565b81600d90805190602001906200070f92919062000b40565b5080600e90805190602001906200072892919062000b40565b50620007dd60405180807f6974656d5552492875696e7432353629000000000000000000000000000000008152506010019050604051809103902060405180807f73796d626f6c28290000000000000000000000000000000000000000000000008152506008019050604051809103902060405180807f6e616d65282900000000000000000000000000000000000000000000000000008152506006019050604051809103902018186200081260201b60201c565b5050620007f76380ac58cd60e01b6200081260201b60201c565b50506200080a336200091b60201b60201c565b505062000bef565b63ffffffff60e01b817bffffffffffffffffffffffffffffffffffffffffffffffffffffffff19161415620008af576040517f08c379a000000000000000000000000000000000000000000000000000000000815260040180806020018281038252601c8152602001807f4552433136353a20696e76616c696420696e746572666163652069640000000081525060200191505060405180910390fd5b6001600080837bffffffffffffffffffffffffffffffffffffffffffffffffffffffff19167bffffffffffffffffffffffffffffffffffffffffffffffffffffffff1916815260200190815260200160002060006101000a81548160ff02191690831515021790555050565b620009368160116200097c60201b6200474f1790919060201c565b8073ffffffffffffffffffffffffffffffffffffffff167f6ae172837ea30b801fbfcdd4108aa1d5bf8ff775444fd70256b44e6bf3dfc3f660405160405180910390a250565b6200098e828262000a6060201b60201c565b1562000a02576040517f08c379a000000000000000000000000000000000000000000000000000000000815260040180806020018281038252601f8152602001807f526f6c65733a206163636f756e7420616c72656164792068617320726f6c650081525060200191505060405180910390fd5b60018260000160008373ffffffffffffffffffffffffffffffffffffffff1673ffffffffffffffffffffffffffffffffffffffff16815260200190815260200160002060006101000a81548160ff0219169083151502179055505050565b60008073ffffffffffffffffffffffffffffffffffffffff168273ffffffffffffffffffffffffffffffffffffffff16141562000ae9576040517f08c379a0000000000000000000000000000000000000000000000000000000008152600401808060200182810382526022815260200180620058596022913960400191505060405180910390fd5b8260000160008373ffffffffffffffffffffffffffffffffffffffff1673ffffffffffffffffffffffffffffffffffffffff16815260200190815260200160002060009054906101000a900460ff16905092915050565b828054600181600116156101000203166002900490600052602060002090601f016020900481019282601f1062000b8357805160ff191683800117855562000bb4565b8280016001018555821562000bb4579182015b8281111562000bb357825182559160200191906001019062000b96565b5b50905062000bc3919062000bc7565b5090565b62000bec91905b8082111562000be857600081600090555060010162000bce565b5090565b90565b614b958062000bff6000396000f3fe608060405234801561001057600080fd5b506004361061028a5760003560e01c80636494aa621161015c578063aa271e1a116100ce578063c2f1f14a11610087578063c2f1f14a146112c4578063c66130d714611332578063d872095a1461138a578063e985e9c5146113f8578063ea4eb8f214611474578063ed7f723c146114e25761028a565b8063aa271e1a14610ee7578063acb35dc714610f43578063b21e4ebd14610fea578063b6f0a8341461104c578063b88d4fde14611151578063c043f83c146112565761028a565b80637e8ca079116101205780637e8ca07914610d4a57806395d89b4114610d98578063983b2d5614610e1b5780639865027514610e5f578063a22cb46514610e69578063a9c7518614610eb95761028a565b80636494aa6214610be15780636c0360eb14610c2f57806370324f2b14610cb257806370a0823114610cd05780637d64bcb414610d285761028a565b806323b872dd116102005780634532e07e116101b95780634532e07e146108a757806347164724146109a45780634cfd83be146109d2578063578a930b14610ad757806362b2167914610b055780636352211e14610b735761028a565b806323b872dd1461065b5780632afbf019146106c95780633593d11b146107175780633b58452e1461078557806340c10f19146107d357806342842e0e146108395761028a565b80630b20055e116102525780630b20055e146104555780630dca1c891461048357806312cae7af146104f157806313b01a8114610549578063173cc522146105ab5780631f11d46b146105ed5761028a565b806301ffc9a71461028f57806305d2035b146102f457806306fdde0314610316578063081812fc14610399578063095ea7b314610407575b600080fd5b6102da600480360360208110156102a557600080fd5b8101908080357bffffffffffffffffffffffffffffffffffffffffffffffffffffffff19169060200190929190505050611550565b604051808215151515815260200191505060405180910390f35b6102fc6115b7565b604051808215151515815260200191505060405180910390f35b61031e6115ce565b6040518080602001828103825283818151815260200191508051906020019080838360005b8381101561035e578082015181840152602081019050610343565b50505050905090810190601f16801561038b5780820380516001836020036101000a031916815260200191505b509250505060405180910390f35b6103c5600480360360208110156103af57600080fd5b8101908080359060200190929190505050611670565b604051808273ffffffffffffffffffffffffffffffffffffffff1673ffffffffffffffffffffffffffffffffffffffff16815260200191505060405180910390f35b6104536004803603604081101561041d57600080fd5b81019080803573ffffffffffffffffffffffffffffffffffffffff16906020019092919080359060200190929190505050611682565b005b6104816004803603602081101561046b57600080fd5b81019080803590602001909291905050506116f9565b005b6104af6004803603602081101561049957600080fd5b81019080803590602001909291905050506117f6565b604051808273ffffffffffffffffffffffffffffffffffffffff1673ffffffffffffffffffffffffffffffffffffffff16815260200191505060405180910390f35b6105336004803603602081101561050757600080fd5b81019080803573ffffffffffffffffffffffffffffffffffffffff169060200190929190505050611847565b6040518082815260200191505060405180910390f35b6105956004803603604081101561055f57600080fd5b81019080803573ffffffffffffffffffffffffffffffffffffffff169060200190929190803590602001909291905050506118e8565b6040518082815260200191505060405180910390f35b6105d7600480360360208110156105c157600080fd5b810190808035906020019092919050505061196d565b6040518082815260200191505060405180910390f35b6106196004803603602081101561060357600080fd5b81019080803590602001909291905050506119a1565b604051808273ffffffffffffffffffffffffffffffffffffffff1673ffffffffffffffffffffffffffffffffffffffff16815260200191505060405180910390f35b6106c76004803603606081101561067157600080fd5b81019080803573ffffffffffffffffffffffffffffffffffffffff169060200190929190803573ffffffffffffffffffffffffffffffffffffffff169060200190929190803590602001909291905050506119f2565b005b610715600480360360408110156106df57600080fd5b81019080803573ffffffffffffffffffffffffffffffffffffffff16906020019092919080359060200190929190505050611ad1565b005b6107436004803603602081101561072d57600080fd5b8101908080359060200190929190505050611bfb565b604051808273ffffffffffffffffffffffffffffffffffffffff1673ffffffffffffffffffffffffffffffffffffffff16815260200191505060405180910390f35b6107d16004803603604081101561079b57600080fd5b81019080803573ffffffffffffffffffffffffffffffffffffffff16906020019092919080359060200190929190505050611c4c565b005b61081f600480360360408110156107e957600080fd5b81019080803573ffffffffffffffffffffffffffffffffffffffff16906020019092919080359060200190929190505050611ebd565b604051808215151515815260200191505060405180910390f35b6108a56004803603606081101561084f57600080fd5b81019080803573ffffffffffffffffffffffffffffffffffffffff169060200190929190803573ffffffffffffffffffffffffffffffffffffffff16906020019092919080359060200190929190505050611f4b565b005b61098a600480360360608110156108bd57600080fd5b81019080803573ffffffffffffffffffffffffffffffffffffffff169060200190929190803590602001909291908035906020019064010000000081111561090457600080fd5b82018360208201111561091657600080fd5b8035906020019184600183028401116401000000008311171561093857600080fd5b91908080601f016020809104026020016040519081016040528093929190818152602001838380828437600081840152601f19601f820116905080830192505050505050509192919290505050611f6b565b604051808215151515815260200191505060405180910390f35b6109d0600480360360208110156109ba57600080fd5b8101908080359060200190929190505050612005565b005b610ad5600480360360808110156109e857600080fd5b81019080803573ffffffffffffffffffffffffffffffffffffffff169060200190929190803573ffffffffffffffffffffffffffffffffffffffff1690602001909291908035906020019092919080359060200190640100000000811115610a4f57600080fd5b820183602082011115610a6157600080fd5b80359060200191846001830284011164010000000083111715610a8357600080fd5b91908080601f016020809104026020016040519081016040528093929190818152602001838380828437600081840152601f19601f8201169050808301925050505050505091929192905050506120f7565b005b610b0360048036036020811015610aed57600080fd5b8101908080359060200190929190505050612120565b005b610b3160048036036020811015610b1b57600080fd5b810190808035906020019092919050505061220b565b604051808273ffffffffffffffffffffffffffffffffffffffff1673ffffffffffffffffffffffffffffffffffffffff16815260200191505060405180910390f35b610b9f60048036036020811015610b8957600080fd5b810190808035906020019092919050505061226e565b604051808273ffffffffffffffffffffffffffffffffffffffff1673ffffffffffffffffffffffffffffffffffffffff16815260200191505060405180910390f35b610c2d60048036036040811015610bf757600080fd5b81019080803573ffffffffffffffffffffffffffffffffffffffff16906020019092919080359060200190929190505050612280565b005b610c376123dd565b6040518080602001828103825283818151815260200191508051906020019080838360005b83811015610c77578082015181840152602081019050610c5c565b50505050905090810190601f168015610ca45780820380516001836020036101000a031916815260200191505b509250505060405180910390f35b610cba61247f565b6040518082815260200191505060405180910390f35b610d1260048036036020811015610ce657600080fd5b81019080803573ffffffffffffffffffffffffffffffffffffffff16906020019092919050505061248c565b6040518082815260200191505060405180910390f35b610d3061249e565b604051808215151515815260200191505060405180910390f35b610d9660048036036040811015610d6057600080fd5b81019080803573ffffffffffffffffffffffffffffffffffffffff16906020019092919080359060200190929190505050612566565b005b610da0612690565b6040518080602001828103825283818151815260200191508051906020019080838360005b83811015610de0578082015181840152602081019050610dc5565b50505050905090810190601f168015610e0d5780820380516001836020036101000a031916815260200191505b509250505060405180910390f35b610e5d60048036036020811015610e3157600080fd5b81019080803573ffffffffffffffffffffffffffffffffffffffff169060200190929190505050612732565b005b610e6761279c565b005b610eb760048036036040811015610e7f57600080fd5b81019080803573ffffffffffffffffffffffffffffffffffffffff1690602001909291908035151590602001909291905050506127a7565b005b610ee560048036036020811015610ecf57600080fd5b81019080803590602001909291905050506128e1565b005b610f2960048036036020811015610efd57600080fd5b81019080803573ffffffffffffffffffffffffffffffffffffffff1690602001909291905050506129cc565b604051808215151515815260200191505060405180910390f35b610f6f60048036036020811015610f5957600080fd5b81019080803590602001909291905050506129e9565b6040518080602001828103825283818151815260200191508051906020019080838360005b83811015610faf578082015181840152602081019050610f94565b50505050905090810190601f168015610fdc5780820380516001836020036101000a031916815260200191505b509250505060405180910390f35b6110366004803603604081101561100057600080fd5b81019080803573ffffffffffffffffffffffffffffffffffffffff16906020019092919080359060200190929190505050612c0a565b6040518082815260200191505060405180910390f35b61114f6004803603608081101561106257600080fd5b81019080803573ffffffffffffffffffffffffffffffffffffffff169060200190929190803573ffffffffffffffffffffffffffffffffffffffff16906020019092919080359060200190929190803590602001906401000000008111156110c957600080fd5b8201836020820111156110db57600080fd5b803590602001918460018302840111640100000000831117156110fd57600080fd5b91908080601f016020809104026020016040519081016040528093929190818152602001838380828437600081840152601f19601f820116905080830192505050505050509192919290505050612c8f565b005b6112546004803603608081101561116757600080fd5b81019080803573ffffffffffffffffffffffffffffffffffffffff169060200190929190803573ffffffffffffffffffffffffffffffffffffffff16906020019092919080359060200190929190803590602001906401000000008111156111ce57600080fd5b8201836020820111156111e057600080fd5b8035906020019184600183028401116401000000008311171561120257600080fd5b91908080601f016020809104026020016040519081016040528093929190818152602001838380828437600081840152601f19601f820116905080830192505050505050509192919290505050612cb8565b005b6112826004803603602081101561126c57600080fd5b8101908080359060200190929190505050612d2a565b604051808273ffffffffffffffffffffffffffffffffffffffff1673ffffffffffffffffffffffffffffffffffffffff16815260200191505060405180910390f35b6112f0600480360360208110156112da57600080fd5b8101908080359060200190929190505050612d7b565b604051808273ffffffffffffffffffffffffffffffffffffffff1673ffffffffffffffffffffffffffffffffffffffff16815260200191505060405180910390f35b6113746004803603602081101561134857600080fd5b81019080803573ffffffffffffffffffffffffffffffffffffffff169060200190929190505050612e09565b6040518082815260200191505060405180910390f35b6113f6600480360360608110156113a057600080fd5b81019080803573ffffffffffffffffffffffffffffffffffffffff169060200190929190803573ffffffffffffffffffffffffffffffffffffffff16906020019092919080359060200190929190505050612eaa565b005b61145a6004803603604081101561140e57600080fd5b81019080803573ffffffffffffffffffffffffffffffffffffffff169060200190929190803573ffffffffffffffffffffffffffffffffffffffff169060200190929190505050612eca565b604051808215151515815260200191505060405180910390f35b6114a06004803603602081101561148a57600080fd5b8101908080359060200190929190505050612f5e565b604051808273ffffffffffffffffffffffffffffffffffffffff1673ffffffffffffffffffffffffffffffffffffffff16815260200191505060405180910390f35b61154e600480360360608110156114f857600080fd5b81019080803573ffffffffffffffffffffffffffffffffffffffff169060200190929190803573ffffffffffffffffffffffffffffffffffffffff1690602001909291908035906020019092919050505061302a565b005b6000806000837bffffffffffffffffffffffffffffffffffffffffffffffffffffffff19167bffffffffffffffffffffffffffffffffffffffffffffffffffffffff1916815260200190815260200160002060009054906101000a900460ff169050919050565b6000601260009054906101000a900460ff16905090565b6060600d8054600181600116156101000203166002900480601f0160208091040260200160405190810160405280929190818152602001828054600181600116156101000203166002900480156116665780601f1061163b57610100808354040283529160200191611666565b820191906000526020600020905b81548152906001019060200180831161164957829003601f168201915b5050505050905090565b600061167b82612f5e565b9050919050565b61168c8282612280565b60006116978261226e565b9050818373ffffffffffffffffffffffffffffffffffffffff168273ffffffffffffffffffffffffffffffffffffffff167f8c5be1e5ebec7d5bd14f71427d1e84f3dd0314c0f7b2291e5b200ac8c7c3b92560405160405180910390a4505050565b61170281612d2a565b73ffffffffffffffffffffffffffffffffffffffff163373ffffffffffffffffffffffffffffffffffffffff161461173957600080fd5b336008600083815260200190815260200160002060006101000a81548173ffffffffffffffffffffffffffffffffffffffff021916908373ffffffffffffffffffffffffffffffffffffffff1602179055506117948161304a565b61179f816001613108565b803373ffffffffffffffffffffffffffffffffffffffff167f61f383bb3b27cd35ab1b0353eff732709f4d8c7ba28da80d9f11f58d6ab2c4776001604051808215151515815260200191505060405180910390a350565b60006118038260026131e9565b61180c57600080fd5b6008600083815260200190815260200160002060009054906101000a900473ffffffffffffffffffffffffffffffffffffffff169050919050565b60008073ffffffffffffffffffffffffffffffffffffffff168273ffffffffffffffffffffffffffffffffffffffff16141561188257600080fd5b60006118dd600360008573ffffffffffffffffffffffffffffffffffffffff1673ffffffffffffffffffffffffffffffffffffffff16815260200190815260200160002060006001815260200190815260200160002061326d565b905080915050919050565b60006118f383611847565b82106118fe57600080fd5b600960006001815260200190815260200160002060008473ffffffffffffffffffffffffffffffffffffffff1673ffffffffffffffffffffffffffffffffffffffff168152602001908152602001600020828154811061195a57fe5b9060005260206000200154905092915050565b600061197761247f565b821061198257600080fd5b600b828154811061198f57fe5b90600052602060002001549050919050565b60006119ae8260026131e9565b6119b757600080fd5b6005600083815260200190815260200160002060009054906101000a900473ffffffffffffffffffffffffffffffffffffffff169050919050565b6119fe3382600261327b565b611a0757600080fd5b600073ffffffffffffffffffffffffffffffffffffffff16611a28826117f6565b73ffffffffffffffffffffffffffffffffffffffff161415611a6357611a51838383600161353e565b611a5e838383600261353e565b611a71565b611a70838383600261353e565b5b808273ffffffffffffffffffffffffffffffffffffffff168473ffffffffffffffffffffffffffffffffffffffff167fddf252ad1be2c89b69c2b068fc378daa952ba7f163c4a11628f55a4df523b3ef60405160405180910390a4505050565b6000611adc8261226e565b90508073ffffffffffffffffffffffffffffffffffffffff168373ffffffffffffffffffffffffffffffffffffffff161415611b1757600080fd5b8073ffffffffffffffffffffffffffffffffffffffff163373ffffffffffffffffffffffffffffffffffffffff161480611b575750611b568133612eca565b5b611b6057600080fd5b826007600084815260200190815260200160002060006101000a81548173ffffffffffffffffffffffffffffffffffffffff021916908373ffffffffffffffffffffffffffffffffffffffff160217905550818373ffffffffffffffffffffffffffffffffffffffff167f0c884ec16d4df04dda9d6b34c3952b016f96ebc493dfa60c89ad5edd81d4fb0b60405160405180910390a3505050565b6000611c088260026131e9565b611c1157600080fd5b6006600083815260200190815260200160002060009054906101000a900473ffffffffffffffffffffffffffffffffffffffff169050919050565b6000611c5782612d7b565b90506000611c648361226e565b90508073ffffffffffffffffffffffffffffffffffffffff168473ffffffffffffffffffffffffffffffffffffffff1614158015611cce57508173ffffffffffffffffffffffffffffffffffffffff168473ffffffffffffffffffffffffffffffffffffffff1614155b611cd757600080fd5b8173ffffffffffffffffffffffffffffffffffffffff163373ffffffffffffffffffffffffffffffffffffffff161480611d3c57508073ffffffffffffffffffffffffffffffffffffffff163373ffffffffffffffffffffffffffffffffffffffff16145b80611d4d5750611d4c8233612eca565b5b80611d5e5750611d5d8133612eca565b5b611d6757600080fd5b8073ffffffffffffffffffffffffffffffffffffffff163373ffffffffffffffffffffffffffffffffffffffff161480611da75750611da68133612eca565b5b15611dee57600073ffffffffffffffffffffffffffffffffffffffff16611dcd846117f6565b73ffffffffffffffffffffffffffffffffffffffff1614611ded57600080fd5b5b836002600085815260200190815260200160002060006001815260200190815260200160002060006101000a81548173ffffffffffffffffffffffffffffffffffffffff021916908373ffffffffffffffffffffffffffffffffffffffff1602179055508373ffffffffffffffffffffffffffffffffffffffff168273ffffffffffffffffffffffffffffffffffffffff167fa09bf3dd3238f9ce83e7feb7735fc7c137f90979b5aae4f7f01ae73b24181570856040518082815260200191505060405180910390a350505050565b6000611ec8336129cc565b611f1d576040517f08c379a0000000000000000000000000000000000000000000000000000000008152600401808060200182810382526030815260200180614ac06030913960400191505060405180910390fd5b601260009054906101000a900460ff1615611f3757600080fd5b611f418383613566565b6001905092915050565b611f6683838360405180602001604052806000815250612cb8565b505050565b6000611f76336129cc565b611fcb576040517f08c379a0000000000000000000000000000000000000000000000000000000008152600401808060200182810382526030815260200180614ac06030913960400191505060405180910390fd5b601260009054906101000a900460ff1615611fe557600080fd5b611fef8484611ebd565b50611ffa8383613595565b600190509392505050565b61200e816119a1565b73ffffffffffffffffffffffffffffffffffffffff163373ffffffffffffffffffffffffffffffffffffffff161461204557600080fd5b336006600083815260200190815260200160002060006101000a81548173ffffffffffffffffffffffffffffffffffffffff021916908373ffffffffffffffffffffffffffffffffffffffff1602179055506120a0816135d5565b803373ffffffffffffffffffffffffffffffffffffffff167f697a63882786c4e4b3b3cc495872d3d6e9e7953336ac7d30cf6207086274bdd36001604051808215151515815260200191505060405180910390a350565b6121033383600161327b565b61210c57600080fd5b61211a848484600185613693565b50505050565b61212981611bfb565b73ffffffffffffffffffffffffffffffffffffffff163373ffffffffffffffffffffffffffffffffffffffff161461216057600080fd5b60006006600083815260200190815260200160002060006101000a81548173ffffffffffffffffffffffffffffffffffffffff021916908373ffffffffffffffffffffffffffffffffffffffff16021790555080600073ffffffffffffffffffffffffffffffffffffffff167f697a63882786c4e4b3b3cc495872d3d6e9e7953336ac7d30cf6207086274bdd36000604051808215151515815260200191505060405180910390a350565b60006122188260016131e9565b61222157600080fd5b6002600083815260200190815260200160002060006001815260200190815260200160002060009054906101000a900473ffffffffffffffffffffffffffffffffffffffff169050919050565b600061227982613708565b9050919050565b600061228b8261226e565b90508073ffffffffffffffffffffffffffffffffffffffff168373ffffffffffffffffffffffffffffffffffffffff1614156122c657600080fd5b8073ffffffffffffffffffffffffffffffffffffffff163373ffffffffffffffffffffffffffffffffffffffff16148061230657506123058133612eca565b5b61230f57600080fd5b826002600084815260200190815260200160002060006002815260200190815260200160002060006101000a81548173ffffffffffffffffffffffffffffffffffffffff021916908373ffffffffffffffffffffffffffffffffffffffff1602179055508273ffffffffffffffffffffffffffffffffffffffff168173ffffffffffffffffffffffffffffffffffffffff167f14ecf0643b070217924915201071c2f1842b5a0448d350f34dbbfe23616e07f3846040518082815260200191505060405180910390a3505050565b6060600f8054600181600116156101000203166002900480601f0160208091040260200160405190810160405280929190818152602001828054600181600116156101000203166002900480156124755780601f1061244a57610100808354040283529160200191612475565b820191906000526020600020905b81548152906001019060200180831161245857829003601f168201915b5050505050905090565b6000600b80549050905090565b600061249782612e09565b9050919050565b60006124a9336129cc565b6124fe576040517f08c379a0000000000000000000000000000000000000000000000000000000008152600401808060200182810382526030815260200180614ac06030913960400191505060405180910390fd5b601260009054906101000a900460ff161561251857600080fd5b6001601260006101000a81548160ff0219169083151502179055507fb828d9b5c78095deeeeff2eca2e5d4fe046ce3feb4c99702624a3fd384ad2dbc60405160405180910390a16001905090565b60006125718261226e565b90508073ffffffffffffffffffffffffffffffffffffffff168373ffffffffffffffffffffffffffffffffffffffff1614156125ac57600080fd5b8073ffffffffffffffffffffffffffffffffffffffff163373ffffffffffffffffffffffffffffffffffffffff1614806125ec57506125eb8133612eca565b5b6125f557600080fd5b826005600084815260200190815260200160002060006101000a81548173ffffffffffffffffffffffffffffffffffffffff021916908373ffffffffffffffffffffffffffffffffffffffff160217905550818373ffffffffffffffffffffffffffffffffffffffff167f1ce7b0eca78337592451ad94da2c4fab6d3ef935144d93c358e1b2dd1b07871460405160405180910390a3505050565b6060600e8054600181600116156101000203166002900480601f0160208091040260200160405190810160405280929190818152602001828054600181600116156101000203166002900480156127285780601f106126fd57610100808354040283529160200191612728565b820191906000526020600020905b81548152906001019060200180831161270b57829003601f168201915b5050505050905090565b61273b336129cc565b612790576040517f08c379a0000000000000000000000000000000000000000000000000000000008152600401808060200182810382526030815260200180614ac06030913960400191505060405180910390fd5b61279981613796565b50565b6127a5336137f0565b565b3373ffffffffffffffffffffffffffffffffffffffff168273ffffffffffffffffffffffffffffffffffffffff1614156127e057600080fd5b80600460003373ffffffffffffffffffffffffffffffffffffffff1673ffffffffffffffffffffffffffffffffffffffff16815260200190815260200160002060008473ffffffffffffffffffffffffffffffffffffffff1673ffffffffffffffffffffffffffffffffffffffff16815260200190815260200160002060006101000a81548160ff0219169083151502179055508173ffffffffffffffffffffffffffffffffffffffff163373ffffffffffffffffffffffffffffffffffffffff167f17307eab39ab6107e8899845ad3d59bd9653f200f220920489ca2b5937696c3183604051808215151515815260200191505060405180910390a35050565b6128ea816117f6565b73ffffffffffffffffffffffffffffffffffffffff163373ffffffffffffffffffffffffffffffffffffffff161461292157600080fd5b60006008600083815260200190815260200160002060006101000a81548173ffffffffffffffffffffffffffffffffffffffff021916908373ffffffffffffffffffffffffffffffffffffffff16021790555080600073ffffffffffffffffffffffffffffffffffffffff167f61f383bb3b27cd35ab1b0353eff732709f4d8c7ba28da80d9f11f58d6ab2c4776000604051808215151515815260200191505060405180910390a350565b60006129e282601161384a90919063ffffffff16565b9050919050565b60606129f68260016131e9565b612a68576040517f08c379a000000000000000000000000000000000000000000000000000000000815260040180806020018281038252601e8152602001807f55524920717565727920666f72206e6f6e6578697374656e74206974656d000081525060200191505060405180910390fd5b6060601060008481526020019081526020016000208054600181600116156101000203166002900480601f016020809104026020016040519081016040528092919081815260200182805460018160011615610100020316600290048015612b115780601f10612ae657610100808354040283529160200191612b11565b820191906000526020600020905b815481529060010190602001808311612af457829003601f168201915b50505050509050600081511415612b3a5760405180602001604052806000815250915050612c05565b600f816040516020018083805460018160011615610100020316600290048015612b9b5780601f10612b79576101008083540402835291820191612b9b565b820191906000526020600020905b815481529060010190602001808311612b87575b505082805190602001908083835b60208310612bcc5780518252602082019150602081019050602083039250612ba9565b6001836020036101000a038019825116818451168082178552505050505050905001925050506040516020818303038152906040529150505b919050565b6000612c1583612e09565b8210612c2057600080fd5b600960006002815260200190815260200160002060008473ffffffffffffffffffffffffffffffffffffffff1673ffffffffffffffffffffffffffffffffffffffff1681526020019081526020016000208281548110612c7c57fe5b9060005260206000200154905092915050565b612c9b3383600261327b565b612ca457600080fd5b612cb2848484600285613693565b50505050565b612cc38484846119f2565b612ccf84848484613928565b612d24576040517f08c379a0000000000000000000000000000000000000000000000000000000008152600401808060200182810382526032815260200180614a8e6032913960400191505060405180910390fd5b50505050565b6000612d378260026131e9565b612d4057600080fd5b6007600083815260200190815260200160002060009054906101000a900473ffffffffffffffffffffffffffffffffffffffff169050919050565b6000806001600084815260200190815260200160002060006001815260200190815260200160002060009054906101000a900473ffffffffffffffffffffffffffffffffffffffff169050600073ffffffffffffffffffffffffffffffffffffffff168173ffffffffffffffffffffffffffffffffffffffff161415612e0057600080fd5b80915050919050565b60008073ffffffffffffffffffffffffffffffffffffffff168273ffffffffffffffffffffffffffffffffffffffff161415612e4457600080fd5b6000612e9f600360008573ffffffffffffffffffffffffffffffffffffffff1673ffffffffffffffffffffffffffffffffffffffff16815260200190815260200160002060006002815260200190815260200160002061326d565b905080915050919050565b612ec5838383604051806020016040528060008152506120f7565b505050565b6000600460008473ffffffffffffffffffffffffffffffffffffffff1673ffffffffffffffffffffffffffffffffffffffff16815260200190815260200160002060008373ffffffffffffffffffffffffffffffffffffffff1673ffffffffffffffffffffffffffffffffffffffff16815260200190815260200160002060009054906101000a900460ff16905092915050565b6000612f6b8260026131e9565b612fdd576040517f08c379a00000000000000000000000000000000000000000000000000000000081526004018080602001828103825260158152602001807f6e6f206f776e657220617070726f76616c20736574000000000000000000000081525060200191505060405180910390fd5b6002600083815260200190815260200160002060006002815260200190815260200160002060009054906101000a900473ffffffffffffffffffffffffffffffffffffffff169050919050565b61304583838360405180602001604052806000815250612c8f565b505050565b600073ffffffffffffffffffffffffffffffffffffffff166007600083815260200190815260200160002060009054906101000a900473ffffffffffffffffffffffffffffffffffffffff1673ffffffffffffffffffffffffffffffffffffffff16146131055760006007600083815260200190815260200160002060006101000a81548173ffffffffffffffffffffffffffffffffffffffff021916908373ffffffffffffffffffffffffffffffffffffffff1602179055505b50565b600073ffffffffffffffffffffffffffffffffffffffff1660026000848152602001908152602001600020600083815260200190815260200160002060009054906101000a900473ffffffffffffffffffffffffffffffffffffffff1673ffffffffffffffffffffffffffffffffffffffff16146131e557600060026000848152602001908152602001600020600083815260200190815260200160002060006101000a81548173ffffffffffffffffffffffffffffffffffffffff021916908373ffffffffffffffffffffffffffffffffffffffff1602179055505b5050565b60008060016000858152602001908152602001600020600084815260200190815260200160002060009054906101000a900473ffffffffffffffffffffffffffffffffffffffff169050600073ffffffffffffffffffffffffffffffffffffffff168173ffffffffffffffffffffffffffffffffffffffff16141591505092915050565b600081600001549050919050565b600061328783836131e9565b61329057600080fd5b60018214156134515760006132a484612d7b565b905060006132b18561226e565b90508173ffffffffffffffffffffffffffffffffffffffff168673ffffffffffffffffffffffffffffffffffffffff16148061331857508073ffffffffffffffffffffffffffffffffffffffff168673ffffffffffffffffffffffffffffffffffffffff16145b8061332957506133288287612eca565b5b8061333a57506133398187612eca565b5b8061337857506133498561220b565b73ffffffffffffffffffffffffffffffffffffffff168673ffffffffffffffffffffffffffffffffffffffff16145b806133b6575061338785611bfb565b73ffffffffffffffffffffffffffffffffffffffff168673ffffffffffffffffffffffffffffffffffffffff16145b6133bf57600080fd5b8073ffffffffffffffffffffffffffffffffffffffff168673ffffffffffffffffffffffffffffffffffffffff1614806133ff57506133fe8187612eca565b5b1561344657600073ffffffffffffffffffffffffffffffffffffffff16613425866117f6565b73ffffffffffffffffffffffffffffffffffffffff161461344557600080fd5b5b600192505050613537565b60028214156135365760006134658461226e565b90508073ffffffffffffffffffffffffffffffffffffffff168573ffffffffffffffffffffffffffffffffffffffff1614806134a757506134a68186612eca565b5b806134e557506134b684612f5e565b73ffffffffffffffffffffffffffffffffffffffff168573ffffffffffffffffffffffffffffffffffffffff16145b8061352357506134f484611bfb565b73ffffffffffffffffffffffffffffffffffffffff168573ffffffffffffffffffffffffffffffffffffffff16145b61352c57600080fd5b6001915050613537565b5b9392505050565b61354a84848484613b11565b613555848383613e4c565b613560838383614051565b50505050565b613570828261414c565b61357c82826001614051565b61358882826002614051565b61359181614511565b5050565b6135a08260016131e9565b6135a957600080fd5b806010600084815260200190815260200160002090805190602001906135d09291906149bc565b505050565b600073ffffffffffffffffffffffffffffffffffffffff166005600083815260200190815260200160002060009054906101000a900473ffffffffffffffffffffffffffffffffffffffff1673ffffffffffffffffffffffffffffffffffffffff16146136905760006005600083815260200190815260200160002060006101000a81548173ffffffffffffffffffffffffffffffffffffffff021916908373ffffffffffffffffffffffffffffffffffffffff1602179055505b50565b61369f8585858561353e565b6136ac858585858561455d565b613701576040517f08c379a000000000000000000000000000000000000000000000000000000000815260040180806020018281038252602e815260200180614b33602e913960400191505060405180910390fd5b5050505050565b6000806001600084815260200190815260200160002060006002815260200190815260200160002060009054906101000a900473ffffffffffffffffffffffffffffffffffffffff169050600073ffffffffffffffffffffffffffffffffffffffff168173ffffffffffffffffffffffffffffffffffffffff16141561378d57600080fd5b80915050919050565b6137aa81601161474f90919063ffffffff16565b8073ffffffffffffffffffffffffffffffffffffffff167f6ae172837ea30b801fbfcdd4108aa1d5bf8ff775444fd70256b44e6bf3dfc3f660405160405180910390a250565b61380481601161482a90919063ffffffff16565b8073ffffffffffffffffffffffffffffffffffffffff167fe94479a9f7e1952cc78f2d6baab678adc1b772d936c6583def489e524cb6669260405160405180910390a250565b60008073ffffffffffffffffffffffffffffffffffffffff168273ffffffffffffffffffffffffffffffffffffffff1614156138d1576040517f08c379a0000000000000000000000000000000000000000000000000000000008152600401808060200182810382526022815260200180614b116022913960400191505060405180910390fd5b8260000160008373ffffffffffffffffffffffffffffffffffffffff1673ffffffffffffffffffffffffffffffffffffffff16815260200190815260200160002060009054906101000a900460ff16905092915050565b60006139498473ffffffffffffffffffffffffffffffffffffffff166148e7565b6139565760019050613b09565b60008473ffffffffffffffffffffffffffffffffffffffff1663150b7a02338887876040518563ffffffff1660e01b8152600401808573ffffffffffffffffffffffffffffffffffffffff1673ffffffffffffffffffffffffffffffffffffffff1681526020018473ffffffffffffffffffffffffffffffffffffffff1673ffffffffffffffffffffffffffffffffffffffff16815260200183815260200180602001828103825283818151815260200191508051906020019080838360005b83811015613a31578082015181840152602081019050613a16565b50505050905090810190601f168015613a5e5780820380516001836020036101000a031916815260200191505b5095505050505050602060405180830381600087803b158015613a8057600080fd5b505af1158015613a94573d6000803e3d6000fd5b505050506040513d6020811015613aaa57600080fd5b8101908080519060200190929190505050905063150b7a0260e01b7bffffffffffffffffffffffffffffffffffffffffffffffffffffffff1916817bffffffffffffffffffffffffffffffffffffffffffffffffffffffff1916149150505b949350505050565b6001811415613b5f578373ffffffffffffffffffffffffffffffffffffffff16613b3a83612d7b565b73ffffffffffffffffffffffffffffffffffffffff1614613b5a57600080fd5b613ba0565b8373ffffffffffffffffffffffffffffffffffffffff16613b7f8361226e565b73ffffffffffffffffffffffffffffffffffffffff1614613b9f57600080fd5b5b600073ffffffffffffffffffffffffffffffffffffffff168373ffffffffffffffffffffffffffffffffffffffff161415613bda57600080fd5b613be48282613108565b6002811415613c0057613bf6826135d5565b613bff8261304a565b5b613c58600360008673ffffffffffffffffffffffffffffffffffffffff1673ffffffffffffffffffffffffffffffffffffffff16815260200190815260200160002060008381526020019081526020016000206148fa565b613cb0600360008573ffffffffffffffffffffffffffffffffffffffff1673ffffffffffffffffffffffffffffffffffffffff168152602001908152602001600020600083815260200190815260200160002061491d565b8260016000848152602001908152602001600020600083815260200190815260200160002060006101000a81548173ffffffffffffffffffffffffffffffffffffffff021916908373ffffffffffffffffffffffffffffffffffffffff1602179055506001811415613db357818373ffffffffffffffffffffffffffffffffffffffff168573ffffffffffffffffffffffffffffffffffffffff167f65f4ec73ce02035b6afc3f2f2125216c5138cd9067bce6ebbdc3b84816fd13ed33604051808273ffffffffffffffffffffffffffffffffffffffff1673ffffffffffffffffffffffffffffffffffffffff16815260200191505060405180910390a4613e46565b818373ffffffffffffffffffffffffffffffffffffffff168573ffffffffffffffffffffffffffffffffffffffff167fcb841bc9006096b45791cffe31afee827510e6dc0a8381bdbc047d6ab332960133604051808273ffffffffffffffffffffffffffffffffffffffff1673ffffffffffffffffffffffffffffffffffffffff16815260200191505060405180910390a45b50505050565b6000613eb560016009600085815260200190815260200160002060008773ffffffffffffffffffffffffffffffffffffffff1673ffffffffffffffffffffffffffffffffffffffff1681526020019081526020016000208054905061493390919063ffffffff16565b90506000600a60008481526020019081526020016000206000858152602001908152602001600020549050818114613fe65760006009600085815260200190815260200160002060008773ffffffffffffffffffffffffffffffffffffffff1673ffffffffffffffffffffffffffffffffffffffff1681526020019081526020016000208381548110613f4457fe5b90600052602060002001549050806009600086815260200190815260200160002060008873ffffffffffffffffffffffffffffffffffffffff1673ffffffffffffffffffffffffffffffffffffffff1681526020019081526020016000208381548110613fad57fe5b906000526020600020018190555081600a6000868152602001908152602001600020600083815260200190815260200160002081905550505b6009600084815260200190815260200160002060008673ffffffffffffffffffffffffffffffffffffffff1673ffffffffffffffffffffffffffffffffffffffff1681526020019081526020016000208054809190600190036140499190614a3c565b505050505050565b6009600082815260200190815260200160002060008473ffffffffffffffffffffffffffffffffffffffff1673ffffffffffffffffffffffffffffffffffffffff16815260200190815260200160002080549050600a60008381526020019081526020016000206000848152602001908152602001600020819055506009600082815260200190815260200160002060008473ffffffffffffffffffffffffffffffffffffffff1673ffffffffffffffffffffffffffffffffffffffff168152602001908152602001600020829080600181540180825580915050906001820390600052602060002001600090919290919091505550505050565b600073ffffffffffffffffffffffffffffffffffffffff168273ffffffffffffffffffffffffffffffffffffffff1614156141ef576040517f08c379a000000000000000000000000000000000000000000000000000000000815260040180806020018281038252601e8152602001807f455243583a206d696e7420746f20746865207a65726f2061646472657373000081525060200191505060405180910390fd5b6141fa8160016131e9565b1561426d576040517f08c379a00000000000000000000000000000000000000000000000000000000081526004018080602001828103825260198152602001807f455243583a206974656d20616c7265616479206d696e7465640000000000000081525060200191505060405180910390fd5b816001600083815260200190815260200160002060006001815260200190815260200160002060006101000a81548173ffffffffffffffffffffffffffffffffffffffff021916908373ffffffffffffffffffffffffffffffffffffffff160217905550816001600083815260200190815260200160002060006002815260200190815260200160002060006101000a81548173ffffffffffffffffffffffffffffffffffffffff021916908373ffffffffffffffffffffffffffffffffffffffff16021790555061438e600360008473ffffffffffffffffffffffffffffffffffffffff1673ffffffffffffffffffffffffffffffffffffffff16815260200190815260200160002060006001815260200190815260200160002061491d565b6143e7600360008473ffffffffffffffffffffffffffffffffffffffff1673ffffffffffffffffffffffffffffffffffffffff16815260200190815260200160002060006002815260200190815260200160002061491d565b808273ffffffffffffffffffffffffffffffffffffffff16600073ffffffffffffffffffffffffffffffffffffffff167f65f4ec73ce02035b6afc3f2f2125216c5138cd9067bce6ebbdc3b84816fd13ed33604051808273ffffffffffffffffffffffffffffffffffffffff1673ffffffffffffffffffffffffffffffffffffffff16815260200191505060405180910390a4808273ffffffffffffffffffffffffffffffffffffffff16600073ffffffffffffffffffffffffffffffffffffffff167fcb841bc9006096b45791cffe31afee827510e6dc0a8381bdbc047d6ab332960133604051808273ffffffffffffffffffffffffffffffffffffffff1673ffffffffffffffffffffffffffffffffffffffff16815260200191505060405180910390a45050565b600b80549050600c600083815260200190815260200160002081905550600b81908060018154018082558091505090600182039060005260206000200160009091929091909150555050565b600061457e8573ffffffffffffffffffffffffffffffffffffffff166148e7565b61458b5760019050614746565b60008573ffffffffffffffffffffffffffffffffffffffff16631c14516233898888886040518663ffffffff1660e01b8152600401808673ffffffffffffffffffffffffffffffffffffffff1673ffffffffffffffffffffffffffffffffffffffff1681526020018573ffffffffffffffffffffffffffffffffffffffff1673ffffffffffffffffffffffffffffffffffffffff16815260200184815260200183815260200180602001828103825283818151815260200191508051906020019080838360005b8381101561466d578082015181840152602081019050614652565b50505050905090810190601f16801561469a5780820380516001836020036101000a031916815260200191505b509650505050505050602060405180830381600087803b1580156146bd57600080fd5b505af11580156146d1573d6000803e3d6000fd5b505050506040513d60208110156146e757600080fd5b81019080805190602001909291905050509050631111111160e01b7bffffffffffffffffffffffffffffffffffffffffffffffffffffffff1916817bffffffffffffffffffffffffffffffffffffffffffffffffffffffff1916149150505b95945050505050565b614759828261384a565b156147cc576040517f08c379a000000000000000000000000000000000000000000000000000000000815260040180806020018281038252601f8152602001807f526f6c65733a206163636f756e7420616c72656164792068617320726f6c650081525060200191505060405180910390fd5b60018260000160008373ffffffffffffffffffffffffffffffffffffffff1673ffffffffffffffffffffffffffffffffffffffff16815260200190815260200160002060006101000a81548160ff0219169083151502179055505050565b614834828261384a565b614889576040517f08c379a0000000000000000000000000000000000000000000000000000000008152600401808060200182810382526021815260200180614af06021913960400191505060405180910390fd5b60008260000160008373ffffffffffffffffffffffffffffffffffffffff1673ffffffffffffffffffffffffffffffffffffffff16815260200190815260200160002060006101000a81548160ff0219169083151502179055505050565b600080823b905060008111915050919050565b6149126001826000015461493390919063ffffffff16565b816000018190555050565b6001816000016000828254019250508190555050565b6000828211156149ab576040517f08c379a000000000000000000000000000000000000000000000000000000000815260040180806020018281038252601e8152602001807f536166654d6174683a207375627472616374696f6e206f766572666c6f77000081525060200191505060405180910390fd5b600082840390508091505092915050565b828054600181600116156101000203166002900490600052602060002090601f016020900481019282601f106149fd57805160ff1916838001178555614a2b565b82800160010185558215614a2b579182015b82811115614a2a578251825591602001919060010190614a0f565b5b509050614a389190614a68565b5090565b815481835581811115614a6357818360005260206000209182019101614a629190614a68565b5b505050565b614a8a91905b80821115614a86576000816000905550600101614a6e565b5090565b9056fe4552433732313a207472616e7366657220746f206e6f6e20455243373231526563656976657220696d706c656d656e7465724d696e746572526f6c653a2063616c6c657220646f6573206e6f74206861766520746865204d696e74657220726f6c65526f6c65733a206163636f756e7420646f6573206e6f74206861766520726f6c65526f6c65733a206163636f756e7420697320746865207a65726f2061646472657373455243583a207472616e7366657220746f206e6f6e2045524358526563656976657220696d706c656d656e746572a265627a7a72315820978ccdf0eabd5e4225e30d22b4457f1cb467bc4d77fdaa09ea4b1080e288bd1564736f6c63430005100032617070726f766554656e616e74526967687428616464726573732c2075696e7432353629617070726f7665466f724f776e657228616464726573732c2075696e7432353629736166655472616e736665725573657228616464726573732c20616464726573732c2075696e743235362c206279746573296973417070726f766564466f72416c6c28616464726573732c206164647265737329736166655472616e736665724f776e657228616464726573732c20616464726573732c2075696e7432353629526f6c65733a206163636f756e7420697320746865207a65726f2061646472657373736166655472616e736665724f776e657228616464726573732c20616464726573732c2075696e743235362c206279746573296974656d4f664f776e65724279496e64657828616464726573732c75696e743235362c75696e7432353629736166655472616e736665725573657228616464726573732c20616464726573732c2075696e7432353629",
  "source": "\npragma solidity ^0.5.0;\n\nimport '../../Libraries/access/roles/MinterRole.sol';\nimport './ERCXFull.sol';\n\ncontract ERCXMintable is ERCXFull, MinterRole {\n  event MintingFinished();\n\n  bool private _mintingFinished = false;\n\n  modifier onlyBeforeMintingFinished() {\n    require(!_mintingFinished);\n    _;\n  }\n\n  constructor(string memory name, string memory symbol) ERCXFull(name, symbol)\n    public\n  {\n  }\n\n  /**\n   * @return true if the minting is finished.\n   */\n  function mintingFinished() public view returns(bool) {\n    return _mintingFinished;\n  }\n\n  /**\n   * @dev Function to mint items\n   * @param to The address that will receive the minted items.\n   * @param itemId The item id to mint.\n   * @return A boolean that indicates if the operation was successful.\n   */\n  function mint(\n    address to,\n    uint256 itemId\n  )\n    public\n    onlyMinter\n    onlyBeforeMintingFinished\n    returns (bool)\n  {\n    _mint(to, itemId);\n    return true;\n  }\n\n  function mintWithItemURI(\n    address to,\n    uint256 itemId,\n    string memory itemURI\n  )\n    public\n    onlyMinter\n    onlyBeforeMintingFinished\n    returns (bool)\n  {\n    mint(to, itemId);\n    _setItemURI(itemId, itemURI);\n    return true;\n  }\n\n  /**\n   * @dev Function to stop minting new items.\n   * @return True if the operation was successful.\n   */\n  function finishMinting()\n    public\n    onlyMinter\n    onlyBeforeMintingFinished\n    returns (bool)\n  {\n    _mintingFinished = true;\n    emit MintingFinished();\n    return true;\n  }\n}",
  "sourcePath": "/home/bitnami/BLK_Micro/dApp-nodeJS-webpack/app/contracts/ERCX/Contract/ERCXMintable.sol",
  "compiler": {
    "name": "solc",
    "version": "0.5.16+commit.9c3226ce.Emscripten.clang"
  },
  "schemaVersion": "3.4.4",
  "updatedAt": "2022-01-15T03:42:33.644Z",
  "devdoc": {
    "methods": {
      "approveForOwner(address,uint256)": {
        "details": "Approves another address to transfer the owner of the given item ID The zero address indicates there is no approved address. There can only be one approved address per item at a given time. Can only be called by the item owner or an approved operator.",
        "params": {
          "itemId": "uint256 ID of the item to be approved",
          "to": "address to be approved for the given item ID"
        }
      },
      "approveForUser(address,uint256)": {
        "details": "Approves another address to transfer the user of the given item ID The zero address indicates there is no approved address. There can only be one approved address per item at a given time. Can only be called by the item owner or an approved operator.",
        "params": {
          "to": "address to be approved for the given item ID"
        }
      },
      "approveLien(address,uint256)": {
        "details": "Approves another address to set lien contract for the given item ID The zero address indicates there is no approved address. There can only be one approved address per item at a given time. Can only be called by the item owner or an approved operator.",
        "params": {
          "itemId": "uint256 ID of the item to be approved",
          "to": "address to be approved for the given item ID"
        }
      },
      "approveTenantRight(address,uint256)": {
        "details": "Approves another address to set tenant right agreement for the given item ID The zero address indicates there is no approved address. There can only be one approved address per item at a given time. Can only be called by the item owner or an approved operator.",
        "params": {
          "itemId": "uint256 ID of the item to be approved",
          "to": "address to be approved for the given item ID"
        }
      },
      "balanceOfOwner(address)": {
        "details": "Gets the balance of the specified address",
        "params": {
          "owner": "address to query the balance of"
        },
        "return": "uint256 representing the amount of items owned by the passed address in the specified layer"
      },
      "balanceOfUser(address)": {
        "details": "Gets the balance of the specified address",
        "params": {
          "user": "address to query the balance of"
        },
        "return": "uint256 representing the amount of items owned by the passed address"
      },
      "baseURI()": {
        "details": "Returns the base URI set via {_setBaseURI}. This will be automatically added as a preffix in {itemURI} to each item's URI, when they are non-empty."
      },
      "finishMinting()": {
        "details": "Function to stop minting new items.",
        "return": "True if the operation was successful."
      },
      "getApprovedForOwner(uint256)": {
        "details": "Gets the approved address for the of the item ID, or zero if no address set Reverts if the item ID does not exist.",
        "params": {
          "itemId": "uint256 ID of the item to query the approval o"
        },
        "return": "address currently approved for the given item ID"
      },
      "getApprovedForUser(uint256)": {
        "details": "Gets the approved address for the user of the item ID, or zero if no address set Reverts if the item ID does not exist.",
        "params": {
          "itemId": "uint256 ID of the item to query the approval of"
        },
        "return": "address currently approved for the given item ID"
      },
      "getApprovedLien(uint256)": {
        "details": "Gets the approved address for setting lien for a item ID, or zero if no address set Reverts if the item ID does not exist.",
        "params": {
          "itemId": "uint256 ID of the item to query the approval of"
        },
        "return": "address currently approved for the given item ID"
      },
      "getApprovedTenantRight(uint256)": {
        "details": "Gets the approved address for setting tenant right for a item ID, or zero if no address set Reverts if the item ID does not exist.",
        "params": {
          "itemId": "uint256 ID of the item to query the approval of"
        },
        "return": "address currently approved for the given item ID"
      },
      "getCurrentLien(uint256)": {
        "details": "Gets the current lien agreement address, or zero if no address set Reverts if the item ID does not exist.",
        "params": {
          "itemId": "uint256 ID of the item to query the lien address"
        },
        "return": "address of the lien agreement address for the given item ID"
      },
      "getCurrentTenantRight(uint256)": {
        "details": "Gets the current tenant right agreement address, or zero if no address set Reverts if the item ID does not exist.",
        "params": {
          "itemId": "uint256 ID of the item to query the tenant right address"
        },
        "return": "address of the tenant right agreement address for the given item ID"
      },
      "isApprovedForAll(address,address)": {
        "details": "Tells whether an operator is approved by a given owner",
        "params": {
          "operator": "operator address which you want to query the approval of",
          "owner": "owner address which you want to query the approval of"
        },
        "return": "bool whether the given operator is approved by the given owner"
      },
      "itemByIndex(uint256)": {
        "details": "Gets the item ID at a given index of all the items in this contract Reverts if the index is greater or equal to the total number of items",
        "params": {
          "index": "uint256 representing the index to be accessed of the items list"
        },
        "return": "uint256 item ID at the given index of the items list"
      },
      "itemOfOwnerByIndex(address,uint256)": {
        "details": "Gets the item ID at a given index of the items list of the requested owner",
        "params": {
          "index": "uint256 representing the index to be accessed of the requested items list",
          "owner": "address owning the items list to be accessed"
        },
        "return": "uint256 item ID at the given index of the items list owned by the requested address"
      },
      "itemOfUserByIndex(address,uint256)": {
        "details": "Gets the item ID at a given index of the items list of the requested user",
        "params": {
          "index": "uint256 representing the index to be accessed of the requested items list",
          "user": "address owning the items list to be accessed"
        },
        "return": "uint256 item ID at the given index of the items list owned by the requested address"
      },
      "itemURI(uint256)": {
        "details": "Returns an URI for a given item ID Throws if the item ID does not exist. May return an empty string.",
        "params": {
          "itemId": "uint256 ID of the item to query"
        }
      },
      "mint(address,uint256)": {
        "details": "Function to mint items",
        "params": {
          "itemId": "The item id to mint.",
          "to": "The address that will receive the minted items."
        },
        "return": "A boolean that indicates if the operation was successful."
      },
      "mintingFinished()": {
        "return": "true if the minting is finished."
      },
      "name()": {
        "details": "Gets the item name",
        "return": "string representing the item name"
      },
      "revokeLien(uint256)": {
        "details": "Revoke the lien agreements. Only the lien address can revoke.",
        "params": {
          "itemId": "uint256 ID of the item"
        }
      },
      "revokeTenantRight(uint256)": {
        "details": "Revoke the tenant right agreement. Only the lien address can revoke.",
        "params": {
          "itemId": "uint256 ID of the item"
        }
      },
      "safeTransferOwner(address,address,uint256)": {
        "details": "Safely transfers the ownership of a given item ID to another address If the target address is a contract, it must implement `onERCXReceived`, which is called upon a safe transfer, and return the magic value `bytes4(keccak256(\"onERCXReceived(address,address,uint256,bytes)\"))`; otherwise, the transfer is reverted.   * Requires the msg sender to be the owner, approved, or operator",
        "params": {
          "from": "current owner of the item",
          "itemId": "uint256 ID of the item to be transferred",
          "to": "address to receive the ownership of the given item ID"
        }
      },
      "safeTransferOwner(address,address,uint256,bytes)": {
        "details": "Safely transfers the ownership of a given item ID to another address If the target address is a contract, it must implement `onERCXReceived`, which is called upon a safe transfer, and return the magic value `bytes4(keccak256(\"onERCXReceived(address,address,uint256,bytes)\"))`; otherwise, the transfer is reverted. Requires the msg sender to be the owner, approved, or operator",
        "params": {
          "data": "bytes data to send along with a safe transfer check",
          "from": "current owner of the item",
          "itemId": "uint256 ID of the item to be transferred",
          "to": "address to receive the ownership of the given item ID"
        }
      },
      "safeTransferUser(address,address,uint256)": {
        "details": "Safely transfers the user of a given item ID to another address If the target address is a contract, it must implement `onERCXReceived`, which is called upon a safe transfer, and return the magic value `bytes4(keccak256(\"onERCXReceived(address,address,uint256,bytes)\"))`; otherwise, the transfer is reverted.   * Requires the msg sender to be the owner, approved, or operator",
        "params": {
          "from": "current owner of the item",
          "itemId": "uint256 ID of the item to be transferred",
          "to": "address to receive the ownership of the given item ID"
        }
      },
      "safeTransferUser(address,address,uint256,bytes)": {
        "details": "Safely transfers the user of a given item ID to another address If the target address is a contract, it must implement `onERCXReceived`, which is called upon a safe transfer, and return the magic value `bytes4(keccak256(\"onERCXReceived(address,address,uint256,bytes)\"))`; otherwise, the transfer is reverted. Requires the msg sender to be the owner, approved, or operator",
        "params": {
          "data": "bytes data to send along with a safe transfer check",
          "from": "current owner of the item",
          "itemId": "uint256 ID of the item to be transferred",
          "to": "address to receive the ownership of the given item ID"
        }
      },
      "setApprovalForAll(address,bool)": {
        "details": "Sets or unsets the approval of a given operator An operator is allowed to transfer all items of the sender on their behalf",
        "params": {
          "approved": "representing the status of the approval to be set",
          "to": "operator address to set the approval"
        }
      },
      "setLien(uint256)": {
        "details": "Sets lien agreements to already approved address The lien address is allowed to transfer all items of the sender on their behalf",
        "params": {
          "itemId": "uint256 ID of the item"
        }
      },
      "setTenantRight(uint256)": {
        "details": "Sets the tenant right agreement to already approved address The lien address is allowed to transfer all items of the sender on their behalf",
        "params": {
          "itemId": "uint256 ID of the item"
        }
      },
      "supportsInterface(bytes4)": {
        "details": "See `IERC165.supportsInterface`.     * Time complexity O(1), guaranteed to always use less than 30 000 gas."
      },
      "symbol()": {
        "details": "Gets the item symbol",
        "return": "string representing the item symbol"
      },
      "totalNumberOfItems()": {
        "details": "Gets the total amount of items stored by the contract",
        "return": "uint256 representing the total amount of items"
      },
      "userOf(uint256)": {
        "details": "Gets the user of the specified item ID",
        "params": {
          "itemId": "uint256 ID of the item to query the user of"
        },
        "return": "owner address currently marked as the owner of the given item ID"
      }
    }
  },
  "userdoc": {
    "methods": {}
  }
}