{
  "contractName": "ERCX",
  "abi": [
    {
      "inputs": [],
      "payable": false,
      "stateMutability": "nonpayable",
      "type": "constructor"
    },
    {
      "anonymous": false,
      "inputs": [
        {
          "indexed": true,
          "internalType": "address",
          "name": "owner",
          "type": "address"
        },
        {
          "indexed": true,
          "internalType": "address",
          "name": "operator",
          "type": "address"
        },
        {
          "indexed": false,
          "internalType": "bool",
          "name": "approved",
          "type": "bool"
        }
      ],
      "name": "ApprovalForAll",
      "type": "event"
    },
    {
      "anonymous": false,
      "inputs": [
        {
          "indexed": true,
          "internalType": "address",
          "name": "owner",
          "type": "address"
        },
        {
          "indexed": true,
          "internalType": "address",
          "name": "approved",
          "type": "address"
        },
        {
          "indexed": false,
          "internalType": "uint256",
          "name": "itemId",
          "type": "uint256"
        }
      ],
      "name": "ApprovalForOwner",
      "type": "event"
    },
    {
      "anonymous": false,
      "inputs": [
        {
          "indexed": true,
          "internalType": "address",
          "name": "user",
          "type": "address"
        },
        {
          "indexed": true,
          "internalType": "address",
          "name": "approved",
          "type": "address"
        },
        {
          "indexed": false,
          "internalType": "uint256",
          "name": "itemId",
          "type": "uint256"
        }
      ],
      "name": "ApprovalForUser",
      "type": "event"
    },
    {
      "anonymous": false,
      "inputs": [
        {
          "indexed": true,
          "internalType": "address",
          "name": "to",
          "type": "address"
        },
        {
          "indexed": true,
          "internalType": "uint256",
          "name": "itemId",
          "type": "uint256"
        }
      ],
      "name": "LienApproval",
      "type": "event"
    },
    {
      "anonymous": false,
      "inputs": [
        {
          "indexed": true,
          "internalType": "address",
          "name": "to",
          "type": "address"
        },
        {
          "indexed": true,
          "internalType": "uint256",
          "name": "itemId",
          "type": "uint256"
        },
        {
          "indexed": false,
          "internalType": "bool",
          "name": "status",
          "type": "bool"
        }
      ],
      "name": "LienSet",
      "type": "event"
    },
    {
      "anonymous": false,
      "inputs": [
        {
          "indexed": true,
          "internalType": "address",
          "name": "to",
          "type": "address"
        },
        {
          "indexed": true,
          "internalType": "uint256",
          "name": "itemId",
          "type": "uint256"
        }
      ],
      "name": "TenantRightApproval",
      "type": "event"
    },
    {
      "anonymous": false,
      "inputs": [
        {
          "indexed": true,
          "internalType": "address",
          "name": "to",
          "type": "address"
        },
        {
          "indexed": true,
          "internalType": "uint256",
          "name": "itemId",
          "type": "uint256"
        },
        {
          "indexed": false,
          "internalType": "bool",
          "name": "status",
          "type": "bool"
        }
      ],
      "name": "TenantRightSet",
      "type": "event"
    },
    {
      "anonymous": false,
      "inputs": [
        {
          "indexed": true,
          "internalType": "address",
          "name": "from",
          "type": "address"
        },
        {
          "indexed": true,
          "internalType": "address",
          "name": "to",
          "type": "address"
        },
        {
          "indexed": true,
          "internalType": "uint256",
          "name": "itemId",
          "type": "uint256"
        },
        {
          "indexed": false,
          "internalType": "address",
          "name": "operator",
          "type": "address"
        }
      ],
      "name": "TransferOwner",
      "type": "event"
    },
    {
      "anonymous": false,
      "inputs": [
        {
          "indexed": true,
          "internalType": "address",
          "name": "from",
          "type": "address"
        },
        {
          "indexed": true,
          "internalType": "address",
          "name": "to",
          "type": "address"
        },
        {
          "indexed": true,
          "internalType": "uint256",
          "name": "itemId",
          "type": "uint256"
        },
        {
          "indexed": false,
          "internalType": "address",
          "name": "operator",
          "type": "address"
        }
      ],
      "name": "TransferUser",
      "type": "event"
    },
    {
      "constant": true,
      "inputs": [
        {
          "internalType": "bytes4",
          "name": "interfaceId",
          "type": "bytes4"
        }
      ],
      "name": "supportsInterface",
      "outputs": [
        {
          "internalType": "bool",
          "name": "",
          "type": "bool"
        }
      ],
      "payable": false,
      "stateMutability": "view",
      "type": "function"
    },
    {
      "constant": true,
      "inputs": [
        {
          "internalType": "address",
          "name": "owner",
          "type": "address"
        }
      ],
      "name": "balanceOfOwner",
      "outputs": [
        {
          "internalType": "uint256",
          "name": "",
          "type": "uint256"
        }
      ],
      "payable": false,
      "stateMutability": "view",
      "type": "function"
    },
    {
      "constant": true,
      "inputs": [
        {
          "internalType": "address",
          "name": "user",
          "type": "address"
        }
      ],
      "name": "balanceOfUser",
      "outputs": [
        {
          "internalType": "uint256",
          "name": "",
          "type": "uint256"
        }
      ],
      "payable": false,
      "stateMutability": "view",
      "type": "function"
    },
    {
      "constant": true,
      "inputs": [
        {
          "internalType": "uint256",
          "name": "itemId",
          "type": "uint256"
        }
      ],
      "name": "userOf",
      "outputs": [
        {
          "internalType": "address",
          "name": "",
          "type": "address"
        }
      ],
      "payable": false,
      "stateMutability": "view",
      "type": "function"
    },
    {
      "constant": true,
      "inputs": [
        {
          "internalType": "uint256",
          "name": "itemId",
          "type": "uint256"
        }
      ],
      "name": "ownerOf",
      "outputs": [
        {
          "internalType": "address",
          "name": "",
          "type": "address"
        }
      ],
      "payable": false,
      "stateMutability": "view",
      "type": "function"
    },
    {
      "constant": false,
      "inputs": [
        {
          "internalType": "address",
          "name": "to",
          "type": "address"
        },
        {
          "internalType": "uint256",
          "name": "itemId",
          "type": "uint256"
        }
      ],
      "name": "approveForUser",
      "outputs": [],
      "payable": false,
      "stateMutability": "nonpayable",
      "type": "function"
    },
    {
      "constant": true,
      "inputs": [
        {
          "internalType": "uint256",
          "name": "itemId",
          "type": "uint256"
        }
      ],
      "name": "getApprovedForUser",
      "outputs": [
        {
          "internalType": "address",
          "name": "",
          "type": "address"
        }
      ],
      "payable": false,
      "stateMutability": "view",
      "type": "function"
    },
    {
      "constant": false,
      "inputs": [
        {
          "internalType": "address",
          "name": "to",
          "type": "address"
        },
        {
          "internalType": "uint256",
          "name": "itemId",
          "type": "uint256"
        }
      ],
      "name": "approveForOwner",
      "outputs": [],
      "payable": false,
      "stateMutability": "nonpayable",
      "type": "function"
    },
    {
      "constant": true,
      "inputs": [
        {
          "internalType": "uint256",
          "name": "itemId",
          "type": "uint256"
        }
      ],
      "name": "getApprovedForOwner",
      "outputs": [
        {
          "internalType": "address",
          "name": "",
          "type": "address"
        }
      ],
      "payable": false,
      "stateMutability": "view",
      "type": "function"
    },
    {
      "constant": false,
      "inputs": [
        {
          "internalType": "address",
          "name": "to",
          "type": "address"
        },
        {
          "internalType": "bool",
          "name": "approved",
          "type": "bool"
        }
      ],
      "name": "setApprovalForAll",
      "outputs": [],
      "payable": false,
      "stateMutability": "nonpayable",
      "type": "function"
    },
    {
      "constant": true,
      "inputs": [
        {
          "internalType": "address",
          "name": "owner",
          "type": "address"
        },
        {
          "internalType": "address",
          "name": "operator",
          "type": "address"
        }
      ],
      "name": "isApprovedForAll",
      "outputs": [
        {
          "internalType": "bool",
          "name": "",
          "type": "bool"
        }
      ],
      "payable": false,
      "stateMutability": "view",
      "type": "function"
    },
    {
      "constant": false,
      "inputs": [
        {
          "internalType": "address",
          "name": "to",
          "type": "address"
        },
        {
          "internalType": "uint256",
          "name": "itemId",
          "type": "uint256"
        }
      ],
      "name": "approveLien",
      "outputs": [],
      "payable": false,
      "stateMutability": "nonpayable",
      "type": "function"
    },
    {
      "constant": true,
      "inputs": [
        {
          "internalType": "uint256",
          "name": "itemId",
          "type": "uint256"
        }
      ],
      "name": "getApprovedLien",
      "outputs": [
        {
          "internalType": "address",
          "name": "",
          "type": "address"
        }
      ],
      "payable": false,
      "stateMutability": "view",
      "type": "function"
    },
    {
      "constant": false,
      "inputs": [
        {
          "internalType": "uint256",
          "name": "itemId",
          "type": "uint256"
        }
      ],
      "name": "setLien",
      "outputs": [],
      "payable": false,
      "stateMutability": "nonpayable",
      "type": "function"
    },
    {
      "constant": true,
      "inputs": [
        {
          "internalType": "uint256",
          "name": "itemId",
          "type": "uint256"
        }
      ],
      "name": "getCurrentLien",
      "outputs": [
        {
          "internalType": "address",
          "name": "",
          "type": "address"
        }
      ],
      "payable": false,
      "stateMutability": "view",
      "type": "function"
    },
    {
      "constant": false,
      "inputs": [
        {
          "internalType": "uint256",
          "name": "itemId",
          "type": "uint256"
        }
      ],
      "name": "revokeLien",
      "outputs": [],
      "payable": false,
      "stateMutability": "nonpayable",
      "type": "function"
    },
    {
      "constant": false,
      "inputs": [
        {
          "internalType": "address",
          "name": "to",
          "type": "address"
        },
        {
          "internalType": "uint256",
          "name": "itemId",
          "type": "uint256"
        }
      ],
      "name": "approveTenantRight",
      "outputs": [],
      "payable": false,
      "stateMutability": "nonpayable",
      "type": "function"
    },
    {
      "constant": true,
      "inputs": [
        {
          "internalType": "uint256",
          "name": "itemId",
          "type": "uint256"
        }
      ],
      "name": "getApprovedTenantRight",
      "outputs": [
        {
          "internalType": "address",
          "name": "",
          "type": "address"
        }
      ],
      "payable": false,
      "stateMutability": "view",
      "type": "function"
    },
    {
      "constant": false,
      "inputs": [
        {
          "internalType": "uint256",
          "name": "itemId",
          "type": "uint256"
        }
      ],
      "name": "setTenantRight",
      "outputs": [],
      "payable": false,
      "stateMutability": "nonpayable",
      "type": "function"
    },
    {
      "constant": true,
      "inputs": [
        {
          "internalType": "uint256",
          "name": "itemId",
          "type": "uint256"
        }
      ],
      "name": "getCurrentTenantRight",
      "outputs": [
        {
          "internalType": "address",
          "name": "",
          "type": "address"
        }
      ],
      "payable": false,
      "stateMutability": "view",
      "type": "function"
    },
    {
      "constant": false,
      "inputs": [
        {
          "internalType": "uint256",
          "name": "itemId",
          "type": "uint256"
        }
      ],
      "name": "revokeTenantRight",
      "outputs": [],
      "payable": false,
      "stateMutability": "nonpayable",
      "type": "function"
    },
    {
      "constant": false,
      "inputs": [
        {
          "internalType": "address",
          "name": "from",
          "type": "address"
        },
        {
          "internalType": "address",
          "name": "to",
          "type": "address"
        },
        {
          "internalType": "uint256",
          "name": "itemId",
          "type": "uint256"
        },
        {
          "internalType": "bytes",
          "name": "data",
          "type": "bytes"
        }
      ],
      "name": "safeTransferUser",
      "outputs": [],
      "payable": false,
      "stateMutability": "nonpayable",
      "type": "function"
    },
    {
      "constant": false,
      "inputs": [
        {
          "internalType": "address",
          "name": "from",
          "type": "address"
        },
        {
          "internalType": "address",
          "name": "to",
          "type": "address"
        },
        {
          "internalType": "uint256",
          "name": "itemId",
          "type": "uint256"
        }
      ],
      "name": "safeTransferUser",
      "outputs": [],
      "payable": false,
      "stateMutability": "nonpayable",
      "type": "function"
    },
    {
      "constant": false,
      "inputs": [
        {
          "internalType": "address",
          "name": "from",
          "type": "address"
        },
        {
          "internalType": "address",
          "name": "to",
          "type": "address"
        },
        {
          "internalType": "uint256",
          "name": "itemId",
          "type": "uint256"
        },
        {
          "internalType": "bytes",
          "name": "data",
          "type": "bytes"
        }
      ],
      "name": "safeTransferOwner",
      "outputs": [],
      "payable": false,
      "stateMutability": "nonpayable",
      "type": "function"
    },
    {
      "constant": false,
      "inputs": [
        {
          "internalType": "address",
          "name": "from",
          "type": "address"
        },
        {
          "internalType": "address",
          "name": "to",
          "type": "address"
        },
        {
          "internalType": "uint256",
          "name": "itemId",
          "type": "uint256"
        }
      ],
      "name": "safeTransferOwner",
      "outputs": [],
      "payable": false,
      "stateMutability": "nonpayable",
      "type": "function"
    }
  ],
  "bytecode": "0x60806040523480156200001157600080fd5b506200002a6301ffc9a760e01b620004a360201b60201c565b6200049d60405180807f7265766f6b6554656e616e7452696768742875696e7432353629000000000000815250601a019050604051809103902060405180807f67657443757272656e7454656e616e7452696768742875696e74323536290000815250601e019050604051809103902060405180807f73657454656e616e7452696768742875696e74323536290000000000000000008152506017019050604051809103902060405180807f676574417070726f76656454656e616e7452696768742875696e743235362900815250601f0190506040518091039020604051808062002f66602491396024019050604051809103902060405180807f7265766f6b654c69656e2875696e7432353629000000000000000000000000008152506013019050604051809103902060405180807f67657443757272656e744c69656e2875696e74323536290000000000000000008152506017019050604051809103902060405180807f7365744c69656e2875696e7432353629000000000000000000000000000000008152506010019050604051809103902060405180807f676574417070726f7665644c69656e2875696e743235362900000000000000008152506018019050604051809103902060405180807f617070726f76654c69656e28616464726573732c2075696e7432353629000000815250601d0190506040518091039020604051808062002fdd602291396022019050604051809103902060405180807f736574417070726f76616c466f72416c6c28616464726573732c20626f6f6c298152506020019050604051809103902060405180807f676574417070726f766564466f72557365722875696e74323536290000000000815250601b019050604051809103902060405180807f617070726f7665466f725573657228616464726573732c2075696e74323536298152506020019050604051809103902060405180807f676574417070726f766564466f724f776e65722875696e743235362900000000815250601c0190506040518091039020604051808062002f8a6021913960210190506040518091039020604051808062002fab603291396032019050604051809103902060405180806200305e602b9139602b019050604051809103902060405180806200302b6033913960330190506040518091039020604051808062002fff602c9139602c019050604051809103902060405180807f757365724f662875696e74323536290000000000000000000000000000000000815250600f019050604051809103902060405180807f6f776e65724f662875696e7432353629000000000000000000000000000000008152506010019050604051809103902060405180807f62616c616e63654f6655736572286164647265737329000000000000000000008152506016019050604051809103902060405180807f62616c616e63654f664f776e6572286164647265737329000000000000000000815250601701905060405180910390201818181818181818181818181818181818181818181818620004a360201b60201c565b620005ac565b63ffffffff60e01b817bffffffffffffffffffffffffffffffffffffffffffffffffffffffff1916141562000540576040517f08c379a000000000000000000000000000000000000000000000000000000000815260040180806020018281038252601c8152602001807f4552433136353a20696e76616c696420696e746572666163652069640000000081525060200191505060405180910390fd5b6001600080837bffffffffffffffffffffffffffffffffffffffffffffffffffffffff19167bffffffffffffffffffffffffffffffffffffffffffffffffffffffff1916815260200190815260200160002060006101000a81548160ff02191690831515021790555050565b6129aa80620005bc6000396000f3fe608060405234801561001057600080fd5b50600436106101735760003560e01c80636352211e116100de578063c043f83c11610097578063d872095a11610071578063d872095a146109d9578063e985e9c514610a47578063ea4eb8f214610ac3578063ed7f723c14610b3157610173565b8063c043f83c146108a5578063c2f1f14a14610913578063c66130d71461098157610173565b80636352211e146106185780636494aa62146106865780637e8ca079146106d4578063a22cb46514610722578063a9c7518614610772578063b6f0a834146107a057610173565b80633593d11b116101305780633593d11b1461038d5780633b58452e146103fb57806347164724146104495780634cfd83be14610477578063578a930b1461057c57806362b21679146105aa57610173565b806301ffc9a7146101785780630b20055e146101dd5780630dca1c891461020b57806312cae7af146102795780631f11d46b146102d15780632afbf0191461033f575b600080fd5b6101c36004803603602081101561018e57600080fd5b8101908080357bffffffffffffffffffffffffffffffffffffffffffffffffffffffff19169060200190929190505050610b9f565b604051808215151515815260200191505060405180910390f35b610209600480360360208110156101f357600080fd5b8101908080359060200190929190505050610c06565b005b6102376004803603602081101561022157600080fd5b8101908080359060200190929190505050610d03565b604051808273ffffffffffffffffffffffffffffffffffffffff1673ffffffffffffffffffffffffffffffffffffffff16815260200191505060405180910390f35b6102bb6004803603602081101561028f57600080fd5b81019080803573ffffffffffffffffffffffffffffffffffffffff169060200190929190505050610d54565b6040518082815260200191505060405180910390f35b6102fd600480360360208110156102e757600080fd5b8101908080359060200190929190505050610df5565b604051808273ffffffffffffffffffffffffffffffffffffffff1673ffffffffffffffffffffffffffffffffffffffff16815260200191505060405180910390f35b61038b6004803603604081101561035557600080fd5b81019080803573ffffffffffffffffffffffffffffffffffffffff16906020019092919080359060200190929190505050610e46565b005b6103b9600480360360208110156103a357600080fd5b8101908080359060200190929190505050610f70565b604051808273ffffffffffffffffffffffffffffffffffffffff1673ffffffffffffffffffffffffffffffffffffffff16815260200191505060405180910390f35b6104476004803603604081101561041157600080fd5b81019080803573ffffffffffffffffffffffffffffffffffffffff16906020019092919080359060200190929190505050610fc1565b005b6104756004803603602081101561045f57600080fd5b8101908080359060200190929190505050611232565b005b61057a6004803603608081101561048d57600080fd5b81019080803573ffffffffffffffffffffffffffffffffffffffff169060200190929190803573ffffffffffffffffffffffffffffffffffffffff16906020019092919080359060200190929190803590602001906401000000008111156104f457600080fd5b82018360208201111561050657600080fd5b8035906020019184600183028401116401000000008311171561052857600080fd5b91908080601f016020809104026020016040519081016040528093929190818152602001838380828437600081840152601f19601f820116905080830192505050505050509192919290505050611324565b005b6105a86004803603602081101561059257600080fd5b810190808035906020019092919050505061134d565b005b6105d6600480360360208110156105c057600080fd5b8101908080359060200190929190505050611438565b604051808273ffffffffffffffffffffffffffffffffffffffff1673ffffffffffffffffffffffffffffffffffffffff16815260200191505060405180910390f35b6106446004803603602081101561062e57600080fd5b810190808035906020019092919050505061149b565b604051808273ffffffffffffffffffffffffffffffffffffffff1673ffffffffffffffffffffffffffffffffffffffff16815260200191505060405180910390f35b6106d26004803603604081101561069c57600080fd5b81019080803573ffffffffffffffffffffffffffffffffffffffff16906020019092919080359060200190929190505050611529565b005b610720600480360360408110156106ea57600080fd5b81019080803573ffffffffffffffffffffffffffffffffffffffff16906020019092919080359060200190929190505050611686565b005b6107706004803603604081101561073857600080fd5b81019080803573ffffffffffffffffffffffffffffffffffffffff1690602001909291908035151590602001909291905050506117b0565b005b61079e6004803603602081101561078857600080fd5b81019080803590602001909291905050506118ea565b005b6108a3600480360360808110156107b657600080fd5b81019080803573ffffffffffffffffffffffffffffffffffffffff169060200190929190803573ffffffffffffffffffffffffffffffffffffffff169060200190929190803590602001909291908035906020019064010000000081111561081d57600080fd5b82018360208201111561082f57600080fd5b8035906020019184600183028401116401000000008311171561085157600080fd5b91908080601f016020809104026020016040519081016040528093929190818152602001838380828437600081840152601f19601f8201169050808301925050505050505091929192905050506119d5565b005b6108d1600480360360208110156108bb57600080fd5b81019080803590602001909291905050506119fe565b604051808273ffffffffffffffffffffffffffffffffffffffff1673ffffffffffffffffffffffffffffffffffffffff16815260200191505060405180910390f35b61093f6004803603602081101561092957600080fd5b8101908080359060200190929190505050611a4f565b604051808273ffffffffffffffffffffffffffffffffffffffff1673ffffffffffffffffffffffffffffffffffffffff16815260200191505060405180910390f35b6109c36004803603602081101561099757600080fd5b81019080803573ffffffffffffffffffffffffffffffffffffffff169060200190929190505050611add565b6040518082815260200191505060405180910390f35b610a45600480360360608110156109ef57600080fd5b81019080803573ffffffffffffffffffffffffffffffffffffffff169060200190929190803573ffffffffffffffffffffffffffffffffffffffff16906020019092919080359060200190929190505050611b7e565b005b610aa960048036036040811015610a5d57600080fd5b81019080803573ffffffffffffffffffffffffffffffffffffffff169060200190929190803573ffffffffffffffffffffffffffffffffffffffff169060200190929190505050611b9e565b604051808215151515815260200191505060405180910390f35b610aef60048036036020811015610ad957600080fd5b8101908080359060200190929190505050611c32565b604051808273ffffffffffffffffffffffffffffffffffffffff1673ffffffffffffffffffffffffffffffffffffffff16815260200191505060405180910390f35b610b9d60048036036060811015610b4757600080fd5b81019080803573ffffffffffffffffffffffffffffffffffffffff169060200190929190803573ffffffffffffffffffffffffffffffffffffffff16906020019092919080359060200190929190505050611cfe565b005b6000806000837bffffffffffffffffffffffffffffffffffffffffffffffffffffffff19167bffffffffffffffffffffffffffffffffffffffffffffffffffffffff1916815260200190815260200160002060009054906101000a900460ff169050919050565b610c0f816119fe565b73ffffffffffffffffffffffffffffffffffffffff163373ffffffffffffffffffffffffffffffffffffffff1614610c4657600080fd5b336008600083815260200190815260200160002060006101000a81548173ffffffffffffffffffffffffffffffffffffffff021916908373ffffffffffffffffffffffffffffffffffffffff160217905550610ca181611d1e565b610cac816001611ddc565b803373ffffffffffffffffffffffffffffffffffffffff167f61f383bb3b27cd35ab1b0353eff732709f4d8c7ba28da80d9f11f58d6ab2c4776001604051808215151515815260200191505060405180910390a350565b6000610d10826002611ebd565b610d1957600080fd5b6008600083815260200190815260200160002060009054906101000a900473ffffffffffffffffffffffffffffffffffffffff169050919050565b60008073ffffffffffffffffffffffffffffffffffffffff168273ffffffffffffffffffffffffffffffffffffffff161415610d8f57600080fd5b6000610dea600360008573ffffffffffffffffffffffffffffffffffffffff1673ffffffffffffffffffffffffffffffffffffffff168152602001908152602001600020600060018152602001908152602001600020611f41565b905080915050919050565b6000610e02826002611ebd565b610e0b57600080fd5b6005600083815260200190815260200160002060009054906101000a900473ffffffffffffffffffffffffffffffffffffffff169050919050565b6000610e518261149b565b90508073ffffffffffffffffffffffffffffffffffffffff168373ffffffffffffffffffffffffffffffffffffffff161415610e8c57600080fd5b8073ffffffffffffffffffffffffffffffffffffffff163373ffffffffffffffffffffffffffffffffffffffff161480610ecc5750610ecb8133611b9e565b5b610ed557600080fd5b826007600084815260200190815260200160002060006101000a81548173ffffffffffffffffffffffffffffffffffffffff021916908373ffffffffffffffffffffffffffffffffffffffff160217905550818373ffffffffffffffffffffffffffffffffffffffff167f0c884ec16d4df04dda9d6b34c3952b016f96ebc493dfa60c89ad5edd81d4fb0b60405160405180910390a3505050565b6000610f7d826002611ebd565b610f8657600080fd5b6006600083815260200190815260200160002060009054906101000a900473ffffffffffffffffffffffffffffffffffffffff169050919050565b6000610fcc82611a4f565b90506000610fd98361149b565b90508073ffffffffffffffffffffffffffffffffffffffff168473ffffffffffffffffffffffffffffffffffffffff161415801561104357508173ffffffffffffffffffffffffffffffffffffffff168473ffffffffffffffffffffffffffffffffffffffff1614155b61104c57600080fd5b8173ffffffffffffffffffffffffffffffffffffffff163373ffffffffffffffffffffffffffffffffffffffff1614806110b157508073ffffffffffffffffffffffffffffffffffffffff163373ffffffffffffffffffffffffffffffffffffffff16145b806110c257506110c18233611b9e565b5b806110d357506110d28133611b9e565b5b6110dc57600080fd5b8073ffffffffffffffffffffffffffffffffffffffff163373ffffffffffffffffffffffffffffffffffffffff16148061111c575061111b8133611b9e565b5b1561116357600073ffffffffffffffffffffffffffffffffffffffff1661114284610d03565b73ffffffffffffffffffffffffffffffffffffffff161461116257600080fd5b5b836002600085815260200190815260200160002060006001815260200190815260200160002060006101000a81548173ffffffffffffffffffffffffffffffffffffffff021916908373ffffffffffffffffffffffffffffffffffffffff1602179055508373ffffffffffffffffffffffffffffffffffffffff168273ffffffffffffffffffffffffffffffffffffffff167fa09bf3dd3238f9ce83e7feb7735fc7c137f90979b5aae4f7f01ae73b24181570856040518082815260200191505060405180910390a350505050565b61123b81610df5565b73ffffffffffffffffffffffffffffffffffffffff163373ffffffffffffffffffffffffffffffffffffffff161461127257600080fd5b336006600083815260200190815260200160002060006101000a81548173ffffffffffffffffffffffffffffffffffffffff021916908373ffffffffffffffffffffffffffffffffffffffff1602179055506112cd81611f4f565b803373ffffffffffffffffffffffffffffffffffffffff167f697a63882786c4e4b3b3cc495872d3d6e9e7953336ac7d30cf6207086274bdd36001604051808215151515815260200191505060405180910390a350565b6113303383600161200d565b61133957600080fd5b6113478484846001856122d0565b50505050565b61135681610f70565b73ffffffffffffffffffffffffffffffffffffffff163373ffffffffffffffffffffffffffffffffffffffff161461138d57600080fd5b60006006600083815260200190815260200160002060006101000a81548173ffffffffffffffffffffffffffffffffffffffff021916908373ffffffffffffffffffffffffffffffffffffffff16021790555080600073ffffffffffffffffffffffffffffffffffffffff167f697a63882786c4e4b3b3cc495872d3d6e9e7953336ac7d30cf6207086274bdd36000604051808215151515815260200191505060405180910390a350565b6000611445826001611ebd565b61144e57600080fd5b6002600083815260200190815260200160002060006001815260200190815260200160002060009054906101000a900473ffffffffffffffffffffffffffffffffffffffff169050919050565b6000806001600084815260200190815260200160002060006002815260200190815260200160002060009054906101000a900473ffffffffffffffffffffffffffffffffffffffff169050600073ffffffffffffffffffffffffffffffffffffffff168173ffffffffffffffffffffffffffffffffffffffff16141561152057600080fd5b80915050919050565b60006115348261149b565b90508073ffffffffffffffffffffffffffffffffffffffff168373ffffffffffffffffffffffffffffffffffffffff16141561156f57600080fd5b8073ffffffffffffffffffffffffffffffffffffffff163373ffffffffffffffffffffffffffffffffffffffff1614806115af57506115ae8133611b9e565b5b6115b857600080fd5b826002600084815260200190815260200160002060006002815260200190815260200160002060006101000a81548173ffffffffffffffffffffffffffffffffffffffff021916908373ffffffffffffffffffffffffffffffffffffffff1602179055508273ffffffffffffffffffffffffffffffffffffffff168173ffffffffffffffffffffffffffffffffffffffff167f14ecf0643b070217924915201071c2f1842b5a0448d350f34dbbfe23616e07f3846040518082815260200191505060405180910390a3505050565b60006116918261149b565b90508073ffffffffffffffffffffffffffffffffffffffff168373ffffffffffffffffffffffffffffffffffffffff1614156116cc57600080fd5b8073ffffffffffffffffffffffffffffffffffffffff163373ffffffffffffffffffffffffffffffffffffffff16148061170c575061170b8133611b9e565b5b61171557600080fd5b826005600084815260200190815260200160002060006101000a81548173ffffffffffffffffffffffffffffffffffffffff021916908373ffffffffffffffffffffffffffffffffffffffff160217905550818373ffffffffffffffffffffffffffffffffffffffff167f1ce7b0eca78337592451ad94da2c4fab6d3ef935144d93c358e1b2dd1b07871460405160405180910390a3505050565b3373ffffffffffffffffffffffffffffffffffffffff168273ffffffffffffffffffffffffffffffffffffffff1614156117e957600080fd5b80600460003373ffffffffffffffffffffffffffffffffffffffff1673ffffffffffffffffffffffffffffffffffffffff16815260200190815260200160002060008473ffffffffffffffffffffffffffffffffffffffff1673ffffffffffffffffffffffffffffffffffffffff16815260200190815260200160002060006101000a81548160ff0219169083151502179055508173ffffffffffffffffffffffffffffffffffffffff163373ffffffffffffffffffffffffffffffffffffffff167f17307eab39ab6107e8899845ad3d59bd9653f200f220920489ca2b5937696c3183604051808215151515815260200191505060405180910390a35050565b6118f381610d03565b73ffffffffffffffffffffffffffffffffffffffff163373ffffffffffffffffffffffffffffffffffffffff161461192a57600080fd5b60006008600083815260200190815260200160002060006101000a81548173ffffffffffffffffffffffffffffffffffffffff021916908373ffffffffffffffffffffffffffffffffffffffff16021790555080600073ffffffffffffffffffffffffffffffffffffffff167f61f383bb3b27cd35ab1b0353eff732709f4d8c7ba28da80d9f11f58d6ab2c4776000604051808215151515815260200191505060405180910390a350565b6119e13383600261200d565b6119ea57600080fd5b6119f88484846002856122d0565b50505050565b6000611a0b826002611ebd565b611a1457600080fd5b6007600083815260200190815260200160002060009054906101000a900473ffffffffffffffffffffffffffffffffffffffff169050919050565b6000806001600084815260200190815260200160002060006001815260200190815260200160002060009054906101000a900473ffffffffffffffffffffffffffffffffffffffff169050600073ffffffffffffffffffffffffffffffffffffffff168173ffffffffffffffffffffffffffffffffffffffff161415611ad457600080fd5b80915050919050565b60008073ffffffffffffffffffffffffffffffffffffffff168273ffffffffffffffffffffffffffffffffffffffff161415611b1857600080fd5b6000611b73600360008573ffffffffffffffffffffffffffffffffffffffff1673ffffffffffffffffffffffffffffffffffffffff168152602001908152602001600020600060028152602001908152602001600020611f41565b905080915050919050565b611b9983838360405180602001604052806000815250611324565b505050565b6000600460008473ffffffffffffffffffffffffffffffffffffffff1673ffffffffffffffffffffffffffffffffffffffff16815260200190815260200160002060008373ffffffffffffffffffffffffffffffffffffffff1673ffffffffffffffffffffffffffffffffffffffff16815260200190815260200160002060009054906101000a900460ff16905092915050565b6000611c3f826002611ebd565b611cb1576040517f08c379a00000000000000000000000000000000000000000000000000000000081526004018080602001828103825260158152602001807f6e6f206f776e657220617070726f76616c20736574000000000000000000000081525060200191505060405180910390fd5b6002600083815260200190815260200160002060006002815260200190815260200160002060009054906101000a900473ffffffffffffffffffffffffffffffffffffffff169050919050565b611d19838383604051806020016040528060008152506119d5565b505050565b600073ffffffffffffffffffffffffffffffffffffffff166007600083815260200190815260200160002060009054906101000a900473ffffffffffffffffffffffffffffffffffffffff1673ffffffffffffffffffffffffffffffffffffffff1614611dd95760006007600083815260200190815260200160002060006101000a81548173ffffffffffffffffffffffffffffffffffffffff021916908373ffffffffffffffffffffffffffffffffffffffff1602179055505b50565b600073ffffffffffffffffffffffffffffffffffffffff1660026000848152602001908152602001600020600083815260200190815260200160002060009054906101000a900473ffffffffffffffffffffffffffffffffffffffff1673ffffffffffffffffffffffffffffffffffffffff1614611eb957600060026000848152602001908152602001600020600083815260200190815260200160002060006101000a81548173ffffffffffffffffffffffffffffffffffffffff021916908373ffffffffffffffffffffffffffffffffffffffff1602179055505b5050565b60008060016000858152602001908152602001600020600084815260200190815260200160002060009054906101000a900473ffffffffffffffffffffffffffffffffffffffff169050600073ffffffffffffffffffffffffffffffffffffffff168173ffffffffffffffffffffffffffffffffffffffff16141591505092915050565b600081600001549050919050565b600073ffffffffffffffffffffffffffffffffffffffff166005600083815260200190815260200160002060009054906101000a900473ffffffffffffffffffffffffffffffffffffffff1673ffffffffffffffffffffffffffffffffffffffff161461200a5760006005600083815260200190815260200160002060006101000a81548173ffffffffffffffffffffffffffffffffffffffff021916908373ffffffffffffffffffffffffffffffffffffffff1602179055505b50565b60006120198383611ebd565b61202257600080fd5b60018214156121e357600061203684611a4f565b905060006120438561149b565b90508173ffffffffffffffffffffffffffffffffffffffff168673ffffffffffffffffffffffffffffffffffffffff1614806120aa57508073ffffffffffffffffffffffffffffffffffffffff168673ffffffffffffffffffffffffffffffffffffffff16145b806120bb57506120ba8287611b9e565b5b806120cc57506120cb8187611b9e565b5b8061210a57506120db85611438565b73ffffffffffffffffffffffffffffffffffffffff168673ffffffffffffffffffffffffffffffffffffffff16145b80612148575061211985610f70565b73ffffffffffffffffffffffffffffffffffffffff168673ffffffffffffffffffffffffffffffffffffffff16145b61215157600080fd5b8073ffffffffffffffffffffffffffffffffffffffff168673ffffffffffffffffffffffffffffffffffffffff16148061219157506121908187611b9e565b5b156121d857600073ffffffffffffffffffffffffffffffffffffffff166121b786610d03565b73ffffffffffffffffffffffffffffffffffffffff16146121d757600080fd5b5b6001925050506122c9565b60028214156122c85760006121f78461149b565b90508073ffffffffffffffffffffffffffffffffffffffff168573ffffffffffffffffffffffffffffffffffffffff16148061223957506122388186611b9e565b5b80612277575061224884611c32565b73ffffffffffffffffffffffffffffffffffffffff168573ffffffffffffffffffffffffffffffffffffffff16145b806122b5575061228684610f70565b73ffffffffffffffffffffffffffffffffffffffff168573ffffffffffffffffffffffffffffffffffffffff16145b6122be57600080fd5b60019150506122c9565b5b9392505050565b6122dc85858585612345565b6122e98585858585612680565b61233e576040517f08c379a000000000000000000000000000000000000000000000000000000000815260040180806020018281038252602e815260200180612948602e913960400191505060405180910390fd5b5050505050565b6001811415612393578373ffffffffffffffffffffffffffffffffffffffff1661236e83611a4f565b73ffffffffffffffffffffffffffffffffffffffff161461238e57600080fd5b6123d4565b8373ffffffffffffffffffffffffffffffffffffffff166123b38361149b565b73ffffffffffffffffffffffffffffffffffffffff16146123d357600080fd5b5b600073ffffffffffffffffffffffffffffffffffffffff168373ffffffffffffffffffffffffffffffffffffffff16141561240e57600080fd5b6124188282611ddc565b60028114156124345761242a82611f4f565b61243382611d1e565b5b61248c600360008673ffffffffffffffffffffffffffffffffffffffff1673ffffffffffffffffffffffffffffffffffffffff1681526020019081526020016000206000838152602001908152602001600020612872565b6124e4600360008573ffffffffffffffffffffffffffffffffffffffff1673ffffffffffffffffffffffffffffffffffffffff1681526020019081526020016000206000838152602001908152602001600020612895565b8260016000848152602001908152602001600020600083815260200190815260200160002060006101000a81548173ffffffffffffffffffffffffffffffffffffffff021916908373ffffffffffffffffffffffffffffffffffffffff16021790555060018114156125e757818373ffffffffffffffffffffffffffffffffffffffff168573ffffffffffffffffffffffffffffffffffffffff167f65f4ec73ce02035b6afc3f2f2125216c5138cd9067bce6ebbdc3b84816fd13ed33604051808273ffffffffffffffffffffffffffffffffffffffff1673ffffffffffffffffffffffffffffffffffffffff16815260200191505060405180910390a461267a565b818373ffffffffffffffffffffffffffffffffffffffff168573ffffffffffffffffffffffffffffffffffffffff167fcb841bc9006096b45791cffe31afee827510e6dc0a8381bdbc047d6ab332960133604051808273ffffffffffffffffffffffffffffffffffffffff1673ffffffffffffffffffffffffffffffffffffffff16815260200191505060405180910390a45b50505050565b60006126a18573ffffffffffffffffffffffffffffffffffffffff166128ab565b6126ae5760019050612869565b60008573ffffffffffffffffffffffffffffffffffffffff16631c14516233898888886040518663ffffffff1660e01b8152600401808673ffffffffffffffffffffffffffffffffffffffff1673ffffffffffffffffffffffffffffffffffffffff1681526020018573ffffffffffffffffffffffffffffffffffffffff1673ffffffffffffffffffffffffffffffffffffffff16815260200184815260200183815260200180602001828103825283818151815260200191508051906020019080838360005b83811015612790578082015181840152602081019050612775565b50505050905090810190601f1680156127bd5780820380516001836020036101000a031916815260200191505b509650505050505050602060405180830381600087803b1580156127e057600080fd5b505af11580156127f4573d6000803e3d6000fd5b505050506040513d602081101561280a57600080fd5b81019080805190602001909291905050509050631111111160e01b7bffffffffffffffffffffffffffffffffffffffffffffffffffffffff1916817bffffffffffffffffffffffffffffffffffffffffffffffffffffffff1916149150505b95945050505050565b61288a600182600001546128be90919063ffffffff16565b816000018190555050565b6001816000016000828254019250508190555050565b600080823b905060008111915050919050565b600082821115612936576040517f08c379a000000000000000000000000000000000000000000000000000000000815260040180806020018281038252601e8152602001807f536166654d6174683a207375627472616374696f6e206f766572666c6f77000081525060200191505060405180910390fd5b60008284039050809150509291505056fe455243583a207472616e7366657220746f206e6f6e2045524358526563656976657220696d706c656d656e746572a265627a7a72315820d118e4570a242444393a45dcea6673d3027260011da111b92267c1a8c640cc8464736f6c63430005100032617070726f766554656e616e74526967687428616464726573732c2075696e7432353629617070726f7665466f724f776e657228616464726573732c2075696e7432353629736166655472616e736665725573657228616464726573732c20616464726573732c2075696e743235362c206279746573296973417070726f766564466f72416c6c28616464726573732c206164647265737329736166655472616e736665724f776e657228616464726573732c20616464726573732c2075696e7432353629736166655472616e736665724f776e657228616464726573732c20616464726573732c2075696e743235362c20627974657329736166655472616e736665725573657228616464726573732c20616464726573732c2075696e7432353629",
  "source": "pragma solidity ^0.5.0;\n\nimport \"../../Libraries/introspection/ERC165.sol\";\nimport \"../Interface/IERCX.sol\";\nimport \"../../Libraries/utils/Address.sol\";\nimport \"../../Libraries/math/SafeMath.sol\";\nimport \"../../Libraries/drafts/Counters.sol\";\nimport \"../Interface/IERCXReceiver.sol\";\n// import './MinterRole.sol';\n\ncontract ERCX is ERC165, IERCX {\n    using SafeMath for uint256;\n    using Address for address;\n    using Counters for Counters.Counter;\n\n    bytes4 private constant _ERCX_RECEIVED = 0x11111111;\n    //bytes4(keccak256(\"onERCXReceived(address,address,uint256,bytes)\"));\n\n    // Mapping from item ID to layer to owner\n    mapping(uint256 => mapping(uint256 => address)) private _itemOwner;\n\n    // Mapping from item ID to layer to approved address\n    mapping(uint256 => mapping(uint256 => address)) private _transferApprovals;\n\n    // Mapping from owner to layer to number of owned item\n    mapping(address => mapping(uint256 => Counters.Counter)) private _ownedItemsCount;\n\n    // Mapping from owner to operator approvals\n    mapping(address => mapping(address => bool)) private _operatorApprovals;\n\n    // Mapping from item ID to approved address of setting lien\n    mapping(uint256 => address) private _lienApprovals;\n\n    // Mapping from item ID to contract address of lien\n    mapping(uint256 => address) private _lienAddress;\n\n    // Mapping from item ID to approved address of setting tenant right agreement\n    mapping(uint256 => address) private _tenantRightApprovals;\n\n    // Mapping from item ID to contract address of TenantRight\n    mapping(uint256 => address) private _tenantRightAddress;\n\n    bytes4 private constant _InterfaceId_ERCX = bytes4(\n        keccak256(\"balanceOfOwner(address)\")\n    ) ^\n        bytes4(keccak256(\"balanceOfUser(address)\")) ^\n        bytes4(keccak256(\"ownerOf(uint256)\")) ^\n        bytes4(keccak256(\"userOf(uint256)\")) ^\n        bytes4(keccak256(\"safeTransferOwner(address, address, uint256)\")) ^\n        bytes4(\n            keccak256(\"safeTransferOwner(address, address, uint256, bytes)\")\n        ) ^\n        bytes4(keccak256(\"safeTransferUser(address, address, uint256)\")) ^\n        bytes4(\n            keccak256(\"safeTransferUser(address, address, uint256, bytes)\")\n        ) ^\n        bytes4(keccak256(\"approveForOwner(address, uint256)\")) ^\n        bytes4(keccak256(\"getApprovedForOwner(uint256)\")) ^\n        bytes4(keccak256(\"approveForUser(address, uint256)\")) ^\n        bytes4(keccak256(\"getApprovedForUser(uint256)\")) ^\n        bytes4(keccak256(\"setApprovalForAll(address, bool)\")) ^\n        bytes4(keccak256(\"isApprovedForAll(address, address)\")) ^\n        bytes4(keccak256(\"approveLien(address, uint256)\")) ^\n        bytes4(keccak256(\"getApprovedLien(uint256)\")) ^\n        bytes4(keccak256(\"setLien(uint256)\")) ^\n        bytes4(keccak256(\"getCurrentLien(uint256)\")) ^\n        bytes4(keccak256(\"revokeLien(uint256)\")) ^\n        bytes4(keccak256(\"approveTenantRight(address, uint256)\")) ^\n        bytes4(keccak256(\"getApprovedTenantRight(uint256)\")) ^\n        bytes4(keccak256(\"setTenantRight(uint256)\")) ^\n        bytes4(keccak256(\"getCurrentTenantRight(uint256)\")) ^\n        bytes4(keccak256(\"revokeTenantRight(uint256)\"));\n\n    constructor() public {\n        // register the supported interfaces to conform to ERCX via ERC165\n        _registerInterface(_InterfaceId_ERCX);\n    }\n\n    /**\n   * @dev Gets the balance of the specified address\n   * @param owner address to query the balance of\n   * @return uint256 representing the amount of items owned by the passed address in the specified layer\n   */\n    function balanceOfOwner(address owner) public view returns (uint256) {\n        require(owner != address(0));\n        uint256 balance = _ownedItemsCount[owner][2].current();\n        return balance;\n    }\n\n    /**\n   * @dev Gets the balance of the specified address\n   * @param user address to query the balance of\n   * @return uint256 representing the amount of items owned by the passed address\n   */\n    function balanceOfUser(address user) public view returns (uint256) {\n        require(user != address(0));\n        uint256 balance = _ownedItemsCount[user][1].current();\n        return balance;\n    }\n\n    /**\n   * @dev Gets the user of the specified item ID\n   * @param itemId uint256 ID of the item to query the user of\n   * @return owner address currently marked as the owner of the given item ID\n   */\n    function userOf(uint256 itemId) public view returns (address) {\n        address user = _itemOwner[itemId][1];\n        require(user != address(0));\n        return user;\n    }\n\n    /**\n   * @dev Gets the owner of the specified item ID\n   * @param itemId uint256 ID of the item to query the owner of\n   * @return owner address currently marked as the owner of the given item ID\n   */\n    function ownerOf(uint256 itemId) public view returns (address) {\n        address owner = _itemOwner[itemId][2];\n        require(owner != address(0));\n        return owner;\n    }\n\n    /**\n   * @dev Approves another address to transfer the user of the given item ID\n   * The zero address indicates there is no approved address.\n   * There can only be one approved address per item at a given time.\n   * Can only be called by the item owner or an approved operator.\n   * @param to address to be approved for the given item ID\n   */\n    function approveForUser(address to, uint256 itemId) public {\n        address user = userOf(itemId);\n        address owner = ownerOf(itemId);\n\n        require(to != owner && to != user);\n        require(\n            msg.sender == user ||\n                msg.sender == owner ||\n                isApprovedForAll(user, msg.sender) ||\n                isApprovedForAll(owner, msg.sender)\n        );\n        if (msg.sender == owner || isApprovedForAll(owner, msg.sender)) {\n            require(getCurrentTenantRight(itemId) == address(0));\n        }\n        _transferApprovals[itemId][1] = to;\n        emit ApprovalForUser(user, to, itemId);\n    }\n\n    /**\n   * @dev Gets the approved address for the user of the item ID, or zero if no address set\n   * Reverts if the item ID does not exist.\n   * @param itemId uint256 ID of the item to query the approval of\n   * @return address currently approved for the given item ID\n   */\n    function getApprovedForUser(uint256 itemId) public view returns (address) {\n        require(_exists(itemId, 1));\n        return _transferApprovals[itemId][1];\n    }\n\n    /**\n   * @dev Approves another address to transfer the owner of the given item ID\n   * The zero address indicates there is no approved address.\n   * There can only be one approved address per item at a given time.\n   * Can only be called by the item owner or an approved operator.\n   * @param to address to be approved for the given item ID\n   * @param itemId uint256 ID of the item to be approved\n   */\n    function approveForOwner(address to, uint256 itemId) public {\n        address owner = ownerOf(itemId);\n\n        require(to != owner);\n        require(msg.sender == owner || isApprovedForAll(owner, msg.sender));\n        _transferApprovals[itemId][2] = to;\n        emit ApprovalForOwner(owner, to, itemId);\n\n    }\n\n    /**\n   * @dev Gets the approved address for the of the item ID, or zero if no address set\n   * Reverts if the item ID does not exist.\n   * @param itemId uint256 ID of the item to query the approval o\n   * @return address currently approved for the given item ID\n   */\n    function getApprovedForOwner(uint256 itemId) public view returns (address) {\n        require(_exists(itemId, 2),\"no owner approval set\");\n        return _transferApprovals[itemId][2];\n    }\n\n    /**\n   * @dev Sets or unsets the approval of a given operator\n   * An operator is allowed to transfer all items of the sender on their behalf\n   * @param to operator address to set the approval\n   * @param approved representing the status of the approval to be set\n   */\n    function setApprovalForAll(address to, bool approved) public {\n        require(to != msg.sender);\n        _operatorApprovals[msg.sender][to] = approved;\n        emit ApprovalForAll(msg.sender, to, approved);\n    }\n\n    /**\n   * @dev Tells whether an operator is approved by a given owner\n   * @param owner owner address which you want to query the approval of\n   * @param operator operator address which you want to query the approval of\n   * @return bool whether the given operator is approved by the given owner\n   */\n    function isApprovedForAll(address owner, address operator)\n        public\n        view\n        returns (bool)\n    {\n        return _operatorApprovals[owner][operator];\n    }\n\n    /**\n   * @dev Approves another address to set lien contract for the given item ID\n   * The zero address indicates there is no approved address.\n   * There can only be one approved address per item at a given time.\n   * Can only be called by the item owner or an approved operator.\n   * @param to address to be approved for the given item ID\n   * @param itemId uint256 ID of the item to be approved\n   */\n    function approveLien(address to, uint256 itemId) public {\n        address owner = ownerOf(itemId);\n        require(to != owner);\n        require(msg.sender == owner || isApprovedForAll(owner, msg.sender));\n        _lienApprovals[itemId] = to;\n        emit LienApproval(to, itemId);\n    }\n\n    /**\n   * @dev Gets the approved address for setting lien for a item ID, or zero if no address set\n   * Reverts if the item ID does not exist.\n   * @param itemId uint256 ID of the item to query the approval of\n   * @return address currently approved for the given item ID\n   */\n    function getApprovedLien(uint256 itemId) public view returns (address) {\n        require(_exists(itemId, 2));\n        return _lienApprovals[itemId];\n    }\n    /**\n   * @dev Sets lien agreements to already approved address\n   * The lien address is allowed to transfer all items of the sender on their behalf\n   * @param itemId uint256 ID of the item\n   */\n    function setLien(uint256 itemId) public {\n        require(msg.sender == getApprovedLien(itemId));\n        _lienAddress[itemId] = msg.sender;\n        _clearLienApproval(itemId);\n        emit LienSet(msg.sender, itemId, true);\n    }\n\n    /**\n   * @dev Gets the current lien agreement address, or zero if no address set\n   * Reverts if the item ID does not exist.\n   * @param itemId uint256 ID of the item to query the lien address\n   * @return address of the lien agreement address for the given item ID\n   */\n    function getCurrentLien(uint256 itemId) public view returns (address) {\n        require(_exists(itemId, 2));\n        return _lienAddress[itemId];\n    }\n\n    /**\n   * @dev Revoke the lien agreements. Only the lien address can revoke.\n   * @param itemId uint256 ID of the item\n   */\n    function revokeLien(uint256 itemId) public {\n        require(msg.sender == getCurrentLien(itemId));\n        _lienAddress[itemId] = address(0);\n        emit LienSet(address(0), itemId, false);\n    }\n\n    /**\n   * @dev Approves another address to set tenant right agreement for the given item ID\n   * The zero address indicates there is no approved address.\n   * There can only be one approved address per item at a given time.\n   * Can only be called by the item owner or an approved operator.\n   * @param to address to be approved for the given item ID\n   * @param itemId uint256 ID of the item to be approved\n   */\n    function approveTenantRight(address to, uint256 itemId) public {\n        address owner = ownerOf(itemId);\n        require(to != owner);\n        require(msg.sender == owner || isApprovedForAll(owner, msg.sender));\n        _tenantRightApprovals[itemId] = to;\n        emit TenantRightApproval(to, itemId);\n    }\n\n    /**\n   * @dev Gets the approved address for setting tenant right for a item ID, or zero if no address set\n   * Reverts if the item ID does not exist.\n   * @param itemId uint256 ID of the item to query the approval of\n   * @return address currently approved for the given item ID\n   */\n    function getApprovedTenantRight(uint256 itemId)\n        public\n        view\n        returns (address)\n    {\n        require(_exists(itemId, 2));\n        return _tenantRightApprovals[itemId];\n    }\n    /**\n   * @dev Sets the tenant right agreement to already approved address\n   * The lien address is allowed to transfer all items of the sender on their behalf\n   * @param itemId uint256 ID of the item\n   */\n    function setTenantRight(uint256 itemId) public {\n        require(msg.sender == getApprovedTenantRight(itemId));\n        _tenantRightAddress[itemId] = msg.sender;\n        _clearTenantRightApproval(itemId);\n        _clearTransferApproval(itemId, 1); //Reset transfer approval\n        emit TenantRightSet(msg.sender, itemId, true);\n    }\n\n    /**\n   * @dev Gets the current tenant right agreement address, or zero if no address set\n   * Reverts if the item ID does not exist.\n   * @param itemId uint256 ID of the item to query the tenant right address\n   * @return address of the tenant right agreement address for the given item ID\n   */\n    function getCurrentTenantRight(uint256 itemId)\n        public\n        view\n        returns (address)\n    {\n        require(_exists(itemId, 2));\n        return _tenantRightAddress[itemId];\n    }\n\n    /**\n   * @dev Revoke the tenant right agreement. Only the lien address can revoke.\n   * @param itemId uint256 ID of the item\n   */\n    function revokeTenantRight(uint256 itemId) public {\n        require(msg.sender == getCurrentTenantRight(itemId));\n        _tenantRightAddress[itemId] = address(0);\n        emit TenantRightSet(address(0), itemId, false);\n    }\n\n    /**\n   * @dev Safely transfers the user of a given item ID to another address\n   * If the target address is a contract, it must implement `onERCXReceived`,\n   * which is called upon a safe transfer, and return the magic value\n   * `bytes4(keccak256(\"onERCXReceived(address,address,uint256,bytes)\"))`; otherwise,\n   * the transfer is reverted.\n   *\n   * Requires the msg sender to be the owner, approved, or operator\n   * @param from current owner of the item\n   * @param to address to receive the ownership of the given item ID\n   * @param itemId uint256 ID of the item to be transferred\n\n  */\n    function safeTransferUser(address from, address to, uint256 itemId) public {\n        // solium-disable-next-line arg-overflow\n        safeTransferUser(from, to, itemId, \"\");\n    }\n\n    /**\n   * @dev Safely transfers the user of a given item ID to another address\n   * If the target address is a contract, it must implement `onERCXReceived`,\n   * which is called upon a safe transfer, and return the magic value\n   * `bytes4(keccak256(\"onERCXReceived(address,address,uint256,bytes)\"))`; otherwise,\n   * the transfer is reverted.\n   * Requires the msg sender to be the owner, approved, or operator\n   * @param from current owner of the item\n   * @param to address to receive the ownership of the given item ID\n   * @param itemId uint256 ID of the item to be transferred\n   * @param data bytes data to send along with a safe transfer check\n   */\n    function safeTransferUser(\n        address from,\n        address to,\n        uint256 itemId,\n        bytes memory data\n    ) public {\n        require(_isEligibleForTransfer(msg.sender, itemId, 1));\n        _safeTransfer(from, to, itemId, 1, data);\n    }\n\n    /**\n   * @dev Safely transfers the ownership of a given item ID to another address\n   * If the target address is a contract, it must implement `onERCXReceived`,\n   * which is called upon a safe transfer, and return the magic value\n   * `bytes4(keccak256(\"onERCXReceived(address,address,uint256,bytes)\"))`; otherwise,\n   * the transfer is reverted.\n   *\n   * Requires the msg sender to be the owner, approved, or operator\n   * @param from current owner of the item\n   * @param to address to receive the ownership of the given item ID\n   * @param itemId uint256 ID of the item to be transferred\n  */\n    function safeTransferOwner(address from, address to, uint256 itemId)\n        public\n    {\n        // solium-disable-next-line arg-overflow\n        safeTransferOwner(from, to, itemId, \"\");\n    }\n\n    /**\n   * @dev Safely transfers the ownership of a given item ID to another address\n   * If the target address is a contract, it must implement `onERCXReceived`,\n   * which is called upon a safe transfer, and return the magic value\n   * `bytes4(keccak256(\"onERCXReceived(address,address,uint256,bytes)\"))`; otherwise,\n   * the transfer is reverted.\n   * Requires the msg sender to be the owner, approved, or operator\n   * @param from current owner of the item\n   * @param to address to receive the ownership of the given item ID\n   * @param itemId uint256 ID of the item to be transferred\n   * @param data bytes data to send along with a safe transfer check\n   */\n    function safeTransferOwner(\n        address from,\n        address to,\n        uint256 itemId,\n        bytes memory data\n    ) public {\n        require(_isEligibleForTransfer(msg.sender, itemId, 2));\n        _safeTransfer(from, to, itemId, 2, data);\n    }\n\n    /**\n    * @dev Safely transfers the ownership of a given item ID to another address\n    * If the target address is a contract, it must implement `onERCXReceived`,\n    * which is called upon a safe transfer, and return the magic value\n    * `bytes4(keccak256(\"onERCXReceived(address,address,uint256,bytes)\"))`; otherwise,\n    * the transfer is reverted.\n    * Requires the msg.sender to be the owner, approved, or operator\n    * @param from current owner of the item\n    * @param to address to receive the ownership of the given item ID\n    * @param itemId uint256 ID of the item to be transferred\n    * @param layer uint256 number to specify the layer\n    * @param data bytes data to send along with a safe transfer check\n    */\n    function _safeTransfer(\n        address from,\n        address to,\n        uint256 itemId,\n        uint256 layer,\n        bytes memory data\n    ) internal {\n        _transfer(from, to, itemId, layer);\n        require(\n            _checkOnERCXReceived(from, to, itemId, layer, data),\n            \"ERCX: transfer to non ERCXReceiver implementer\"\n        );\n    }\n\n    /**\n    * @dev Returns whether the given spender can transfer a given item ID.\n    * @param spender address of the spender to query\n    * @param itemId uint256 ID of the item to be transferred\n    * @param layer uint256 number to specify the layer\n    * @return bool whether the msg.sender is approved for the given item ID,\n    * is an operator of the owner, or is the owner of the item\n    */\n    function _isEligibleForTransfer(\n        address spender,\n        uint256 itemId,\n        uint256 layer\n    ) internal view returns (bool) {\n        require(_exists(itemId, layer));\n        if (layer == 1) {\n            address user = userOf(itemId);\n            address owner = ownerOf(itemId);\n            require(\n                spender == user ||\n                    spender == owner ||\n                    isApprovedForAll(user, spender) ||\n                    isApprovedForAll(owner, spender) ||\n                    spender == getApprovedForUser(itemId) ||\n                    spender == getCurrentLien(itemId)\n            );\n            if (spender == owner || isApprovedForAll(owner, spender)) {\n                require(getCurrentTenantRight(itemId) == address(0));\n            }\n            return true;\n        }\n\n        if (layer == 2) {\n            address owner = ownerOf(itemId);\n            require(\n                spender == owner ||\n                    isApprovedForAll(owner, spender) ||\n                    spender == getApprovedForOwner(itemId) ||\n                    spender == getCurrentLien(itemId)\n            );\n            return true;\n        }\n    }\n\n    /**\n   * @dev Returns whether the specified item exists\n   * @param itemId uint256 ID of the item to query the existence of\n   * @param layer uint256 number to specify the layer\n   * @return whether the item exists\n   */\n    function _exists(uint256 itemId, uint256 layer)\n        internal\n        view\n        returns (bool)\n    {\n        address owner = _itemOwner[itemId][layer];\n        return owner != address(0);\n    }\n\n    /**\n    * @dev Internal function to safely mint a new item.\n    * Reverts if the given item ID already exists.\n    * If the target address is a contract, it must implement `onERCXReceived`,\n    * which is called upon a safe transfer, and return the magic value\n    * `bytes4(keccak256(\"onERCXReceived(address,address,uint256,bytes)\"))`; otherwise,\n    * the transfer is reverted.\n    * @param to The address that will own the minted item\n    * @param itemId uint256 ID of the item to be minted\n    */\n    function _safeMint(address to, uint256 itemId) internal {\n        _safeMint(to, itemId, \"\");\n    }\n\n    /**\n    * @dev Internal function to safely mint a new item.\n    * Reverts if the given item ID already exists.\n    * If the target address is a contract, it must implement `onERCXReceived`,\n    * which is called upon a safe transfer, and return the magic value\n    * `bytes4(keccak256(\"onERCXReceived(address,address,uint256,bytes)\"))`; otherwise,\n    * the transfer is reverted.\n    * @param to The address that will own the minted item\n    * @param itemId uint256 ID of the item to be minted\n    * @param data bytes data to send along with a safe transfer check\n    */\n    function _safeMint(address to, uint256 itemId, bytes memory data) internal {\n        _mint(to, itemId);\n        require(_checkOnERCXReceived(address(0), to, itemId, 1, data));\n        require(_checkOnERCXReceived(address(0), to, itemId, 2, data));\n    }\n\n    /**\n    * @dev Internal function to mint a new item.\n    * Reverts if the given item ID already exists.\n    * A new item iss minted with all three layers.\n    * @param to The address that will own the minted item\n    * @param itemId uint256 ID of the item to be minted\n    */\n    function _mint(address to, uint256 itemId) internal {\n        require(to != address(0), \"ERCX: mint to the zero address\");\n        require(!_exists(itemId, 1), \"ERCX: item already minted\");\n\n        _itemOwner[itemId][1] = to;\n        _itemOwner[itemId][2] = to;\n        _ownedItemsCount[to][1].increment();\n        _ownedItemsCount[to][2].increment();\n\n        emit TransferUser(address(0), to, itemId, msg.sender);\n        emit TransferOwner(address(0), to, itemId, msg.sender);\n\n    }\n\n    /**\n    * @dev Internal function to burn a specific item.\n    * Reverts if the item does not exist.\n    * @param itemId uint256 ID of the item being burned\n    */\n    function _burn(uint256 itemId) internal {\n        address user = userOf(itemId);\n        address owner = ownerOf(itemId);\n        require(user == msg.sender && owner == msg.sender);\n\n        _clearTransferApproval(itemId, 1);\n        _clearTransferApproval(itemId, 2);\n\n        _ownedItemsCount[user][1].decrement();\n        _ownedItemsCount[owner][2].decrement();\n        _itemOwner[itemId][1] = address(0);\n        _itemOwner[itemId][2] = address(0);\n\n        emit TransferUser(user, address(0), itemId, msg.sender);\n        emit TransferOwner(owner, address(0), itemId, msg.sender);\n    }\n\n    /**\n    * @dev Internal function to transfer ownership of a given item ID to another address.\n    * As opposed to {transferFrom}, this imposes no restrictions on msg.sender.\n    * @param from current owner of the item\n    * @param to address to receive the ownership of the given item ID\n    * @param itemId uint256 ID of the item to be transferred\n    * @param layer uint256 number to specify the layer\n    */\n    function _transfer(address from, address to, uint256 itemId, uint256 layer)\n        internal\n    {\n        if (layer == 1) {\n            require(userOf(itemId) == from);\n        } else {\n            require(ownerOf(itemId) == from);\n        }\n        require(to != address(0));\n\n        _clearTransferApproval(itemId, layer);\n\n        if (layer == 2) {\n            _clearLienApproval(itemId);\n            _clearTenantRightApproval(itemId);\n        }\n\n        _ownedItemsCount[from][layer].decrement();\n        _ownedItemsCount[to][layer].increment();\n\n        _itemOwner[itemId][layer] = to;\n\n        if (layer == 1) {\n            emit TransferUser(from, to, itemId, msg.sender);\n        } else {\n            emit TransferOwner(from, to, itemId, msg.sender);\n        }\n\n    }\n\n    /**\n    * @dev Internal function to invoke {IERCXReceiver-onERCXReceived} on a target address.\n    * The call is not executed if the target address is not a contract.\n    *\n    * This is an internal detail of the `ERCX` contract and its use is deprecated.\n    * @param from address representing the previous owner of the given item ID\n    * @param to target address that will receive the items\n    * @param itemId uint256 ID of the item to be transferred\n    * @param layer uint256 number to specify the layer\n    * @param data bytes optional data to send along with the call\n    * @return bool whether the call correctly returned the expected magic value\n    */\n    function _checkOnERCXReceived(\n        address from,\n        address to,\n        uint256 itemId,\n        uint256 layer,\n        bytes memory data\n    ) internal returns (bool) {\n        if (!to.isContract()) {\n            return true;\n        }\n\n        bytes4 retval = IERCXReceiver(to).onERCXReceived(\n            msg.sender,\n            from,\n            itemId,\n            layer,\n            data\n        );\n        return (retval == _ERCX_RECEIVED);\n    }\n\n    /**\n    * @dev Private function to clear current approval of a given item ID.\n    * @param itemId uint256 ID of the item to be transferred\n    * @param layer uint256 number to specify the layer\n    */\n    function _clearTransferApproval(uint256 itemId, uint256 layer) private {\n        if (_transferApprovals[itemId][layer] != address(0)) {\n            _transferApprovals[itemId][layer] = address(0);\n        }\n    }\n\n    function _clearTenantRightApproval(uint256 itemId) private {\n        if (_tenantRightApprovals[itemId] != address(0)) {\n            _tenantRightApprovals[itemId] = address(0);\n        }\n    }\n\n    function _clearLienApproval(uint256 itemId) private {\n        if (_lienApprovals[itemId] != address(0)) {\n            _lienApprovals[itemId] = address(0);\n        }\n    }\n\n}\n",
  "sourcePath": "/home/bitnami/BLK_Micro/dApp-nodeJS-webpack/app/contracts/ERCX/Contract/ERCX.sol",
  "compiler": {
    "name": "solc",
    "version": "0.5.16+commit.9c3226ce.Emscripten.clang"
  },
  "schemaVersion": "3.4.4",
  "updatedAt": "2022-01-15T03:42:33.311Z",
  "devdoc": {
    "methods": {
      "approveForOwner(address,uint256)": {
        "details": "Approves another address to transfer the owner of the given item ID The zero address indicates there is no approved address. There can only be one approved address per item at a given time. Can only be called by the item owner or an approved operator.",
        "params": {
          "itemId": "uint256 ID of the item to be approved",
          "to": "address to be approved for the given item ID"
        }
      },
      "approveForUser(address,uint256)": {
        "details": "Approves another address to transfer the user of the given item ID The zero address indicates there is no approved address. There can only be one approved address per item at a given time. Can only be called by the item owner or an approved operator.",
        "params": {
          "to": "address to be approved for the given item ID"
        }
      },
      "approveLien(address,uint256)": {
        "details": "Approves another address to set lien contract for the given item ID The zero address indicates there is no approved address. There can only be one approved address per item at a given time. Can only be called by the item owner or an approved operator.",
        "params": {
          "itemId": "uint256 ID of the item to be approved",
          "to": "address to be approved for the given item ID"
        }
      },
      "approveTenantRight(address,uint256)": {
        "details": "Approves another address to set tenant right agreement for the given item ID The zero address indicates there is no approved address. There can only be one approved address per item at a given time. Can only be called by the item owner or an approved operator.",
        "params": {
          "itemId": "uint256 ID of the item to be approved",
          "to": "address to be approved for the given item ID"
        }
      },
      "balanceOfOwner(address)": {
        "details": "Gets the balance of the specified address",
        "params": {
          "owner": "address to query the balance of"
        },
        "return": "uint256 representing the amount of items owned by the passed address in the specified layer"
      },
      "balanceOfUser(address)": {
        "details": "Gets the balance of the specified address",
        "params": {
          "user": "address to query the balance of"
        },
        "return": "uint256 representing the amount of items owned by the passed address"
      },
      "getApprovedForOwner(uint256)": {
        "details": "Gets the approved address for the of the item ID, or zero if no address set Reverts if the item ID does not exist.",
        "params": {
          "itemId": "uint256 ID of the item to query the approval o"
        },
        "return": "address currently approved for the given item ID"
      },
      "getApprovedForUser(uint256)": {
        "details": "Gets the approved address for the user of the item ID, or zero if no address set Reverts if the item ID does not exist.",
        "params": {
          "itemId": "uint256 ID of the item to query the approval of"
        },
        "return": "address currently approved for the given item ID"
      },
      "getApprovedLien(uint256)": {
        "details": "Gets the approved address for setting lien for a item ID, or zero if no address set Reverts if the item ID does not exist.",
        "params": {
          "itemId": "uint256 ID of the item to query the approval of"
        },
        "return": "address currently approved for the given item ID"
      },
      "getApprovedTenantRight(uint256)": {
        "details": "Gets the approved address for setting tenant right for a item ID, or zero if no address set Reverts if the item ID does not exist.",
        "params": {
          "itemId": "uint256 ID of the item to query the approval of"
        },
        "return": "address currently approved for the given item ID"
      },
      "getCurrentLien(uint256)": {
        "details": "Gets the current lien agreement address, or zero if no address set Reverts if the item ID does not exist.",
        "params": {
          "itemId": "uint256 ID of the item to query the lien address"
        },
        "return": "address of the lien agreement address for the given item ID"
      },
      "getCurrentTenantRight(uint256)": {
        "details": "Gets the current tenant right agreement address, or zero if no address set Reverts if the item ID does not exist.",
        "params": {
          "itemId": "uint256 ID of the item to query the tenant right address"
        },
        "return": "address of the tenant right agreement address for the given item ID"
      },
      "isApprovedForAll(address,address)": {
        "details": "Tells whether an operator is approved by a given owner",
        "params": {
          "operator": "operator address which you want to query the approval of",
          "owner": "owner address which you want to query the approval of"
        },
        "return": "bool whether the given operator is approved by the given owner"
      },
      "ownerOf(uint256)": {
        "details": "Gets the owner of the specified item ID",
        "params": {
          "itemId": "uint256 ID of the item to query the owner of"
        },
        "return": "owner address currently marked as the owner of the given item ID"
      },
      "revokeLien(uint256)": {
        "details": "Revoke the lien agreements. Only the lien address can revoke.",
        "params": {
          "itemId": "uint256 ID of the item"
        }
      },
      "revokeTenantRight(uint256)": {
        "details": "Revoke the tenant right agreement. Only the lien address can revoke.",
        "params": {
          "itemId": "uint256 ID of the item"
        }
      },
      "safeTransferOwner(address,address,uint256)": {
        "details": "Safely transfers the ownership of a given item ID to another address If the target address is a contract, it must implement `onERCXReceived`, which is called upon a safe transfer, and return the magic value `bytes4(keccak256(\"onERCXReceived(address,address,uint256,bytes)\"))`; otherwise, the transfer is reverted.   * Requires the msg sender to be the owner, approved, or operator",
        "params": {
          "from": "current owner of the item",
          "itemId": "uint256 ID of the item to be transferred",
          "to": "address to receive the ownership of the given item ID"
        }
      },
      "safeTransferOwner(address,address,uint256,bytes)": {
        "details": "Safely transfers the ownership of a given item ID to another address If the target address is a contract, it must implement `onERCXReceived`, which is called upon a safe transfer, and return the magic value `bytes4(keccak256(\"onERCXReceived(address,address,uint256,bytes)\"))`; otherwise, the transfer is reverted. Requires the msg sender to be the owner, approved, or operator",
        "params": {
          "data": "bytes data to send along with a safe transfer check",
          "from": "current owner of the item",
          "itemId": "uint256 ID of the item to be transferred",
          "to": "address to receive the ownership of the given item ID"
        }
      },
      "safeTransferUser(address,address,uint256)": {
        "details": "Safely transfers the user of a given item ID to another address If the target address is a contract, it must implement `onERCXReceived`, which is called upon a safe transfer, and return the magic value `bytes4(keccak256(\"onERCXReceived(address,address,uint256,bytes)\"))`; otherwise, the transfer is reverted.   * Requires the msg sender to be the owner, approved, or operator",
        "params": {
          "from": "current owner of the item",
          "itemId": "uint256 ID of the item to be transferred",
          "to": "address to receive the ownership of the given item ID"
        }
      },
      "safeTransferUser(address,address,uint256,bytes)": {
        "details": "Safely transfers the user of a given item ID to another address If the target address is a contract, it must implement `onERCXReceived`, which is called upon a safe transfer, and return the magic value `bytes4(keccak256(\"onERCXReceived(address,address,uint256,bytes)\"))`; otherwise, the transfer is reverted. Requires the msg sender to be the owner, approved, or operator",
        "params": {
          "data": "bytes data to send along with a safe transfer check",
          "from": "current owner of the item",
          "itemId": "uint256 ID of the item to be transferred",
          "to": "address to receive the ownership of the given item ID"
        }
      },
      "setApprovalForAll(address,bool)": {
        "details": "Sets or unsets the approval of a given operator An operator is allowed to transfer all items of the sender on their behalf",
        "params": {
          "approved": "representing the status of the approval to be set",
          "to": "operator address to set the approval"
        }
      },
      "setLien(uint256)": {
        "details": "Sets lien agreements to already approved address The lien address is allowed to transfer all items of the sender on their behalf",
        "params": {
          "itemId": "uint256 ID of the item"
        }
      },
      "setTenantRight(uint256)": {
        "details": "Sets the tenant right agreement to already approved address The lien address is allowed to transfer all items of the sender on their behalf",
        "params": {
          "itemId": "uint256 ID of the item"
        }
      },
      "supportsInterface(bytes4)": {
        "details": "See `IERC165.supportsInterface`.     * Time complexity O(1), guaranteed to always use less than 30 000 gas."
      },
      "userOf(uint256)": {
        "details": "Gets the user of the specified item ID",
        "params": {
          "itemId": "uint256 ID of the item to query the user of"
        },
        "return": "owner address currently marked as the owner of the given item ID"
      }
    }
  },
  "userdoc": {
    "methods": {}
  }
}