{
  "contractName": "ERCXMetadata",
  "abi": [
    {
      "inputs": [
        {
          "internalType": "string",
          "name": "name",
          "type": "string"
        },
        {
          "internalType": "string",
          "name": "symbol",
          "type": "string"
        }
      ],
      "payable": false,
      "stateMutability": "nonpayable",
      "type": "constructor"
    },
    {
      "anonymous": false,
      "inputs": [
        {
          "indexed": true,
          "internalType": "address",
          "name": "owner",
          "type": "address"
        },
        {
          "indexed": true,
          "internalType": "address",
          "name": "operator",
          "type": "address"
        },
        {
          "indexed": false,
          "internalType": "bool",
          "name": "approved",
          "type": "bool"
        }
      ],
      "name": "ApprovalForAll",
      "type": "event"
    },
    {
      "anonymous": false,
      "inputs": [
        {
          "indexed": true,
          "internalType": "address",
          "name": "owner",
          "type": "address"
        },
        {
          "indexed": true,
          "internalType": "address",
          "name": "approved",
          "type": "address"
        },
        {
          "indexed": false,
          "internalType": "uint256",
          "name": "itemId",
          "type": "uint256"
        }
      ],
      "name": "ApprovalForOwner",
      "type": "event"
    },
    {
      "anonymous": false,
      "inputs": [
        {
          "indexed": true,
          "internalType": "address",
          "name": "user",
          "type": "address"
        },
        {
          "indexed": true,
          "internalType": "address",
          "name": "approved",
          "type": "address"
        },
        {
          "indexed": false,
          "internalType": "uint256",
          "name": "itemId",
          "type": "uint256"
        }
      ],
      "name": "ApprovalForUser",
      "type": "event"
    },
    {
      "anonymous": false,
      "inputs": [
        {
          "indexed": true,
          "internalType": "address",
          "name": "to",
          "type": "address"
        },
        {
          "indexed": true,
          "internalType": "uint256",
          "name": "itemId",
          "type": "uint256"
        }
      ],
      "name": "LienApproval",
      "type": "event"
    },
    {
      "anonymous": false,
      "inputs": [
        {
          "indexed": true,
          "internalType": "address",
          "name": "to",
          "type": "address"
        },
        {
          "indexed": true,
          "internalType": "uint256",
          "name": "itemId",
          "type": "uint256"
        },
        {
          "indexed": false,
          "internalType": "bool",
          "name": "status",
          "type": "bool"
        }
      ],
      "name": "LienSet",
      "type": "event"
    },
    {
      "anonymous": false,
      "inputs": [
        {
          "indexed": true,
          "internalType": "address",
          "name": "to",
          "type": "address"
        },
        {
          "indexed": true,
          "internalType": "uint256",
          "name": "itemId",
          "type": "uint256"
        }
      ],
      "name": "TenantRightApproval",
      "type": "event"
    },
    {
      "anonymous": false,
      "inputs": [
        {
          "indexed": true,
          "internalType": "address",
          "name": "to",
          "type": "address"
        },
        {
          "indexed": true,
          "internalType": "uint256",
          "name": "itemId",
          "type": "uint256"
        },
        {
          "indexed": false,
          "internalType": "bool",
          "name": "status",
          "type": "bool"
        }
      ],
      "name": "TenantRightSet",
      "type": "event"
    },
    {
      "anonymous": false,
      "inputs": [
        {
          "indexed": true,
          "internalType": "address",
          "name": "from",
          "type": "address"
        },
        {
          "indexed": true,
          "internalType": "address",
          "name": "to",
          "type": "address"
        },
        {
          "indexed": true,
          "internalType": "uint256",
          "name": "itemId",
          "type": "uint256"
        },
        {
          "indexed": false,
          "internalType": "address",
          "name": "operator",
          "type": "address"
        }
      ],
      "name": "TransferOwner",
      "type": "event"
    },
    {
      "anonymous": false,
      "inputs": [
        {
          "indexed": true,
          "internalType": "address",
          "name": "from",
          "type": "address"
        },
        {
          "indexed": true,
          "internalType": "address",
          "name": "to",
          "type": "address"
        },
        {
          "indexed": true,
          "internalType": "uint256",
          "name": "itemId",
          "type": "uint256"
        },
        {
          "indexed": false,
          "internalType": "address",
          "name": "operator",
          "type": "address"
        }
      ],
      "name": "TransferUser",
      "type": "event"
    },
    {
      "constant": false,
      "inputs": [
        {
          "internalType": "address",
          "name": "to",
          "type": "address"
        },
        {
          "internalType": "uint256",
          "name": "itemId",
          "type": "uint256"
        }
      ],
      "name": "approveForOwner",
      "outputs": [],
      "payable": false,
      "stateMutability": "nonpayable",
      "type": "function"
    },
    {
      "constant": false,
      "inputs": [
        {
          "internalType": "address",
          "name": "to",
          "type": "address"
        },
        {
          "internalType": "uint256",
          "name": "itemId",
          "type": "uint256"
        }
      ],
      "name": "approveForUser",
      "outputs": [],
      "payable": false,
      "stateMutability": "nonpayable",
      "type": "function"
    },
    {
      "constant": false,
      "inputs": [
        {
          "internalType": "address",
          "name": "to",
          "type": "address"
        },
        {
          "internalType": "uint256",
          "name": "itemId",
          "type": "uint256"
        }
      ],
      "name": "approveLien",
      "outputs": [],
      "payable": false,
      "stateMutability": "nonpayable",
      "type": "function"
    },
    {
      "constant": false,
      "inputs": [
        {
          "internalType": "address",
          "name": "to",
          "type": "address"
        },
        {
          "internalType": "uint256",
          "name": "itemId",
          "type": "uint256"
        }
      ],
      "name": "approveTenantRight",
      "outputs": [],
      "payable": false,
      "stateMutability": "nonpayable",
      "type": "function"
    },
    {
      "constant": true,
      "inputs": [
        {
          "internalType": "address",
          "name": "owner",
          "type": "address"
        }
      ],
      "name": "balanceOfOwner",
      "outputs": [
        {
          "internalType": "uint256",
          "name": "",
          "type": "uint256"
        }
      ],
      "payable": false,
      "stateMutability": "view",
      "type": "function"
    },
    {
      "constant": true,
      "inputs": [
        {
          "internalType": "address",
          "name": "user",
          "type": "address"
        }
      ],
      "name": "balanceOfUser",
      "outputs": [
        {
          "internalType": "uint256",
          "name": "",
          "type": "uint256"
        }
      ],
      "payable": false,
      "stateMutability": "view",
      "type": "function"
    },
    {
      "constant": true,
      "inputs": [
        {
          "internalType": "uint256",
          "name": "itemId",
          "type": "uint256"
        }
      ],
      "name": "getApprovedForOwner",
      "outputs": [
        {
          "internalType": "address",
          "name": "",
          "type": "address"
        }
      ],
      "payable": false,
      "stateMutability": "view",
      "type": "function"
    },
    {
      "constant": true,
      "inputs": [
        {
          "internalType": "uint256",
          "name": "itemId",
          "type": "uint256"
        }
      ],
      "name": "getApprovedForUser",
      "outputs": [
        {
          "internalType": "address",
          "name": "",
          "type": "address"
        }
      ],
      "payable": false,
      "stateMutability": "view",
      "type": "function"
    },
    {
      "constant": true,
      "inputs": [
        {
          "internalType": "uint256",
          "name": "itemId",
          "type": "uint256"
        }
      ],
      "name": "getApprovedLien",
      "outputs": [
        {
          "internalType": "address",
          "name": "",
          "type": "address"
        }
      ],
      "payable": false,
      "stateMutability": "view",
      "type": "function"
    },
    {
      "constant": true,
      "inputs": [
        {
          "internalType": "uint256",
          "name": "itemId",
          "type": "uint256"
        }
      ],
      "name": "getApprovedTenantRight",
      "outputs": [
        {
          "internalType": "address",
          "name": "",
          "type": "address"
        }
      ],
      "payable": false,
      "stateMutability": "view",
      "type": "function"
    },
    {
      "constant": true,
      "inputs": [
        {
          "internalType": "uint256",
          "name": "itemId",
          "type": "uint256"
        }
      ],
      "name": "getCurrentLien",
      "outputs": [
        {
          "internalType": "address",
          "name": "",
          "type": "address"
        }
      ],
      "payable": false,
      "stateMutability": "view",
      "type": "function"
    },
    {
      "constant": true,
      "inputs": [
        {
          "internalType": "uint256",
          "name": "itemId",
          "type": "uint256"
        }
      ],
      "name": "getCurrentTenantRight",
      "outputs": [
        {
          "internalType": "address",
          "name": "",
          "type": "address"
        }
      ],
      "payable": false,
      "stateMutability": "view",
      "type": "function"
    },
    {
      "constant": true,
      "inputs": [
        {
          "internalType": "address",
          "name": "owner",
          "type": "address"
        },
        {
          "internalType": "address",
          "name": "operator",
          "type": "address"
        }
      ],
      "name": "isApprovedForAll",
      "outputs": [
        {
          "internalType": "bool",
          "name": "",
          "type": "bool"
        }
      ],
      "payable": false,
      "stateMutability": "view",
      "type": "function"
    },
    {
      "constant": true,
      "inputs": [
        {
          "internalType": "uint256",
          "name": "itemId",
          "type": "uint256"
        }
      ],
      "name": "ownerOf",
      "outputs": [
        {
          "internalType": "address",
          "name": "",
          "type": "address"
        }
      ],
      "payable": false,
      "stateMutability": "view",
      "type": "function"
    },
    {
      "constant": false,
      "inputs": [
        {
          "internalType": "uint256",
          "name": "itemId",
          "type": "uint256"
        }
      ],
      "name": "revokeLien",
      "outputs": [],
      "payable": false,
      "stateMutability": "nonpayable",
      "type": "function"
    },
    {
      "constant": false,
      "inputs": [
        {
          "internalType": "uint256",
          "name": "itemId",
          "type": "uint256"
        }
      ],
      "name": "revokeTenantRight",
      "outputs": [],
      "payable": false,
      "stateMutability": "nonpayable",
      "type": "function"
    },
    {
      "constant": false,
      "inputs": [
        {
          "internalType": "address",
          "name": "from",
          "type": "address"
        },
        {
          "internalType": "address",
          "name": "to",
          "type": "address"
        },
        {
          "internalType": "uint256",
          "name": "itemId",
          "type": "uint256"
        },
        {
          "internalType": "bytes",
          "name": "data",
          "type": "bytes"
        }
      ],
      "name": "safeTransferOwner",
      "outputs": [],
      "payable": false,
      "stateMutability": "nonpayable",
      "type": "function"
    },
    {
      "constant": false,
      "inputs": [
        {
          "internalType": "address",
          "name": "from",
          "type": "address"
        },
        {
          "internalType": "address",
          "name": "to",
          "type": "address"
        },
        {
          "internalType": "uint256",
          "name": "itemId",
          "type": "uint256"
        }
      ],
      "name": "safeTransferOwner",
      "outputs": [],
      "payable": false,
      "stateMutability": "nonpayable",
      "type": "function"
    },
    {
      "constant": false,
      "inputs": [
        {
          "internalType": "address",
          "name": "from",
          "type": "address"
        },
        {
          "internalType": "address",
          "name": "to",
          "type": "address"
        },
        {
          "internalType": "uint256",
          "name": "itemId",
          "type": "uint256"
        },
        {
          "internalType": "bytes",
          "name": "data",
          "type": "bytes"
        }
      ],
      "name": "safeTransferUser",
      "outputs": [],
      "payable": false,
      "stateMutability": "nonpayable",
      "type": "function"
    },
    {
      "constant": false,
      "inputs": [
        {
          "internalType": "address",
          "name": "from",
          "type": "address"
        },
        {
          "internalType": "address",
          "name": "to",
          "type": "address"
        },
        {
          "internalType": "uint256",
          "name": "itemId",
          "type": "uint256"
        }
      ],
      "name": "safeTransferUser",
      "outputs": [],
      "payable": false,
      "stateMutability": "nonpayable",
      "type": "function"
    },
    {
      "constant": false,
      "inputs": [
        {
          "internalType": "address",
          "name": "to",
          "type": "address"
        },
        {
          "internalType": "bool",
          "name": "approved",
          "type": "bool"
        }
      ],
      "name": "setApprovalForAll",
      "outputs": [],
      "payable": false,
      "stateMutability": "nonpayable",
      "type": "function"
    },
    {
      "constant": false,
      "inputs": [
        {
          "internalType": "uint256",
          "name": "itemId",
          "type": "uint256"
        }
      ],
      "name": "setLien",
      "outputs": [],
      "payable": false,
      "stateMutability": "nonpayable",
      "type": "function"
    },
    {
      "constant": false,
      "inputs": [
        {
          "internalType": "uint256",
          "name": "itemId",
          "type": "uint256"
        }
      ],
      "name": "setTenantRight",
      "outputs": [],
      "payable": false,
      "stateMutability": "nonpayable",
      "type": "function"
    },
    {
      "constant": true,
      "inputs": [
        {
          "internalType": "bytes4",
          "name": "interfaceId",
          "type": "bytes4"
        }
      ],
      "name": "supportsInterface",
      "outputs": [
        {
          "internalType": "bool",
          "name": "",
          "type": "bool"
        }
      ],
      "payable": false,
      "stateMutability": "view",
      "type": "function"
    },
    {
      "constant": true,
      "inputs": [
        {
          "internalType": "uint256",
          "name": "itemId",
          "type": "uint256"
        }
      ],
      "name": "userOf",
      "outputs": [
        {
          "internalType": "address",
          "name": "",
          "type": "address"
        }
      ],
      "payable": false,
      "stateMutability": "view",
      "type": "function"
    },
    {
      "constant": true,
      "inputs": [],
      "name": "name",
      "outputs": [
        {
          "internalType": "string",
          "name": "",
          "type": "string"
        }
      ],
      "payable": false,
      "stateMutability": "view",
      "type": "function"
    },
    {
      "constant": true,
      "inputs": [],
      "name": "symbol",
      "outputs": [
        {
          "internalType": "string",
          "name": "",
          "type": "string"
        }
      ],
      "payable": false,
      "stateMutability": "view",
      "type": "function"
    },
    {
      "constant": true,
      "inputs": [
        {
          "internalType": "uint256",
          "name": "itemId",
          "type": "uint256"
        }
      ],
      "name": "itemURI",
      "outputs": [
        {
          "internalType": "string",
          "name": "",
          "type": "string"
        }
      ],
      "payable": false,
      "stateMutability": "view",
      "type": "function"
    },
    {
      "constant": true,
      "inputs": [],
      "name": "baseURI",
      "outputs": [
        {
          "internalType": "string",
          "name": "",
          "type": "string"
        }
      ],
      "payable": false,
      "stateMutability": "view",
      "type": "function"
    }
  ],
  "bytecode": "0x60806040523480156200001157600080fd5b5060405162003a5638038062003a56833981810160405260408110156200003757600080fd5b81019080805160405193929190846401000000008211156200005857600080fd5b838201915060208201858111156200006f57600080fd5b82518660018202830111640100000000821117156200008d57600080fd5b8083526020830192505050908051906020019080838360005b83811015620000c3578082015181840152602081019050620000a6565b50505050905090810190601f168015620000f15780820380516001836020036101000a031916815260200191505b50604052602001805160405193929190846401000000008211156200011557600080fd5b838201915060208201858111156200012c57600080fd5b82518660018202830111640100000000821117156200014a57600080fd5b8083526020830192505050908051906020019080838360005b838110156200018057808201518184015260208101905062000163565b50505050905090810190601f168015620001ae5780820380516001836020036101000a031916815260200191505b50604052505050620001cd6301ffc9a760e01b6200072e60201b60201c565b6200064060405180807f7265766f6b6554656e616e7452696768742875696e7432353629000000000000815250601a019050604051809103902060405180807f67657443757272656e7454656e616e7452696768742875696e74323536290000815250601e019050604051809103902060405180807f73657454656e616e7452696768742875696e74323536290000000000000000008152506017019050604051809103902060405180807f676574417070726f76656454656e616e7452696768742875696e743235362900815250601f0190506040518091039020604051808062003933602491396024019050604051809103902060405180807f7265766f6b654c69656e2875696e7432353629000000000000000000000000008152506013019050604051809103902060405180807f67657443757272656e744c69656e2875696e74323536290000000000000000008152506017019050604051809103902060405180807f7365744c69656e2875696e7432353629000000000000000000000000000000008152506010019050604051809103902060405180807f676574417070726f7665644c69656e2875696e743235362900000000000000008152506018019050604051809103902060405180807f617070726f76654c69656e28616464726573732c2075696e7432353629000000815250601d01905060405180910390206040518080620039aa602291396022019050604051809103902060405180807f736574417070726f76616c466f72416c6c28616464726573732c20626f6f6c298152506020019050604051809103902060405180807f676574417070726f766564466f72557365722875696e74323536290000000000815250601b019050604051809103902060405180807f617070726f7665466f725573657228616464726573732c2075696e74323536298152506020019050604051809103902060405180807f676574417070726f766564466f724f776e65722875696e743235362900000000815250601c019050604051809103902060405180806200395760219139602101905060405180910390206040518080620039786032913960320190506040518091039020604051808062003a2b602b9139602b01905060405180910390206040518080620039f860339139603301905060405180910390206040518080620039cc602c9139602c019050604051809103902060405180807f757365724f662875696e74323536290000000000000000000000000000000000815250600f019050604051809103902060405180807f6f776e65724f662875696e7432353629000000000000000000000000000000008152506010019050604051809103902060405180807f62616c616e63654f6655736572286164647265737329000000000000000000008152506016019050604051809103902060405180807f62616c616e63654f664f776e65722861646472657373290000000000000000008152506017019050604051809103902018181818181818181818181818181818181818181818186200072e60201b60201c565b81600990805190602001906200065892919062000837565b5080600a90805190602001906200067192919062000837565b506200072660405180807f6974656d5552492875696e7432353629000000000000000000000000000000008152506010019050604051809103902060405180807f73796d626f6c28290000000000000000000000000000000000000000000000008152506008019050604051809103902060405180807f6e616d65282900000000000000000000000000000000000000000000000000008152506006019050604051809103902018186200072e60201b60201c565b5050620008e6565b63ffffffff60e01b817bffffffffffffffffffffffffffffffffffffffffffffffffffffffff19161415620007cb576040517f08c379a000000000000000000000000000000000000000000000000000000000815260040180806020018281038252601c8152602001807f4552433136353a20696e76616c696420696e746572666163652069640000000081525060200191505060405180910390fd5b6001600080837bffffffffffffffffffffffffffffffffffffffffffffffffffffffff19167bffffffffffffffffffffffffffffffffffffffffffffffffffffffff1916815260200190815260200160002060006101000a81548160ff02191690831515021790555050565b828054600181600116156101000203166002900490600052602060002090601f016020900481019282601f106200087a57805160ff1916838001178555620008ab565b82800160010185558215620008ab579182015b82811115620008aa5782518255916020019190600101906200088d565b5b509050620008ba9190620008be565b5090565b620008e391905b80821115620008df576000816000905550600101620008c5565b5090565b90565b61303d80620008f66000396000f3fe608060405234801561001057600080fd5b50600436106101cf5760003560e01c80636494aa6211610104578063b6f0a834116100a2578063d872095a11610071578063d872095a14610c65578063e985e9c514610cd3578063ea4eb8f214610d4f578063ed7f723c14610dbd576101cf565b8063b6f0a83414610a2c578063c043f83c14610b31578063c2f1f14a14610b9f578063c66130d714610c0d576101cf565b806395d89b41116100de57806395d89b4114610884578063a22cb46514610907578063a9c7518614610957578063acb35dc714610985576101cf565b80636494aa62146107655780636c0360eb146107b35780637e8ca07914610836576101cf565b80633593d11b116101715780634cfd83be1161014b5780634cfd83be14610556578063578a930b1461065b57806362b21679146106895780636352211e146106f7576101cf565b80633593d11b1461046c5780633b58452e146104da5780634716472414610528576101cf565b80630dca1c89116101ad5780630dca1c89146102ea57806312cae7af146103585780631f11d46b146103b05780632afbf0191461041e576101cf565b806301ffc9a7146101d457806306fdde03146102395780630b20055e146102bc575b600080fd5b61021f600480360360208110156101ea57600080fd5b8101908080357bffffffffffffffffffffffffffffffffffffffffffffffffffffffff19169060200190929190505050610e2b565b604051808215151515815260200191505060405180910390f35b610241610e92565b6040518080602001828103825283818151815260200191508051906020019080838360005b83811015610281578082015181840152602081019050610266565b50505050905090810190601f1680156102ae5780820380516001836020036101000a031916815260200191505b509250505060405180910390f35b6102e8600480360360208110156102d257600080fd5b8101908080359060200190929190505050610f34565b005b6103166004803603602081101561030057600080fd5b8101908080359060200190929190505050611031565b604051808273ffffffffffffffffffffffffffffffffffffffff1673ffffffffffffffffffffffffffffffffffffffff16815260200191505060405180910390f35b61039a6004803603602081101561036e57600080fd5b81019080803573ffffffffffffffffffffffffffffffffffffffff169060200190929190505050611082565b6040518082815260200191505060405180910390f35b6103dc600480360360208110156103c657600080fd5b8101908080359060200190929190505050611123565b604051808273ffffffffffffffffffffffffffffffffffffffff1673ffffffffffffffffffffffffffffffffffffffff16815260200191505060405180910390f35b61046a6004803603604081101561043457600080fd5b81019080803573ffffffffffffffffffffffffffffffffffffffff16906020019092919080359060200190929190505050611174565b005b6104986004803603602081101561048257600080fd5b810190808035906020019092919050505061129e565b604051808273ffffffffffffffffffffffffffffffffffffffff1673ffffffffffffffffffffffffffffffffffffffff16815260200191505060405180910390f35b610526600480360360408110156104f057600080fd5b81019080803573ffffffffffffffffffffffffffffffffffffffff169060200190929190803590602001909291905050506112ef565b005b6105546004803603602081101561053e57600080fd5b8101908080359060200190929190505050611560565b005b6106596004803603608081101561056c57600080fd5b81019080803573ffffffffffffffffffffffffffffffffffffffff169060200190929190803573ffffffffffffffffffffffffffffffffffffffff16906020019092919080359060200190929190803590602001906401000000008111156105d357600080fd5b8201836020820111156105e557600080fd5b8035906020019184600183028401116401000000008311171561060757600080fd5b91908080601f016020809104026020016040519081016040528093929190818152602001838380828437600081840152601f19601f820116905080830192505050505050509192919290505050611652565b005b6106876004803603602081101561067157600080fd5b810190808035906020019092919050505061167b565b005b6106b56004803603602081101561069f57600080fd5b8101908080359060200190929190505050611766565b604051808273ffffffffffffffffffffffffffffffffffffffff1673ffffffffffffffffffffffffffffffffffffffff16815260200191505060405180910390f35b6107236004803603602081101561070d57600080fd5b81019080803590602001909291905050506117c9565b604051808273ffffffffffffffffffffffffffffffffffffffff1673ffffffffffffffffffffffffffffffffffffffff16815260200191505060405180910390f35b6107b16004803603604081101561077b57600080fd5b81019080803573ffffffffffffffffffffffffffffffffffffffff16906020019092919080359060200190929190505050611857565b005b6107bb6119b4565b6040518080602001828103825283818151815260200191508051906020019080838360005b838110156107fb5780820151818401526020810190506107e0565b50505050905090810190601f1680156108285780820380516001836020036101000a031916815260200191505b509250505060405180910390f35b6108826004803603604081101561084c57600080fd5b81019080803573ffffffffffffffffffffffffffffffffffffffff16906020019092919080359060200190929190505050611a56565b005b61088c611b80565b6040518080602001828103825283818151815260200191508051906020019080838360005b838110156108cc5780820151818401526020810190506108b1565b50505050905090810190601f1680156108f95780820380516001836020036101000a031916815260200191505b509250505060405180910390f35b6109556004803603604081101561091d57600080fd5b81019080803573ffffffffffffffffffffffffffffffffffffffff169060200190929190803515159060200190929190505050611c22565b005b6109836004803603602081101561096d57600080fd5b8101908080359060200190929190505050611d5c565b005b6109b16004803603602081101561099b57600080fd5b8101908080359060200190929190505050611e47565b6040518080602001828103825283818151815260200191508051906020019080838360005b838110156109f15780820151818401526020810190506109d6565b50505050905090810190601f168015610a1e5780820380516001836020036101000a031916815260200191505b509250505060405180910390f35b610b2f60048036036080811015610a4257600080fd5b81019080803573ffffffffffffffffffffffffffffffffffffffff169060200190929190803573ffffffffffffffffffffffffffffffffffffffff1690602001909291908035906020019092919080359060200190640100000000811115610aa957600080fd5b820183602082011115610abb57600080fd5b80359060200191846001830284011164010000000083111715610add57600080fd5b91908080601f016020809104026020016040519081016040528093929190818152602001838380828437600081840152601f19601f820116905080830192505050505050509192919290505050612068565b005b610b5d60048036036020811015610b4757600080fd5b8101908080359060200190929190505050612091565b604051808273ffffffffffffffffffffffffffffffffffffffff1673ffffffffffffffffffffffffffffffffffffffff16815260200191505060405180910390f35b610bcb60048036036020811015610bb557600080fd5b81019080803590602001909291905050506120e2565b604051808273ffffffffffffffffffffffffffffffffffffffff1673ffffffffffffffffffffffffffffffffffffffff16815260200191505060405180910390f35b610c4f60048036036020811015610c2357600080fd5b81019080803573ffffffffffffffffffffffffffffffffffffffff169060200190929190505050612170565b6040518082815260200191505060405180910390f35b610cd160048036036060811015610c7b57600080fd5b81019080803573ffffffffffffffffffffffffffffffffffffffff169060200190929190803573ffffffffffffffffffffffffffffffffffffffff16906020019092919080359060200190929190505050612211565b005b610d3560048036036040811015610ce957600080fd5b81019080803573ffffffffffffffffffffffffffffffffffffffff169060200190929190803573ffffffffffffffffffffffffffffffffffffffff169060200190929190505050612231565b604051808215151515815260200191505060405180910390f35b610d7b60048036036020811015610d6557600080fd5b81019080803590602001909291905050506122c5565b604051808273ffffffffffffffffffffffffffffffffffffffff1673ffffffffffffffffffffffffffffffffffffffff16815260200191505060405180910390f35b610e2960048036036060811015610dd357600080fd5b81019080803573ffffffffffffffffffffffffffffffffffffffff169060200190929190803573ffffffffffffffffffffffffffffffffffffffff16906020019092919080359060200190929190505050612391565b005b6000806000837bffffffffffffffffffffffffffffffffffffffffffffffffffffffff19167bffffffffffffffffffffffffffffffffffffffffffffffffffffffff1916815260200190815260200160002060009054906101000a900460ff169050919050565b606060098054600181600116156101000203166002900480601f016020809104026020016040519081016040528092919081815260200182805460018160011615610100020316600290048015610f2a5780601f10610eff57610100808354040283529160200191610f2a565b820191906000526020600020905b815481529060010190602001808311610f0d57829003601f168201915b5050505050905090565b610f3d81612091565b73ffffffffffffffffffffffffffffffffffffffff163373ffffffffffffffffffffffffffffffffffffffff1614610f7457600080fd5b336008600083815260200190815260200160002060006101000a81548173ffffffffffffffffffffffffffffffffffffffff021916908373ffffffffffffffffffffffffffffffffffffffff160217905550610fcf816123b1565b610fda81600161246f565b803373ffffffffffffffffffffffffffffffffffffffff167f61f383bb3b27cd35ab1b0353eff732709f4d8c7ba28da80d9f11f58d6ab2c4776001604051808215151515815260200191505060405180910390a350565b600061103e826002612550565b61104757600080fd5b6008600083815260200190815260200160002060009054906101000a900473ffffffffffffffffffffffffffffffffffffffff169050919050565b60008073ffffffffffffffffffffffffffffffffffffffff168273ffffffffffffffffffffffffffffffffffffffff1614156110bd57600080fd5b6000611118600360008573ffffffffffffffffffffffffffffffffffffffff1673ffffffffffffffffffffffffffffffffffffffff1681526020019081526020016000206000600181526020019081526020016000206125d4565b905080915050919050565b6000611130826002612550565b61113957600080fd5b6005600083815260200190815260200160002060009054906101000a900473ffffffffffffffffffffffffffffffffffffffff169050919050565b600061117f826117c9565b90508073ffffffffffffffffffffffffffffffffffffffff168373ffffffffffffffffffffffffffffffffffffffff1614156111ba57600080fd5b8073ffffffffffffffffffffffffffffffffffffffff163373ffffffffffffffffffffffffffffffffffffffff1614806111fa57506111f98133612231565b5b61120357600080fd5b826007600084815260200190815260200160002060006101000a81548173ffffffffffffffffffffffffffffffffffffffff021916908373ffffffffffffffffffffffffffffffffffffffff160217905550818373ffffffffffffffffffffffffffffffffffffffff167f0c884ec16d4df04dda9d6b34c3952b016f96ebc493dfa60c89ad5edd81d4fb0b60405160405180910390a3505050565b60006112ab826002612550565b6112b457600080fd5b6006600083815260200190815260200160002060009054906101000a900473ffffffffffffffffffffffffffffffffffffffff169050919050565b60006112fa826120e2565b90506000611307836117c9565b90508073ffffffffffffffffffffffffffffffffffffffff168473ffffffffffffffffffffffffffffffffffffffff161415801561137157508173ffffffffffffffffffffffffffffffffffffffff168473ffffffffffffffffffffffffffffffffffffffff1614155b61137a57600080fd5b8173ffffffffffffffffffffffffffffffffffffffff163373ffffffffffffffffffffffffffffffffffffffff1614806113df57508073ffffffffffffffffffffffffffffffffffffffff163373ffffffffffffffffffffffffffffffffffffffff16145b806113f057506113ef8233612231565b5b8061140157506114008133612231565b5b61140a57600080fd5b8073ffffffffffffffffffffffffffffffffffffffff163373ffffffffffffffffffffffffffffffffffffffff16148061144a57506114498133612231565b5b1561149157600073ffffffffffffffffffffffffffffffffffffffff1661147084611031565b73ffffffffffffffffffffffffffffffffffffffff161461149057600080fd5b5b836002600085815260200190815260200160002060006001815260200190815260200160002060006101000a81548173ffffffffffffffffffffffffffffffffffffffff021916908373ffffffffffffffffffffffffffffffffffffffff1602179055508373ffffffffffffffffffffffffffffffffffffffff168273ffffffffffffffffffffffffffffffffffffffff167fa09bf3dd3238f9ce83e7feb7735fc7c137f90979b5aae4f7f01ae73b24181570856040518082815260200191505060405180910390a350505050565b61156981611123565b73ffffffffffffffffffffffffffffffffffffffff163373ffffffffffffffffffffffffffffffffffffffff16146115a057600080fd5b336006600083815260200190815260200160002060006101000a81548173ffffffffffffffffffffffffffffffffffffffff021916908373ffffffffffffffffffffffffffffffffffffffff1602179055506115fb816125e2565b803373ffffffffffffffffffffffffffffffffffffffff167f697a63882786c4e4b3b3cc495872d3d6e9e7953336ac7d30cf6207086274bdd36001604051808215151515815260200191505060405180910390a350565b61165e338360016126a0565b61166757600080fd5b611675848484600185612963565b50505050565b6116848161129e565b73ffffffffffffffffffffffffffffffffffffffff163373ffffffffffffffffffffffffffffffffffffffff16146116bb57600080fd5b60006006600083815260200190815260200160002060006101000a81548173ffffffffffffffffffffffffffffffffffffffff021916908373ffffffffffffffffffffffffffffffffffffffff16021790555080600073ffffffffffffffffffffffffffffffffffffffff167f697a63882786c4e4b3b3cc495872d3d6e9e7953336ac7d30cf6207086274bdd36000604051808215151515815260200191505060405180910390a350565b6000611773826001612550565b61177c57600080fd5b6002600083815260200190815260200160002060006001815260200190815260200160002060009054906101000a900473ffffffffffffffffffffffffffffffffffffffff169050919050565b6000806001600084815260200190815260200160002060006002815260200190815260200160002060009054906101000a900473ffffffffffffffffffffffffffffffffffffffff169050600073ffffffffffffffffffffffffffffffffffffffff168173ffffffffffffffffffffffffffffffffffffffff16141561184e57600080fd5b80915050919050565b6000611862826117c9565b90508073ffffffffffffffffffffffffffffffffffffffff168373ffffffffffffffffffffffffffffffffffffffff16141561189d57600080fd5b8073ffffffffffffffffffffffffffffffffffffffff163373ffffffffffffffffffffffffffffffffffffffff1614806118dd57506118dc8133612231565b5b6118e657600080fd5b826002600084815260200190815260200160002060006002815260200190815260200160002060006101000a81548173ffffffffffffffffffffffffffffffffffffffff021916908373ffffffffffffffffffffffffffffffffffffffff1602179055508273ffffffffffffffffffffffffffffffffffffffff168173ffffffffffffffffffffffffffffffffffffffff167f14ecf0643b070217924915201071c2f1842b5a0448d350f34dbbfe23616e07f3846040518082815260200191505060405180910390a3505050565b6060600b8054600181600116156101000203166002900480601f016020809104026020016040519081016040528092919081815260200182805460018160011615610100020316600290048015611a4c5780601f10611a2157610100808354040283529160200191611a4c565b820191906000526020600020905b815481529060010190602001808311611a2f57829003601f168201915b5050505050905090565b6000611a61826117c9565b90508073ffffffffffffffffffffffffffffffffffffffff168373ffffffffffffffffffffffffffffffffffffffff161415611a9c57600080fd5b8073ffffffffffffffffffffffffffffffffffffffff163373ffffffffffffffffffffffffffffffffffffffff161480611adc5750611adb8133612231565b5b611ae557600080fd5b826005600084815260200190815260200160002060006101000a81548173ffffffffffffffffffffffffffffffffffffffff021916908373ffffffffffffffffffffffffffffffffffffffff160217905550818373ffffffffffffffffffffffffffffffffffffffff167f1ce7b0eca78337592451ad94da2c4fab6d3ef935144d93c358e1b2dd1b07871460405160405180910390a3505050565b6060600a8054600181600116156101000203166002900480601f016020809104026020016040519081016040528092919081815260200182805460018160011615610100020316600290048015611c185780601f10611bed57610100808354040283529160200191611c18565b820191906000526020600020905b815481529060010190602001808311611bfb57829003601f168201915b5050505050905090565b3373ffffffffffffffffffffffffffffffffffffffff168273ffffffffffffffffffffffffffffffffffffffff161415611c5b57600080fd5b80600460003373ffffffffffffffffffffffffffffffffffffffff1673ffffffffffffffffffffffffffffffffffffffff16815260200190815260200160002060008473ffffffffffffffffffffffffffffffffffffffff1673ffffffffffffffffffffffffffffffffffffffff16815260200190815260200160002060006101000a81548160ff0219169083151502179055508173ffffffffffffffffffffffffffffffffffffffff163373ffffffffffffffffffffffffffffffffffffffff167f17307eab39ab6107e8899845ad3d59bd9653f200f220920489ca2b5937696c3183604051808215151515815260200191505060405180910390a35050565b611d6581611031565b73ffffffffffffffffffffffffffffffffffffffff163373ffffffffffffffffffffffffffffffffffffffff1614611d9c57600080fd5b60006008600083815260200190815260200160002060006101000a81548173ffffffffffffffffffffffffffffffffffffffff021916908373ffffffffffffffffffffffffffffffffffffffff16021790555080600073ffffffffffffffffffffffffffffffffffffffff167f61f383bb3b27cd35ab1b0353eff732709f4d8c7ba28da80d9f11f58d6ab2c4776000604051808215151515815260200191505060405180910390a350565b6060611e54826001612550565b611ec6576040517f08c379a000000000000000000000000000000000000000000000000000000000815260040180806020018281038252601e8152602001807f55524920717565727920666f72206e6f6e6578697374656e74206974656d000081525060200191505060405180910390fd5b6060600c60008481526020019081526020016000208054600181600116156101000203166002900480601f016020809104026020016040519081016040528092919081815260200182805460018160011615610100020316600290048015611f6f5780601f10611f4457610100808354040283529160200191611f6f565b820191906000526020600020905b815481529060010190602001808311611f5257829003601f168201915b50505050509050600081511415611f985760405180602001604052806000815250915050612063565b600b816040516020018083805460018160011615610100020316600290048015611ff95780601f10611fd7576101008083540402835291820191611ff9565b820191906000526020600020905b815481529060010190602001808311611fe5575b505082805190602001908083835b6020831061202a5780518252602082019150602081019050602083039250612007565b6001836020036101000a038019825116818451168082178552505050505050905001925050506040516020818303038152906040529150505b919050565b612074338360026126a0565b61207d57600080fd5b61208b848484600285612963565b50505050565b600061209e826002612550565b6120a757600080fd5b6007600083815260200190815260200160002060009054906101000a900473ffffffffffffffffffffffffffffffffffffffff169050919050565b6000806001600084815260200190815260200160002060006001815260200190815260200160002060009054906101000a900473ffffffffffffffffffffffffffffffffffffffff169050600073ffffffffffffffffffffffffffffffffffffffff168173ffffffffffffffffffffffffffffffffffffffff16141561216757600080fd5b80915050919050565b60008073ffffffffffffffffffffffffffffffffffffffff168273ffffffffffffffffffffffffffffffffffffffff1614156121ab57600080fd5b6000612206600360008573ffffffffffffffffffffffffffffffffffffffff1673ffffffffffffffffffffffffffffffffffffffff1681526020019081526020016000206000600281526020019081526020016000206125d4565b905080915050919050565b61222c83838360405180602001604052806000815250611652565b505050565b6000600460008473ffffffffffffffffffffffffffffffffffffffff1673ffffffffffffffffffffffffffffffffffffffff16815260200190815260200160002060008373ffffffffffffffffffffffffffffffffffffffff1673ffffffffffffffffffffffffffffffffffffffff16815260200190815260200160002060009054906101000a900460ff16905092915050565b60006122d2826002612550565b612344576040517f08c379a00000000000000000000000000000000000000000000000000000000081526004018080602001828103825260158152602001807f6e6f206f776e657220617070726f76616c20736574000000000000000000000081525060200191505060405180910390fd5b6002600083815260200190815260200160002060006002815260200190815260200160002060009054906101000a900473ffffffffffffffffffffffffffffffffffffffff169050919050565b6123ac83838360405180602001604052806000815250612068565b505050565b600073ffffffffffffffffffffffffffffffffffffffff166007600083815260200190815260200160002060009054906101000a900473ffffffffffffffffffffffffffffffffffffffff1673ffffffffffffffffffffffffffffffffffffffff161461246c5760006007600083815260200190815260200160002060006101000a81548173ffffffffffffffffffffffffffffffffffffffff021916908373ffffffffffffffffffffffffffffffffffffffff1602179055505b50565b600073ffffffffffffffffffffffffffffffffffffffff1660026000848152602001908152602001600020600083815260200190815260200160002060009054906101000a900473ffffffffffffffffffffffffffffffffffffffff1673ffffffffffffffffffffffffffffffffffffffff161461254c57600060026000848152602001908152602001600020600083815260200190815260200160002060006101000a81548173ffffffffffffffffffffffffffffffffffffffff021916908373ffffffffffffffffffffffffffffffffffffffff1602179055505b5050565b60008060016000858152602001908152602001600020600084815260200190815260200160002060009054906101000a900473ffffffffffffffffffffffffffffffffffffffff169050600073ffffffffffffffffffffffffffffffffffffffff168173ffffffffffffffffffffffffffffffffffffffff16141591505092915050565b600081600001549050919050565b600073ffffffffffffffffffffffffffffffffffffffff166005600083815260200190815260200160002060009054906101000a900473ffffffffffffffffffffffffffffffffffffffff1673ffffffffffffffffffffffffffffffffffffffff161461269d5760006005600083815260200190815260200160002060006101000a81548173ffffffffffffffffffffffffffffffffffffffff021916908373ffffffffffffffffffffffffffffffffffffffff1602179055505b50565b60006126ac8383612550565b6126b557600080fd5b60018214156128765760006126c9846120e2565b905060006126d6856117c9565b90508173ffffffffffffffffffffffffffffffffffffffff168673ffffffffffffffffffffffffffffffffffffffff16148061273d57508073ffffffffffffffffffffffffffffffffffffffff168673ffffffffffffffffffffffffffffffffffffffff16145b8061274e575061274d8287612231565b5b8061275f575061275e8187612231565b5b8061279d575061276e85611766565b73ffffffffffffffffffffffffffffffffffffffff168673ffffffffffffffffffffffffffffffffffffffff16145b806127db57506127ac8561129e565b73ffffffffffffffffffffffffffffffffffffffff168673ffffffffffffffffffffffffffffffffffffffff16145b6127e457600080fd5b8073ffffffffffffffffffffffffffffffffffffffff168673ffffffffffffffffffffffffffffffffffffffff16148061282457506128238187612231565b5b1561286b57600073ffffffffffffffffffffffffffffffffffffffff1661284a86611031565b73ffffffffffffffffffffffffffffffffffffffff161461286a57600080fd5b5b60019250505061295c565b600282141561295b57600061288a846117c9565b90508073ffffffffffffffffffffffffffffffffffffffff168573ffffffffffffffffffffffffffffffffffffffff1614806128cc57506128cb8186612231565b5b8061290a57506128db846122c5565b73ffffffffffffffffffffffffffffffffffffffff168573ffffffffffffffffffffffffffffffffffffffff16145b8061294857506129198461129e565b73ffffffffffffffffffffffffffffffffffffffff168573ffffffffffffffffffffffffffffffffffffffff16145b61295157600080fd5b600191505061295c565b5b9392505050565b61296f858585856129d8565b61297c8585858585612d13565b6129d1576040517f08c379a000000000000000000000000000000000000000000000000000000000815260040180806020018281038252602e815260200180612fdb602e913960400191505060405180910390fd5b5050505050565b6001811415612a26578373ffffffffffffffffffffffffffffffffffffffff16612a01836120e2565b73ffffffffffffffffffffffffffffffffffffffff1614612a2157600080fd5b612a67565b8373ffffffffffffffffffffffffffffffffffffffff16612a46836117c9565b73ffffffffffffffffffffffffffffffffffffffff1614612a6657600080fd5b5b600073ffffffffffffffffffffffffffffffffffffffff168373ffffffffffffffffffffffffffffffffffffffff161415612aa157600080fd5b612aab828261246f565b6002811415612ac757612abd826125e2565b612ac6826123b1565b5b612b1f600360008673ffffffffffffffffffffffffffffffffffffffff1673ffffffffffffffffffffffffffffffffffffffff1681526020019081526020016000206000838152602001908152602001600020612f05565b612b77600360008573ffffffffffffffffffffffffffffffffffffffff1673ffffffffffffffffffffffffffffffffffffffff1681526020019081526020016000206000838152602001908152602001600020612f28565b8260016000848152602001908152602001600020600083815260200190815260200160002060006101000a81548173ffffffffffffffffffffffffffffffffffffffff021916908373ffffffffffffffffffffffffffffffffffffffff1602179055506001811415612c7a57818373ffffffffffffffffffffffffffffffffffffffff168573ffffffffffffffffffffffffffffffffffffffff167f65f4ec73ce02035b6afc3f2f2125216c5138cd9067bce6ebbdc3b84816fd13ed33604051808273ffffffffffffffffffffffffffffffffffffffff1673ffffffffffffffffffffffffffffffffffffffff16815260200191505060405180910390a4612d0d565b818373ffffffffffffffffffffffffffffffffffffffff168573ffffffffffffffffffffffffffffffffffffffff167fcb841bc9006096b45791cffe31afee827510e6dc0a8381bdbc047d6ab332960133604051808273ffffffffffffffffffffffffffffffffffffffff1673ffffffffffffffffffffffffffffffffffffffff16815260200191505060405180910390a45b50505050565b6000612d348573ffffffffffffffffffffffffffffffffffffffff16612f3e565b612d415760019050612efc565b60008573ffffffffffffffffffffffffffffffffffffffff16631c14516233898888886040518663ffffffff1660e01b8152600401808673ffffffffffffffffffffffffffffffffffffffff1673ffffffffffffffffffffffffffffffffffffffff1681526020018573ffffffffffffffffffffffffffffffffffffffff1673ffffffffffffffffffffffffffffffffffffffff16815260200184815260200183815260200180602001828103825283818151815260200191508051906020019080838360005b83811015612e23578082015181840152602081019050612e08565b50505050905090810190601f168015612e505780820380516001836020036101000a031916815260200191505b509650505050505050602060405180830381600087803b158015612e7357600080fd5b505af1158015612e87573d6000803e3d6000fd5b505050506040513d6020811015612e9d57600080fd5b81019080805190602001909291905050509050631111111160e01b7bffffffffffffffffffffffffffffffffffffffffffffffffffffffff1916817bffffffffffffffffffffffffffffffffffffffffffffffffffffffff1916149150505b95945050505050565b612f1d60018260000154612f5190919063ffffffff16565b816000018190555050565b6001816000016000828254019250508190555050565b600080823b905060008111915050919050565b600082821115612fc9576040517f08c379a000000000000000000000000000000000000000000000000000000000815260040180806020018281038252601e8152602001807f536166654d6174683a207375627472616374696f6e206f766572666c6f77000081525060200191505060405180910390fd5b60008284039050809150509291505056fe455243583a207472616e7366657220746f206e6f6e2045524358526563656976657220696d706c656d656e746572a265627a7a723158209c8c78cc62e4070287304777d8ad44709cb38742befbcbcdd275d76b19d5caf964736f6c63430005100032617070726f766554656e616e74526967687428616464726573732c2075696e7432353629617070726f7665466f724f776e657228616464726573732c2075696e7432353629736166655472616e736665725573657228616464726573732c20616464726573732c2075696e743235362c206279746573296973417070726f766564466f72416c6c28616464726573732c206164647265737329736166655472616e736665724f776e657228616464726573732c20616464726573732c2075696e7432353629736166655472616e736665724f776e657228616464726573732c20616464726573732c2075696e743235362c20627974657329736166655472616e736665725573657228616464726573732c20616464726573732c2075696e7432353629",
  "source": "pragma solidity ^0.5.0;\n\nimport './ERCX.sol';\nimport '../Interface/IERCXMetadata.sol';\n\ncontract ERCXMetadata is ERC165, ERCX, IERCXMetadata {\n  // item name\n  string internal _name;\n\n  // item symbol\n  string internal _symbol;\n\n  // Base URI\n  string private _baseURI;\n\n  // Optional mapping for item URIs\n  mapping(uint256 => string) private _itemURIs;\n\n  bytes4 private constant InterfaceId_ERCXMetadata =\n    bytes4(keccak256('name()')) ^\n    bytes4(keccak256('symbol()')) ^\n    bytes4(keccak256('itemURI(uint256)'));\n\n  /**\n   * @dev Constructor function\n   */\n  constructor(string memory name, string memory symbol) public {\n    _name = name;\n    _symbol = symbol;\n\n    // register the supported interfaces to conform to ERCX via ERC165\n    _registerInterface(InterfaceId_ERCXMetadata);\n  }\n\n  /**\n   * @dev Gets the item name\n   * @return string representing the item name\n   */\n  function name() external view returns (string memory) {\n    return _name;\n  }\n\n  /**\n   * @dev Gets the item symbol\n   * @return string representing the item symbol\n   */\n  function symbol() external view returns (string memory) {\n    return _symbol;\n  }\n\n  /**\n   * @dev Returns an URI for a given item ID\n   * Throws if the item ID does not exist. May return an empty string.\n   * @param itemId uint256 ID of the item to query\n   */\n  function itemURI(uint256 itemId) public view returns (string memory) {\n    require(\n      _exists(itemId,1),\n      \"URI query for nonexistent item\");\n\n    string memory _itemURI = _itemURIs[itemId];\n\n    // Even if there is a base URI, it is only appended to non-empty item-specific URIs\n    if (bytes(_itemURI).length == 0) {\n        return \"\";\n    } else {\n        // abi.encodePacked is being used to concatenate strings\n        return string(abi.encodePacked(_baseURI, _itemURI));\n    }\n\n  }\n\n  /**\n  * @dev Returns the base URI set via {_setBaseURI}. This will be\n  * automatically added as a preffix in {itemURI} to each item's URI, when\n  * they are non-empty.\n  */\n  function baseURI() external view returns (string memory) {\n      return _baseURI;\n  }\n\n  /**\n   * @dev Internal function to set the item URI for a given item\n   * Reverts if the item ID does not exist\n   * @param itemId uint256 ID of the item to set its URI\n   * @param uri string URI to assign\n   */\n  function _setItemURI(uint256 itemId, string memory uri) internal {\n    require(_exists(itemId,1));\n    _itemURIs[itemId] = uri;\n  }\n\n  /**\n    * @dev Internal function to set the base URI for all item IDs. It is\n    * automatically added as a prefix to the value returned in {itemURI}.\n    *\n    * _Available since v2.5.0._\n    */\n  function _setBaseURI(string memory baseUri) internal {\n      _baseURI = baseUri;\n  }\n\n  /**\n   * @dev Internal function to burn a specific item\n   * Reverts if the item does not exist\n   * @param itemId uint256 ID of the item being burned by the msg.sender\n   */\n  function _burn(uint256 itemId) internal {\n    super._burn(itemId);\n\n    // Clear metadata (if any)\n    if (bytes(_itemURIs[itemId]).length != 0) {\n      delete _itemURIs[itemId];\n    }\n\n  }\n}\n\n\n\n\n",
  "sourcePath": "/home/bitnami/BLK_Micro/dApp-nodeJS-webpack/app/contracts/ERCX/Contract/ERCXMetadata.sol",
  "compiler": {
    "name": "solc",
    "version": "0.5.16+commit.9c3226ce.Emscripten.clang"
  },
  "schemaVersion": "3.4.4",
  "updatedAt": "2022-01-15T03:42:33.630Z",
  "devdoc": {
    "methods": {
      "approveForOwner(address,uint256)": {
        "details": "Approves another address to transfer the owner of the given item ID The zero address indicates there is no approved address. There can only be one approved address per item at a given time. Can only be called by the item owner or an approved operator.",
        "params": {
          "itemId": "uint256 ID of the item to be approved",
          "to": "address to be approved for the given item ID"
        }
      },
      "approveForUser(address,uint256)": {
        "details": "Approves another address to transfer the user of the given item ID The zero address indicates there is no approved address. There can only be one approved address per item at a given time. Can only be called by the item owner or an approved operator.",
        "params": {
          "to": "address to be approved for the given item ID"
        }
      },
      "approveLien(address,uint256)": {
        "details": "Approves another address to set lien contract for the given item ID The zero address indicates there is no approved address. There can only be one approved address per item at a given time. Can only be called by the item owner or an approved operator.",
        "params": {
          "itemId": "uint256 ID of the item to be approved",
          "to": "address to be approved for the given item ID"
        }
      },
      "approveTenantRight(address,uint256)": {
        "details": "Approves another address to set tenant right agreement for the given item ID The zero address indicates there is no approved address. There can only be one approved address per item at a given time. Can only be called by the item owner or an approved operator.",
        "params": {
          "itemId": "uint256 ID of the item to be approved",
          "to": "address to be approved for the given item ID"
        }
      },
      "balanceOfOwner(address)": {
        "details": "Gets the balance of the specified address",
        "params": {
          "owner": "address to query the balance of"
        },
        "return": "uint256 representing the amount of items owned by the passed address in the specified layer"
      },
      "balanceOfUser(address)": {
        "details": "Gets the balance of the specified address",
        "params": {
          "user": "address to query the balance of"
        },
        "return": "uint256 representing the amount of items owned by the passed address"
      },
      "baseURI()": {
        "details": "Returns the base URI set via {_setBaseURI}. This will be automatically added as a preffix in {itemURI} to each item's URI, when they are non-empty."
      },
      "constructor": {
        "details": "Constructor function"
      },
      "getApprovedForOwner(uint256)": {
        "details": "Gets the approved address for the of the item ID, or zero if no address set Reverts if the item ID does not exist.",
        "params": {
          "itemId": "uint256 ID of the item to query the approval o"
        },
        "return": "address currently approved for the given item ID"
      },
      "getApprovedForUser(uint256)": {
        "details": "Gets the approved address for the user of the item ID, or zero if no address set Reverts if the item ID does not exist.",
        "params": {
          "itemId": "uint256 ID of the item to query the approval of"
        },
        "return": "address currently approved for the given item ID"
      },
      "getApprovedLien(uint256)": {
        "details": "Gets the approved address for setting lien for a item ID, or zero if no address set Reverts if the item ID does not exist.",
        "params": {
          "itemId": "uint256 ID of the item to query the approval of"
        },
        "return": "address currently approved for the given item ID"
      },
      "getApprovedTenantRight(uint256)": {
        "details": "Gets the approved address for setting tenant right for a item ID, or zero if no address set Reverts if the item ID does not exist.",
        "params": {
          "itemId": "uint256 ID of the item to query the approval of"
        },
        "return": "address currently approved for the given item ID"
      },
      "getCurrentLien(uint256)": {
        "details": "Gets the current lien agreement address, or zero if no address set Reverts if the item ID does not exist.",
        "params": {
          "itemId": "uint256 ID of the item to query the lien address"
        },
        "return": "address of the lien agreement address for the given item ID"
      },
      "getCurrentTenantRight(uint256)": {
        "details": "Gets the current tenant right agreement address, or zero if no address set Reverts if the item ID does not exist.",
        "params": {
          "itemId": "uint256 ID of the item to query the tenant right address"
        },
        "return": "address of the tenant right agreement address for the given item ID"
      },
      "isApprovedForAll(address,address)": {
        "details": "Tells whether an operator is approved by a given owner",
        "params": {
          "operator": "operator address which you want to query the approval of",
          "owner": "owner address which you want to query the approval of"
        },
        "return": "bool whether the given operator is approved by the given owner"
      },
      "itemURI(uint256)": {
        "details": "Returns an URI for a given item ID Throws if the item ID does not exist. May return an empty string.",
        "params": {
          "itemId": "uint256 ID of the item to query"
        }
      },
      "name()": {
        "details": "Gets the item name",
        "return": "string representing the item name"
      },
      "ownerOf(uint256)": {
        "details": "Gets the owner of the specified item ID",
        "params": {
          "itemId": "uint256 ID of the item to query the owner of"
        },
        "return": "owner address currently marked as the owner of the given item ID"
      },
      "revokeLien(uint256)": {
        "details": "Revoke the lien agreements. Only the lien address can revoke.",
        "params": {
          "itemId": "uint256 ID of the item"
        }
      },
      "revokeTenantRight(uint256)": {
        "details": "Revoke the tenant right agreement. Only the lien address can revoke.",
        "params": {
          "itemId": "uint256 ID of the item"
        }
      },
      "safeTransferOwner(address,address,uint256)": {
        "details": "Safely transfers the ownership of a given item ID to another address If the target address is a contract, it must implement `onERCXReceived`, which is called upon a safe transfer, and return the magic value `bytes4(keccak256(\"onERCXReceived(address,address,uint256,bytes)\"))`; otherwise, the transfer is reverted.   * Requires the msg sender to be the owner, approved, or operator",
        "params": {
          "from": "current owner of the item",
          "itemId": "uint256 ID of the item to be transferred",
          "to": "address to receive the ownership of the given item ID"
        }
      },
      "safeTransferOwner(address,address,uint256,bytes)": {
        "details": "Safely transfers the ownership of a given item ID to another address If the target address is a contract, it must implement `onERCXReceived`, which is called upon a safe transfer, and return the magic value `bytes4(keccak256(\"onERCXReceived(address,address,uint256,bytes)\"))`; otherwise, the transfer is reverted. Requires the msg sender to be the owner, approved, or operator",
        "params": {
          "data": "bytes data to send along with a safe transfer check",
          "from": "current owner of the item",
          "itemId": "uint256 ID of the item to be transferred",
          "to": "address to receive the ownership of the given item ID"
        }
      },
      "safeTransferUser(address,address,uint256)": {
        "details": "Safely transfers the user of a given item ID to another address If the target address is a contract, it must implement `onERCXReceived`, which is called upon a safe transfer, and return the magic value `bytes4(keccak256(\"onERCXReceived(address,address,uint256,bytes)\"))`; otherwise, the transfer is reverted.   * Requires the msg sender to be the owner, approved, or operator",
        "params": {
          "from": "current owner of the item",
          "itemId": "uint256 ID of the item to be transferred",
          "to": "address to receive the ownership of the given item ID"
        }
      },
      "safeTransferUser(address,address,uint256,bytes)": {
        "details": "Safely transfers the user of a given item ID to another address If the target address is a contract, it must implement `onERCXReceived`, which is called upon a safe transfer, and return the magic value `bytes4(keccak256(\"onERCXReceived(address,address,uint256,bytes)\"))`; otherwise, the transfer is reverted. Requires the msg sender to be the owner, approved, or operator",
        "params": {
          "data": "bytes data to send along with a safe transfer check",
          "from": "current owner of the item",
          "itemId": "uint256 ID of the item to be transferred",
          "to": "address to receive the ownership of the given item ID"
        }
      },
      "setApprovalForAll(address,bool)": {
        "details": "Sets or unsets the approval of a given operator An operator is allowed to transfer all items of the sender on their behalf",
        "params": {
          "approved": "representing the status of the approval to be set",
          "to": "operator address to set the approval"
        }
      },
      "setLien(uint256)": {
        "details": "Sets lien agreements to already approved address The lien address is allowed to transfer all items of the sender on their behalf",
        "params": {
          "itemId": "uint256 ID of the item"
        }
      },
      "setTenantRight(uint256)": {
        "details": "Sets the tenant right agreement to already approved address The lien address is allowed to transfer all items of the sender on their behalf",
        "params": {
          "itemId": "uint256 ID of the item"
        }
      },
      "supportsInterface(bytes4)": {
        "details": "See `IERC165.supportsInterface`.     * Time complexity O(1), guaranteed to always use less than 30 000 gas."
      },
      "symbol()": {
        "details": "Gets the item symbol",
        "return": "string representing the item symbol"
      },
      "userOf(uint256)": {
        "details": "Gets the user of the specified item ID",
        "params": {
          "itemId": "uint256 ID of the item to query the user of"
        },
        "return": "owner address currently marked as the owner of the given item ID"
      }
    }
  },
  "userdoc": {
    "methods": {}
  }
}